:100000000C94D6170C9407180C9407180C94071826
:100010000C9407180C9407180C9407180C940718E4
:100020000C9407180C9407180C9407180C940718D4
:100030000C9407180C9407180C9407180D948F064D
:100040000C9407180C9407180C9407180C940718B4
:100050000C9407180C9407180D948B0C0D94854381
:100060000C9407180D949C450D9472450C94071838
:100070000C9407180C9407180C9407180C94071884
:100080000D94157D0C9407180C9407180C94071800
:100090000D943C450D9412450C9407180C940718C8
:1000A0000C9407180C9407180C9407180C94071854
:1000B0000C9407180C9407180C9407180C94071844
:1000C0000C9407180C9407180C9407180D94DC4432
:1000D0000D94B2440C9407180C9407180C9407184C
:1000E0000C9407181F5E3C628230462EB95B65296E
:1000F000805F7B293C623C623C5ABA2957293C62AA
:10010000F226E7263C62673A3C623C62755A8B5F96
:1001100034414A41604176410E428C41BB5F2641E9
:10012000EC43265EB43AA53AA241B641D05A7029B2
:1001300068275729262E9F3C3E2E3D5FD34F362EF3
:100140002E2E5E5FBB5D3C627430365F525A463D78
:1001500083291327FD263C62FD5A942AD03A3C623B
:100160000B5FDF5E13497932FF28244DB437C33A61
:100170007D323C627C5E355E40302A312A31063168
:1001800081328533322CD329EC29C630E830DC2685
:1001900008273C623C625729BA30A62CC82C192A81
:1001A000443C243C3C62BB5FBB5FA75D875BBB5F9D
:1001B000BB5FE154085DDC5CB05C2C5C585C845C2B
:1001C000F15DBC607044FA43E644F7465046DA45B8
:1001D0003C623C62B95BEB2C042DBA30B95BB25F78
:1001E0003C623C62FC5ECC41034CEF473C624727DB
:1001F0002057E241F8413C6252423C62793B713BFC
:100200003C623C62E8353C623C623C620F366136DF
:100210004C36BF2FA92F813B4F2ECC2E502F7D2F38
:100220006A55D02F7348373607483C623C623C62BF
:100230003C623C623C623C623C623C621F2A272A70
:100240004D2A3C623C621D4831481349034C0F4C17
:10025000144D3C625850BC50EB4F3F502B4E3C620B
:100260003C62484E3C62D85261395F3A1C53474861
:100270003C62AA51F45140528C52A2515D483C62FA
:10028000605362549D56C5573C625356C646C64697
:10029000AE565734C92BAD4F344E664E384F404F93
:1002A0005729B54F3C623C623C623C623C623C6216
:1002B0003C62975D3C62785BE85D313A3C623C624F
:1002C0003C623C623C623C623C62E9593C623C629A
:1002D0003C623C623C623C623C623C62315542554D
:1002E0008E543C623C623C623C623C623C623C62DA
:1002F0003C623C623C623C623C623C623C623C620E
:100300003C623C623C623C623C623C623C623C62FD
:100310003C623C623C623C623C623C623C623C62ED
:100320003C623C623C623C623C623C623C623C62DD
:100330003C623C623C623C623C623C62E840AA40F7
:10034000AE4370433C62D5463C623C62C33AF92BF3
:1003500060432642C33A264263493C423C42D12B89
:10036000195F125FB557BD57135E5355285F2F5F56
:10037000F55EE65E4B5B505B555B5A5B5F5B465BD5
:10038000B44BD34B462EE32AD92B3C62135E535514
:100390009729652C3C623C62C95A60513C623C62C0
:1003A0003C62BD573C62755A3C62645B695BE030FD
:1003B0003A2C62552F3029353C6234513C62B55796
:1003C0003C623C626E5B3C62735B67308E4BA14B60
:1003D000135EF15DED36C937DC50F13BCD37EB2ACA
:1003E0009F3CF536164F59399138C05612573C622A
:1003F000D03ADC50BB5F3C62893B012C2851BB5F8B
:10040000A702CD02D902AF02A902EB029702D502E0
:1004100083029102E102F502C702E5029F02F102A6
:100420009F0267029D027F029902CF02FB029502A2
:10043000E90285027102F7028B029B02B502730288
:10044000C902BB02FD02AD02EF027702A1026902FE
:10045000D102BF02ED02FD028102E702F902DF02D2
:10046000C502B902C302750289027902D302A5024C
:10047000D702CB02DD026D02B70289027B02BD0208
:100480007D02084AD73B3BCE016E84BCBFFDC12F25
:100490003D6C74319ABD56833DDA3D00C77F11BE75
:1004A000D9E4BB4C3E916BAAAABE000000803F0578
:1004B000A84CCDB2D44EB93836A9020C50B99186A9
:1004C00088083CA6AAAA2ABE000000803F000D941E
:1004D0003C1C0D9483710D9463430D9421770D940E
:1004E00036D20D947F1B0D945C710D94DA760D94C9
:1004F0007B710D94E4760D9435770D9449770D94C6
:10050000611B0D9497710D94900D0D949F1B0D948C
:10051000ED420D9453770D946D1D0D9414430D947D
:1005200093020D94920D0D94CB420D944F1D0D949A
:100530008C0D0D94D71D0D946A710D94541C0D945F
:100540007D1C0D947F710D9459BF0D94F4760D941C
:10055000150D0D94650D0D9496020D9471710D9409
:100560004B0D0D94BC420D9416430D946D710D947A
:100570002B770D94C6760D9466710D943F770D948C
:100580008D710D944BBD0D94D0760D94C1760D9464
:10059000BD1B0D9460710D9408770D94220D0D9480
:1005A000131D0D9489710D94EC760D948E0D0D94A0
:1005B000FE760D943E0D0D94DF420D9412770D944E
:1005C000BC760D949A0D0D9492420D94A21C0D943C
:1005D0009B710D94A81D0D94720D0D9491710D9445
:1005E00075710D94E11B0D9492020D94431B0D94B3
:1005F0001E1C0D949F710D94311D0D94A4714E41DC
:100600004E494E495459494E46CDCCCC3D0AD7238C
:100610003C17B7D13877CC2B329595E6241FB14FD4
:100620000A000020410000C84200401C4620BCBE19
:100630004CCA1B0E5AAEC59D746364696E6F7073AD
:100640007578585B003B4C415945523A2564003B54
:10065000202020757365526166742C2564004D3628
:100660003035205325640043616C63756C75733AB3
:1006700020200043616C63756C75733A2020004341
:10068000616C63756C75733A2020005375726669EE
:100690006E6720300A00417420426F74746F6D20C1
:1006A000537469636B657200253033642E253033D3
:1006B00064253033642E2530346400417420426F49
:1006C00074746F6D20537469636B657200253033E9
:1006D000642E25303364253033642E253034640095
:1006E00025730025752E25303275005231390052A0
:1006F00031362F52313700417420426F74746F6D60
:1007000020537469636B657200253033642E253085
:100710003364253033642E25303464002573005350
:10072000757266696E6720300A004732382058308B
:1007300020593000543000543100543000543000FF
:1007400053757266696E6720300A0047343300477C
:1007500034310047343000473334004734330047E6
:1007600034330047343100473430004D3834004DC5
:100770003834004D3834005A32204F666673657441
:100780003A20004F4B207365636F6E642045787488
:100790007275646572210A005A20706F73697469FA
:1007A0006F6E3A20005A20706F736974696F6E3AE9
:1007B00020004D3834005A312050726F6265206F2E
:1007C00066667365743A20004F4B206669727374D5
:1007D00020457874727564657221200A005A207071
:1007E0006F736974696F6E3A20005A20706F736975
:1007F00074696F6E3A200043616C63756C75733A6F
:1008000020200043616C63756C75733A20200043AF
:10081000616C63756C75733A20200043616C63757D
:100820006C75733A20200036302064656772656508
:1008300073200A0054300054300054300043616C7F
:100840006962726174696F6E205375636365737357
:1008500066756C0A005430004A756D70206F7665BD
:10086000722073637265773120616E6420736372E6
:10087000657732200A004A756D70206F76657220A8
:10088000736372657731200A00473334004733348D
:1008900000473334005430004733340053757266D8
:1008A000696E6720300A0053757266696E67203082
:1008B0000A0053757266696E6720300A00537572BC
:1008C00066696E6720300A0053757266696E67202C
:1008D000300A0054300053757266696E6720300A22
:1008E000004D33340053757266696E6720300A001C
:1008F0004D3234004D3233202573004D3234004DDB
:1009000032332025730077696C6C2062652064693E
:1009100073746F727465642062792025642E2531AA
:1009200064253164206D6D2E0054686520666972FF
:100930007374206C61796572207072696E7465647D
:1009400020776974682074686520257320686F7447
:10095000656E640053757266696E6720300A0053D5
:10096000757266696E6720300A0053757266696E2B
:100970006720300A002D2D3E253034782000526546
:1009800061647920746F2053746172740A00256465
:10099000206B6D2E0067636F646520666F756E64F3
:1009A0000A0020746F20537461727420446973705C
:1009B0006C61792066726F6D2052657365740054A6
:1009C0006F6F6B2000646973706C6179206F6E6C5F
:1009D000696E6521002E00312F320A0053442070C9
:1009E00072696E74696E67206279746520002053A5
:1009F000544F50205052494E54200A00473238205C
:100A00005830205930004D333500473730005245BB
:100A100053554D450A004D39393000537461727495
:100A2000696E67205A2043616C6962726174696FF4
:100A30006E2057697A6172640A000A00205A3A20CF
:100A40000020593A200020583A20004265640045B1
:100A50006E642066696C65206C6973740A00426577
:100A600067696E2066696C65206C6973740A00257D
:100A700069206D696E2C20256920736563006F6B9A
:100A8000004649524D574152455F4E414D453A4D02
:100A900061726C696E2042434E3344205369676D26
:100AA000613B204649524D574152455F564552538E
:100AB000494F4E3A30312D322E302E362D6164653D
:100AC0006E696E3B204649524D574152455F555223
:100AD0004C3A68747470733A2F2F67697468756242
:100AE0002E636F6D2F42434E33442F42434E3344A7
:100AF0005369676D612D4669726D776172653B2040
:100B000050524F544F434F4C5F56455253494F4EEE
:100B10003A312E303B204D414348494E455F5459B0
:100B200050453A42434E3344205369676D613B2040
:100B300045585452554445525F434F554E543A32EE
:100B40003B20555549443A00535441544953544964
:100B500043532052455345540A00504F534954497A
:100B60004F4E20484F4D453A2000220A00556E6BEB
:100B70006E6F776E20636F6D6D616E643A20220038
:100B800020636F6C6420657874727573696F6E2072
:100B900070726576656E7465640A006563686F3AA5
:100BA000000A00207A3A200020793A200020783A82
:100BB0002000426564004578747275646572207225
:100BC000656C6561736564206163746976653A205C
:100BD000005A205349474D4120486F6D65640A0013
:100BE0004578747275646572206163746976653ADC
:100BF00020004D3834005374617274696E67205858
:100C00002043616C6962726174696F6E2057697A02
:100C10006172640A004D3834005374617274696EF5
:100C20006720592043616C6962726174696F6E203C
:100C300057697A6172640A0042656420486561748C
:100C400065640A0020573A004578747275646572CD
:100C5000204865617465640A0020573A0020450009
:100C6000205A00205900483D5800205A3A00205987
:100C70003A0020436F756E7420583A200020453AA0
:100C800000205A3A0020593A00583A007A5F6D69BC
:100C90006E3A2000795F6D61783A2000785F6D616F
:100CA000783A2000785F6D696E3A2000486F74656D
:100CB0006E64206F6666736574733A005049442011
:100CC0004175746F74756E652066696E69736865C9
:100CD00064212050757420746865206C61737420E1
:100CE0004B702C204B6920616E64204B6420636F35
:100CF0006E7374616E74732066726F6D2061626FC3
:100D0000766520696E746F20436F6E6669677572D1
:100D10006174696F6E2E680A0050494420417574F1
:100D20006F74756E65206661696C656421207469F5
:100D30006D656F75740A0020403A006F6B20543A5D
:100D4000006F6B20423A00504944204175746F7423
:100D5000756E65206661696C6564212054656D70EF
:100D60006572617475726520746F6F206869676859
:100D70000A00204B643A2000204B693A2000204BA7
:100D8000703A200020436C617373696320504944BA
:100D9000200A002054753A2000204B753A2000208C
:100DA0006D61783A2000206D696E3A200020643A27
:100DB000200020626961733A20002C2073617665FF
:100DC000645F466C61675F66616E6C617965725FD6
:100DD0006D6972726F723A20002C207361766564BF
:100DE0005F6665656472617465313A20002C20731A
:100DF000617665645F6665656472617465303A202A
:100E0000002C2073617665645F66616E6C61796544
:100E1000723A20002C2073617665645F74656D7092
:100E20006265643A20002C2073617665645F7465A6
:100E30006D70303A20002C2073617665645F7465B4
:100E40006D70313A20002C2073617665645F6669AD
:100E50006C65706F736974696F6E3A20002C207333
:100E6000617665645F655F706F736974696F6E3A10
:100E700020002C2073617665645F746F6F6C5F6116
:100E800063746976653A20002C2073617665645F2F
:100E90007A5F706F736974696F6E3A20002C2073EB
:100EA000617665645F795F706F736974696F6E3ABC
:100EB00020002C2073617665645F785F706F7369C2
:100EC00074696F6E3A200053415645205052494E86
:100ED00054204C4F473A0A006563686F3A005072DD
:100EE000696E74207265636F766572792075700A19
:100EF000004E6F74207072696E74207265636F7635
:100F00006572792075700A00535543434553530A5F
:100F10000056616C756573206F7574206F66207262
:100F2000616E67650A0056616C756573206F757434
:100F3000206F662072616E67650A0056616C756588
:100F400073206F7574206F662072616E67650A008A
:100F500056616C756573206F7574206F66207261C1
:100F60006E67650A00535543434553530A00566163
:100F70006C756573206F7574206F662072616E6783
:100F8000650A0056616C756573206F7574206F6615
:100F90002072616E67650A0056616C756573206F1B
:100FA0007574206F662072616E67650A0056616C09
:100FB000756573206F7574206F662072616E67654A
:100FC0000A0020502000205A20002059200053659C
:100FD00074204D353330205820004D6F6465203328
:100FE000203A20507369636F2020202D3E20524705
:100FF000423A20526973652646616C6C002A2A2D9C
:101000003E20004D6F64652032203A206379636C86
:10101000652020202D3E205247423A20362073740E
:1010200061746573002A2A2D3E20004D6F6465208F
:1010300031203A2072616E646F6D20202D3E205267
:1010400047423A202B31202B32202B332C20647541
:1010500072696E67207072696E74696E67002A2A01
:101060002D3E20004D6F64652030203A2064656677
:1010700061756C74202D3E205247423A203235353E
:101080002032353520323535002A2A2D3E20004CBD
:101090006564206D6F646573203A004D35333620EA
:1010A0004C5B6D6F64655D00486F74656E64206FA6
:1010B0006666736574733A0054696D6520696E6184
:1010C00063746976650A0050757267652064697398
:1010D00074616E63650A004D383420582059205AD7
:1010E0002045005A204F6666736574206F6B0A00B6
:1010F0005A204F6666736574203A200A007A5F6D45
:1011000061783A20007A5F6D696E3A20005A204F6C
:10111000666673657400504F534954494F4E2048DA
:101120004F4D453A20004E6F742053442070726931
:101130006E74696E670A002F0050617573652061D7
:1011400074200050415553450A0053442070726981
:101150006E74696E67206279746520002E0A0044FF
:10116000656C6574696F6E206661696C65642C20BE
:1011700046696C653A200046696C652064656C655B
:101180007465643A002E0A006F70656E20666169AE
:101190006C65642C2046696C653A20004732382023
:1011A0005830205930000A0A005374616E6461722D
:1011B0006420446576696174696F6E3A20000A00A4
:1011C0004D65616E3A20000A002020207A3A200006
:1011D0000A00793A2000783A20003F53706563692D
:1011E00066696564206E756D626572206F66206C3D
:1011F00065677320696E206D6F76656D656E74200E
:101200006E6F7420706C61757361626C652E0A007C
:101210003F537065636966696564205920706F7318
:101220006974696F6E206F7574206F662072616ECD
:1012300067652E0A003F53706563696669656420BF
:101240005820706F736974696F6E206F7574206FAA
:10125000662072616E67652E0A003F537065636990
:10126000666965642073616D706C652073697A6569
:10127000206E6F7420706C61757361626C652E0AEC
:101280000046756C6C20737570706F727420617499
:101290003A20687474703A2F2F33647072696E74D8
:1012A000626F6172642E636F6D2F666F72756D2E43
:1012B0007068700A004D3438205A2D50726F626584
:1012C000205265706561746162696C69747920741B
:1012D0006573742E20202056657273696F6E2032FC
:1012E0002E30300A003F566572626F7365204C6580
:1012F00076656C206E6F7420706C61757361626CC2
:10130000652E0A00436F6F6C696E6720446F776EBD
:10131000204865617465720A005072696E74657266
:101320002068616C7465642E206B696C6C282920C0
:1013300063616C6C6564210A004572726F723A00D9
:101340006C61796572206865696768743A20004944
:101350006E7374616C6C202564202573206F6E2081
:1013600074686520257320686F74656E642E00258F
:10137000752E2530327500523139005231362F52D8
:1013800031370050757267652046696C616D656E16
:10139000740A0053757266696E6720310A005375CE
:1013A0007266696E6720300A004252494748544EBF
:1013B0004553533A2000220A00656E717565696EC7
:1013C00067202200220A00656E717565696E6720CC
:1013D0002200202F0020400020403A0070012C0104
:1013E00090012701B0012201C0011D01F001180187
:1013F0001002130130020E01600209019002040183
:10140000C002FF000003FA004003F5008003F00073
:10141000D003EB002004E6007004E100E004DC00EF
:101420004005D700C005D2004006CD00D006C80058
:101430008007C3003008BE00F008B900C009B4003E
:10144000B00AAF00B00BAA00D00CA500000EA0009F
:10145000500F9B00C01096005012910000148C0099
:10146000C0158700B0178200B0197D00D01B78002E
:10147000001E730040206E0090226900F02464007A
:1014800040275F0090295A00E02B5500102E500095
:1014900020304B0010324600E033410090353C00D4
:1014A0001037370070383200A0392D00B03A2800CC
:1014B000A03B2300603C1E00103D1900903D14002D
:1014C000103E0F00703E0A00C03E0500003F0000C5
:1014D000487973746572657369732074656D70659E
:1014E0007261747572650A00546865726D616C2072
:1014F00072756E617761792070726F74656374695B
:101500006F6E206279204865617465725F49443A64
:101510000A004572726F723A004572726F72283813
:1015200033293A2042656420746865726D6973746A
:101530006F72206E6F742064657465637465640AED
:10154000004572726F72283832293A2052696768F2
:101550007420746865726D6973746F72206E6F7435
:101560002064657465637465640A004572726F7205
:10157000283831293A204C65667420746865726D8C
:101580006973746F72206E6F742020646574656374
:101590007465640A002053544F50205052494E54F1
:1015A000200A004572726F72283833293A2042654A
:1015B0006420746865726D6973746F72206E6F74E5
:1015C0002064657465637465640A002053544F5049
:1015D000205052494E54200A004572726F722838CA
:1015E00032293A20526967687420746865726D699F
:1015F00073746F72206E6F742064657465637465B4
:10160000640A002053544F50205052494E54200A2F
:10161000004572726F72283831293A204C65667421
:1016200020746865726D6973746F72206E6F7420B8
:101630002064657465637465640A002053544F50D8
:10164000205052494E54200A004552524F522838D9
:1016500039293A20424544206973206E6F7420680E
:10166000656174696E67002053544F502050524991
:101670004E54200A004552524F52283839293A20F8
:10168000486F74656E64202564206973206E6F74E2
:101690002068656174696E67006563686F3A00521F
:1016A0006561647920746F204C6F61642F556E6C96
:1016B0006F6164200A0053757266696E672030207E
:1016C0000A005430004D383420582059205A204503
:1016D00000526573656E643A20006F6B0A004475B2
:1016E000706C69204D6F6465204F4E0A004D697221
:1016F000726F72204D6F6465204F4E0A003B2020B0
:10170000204275696C642074696D653A20256420F7
:1017100025732025642025730A003B5072696E747E
:101720002074696D653A2025642025732025642086
:101730002573202564202573003B54494D453A25E7
:101740006C64003B202020506C61737469632077C7
:1017500065696768743A2025642E256467003B46F6
:10176000696C616D656E7420757365643A202564DB
:101770002E25646D2025642E256467003B46696C28
:10178000616D656E7420757365643A20256C642EF6
:10179000256C646D003B45787472756465727320C6
:1017A000757365643A205425642025642E256420D1
:1017B0005425642025642E2564003B202020657874
:1017C0007472756465724469616D657465722C31FB
:1017D0002C25642E2564003B2020206578747275CA
:1017E0006465724469616D657465722C25642E258B
:1017F000642C25642E2564003B20202065787472BB
:10180000756465724469616D657465722C25642E1A
:1018100025640053442063617264206F6B0A006F7B
:1018200070656E526F6F74206661696C65640A0042
:10183000766F6C756D652E696E6974206661696C72
:1018400065640A00534420696E6974206661696C9E
:101850000A0043616E6E6F7420656E74657220734A
:1018600075626469723A20004D313037007A7072C7
:101870006F62653A200057726974696E6720746FF1
:101880002066696C653A20002E0A006F70656E2034
:101890006661696C65642C2046696C653A20002E8F
:1018A0000A006F70656E206661696C65642C204665
:1018B000696C653A200046696C652073656C6563E8
:1018C0007465640A002053697A653A200046696CA1
:1018D00065206F70656E65643A20002E0A006F7097
:1018E000656E206661696C65642C2046696C653A9A
:1018F00020004E6F772066726573682066696C659C
:101900003A20004E6F7720646F696E672066696CBD
:10191000653A20002220706F73002220706172658A
:101920006E743A2200535542524F5554494E452049
:1019300043414C4C207461726765743A22007472A2
:1019400079696E6720746F2063616C6C20737562B7
:101950002D67636F64652066696C657320776974B1
:101960006820746F6F206D616E79206C6576656C90
:10197000732E204D4158206C6576656C2069733A52
:10198000004572726F723A00646973706C617920FD
:101990006F66666C696E650042434E33442053693E
:1019A000676D610A0073746172740A006563686F21
:1019B0003A0030312D322E302E362D6164656E693D
:1019C0006E0A004D3234004D3233202573006175AC
:1019D000746F25692E67006572726F722077726965
:1019E00074696E6720746F2066696C650A00205AFE
:1019F0003A0020593A0020583A00656E6473746FBB
:101A00007073206869743A20006563686F3A004417
:101A10006F6E6520736176696E672066696C652EEE
:101A20000A006F6B0A004D3239006563686F3A0037
:101A30005341564544205052494E540A002E2E2EF2
:101A40002054696D656F757421002A2A2A20476524
:101A50006E69652057726974654F626A65637420A8
:101A60002A2A2A202D2D2D3E002E2E2E204E414B8F
:101A70002021002A2A2A2047656E6965205772694D
:101A800074654F626A656374202A2A2A202D2D2DE1
:101A90003E002E2E2E2041434B2021002A2A2A20B0
:101AA00047656E69652057726974654F626A656340
:101AB00074202A2A2A202D2D2D3E002A2A2A20474A
:101AC000656E6965204261642042797465202A2A26
:101AD0002A202D2D2D3E203078002056616C756512
:101AE0003A200020496E6465783A20002A2A2A208C
:101AF00047656E6965205265706F7274204F626A27
:101B0000656374202A2A2A204F626A6563743A202A
:101B1000002A2A2A2047656E696520436F6E6E652C
:101B200063746564202F2053796E6321202A2A2A4A
:101B3000002056616C75653A200020496E64657816
:101B40003A20002A2A2A2047656E6965205265706E
:101B50006F7274204576656E74202A2A2A204F629F
:101B60006A6563743A2000204C656E6774683A2099
:101B7000002A2A2A2047656E6965205265636569D7
:101B8000766564204D6167696320446F75626C659A
:101B9000204279746573202A2A2A20496E64657868
:101BA0003A2000204C656E6774683A20002A2A2A81
:101BB0002047656E696520526563656976656420B6
:101BC0004D61676963204279746573202A2A2A204F
:101BD000496E6465783A20002A2A2A2047656E6992
:101BE00065204E414B205265636F766572792021E6
:101BF0002121202A2A2A002A2A2A2047656E69657F
:101C000020446973636F6E6E6563746564206672E9
:101C10006F6D20446F4576656E747321202A2A2AE1
:101C2000002A2A2A2047656E696520546F6F6B2051
:101C3000746F6F206C6F6E6720746F2072652D65F6
:101C40006E74657220446F4576656E747328292C16
:101C5000207265647563652064656C6179732069C1
:101C60006E20636F64652C2073656C662D70726FD7
:101C700074656374696F6E20656E61626C65642E55
:101C8000202A2A2A0045787472756465722072656C
:101C90006C6561736564206163746976653A2000E0
:101CA0005A205349474D4120486F6D65640A0045ED
:101CB00078747275646572206163746976653A2020
:101CC000000000000000809343000000000000A01E
:101CD000400000A0400000004020004D6F766520CD
:101CE000746F3A2000CDCC9843008093430000529B
:101CF00043FF01FF7C3C3E5E2B3D3F2F5B5D3B2C59
:101D00002A225C000A0020616E7469686F72617239
:101D1000690A3A200020686F726172690A20002FF8
:101D20003800766F6C746573200020566F6C746594
:101D30007320636172676F6C20333A200020616EFC
:101D40007469686F726172690A3A200020686F7264
:101D50006172690A20002F3800766F6C74657320F9
:101D60000020566F6C74657320636172676F6C201E
:101D7000323A20000A0020647A333A200020647A44
:101D8000323A2000543100543000543000543000B6
:101D90000A0056756974656E73333A2020004170ED
:101DA000726F78333A202000566F6C746573333A43
:101DB0002020000A0056756974656E73323A20203F
:101DC000004170726F78323A202000566F6C746553
:101DD00073323A20200056616C6F7220645A333A95
:101DE00020200056616C6F7220645A323A20200025
:101DF0004E6577206F6666736574207665727369C9
:101E00006F6E3A20007A335F313A20007A325F31C8
:101E10003A20005A7363726F6C6C5F313A20007A1B
:101E2000335F303A20007A325F303A20005A7363D1
:101E3000726F6C6C5F303A20005A76616C75652069
:101E4000616674657220686F6D653A00486F6D65F4
:101E500020582F59206265666F7265205A0A004526
:101E600072726F7220577269746520454550524FE7
:101E70004D0053657474696E67732053746F726597
:101E8000640A00204D696E75746573203A00202045
:101E90004C617374207072696E742074696D652D65
:101EA0003E20486F757273203A004C617374207045
:101EB00072696E74206475726174696F6E0A002CA9
:101EC000205468697264204944206E756D626572A1
:101ED00020002C205365636F6E64204944206E758A
:101EE0006D6265723A200020204669727374204941
:101EF00044206E756D6265723A2000554920496E26
:101F0000666F726D6174696F6E2053657269616C82
:101F1000204E756D6265723A0A00206D2C204531A5
:101F2000207072696E742064697374616E63653ABF
:101F30002000206B6D2C204530207072696E74205B
:101F400064697374616E63653A2000206B6D2C20A8
:101F500059207072696E742064697374616E636570
:101F60003A2000206B6D2C205831207072696E74FD
:101F70002064697374616E63653A200020432C0A03
:101F8000205830207072696E742064697374616EB9
:101F900063653A200020432C206D61782074656DC4
:101FA0007020423A200020432C206D617820746517
:101FB0006D7020523A20002C206D61782074656D80
:101FC00070204C3A2000682C207072696E74732067
:101FD00066696E69736865643A20002C20707269C6
:101FE0006E74696E672074696D653A2000202070F8
:101FF00072696E74733A200053544154533A0A0084
:1020000020432C20525F5052494E543A2000204326
:102010002C20525F4245443A200020432C20525F3E
:1020200052454D4F56453A20002020525F494E53AD
:102030004552543A200054656D70202843293A0ACD
:102040000020432C204C5F5052494E543A2000202F
:10205000432C204C5F4245443A200020432C204C26
:102060005F52454D4F56453A200020204C5F494E67
:10207000534552543A200054656D70202843293A44
:102080000A0020562856657273696F6E2920002059
:1020900052284265642072696768742073637265B0
:1020A0007729200020204D353331204C28426564AB
:1020B000206C656674207363726577292000426521
:1020C00064204F66667365747320286D6D293A0A23
:1020D000002050285A2070726F62652900205A2013
:1020E000002059200020204D353330205820004F4B
:1020F00066667365747320286D6D293A0A00204462
:1021000000204900202D204D3330312052494748CE
:102110005420500020440020490020204D3330310D
:10212000204C454654205000504944207365747437
:10213000696E67733A0A00205A0020590020204D2A
:10214000323036205800486F6D65206F66667365C3
:102150007420286D6D293A0A00204500205A00207D
:10216000580020420020540020204D3230352053AA
:1021700000416476616E63656420766172696162B4
:102180006C65733A20533D4D696E206665656472D7
:1021900061746520286D6D2F73292C20543D4D6985
:1021A0006E2074726176656C206665656472617418
:1021B0006520286D6D2F73292C20423D6D696E6955
:1021C0006D756D207365676D656E742074696D65DE
:1021D00020286D73292C20583D6D6178696D756DCF
:1021E000205859206A65726B20286D6D2F73292C39
:1021F00020205A3D6D6178696D756D205A206A65A1
:10220000726B20286D6D2F73292C2020453D6D6148
:1022100078696D756D2045206A65726B20286D6D3B
:102220002F73290A0020540020204D3230342053CF
:1022300000416363656C65726174696F6E3A205327
:102240003D616363656C65726174696F6E2C2054C7
:102250003D7265747261637420616363656C65725D
:102260006174696F6E0A00204500205A00205900F1
:1022700020204D3230312058004D6178696D756DE8
:1022800020416363656C65726174696F6E20286DAF
:102290006D2F7332293A0A00204500205A00205938
:1022A0000020204D3230332058004D6178696D7523
:1022B0006D2066656564726174657320286D6D2F8D
:1022C00073293A0A00204500205A00205900202096
:1022D0004D39322058005374657073207065722038
:1022E000756E69743A0A0000002100240027002A54
:1022F000002D003000330001010000040107010A35
:102300000100002200250028002B002E003100349F
:102310000002010000050108010B0100002000235C
:1023200000260029002C002F0032000001000003CD
:102330000106010901050505050705080808080249
:102340000202020A0A08080404040401010101014E
:102350000101010303030303030303040707070C3D
:102360000C0C0C0C0C0C0C020202020606060606F3
:102370000606060B0B0B0B0B0B0B0B0102102020A0
:1023800008081020401020408002010201080402C9
:10239000010102040810204080804020100804023F
:1023A0000180040201804020100804020108040298
:1023B000010102040810204080010204081020409E
:1023C0008000000A0B02090C0D0E0807030401002F
:1023D00000000000000000000000000000000000FD
:1023E00000000000000000000000000000121110BA
:1023F00000000000000000000000000000000000DD
:1024000000000000000000504944204175746F74C2
:10241000756E652066696E6973686564210A00508F
:102420004944204175746F74756E65206661696CEE
:102430006564212074696D656F75740A0020403AE7
:10244000006F6B20543A006F6B20423A00504944B1
:10245000204175746F74756E65206661696C656482
:10246000212054656D706572617475726520746F9A
:102470006F20686967680A00204B643A2000204B8F
:10248000693A2000204B703A200020436C6173733E
:10249000696320504944200A002054753A200020E6
:1024A0004B753A2000206D61783A2000206D696EEE
:1024B0003A200020643A200020626961733A2000CB
:1024C0003B20472D436F64652067656E65726174BC
:1024D00065642062792053696D706C696679334454
:1024E0002852292056657273696F6E202564002476
:1024F000F4D43050C38E20C2A24017828B701112C8
:102500007A910D816CD90AA861E108C75866076104
:102510005143061E4B5D05C145A7041A411104092C
:102520003D9803713931034036DB0265339102D4A3
:10253000305402802E1D02632CEE01752AC501B0B5
:1025400028A001102781018F2564012B244B01E075
:10255000223401AC211F018D200D01801FFC00845D
:102560001EED00971DDF00B81CD200E61BC6002040
:102570001BBC00641AB200B219A8000A19A0006AB4
:10258000189900D117910040178B00B516840031BF
:10259000167E00B31579003A157300C7146F005802
:1025A000146A00EE1366008813630025135E00C7EB
:1025B000125B006C12570015125400C111510070CB
:1025C000114F0021114B00D61049008D10470046D5
:1025D00010440002104200C00F4000800F3E004235
:1025E0000F3C00060F3B00CB0E3800930E37005C0B
:1025F0000E3500270E3400F30D3200C10D3100906E
:102600000D3000600D2E00320D2D00050D2C00D96F
:102610000C2B00AE0C2900850C29005C0C27003522
:102620000C27000E0C2600E80B2400C40B2400A08D
:102630000B23007D0B23005A0B2100390B210018BE
:102640000B2000F80A1F00D90A1E00BB0A1E009DBD
:102650000A1D00800A1D00630A1C00470A1B002C8B
:102660000A1B00110A1A00F7091A00DD091900C433
:10267000091900AB091900920917007B09180063BA
:102680000917004C09160036091600200916000A21
:10269000091500F5081500E0081400CC081400B86E
:1026A000081400A4081400900813007D0812006BA1
:1026B00008130058081200460812003408110023BD
:1026C0000811001208110001081100F0071000E0C5
:1026D000071000D0071000C0071000B0070F00A1BE
:1026E00007100091070E0083070F0074070F0065A5
:1026F000070E0057070E0049070E003B070D002E7E
:10270000070E0020070D0013070D0006070D00F946
:10271000060C00ED060D00E0060C00D4060C00C807
:10272000060C00BC060C00B0060C00A4060B0099B9
:10273000060C008D060B0082060B0077060B006C62
:10274000060B0061060A0057060B004C060A004201
:10275000060A0038060A002E060A0024060A001A95
:10276000060A001006090007060A00FD050900F424
:10277000050900EB050900E2050900D9050900D0AB
:10278000050900C7050900BE050900B5050800AD2B
:10279000050800A50509009C050800940508008CA3
:1027A000050800840508007C050800740508006C15
:1027B000050700650508005D050700560508004E81
:1027C00005070047050700400508003805070031E8
:1027D0000507002A050700230507001C050600164B
:1027E0000507000F0507000805060002050700FBA6
:1027F000040600F5040700EE040600E8040600E203
:10280000040700DB040600D5040600CF040600C957
:10281000040600C3040600BD040600B7040600B1A8
:10282000040500AC040600A6040600A00405009BF5
:1028300004060095040500900406008A040500853E
:10284000040500800406007A040500750405007084
:102850000405006B04050066040500610405005CC6
:1028600004050057040500520405004D0405004806
:10287000040500430405003E0404003A0405003545
:10288000040500300404002C040500270404002380
:102890000405001E0404001A0404001604050011B7
:1028A0000404000D040400090405000404040000ED
:1028B000040400FC030400F8030400F4030400F023
:1028C000030400EC030400E8030400E4030400E054
:1028D000030400DC030400D8030400D4030400D084
:1028E000030400CC030400C8030300C50303002451
:1028F000F404D9201BC40C5C0E9804C4095F026563
:10290000077101F405F900FB04B30048048700C116
:102910000369005803550003034500BE023A0084D2
:1029200002310053022A002902250004022000E49B
:10293000011C00C8011900AF0117009801140084A0
:10294000011300710110006101100051010E0043DC
:10295000010D0036010B002B010B0020010B0015AF
:102960000109000C01090003010800FB000800F345
:10297000000800EB000700E4000600DE000600D8B7
:10298000000600D2000600CC000500C7000500C20A
:10299000000500BD000400B9000400B5000400B14A
:1029A000000400AD000400A9000400A5000300A27B
:1029B0000003009F0004009B0003009800030095A3
:1029C00000020093000300900003008D0002008BC2
:1029D00000030088000200860002008400030081DA
:1029E0000002007F0002007D0002007B00020079EF
:1029F00000020077000100760002007400020072FD
:102A0000000100710002006F0002006D0001006C07
:102A10000002006A00010069000200670001006610
:102A20000001006500010064000200620001006115
:102A3000000100600001005F0002005D0001005C19
:102A40000001005B0001005A00010059000100581C
:102A5000000100570001005600010055000100541C
:102A6000000100530000005300010052000100511A
:102A7000000100500001004F0001004E0000004E18
:102A80000001004D0001004C0001004B0000004B14
:102A90000001004A00010049000100480000004810
:102AA000000100470001004600000046000100450B
:102AB0000000004500010044000100430000004305
:102AC00000010042000000420001004100000041FE
:102AD000000100400001003F0000003F0001003EF7
:102AE0000000003E0001003D0000003D0001003CF0
:102AF0000000003C0000003C0001003B0000003BE7
:102B00000001003A0000003A0001003900000039DD
:102B100000010038000000380000003800010037D4
:102B200000000037000100360000003600000036CB
:102B300000010035000000350000003500010034C0
:102B400000000034000000340001003300000033B6
:102B500000000033000100320000003200000032AB
:102B600000010031000000310000003100010030A0
:102B700000000030000000300001002F0000002F96
:102B80000000002F0000002F0001002E0000002E8A
:102B90000000002E0001002D0000002D0000002D7F
:102BA0000000002D0001002C0000002C0000002C73
:102BB0000000002C0001002B0000002B0000002B67
:102BC0000000002B0001002A0000002A0000002A5B
:102BD0000000002A0001002900000029000000294F
:102BE0000000002900000029000100280000002842
:102BF0000000002800000028000000280001002735
:102C00000000002700000027000000270000002728
:102C1000000100260000002600000026000000261B
:102C2000000000260001002500000025000000250E
:102C30000000002500000025000000250001002400
:102C400000000024000000240000002400000024F4
:102C500000010023000000230000002300000023E7
:102C600000000023000000230000002300010022D8
:102C700000000022000000220000002200000022CC
:102C800000000022000100210000002100000021BE
:102C900000000021000000210000002100000021B0
:102CA00000010020000000200000002000000020A3
:102CB0000000002000000020000000200000002094
:102CC0000001001F0000001F0000001F0000001F87
:102CD0000000001F0000001F0000001F0001001E78
:102CE0000000001E0000001E0000001E0000004E3C
:102CF0006577206C617965722064657465637465BD
:102D0000640A003B206C61796572003B4C41594577
:102D10005200256920686F757273202569206D69DE
:102D20006E7574657300446F6E65207072696E74A1
:102D3000696E672066696C650A004D333300506127
:102D4000757365207061726B696E670A004736396A
:102D5000004E6F74205344207072696E74696E6700
:102D60000A004E6F74205344207072696E74696E4D
:102D7000670A005072696E7465722073746F7070A8
:102D800065642064756520746F206572726F72735C
:102D90002E2046697820746865206572726F7220F3
:102DA000616E6420757365204D39393920746F2048
:102DB000726573746172742E202854656D7065722B
:102DC00061747572652069732072657365742E2055
:102DD000536574206974206166746572207265732E
:102DE00074617274696E67290A006F6B0A004E6F16
:102DF000204C696E65204E756D626572207769742E
:102E00006820636865636B73756D2C204C61737407
:102E1000204C696E653A20004E6F20436865636BF5
:102E200073756D2077697468206C696E65206E75A6
:102E30006D6265722C204C617374204C696E653A2A
:102E40002000636865636B73756D206D69736D61D8
:102E50007463682C204C617374204C696E653A2051
:102E6000004C696E65204E756D6265722069732035
:102E70006E6F74204C617374204C696E65204E75C2
:102E80006D6265722B312C204C617374204C696E1D
:102E9000653A20004D31313000CDCC98430080930D
:102EA000430000524300000000000000000000004A
:102EB00000496E7374616C6C202564202573206F4B
:102EC0006E2074686520257320686F74656E642EAB
:102ED0000053746F7265642073657474696E6773F0
:102EE000207265747269657665640A00486172646F
:102EF000636F6465642044656661756C7420536516
:102F00007474696E6773204C6F616465640A00486D
:102F1000617264636F6465642043616C69622061FF
:102F20006E64205049442044656661756C7420537A
:102F3000657474696E6773204C6F616465640A0020
:102F40002A2A2A2047656E696520446973636F6E7B
:102F50006E65637465642066726F6D204765744E9C
:102F60006578744279746521202A2A2A002A2A2A3F
:102F70002047656E696520456E61626C652041740D
:102F8000746163684576656E7448616E646C6572E1
:102F900020212121202A2A2A004736392041435462
:102FA0004956415445440A00A302C10211241FBEE0
:102FB000CFEFD1E2DEBFCDBF00E00CBF19E0A0E053
:102FC000B2E0E4E5F9EA03E00BBF02C007900D921E
:102FD000A239B107D9F72CE1A2E9B9E001C01D92ED
:102FE000A93EB207E1F717E1C5EDD7E100E006C061
:102FF00021970109802FFE010F948BD1C43DD10789
:1030000080E00807A9F70F9485B60D9499D40C9425
:1030100000002F923F924F925F926F927F928F9219
:103020009F92AF92BF92CF92DF92EF92FF920F9357
:103030001F93CF93DF93CDB7DEB7C353D1400FB605
:10304000F894DEBF0FBECDBF2DB73EB7CE5CDE4FCE
:1030500039832883C253D14011E01093E409809151
:10306000C80981110CC00F9494776093C4097093C0
:10307000C5098093C6099093C7091093C809809128
:10308000BC0981110DC00F9494776093B8097093B7
:10309000B9098093BA099093BB0981E08093BC0978
:1030A00080917019882319F068E475E002C06CE221
:1030B00075E089EC97E10F94B3978091711988239B
:1030C00019F06EE275E002C060E375E089EC97E10B
:1030D0000F94B3978091D00E8F938091CF0E8F93E2
:1030E00085E799E09F938F938E01065E1E4F1F9395
:1030F0000F930F9429C6B80189EC97E10F944A38D1
:10310000909170190F900F900F900F900F900F905B
:1031100040916B0250916C0260916D0270916E0251
:10312000911106C080917119882311F40C943823F1
:10313000453A51056105710509F44DC60CF0C3C04F
:10314000473551056105710509F4BAC40CF05EC03C
:10315000413251056105710511F40C944D2134F58E
:10316000413151056105710509F4FCC774F4413022
:1031700051056105710509F4E8C240315105610549
:10318000710509F4BBC10C943C62433151056105E2
:10319000710509F47DC40CF49BC4403251056105EE
:1031A000710511F40C945F210C943C62413451057B
:1031B0006105710509F4DBC4ACF4453351056105C3
:1031C000710511F40C9404224D335105610571050C
:1031D00009F4F4C3413351056105710511F00C94F4
:1031E0003C6231C4463451056105710509F4C3C41C
:1031F000433551056105710509F4C3C244345105D5
:103200006105710509F495C70C943C624739510575
:103210006105710511F40C94EA214CF5463751050E
:103220006105710509F476C474F4483551056105EA
:10323000710509F4E9C34A3551056105710509F4C1
:1032400016C60C943C624E3751056105710509F4B0
:103250008DC1493851056105710509F443C24B37E9
:1032600051056105710511F00C943C6200C64C39A2
:1032700051056105710511F40C9480219CF44A39C3
:1032800051056105710511F40C946E2114F00C9434
:103290007721483951056105710511F40C94D92144
:1032A0000C943C62433A51056105710509F480C5EF
:1032B0000CF0B7C54D3951056105710511F40C9439
:1032C000AD210C943C624F3E51056105710509F436
:1032D00072C20CF088C0433D51056105710511F4BF
:1032E0000C94F422BCF5483A51056105710509F4C6
:1032F000ABC504F5463A51056105710509F400C5F1
:10330000473A51056105710511F00C943C628091BA
:10331000DE099091DF09A091E009B091E109916087
:103320008093DE099093DF09A093E009B093E1094F
:103330000C943C624A3A51056105710509F40CC5CB
:103340000CF45CC54E3B51056105710509F46EC373
:103350000C943C62453E51056105710509F40FC4AA
:1033600014F5433E51056105710509F41BC40CF0C9
:103370006AC4423E51056105710511F00C943C622E
:103380008091DE099091DF09A091E009B091E109F7
:1033900082608093DE099093DF09A093E009B093E7
:1033A000E1090C943C624D3E51056105710509F43B
:1033B0000BC10CF0C2C14A3E51056105710511F007
:1033C0000C943C6240E050E06EE681E20F94844A47
:1033D0008091CF0E9091D00E92609093D00E8093FA
:1033E000CF0E0C943C624B3F51056105710509F409
:1033F00005C484F5473F51056105710509F436C4DC
:10340000A4F4423F51056105710509F4BAC1463F74
:1034100051056105710509F44EC4413F510561052F
:10342000710511F00C943C6290C18091DE0990917D
:10343000DF09A091E009B091E1092091B00230913B
:10344000B102493F51056105710509F498C40CF4B6
:103450006AC4BBC34E3631E053076105710509F4F8
:10346000A8C0B4F5483691E059076105710509F423
:10347000C2C74A36A1E05A076105710509F499C02F
:10348000453651406105710511F00C943C6240E0F5
:1034900050E06AE28AE00F94844A40E050E064E53C
:1034A00081E20F94844A81E080938C0B10928F0B01
:1034B00062E37AE086E20F94724C8091CF0E909195
:1034C000D00E98609093D00E8093CF0E0C943C62F7
:1034D0004937E1E05E076105710509F43FC64538EB
:1034E000F1E05F076105710509F46CC1483751408F
:1034F0006105710511F00C943C629CC58091280215
:10350000813419F541E050E066E08BE10F94844A84
:1035100041E050E060E181E20F94844A41E050E0F4
:1035200062E181E20F94844A41E050E063E181E28C
:103530000F94844A41E050E06EE781E20F94844AA0
:1035400084E4809328020C943C62843411F00C943F
:103550003C628091CF0E9091D00E80649093D00EFB
:103560008093CF0E10928C0B0C943C6240E050E0A4
:1035700066E08BE10F94844A40E050E060E181E234
:103580000F94844A40E050E062E181E20F94844A63
:1035900040E050E063E181E20F94844A40E050E073
:1035A0006EE781E20F94844A81E4809328020C94B0
:1035B0003C628091CF0E9091D00E92609093D00E8D
:1035C0008093CF0E0C943C6280912802823419F5CE
:1035D00083E48093280241E050E063E08BE10F94A4
:1035E000844A41E050E067E581E20F94844A41E07B
:1035F00050E066E781E20F94844A41E050E06DEECE
:1036000081E20F94844A41E050E069E881E20F943E
:10361000844A0C943C62833411F00C943C6211E0B7
:103620001093DA0940E050E068E981E20F94844A9F
:1036300040E050E067E981E20F94844A40E050E0C6
:103640006CE981E20F94844A40E050E06DE981E248
:103650000F94844A41E050E06AE481E20F94844A86
:1036600040E050E06CE28AE00F94844A10938F0BA4
:103670008FEF9FEF90933A028093390240E050E041
:103680006AE981E20F94844A40E050E06BE981E20C
:103690000F94844A60917011709171118091721130
:1036A000909173110F94B3CEAB0166E289E00F9451
:1036B000844A609174117091751180917611909186
:1036C00077110F94B3CEAB0167E289E00F94844A7F
:1036D00040E050E068E289E00F94844A10928C0B3D
:1036E0000C943C6280912802833411F00C943C626B
:1036F00082E48093280240E050E063E08BE10F9485
:10370000844A40E050E067E581E20F94844A40E05B
:1037100050E066E781E20F94844A40E050E06DEEAD
:1037200081E20F94844A40E050E069E881E20F941E
:10373000844A10928F0B0C943C6240E050E064E5A8
:103740008AE00F94844A0C943C6210928C0B80E0C7
:103750000F94F44C8091CF0E9091D00E8260909394
:10376000D00E8093CF0E81E08093930B40E050E029
:1037700068E08AE00F94844A81E48093940B0C946F
:103780003C628091D40E882311F40C943C6241E099
:1037900050E08091D10E8A3011F440E050E069E1B0
:1037A0008BE10F94844A40E050E062E58AE00F9498
:1037B000844A0C943C6289E480931E020F945294D4
:1037C0000C943C628091DF1C9091E01C9093AC10B3
:1037D0008093AB100F943C0E8091E11C9091E21C01
:1037E0009093AE108093AD100F943C0E82E48093C2
:1037F000280282E580931E0281E080938F0B109255
:103800008C0B8091D10EE1E08A3009F4E0E0E09386
:103810002B0BF0E0EE0FFF1FE555FF4E20813181AD
:103820003093B7092093B6098A3029F480912E0B82
:1038300090912F0B04C08091320B9091330B9183A8
:1038400080830F943C0E81E48093940B40E050E021
:1038500068E08AE00F94844A40E050E064E581E249
:103860000F94844A80E090E0A3E4B3E48093DE10F8
:103870009093DF10A093E010B093E1108090170BAD
:103880009090180BA090190BB0901A0B2091DA10A1
:103890003091DB104091DC105091DD106091D6101A
:1038A0007091D7108091D8109091D910E9EB6E2EBD
:1038B000E0E17E2E7F926F92F2EECF2EF0E1DF2ECE
:1038C000E12CF12C03E413E40E94E19E0F94A21179
:1038D00080E090E0A0E2B1E48093DA109093DB10F6
:1038E000A093DC10B093DD108090130B9090140B1C
:1038F000A090150BB090160BE090DE10F090DF104A
:103900000091E0101091E1106091D6107091D710E5
:103910008091D8109091D9107F926F9220E030E082
:1039200040E251E40E94E19E0F94A2110F900F908B
:103930000F900F908091940B8E3411F40C94BB2A4D
:103940001092940B0E94B16840E050E060E289E080
:103950000F94844A40E050E064E28AE00F94844A85
:1039600000912B0B10E0F801EE0FFF1FEE0FFF1F71
:10397000E059FE4E60817181828193810F94B3CEB4
:103980007093D8096093D709000F111FF801E5550E
:10399000FF4E808191810A979093D6098093D50933
:1039A0001092D4091092D30989E48093940B0E9459
:1039B000B16881E08093D9090C943C62809128021F
:1039C00040E050E0813441F469E08AE00F94844A99
:1039D00062E37AE082E007C06AE28AE00F94844AF8
:1039E00062E37AE086E20F94724C8091CF0E909160
:1039F000D00E98609093D00E8093CF0E10928F0BC4
:103A000010928C0B0C943C6280912C0B81110C94C5
:103A10003C628091711981110C943C6240E050E04D
:103A200069E38AE00F94844A0C943C6280912C0BE9
:103A300081110C943C6240E050E061E08AE00F9418
:103A4000844A0C943C6280912C0B81110C943C6252
:103A500010912802113411F00C943C6210928C0BDE
:103A60001092701981E08093711940E050E068E095
:103A70008AE00F94844A1093940B8091CF0E90911A
:103A8000D00E94609093D00E8093CF0E0C943C6235
:103A900080912802813439F440E050E061E08AE00E
:103AA0000F94844AADCF843409F0AACF8091CF0E11
:103AB0009091D00E90619093D00E8093CF0EA0CFB6
:103AC00080912802823441F3833409F099CFEECFFC
:103AD00080912802992369F0813459F48091CF0EA6
:103AE0009091D00E88609093D00E8093CF0E0C945E
:103AF0003C62843411F00C943C628091CF0E909122
:103B0000D00E80689093D00E8093CF0E10928C0BC5
:103B10000C943C6280917119882311F40C943C62DE
:103B200080912802823459F48091CF0E9091D00E6A
:103B300080619093D00E8093CF0E0C943C628334BE
:103B400011F00C943C6240E050E066E18AE00F9492
:103B5000844A41E050E064E581E20F94844A82E5C2
:103B600080931E0281E080938F0B0C943C620F9433
:103B7000EA090C943C620F9474090C943C628091A5
:103B8000DE099091DF09A091E009B091E10984601C
:103B90008093DE099093DF09A093E009B093E109D7
:103BA0000C943C628091DE099091DF09A091E009BC
:103BB000B091E10988608093DE099093DF09A093BA
:103BC000E009B093E1090C943C622330310559F4CB
:103BD000A1608093DE099093DF09A093E009B09380
:103BE000E1090C943C6284608093DE099093DF09C4
:103BF000A093E009B093E1090C943C622091B002DB
:103C00003091B1028091DE099091DF09A091E00925
:103C1000B091E1092330310559F4A2608093DE09A7
:103C20009093DF09A093E009B093E1090C943C6202
:103C300088608093DE099093DF09A093E009B09338
:103C4000E1090C943C628091DE099091DF09A0911A
:103C5000E009B091E10981608093DE099093DF096A
:103C6000A093E009B093E1090C943C622091B0026A
:103C70003091B1028091DE099091DF09A091E009B5
:103C8000B091E1092330310559F490618093DE0948
:103C90009093DF09A093E009B093E1090C943C6292
:103CA00081608093DE099093DF09A093E009B093CF
:103CB000E1090C943C622091B0023091B1028091F4
:103CC000DE099091DF09A091E009B091E10923306C
:103CD000310559F490628093DE099093DF09A09337
:103CE000E009B093E1090C943C6282608093DE09A4
:103CF0009093DF09A093E009B093E1090C943C6232
:103D00008091DE099091DF09A091E009B091E1096D
:103D100080628093DE099093DF09A093E009B0935D
:103D2000E1090C943C622330310559F4906480938E
:103D3000DE099093DF09A093E009B093E1090C94A8
:103D40003C6280628093DE099093DF09A093E009D2
:103D5000B093E1090C943C628091DE099091DF09F7
:103D6000A091E009B091E10980618093DE09909310
:103D7000DF09A093E009B093E1090C943C62233081
:103D8000310559F490688093DE099093DF09A09380
:103D9000E009B093E1090C943C6280618093DE09F4
:103DA0009093DF09A093E009B093E1090C943C6281
:103DB0008091DE099091DF09A091E009B091E109BD
:103DC00080648093DE099093DF09A093E009B093AB
:103DD000E1090C943C628091DE099091DF09A09189
:103DE000E009B091E10980688093DE099093DF09D2
:103DF000A093E009B093E1090C943C628091DE0944
:103E00009091DF09A091E009B091E109926080935F
:103E1000DE099093DF09A093E009B093E1090C94C7
:103E20003C628091DE099091DF09A091E009B09198
:103E3000E10994608093DE099093DF09A093E00983
:103E4000B093E1090C943C628091DE099091DF0906
:103E5000A091E009B091E10998608093DE09909308
:103E6000DF09A093E009B093E1090C943C624A3564
:103E700051056105710519F410922B0B03C081E007
:103E800080932B0B80912B0BE82FF0E0EE0FFF1FA0
:103E9000E555FF4E208131813093B7092093B60953
:103EA000811105C080912E0B90912F0B04C0809141
:103EB000320B9091330B918380830F943C0E81E4FD
:103EC0008093940B40E050E068E08AE00F94844ACD
:103ED00040E050E064E581E20F94844A80E090E0A5
:103EE000A3E4B3E48093DE109093DF10A093E0107E
:103EF000B093E1108090170B9090180BA090190BC5
:103F0000B0901A0B2091DA103091DB104091DC1048
:103F10005091DD106091D6107091D7108091D8101B
:103F20009091D910E9EB6E2EE0E17E2E7F926F9298
:103F3000F2EECF2EF0E1DF2EE12CF12C03E413E4BE
:103F40000E94E19E0F94A21180E090E0A0E2B1E413
:103F50008093DA109093DB10A093DC10B093DD1007
:103F60008090130B9090140BA090150BB090160B33
:103F7000E090DE10F090DF100091E0101091E11061
:103F80006091D6107091D7108091D8109091D9106F
:103F90007F926F9220E030E040E251E40E94E19E87
:103FA0000F94A2110F900F900F900F908091940B8F
:103FB0008E3411F40C94BB2A1092940B0E94B168B9
:103FC00040E050E060E289E00F94844A40E050E035
:103FD00064E28AE00F94844A00912B0B10E0F80110
:103FE000EE0FFF1FEE0FFF1FE059FE4E6081718143
:103FF000828193810F94B3CE7093D8096093D709CF
:10400000000F111FF801E555FF4E808191810A973D
:104010009093D6098093D5091092D4091092D309B0
:1040200089E48093940B0E94B16881E08093D90960
:104030000C943C6240E050E060E289E00F94844AD6
:1040400040E050E064E28AE00F94844A89E480937F
:10405000940B0E94B16800912B0B01111DC080913F
:10406000300B9091310B60911817709119176817E8
:1040700079072CF4BC01990F880B990B04C0072E0B
:10408000000C880B990B0F947EC60F94B3CE7093DF
:10409000AC106093AB1020C08091340B9091350B25
:1040A0006091121770911317681779072CF4BC01EF
:1040B000990F880B990B04C0072E000C880B990BE5
:1040C0000F947EC610E0000F111F05551F4E0F9470
:1040D000B3CED8016D937C930F943C0E00912B0BC3
:1040E00010E0F801EE0FFF1FEE0FFF1FE059FE4E2C
:1040F00060817181828193810F94B3CE7093D809CE
:104100006093D709000F111FF801E555FF4E80811C
:1041100091810A979093D6098093D5091092D4097A
:104120001092D3090E94B16881E08093D9090C9460
:104130003C628091AF02882311F40C94C660809198
:104140002B0B811102C08AE101C086E30F94037634
:10415000892B11F00C94C6600C943C620F947A8FFA
:104160000C943C628091DC0981FF02C00C943C629B
:104170008091AF0E9091AE0E98130C94556240E072
:1041800050E06BE084E10F94844A40E050E065E148
:104190008AE00F94844A82E48093940B80935711B1
:1041A000E0912B0B34E0E39FF0011124E657FD4F23
:1041B00060817181828193816093D6107093D71052
:1041C0008093D8109093D910E090DE10F090DF101B
:1041D0000091E0101091E1102091DA103091DB1085
:1041E0004091DC105091DD10EBE2FBE0FF93EF9388
:1041F000812C912CE8E4AE2EE3E4BE2EF2EECF2E1D
:10420000F0E1DF2E0E94E19EE090DE10F090DF10E2
:104210000091E0101091E1102091DA103091DB1044
:104220004091DC105091DD10E091B91064E0E69F00
:10423000F0011124E657FD4F6081718182819381E5
:104240000F94894BE091B91084E0E89FF0011124AC
:10425000E657FD4F80819181A281B3818093D61072
:104260009093D710A093D810B093D910E0912B0B56
:10427000F0E0EE0FFF1FE555FF4E8091B6099091DB
:10428000B709918380830F943C0E1092D40E0F9443
:10429000A2110F900F900C943C628091DC0981FF79
:1042A00002C00C943C629091AF0E2091AE0E291387
:1042B0000C94596280618093DC090C943C6280917B
:1042C000DC0981FF02C00C943C629091AF0E2091FA
:1042D000AE0E29130C9459620C945C628091AF0E5F
:1042E0009091AE0E98130C943C620C946062909185
:1042F000AF0E8091AE0E98130C943C620C94EB625E
:10430000E0913902F0913A02EF3F9FEFF90711F483
:104310000C943C62EE0FFF1FE555FF4E80819181AA
:104320008B33A1E09A0714F00C943C6205969183BC
:1043300080830F943C0E0F943C0EE0913902F09173
:104340003A02EE0FFF1FE555FF4E4081518168E2B2
:1043500089E00F94844A0C943C62E0913902F09118
:104360003A02EF3FBFEFFB0711F40C943C62EE0FF3
:10437000FF1FE555FF4E808191811816190614F034
:104380000C943C620597918380830F943C0E0F94AC
:104390003C0EE0913902F0913A02EE0FFF1FE55515
:1043A000FF4E4081518168E289E00F94844A0C9469
:1043B0003C628091390290913A02019611F40C947A
:1043C0003C629091AF0E8091AE0E98130C9459629E
:1043D0000C9479638091390290913A02019611F41C
:1043E0000C943C629091AF0E8091AE0E98130C9499
:1043F00059620C947F639091AF0E8091AE0E98132A
:104400000C943C620C94856380915711823411F0B6
:104410000C943C621092940B8091CF0E9091D00E30
:104420008D7F9093D00E8093CF0E80911E028235A7
:1044300031F489E480931E020F945294D1C08934E0
:1044400009F0CEC081E48093940B40E050E068E036
:104450008AE00F94844A40906B0A50906C0A6090F6
:104460006D0A70906E0A4092DA105092DB106092E2
:10447000DC107092DD1020E030E040E752E4609103
:10448000F5027091F6028091F7029091F8020F9474
:1044900007CE4B015C01E090DE10F090DF10009140
:1044A000E0101091E1106091D6107091D7108091BA
:1044B000D8109091D91029EB30E13F932F93F2EE71
:1044C000CF2EF0E1DF2EA30192010E94E19E0F9416
:1044D000A2110F900F908091940B8E3411F40C94D4
:1044E000BB2A20E030E040E251E460916F0A709115
:1044F000700A8091710A9091720A0F9419CD7B0114
:104500008C016093DE107093DF108093E010909325
:10451000E1108091660A89838090F9029090FA02F6
:10452000A090FB02B090FC022091DA103091DB10D9
:104530004091DC105091DD106091D6107091D71031
:104540008091D8109091D910FE013196FF93EF938E
:104550000E94E19E0F94A2110F900F908091940BF6
:104560008E3411F40C94BB2A1092940B82E4809345
:10457000280240E050E063E08BE10F94844A40E081
:1045800050E067E581E20F94844A40E050E066E73E
:1045900081E20F94844A40E050E06DEE81E20F9496
:1045A000844A40E050E069E881E20F94844A40E0A8
:1045B00050E06AE28AE00F94844A81E080938C0B99
:1045C00010928F0B62E37AE086E20F94724C809136
:1045D000CF0E9091D00E98609093D00E8093CF0E16
:1045E000109257110C943C628091160C1092940B0F
:1045F0008823E9F01092160C8091CF0E9091D00E86
:1046000098609093D00E8093CF0E8091280240E066
:1046100050E0813431F469E08AE00F94844A0C94CC
:104620003C626AE28AE00F94844A0C943C621092E5
:104630008C0E10928F0BEAE6F9E084918F018823AB
:1046400051F0082E000C990B0F94949F0F5F1F4F91
:10465000F8018491F4CF1092400B81E00F9449044B
:1046600040E050E065E08AE00F94844A0C943C629C
:1046700080912D0A282F287083FF91C39091310AD1
:10468000923008F48CC3423B51056105710509F471
:10469000B9C07CF5433851056105710509F4A6C11F
:1046A000A4F44E3551056105710509F4F1C24F3589
:1046B00051056105710509F41DC3453351056105B7
:1046C000710511F00C943C6228C3423A5105610512
:1046D000710509F46BC0413B51056105710509F491
:1046E0007BC0403A51056105710511F00C943C62A4
:1046F000B3C04233F1E05F076105710509F45CC1A5
:104700004CF54C3C51056105710509F48FC0463EDE
:1047100051056105710509F45DC1453C510561050F
:10472000710511F00C943C620F94560941E050E081
:1047300065EC81E20F94844A41E050E060EA81E256
:104740000F94844A81E090E090935B0280935A0238
:104750000C943C62463331E053076105710509F45E
:1047600015C1ACF4433351406105710511F00C944F
:104770003C628DEF9FEF909359118093581140E068
:1047800050E06AE08AE00F94844A0C943C624A3319
:10479000A1E05A076105710509F430C14E37514057
:1047A0006105710509F4F2C10C943C620F9456093D
:1047B00041E050E062EA81E20F94844A41E050E037
:1047C00060EA81E20F94844A8EEF9FEF90935B0240
:1047D00080935A020C943C620F94560941E050E0D9
:1047E00061EB81E20F94844A41E050E060EA81E2AB
:1047F0000F94844A8FEF9FEF90935B0280935A024D
:104800000C943C620F94560941E050E062EB81E267
:104810000F94844A41E050E060EA81E20F94844AB8
:1048200010925B0210925A020C943C620F9456094B
:1048300041E050E06CEC81E20F94844A41E050E0AA
:1048400060EA81E20F94844A82E090E090935B02F8
:1048500080935A020C943C6200915A0210915B02C0
:1048600098012E5F3F4F2530310510F00C943C62CB
:104870009230D9F583E08093310A40E050E061E165
:104880008AE00F94844A80E58093940B80912E0AED
:10489000800F80932E0A00E010E020E030E04CE52D
:1048A00053EC60E070E088EA92EC0F94B9A70F94A3
:1048B000560980E697E090935B0280935A0240E0AD
:1048C00050E060EA81E20F94844A42E050E06CE0FC
:1048D0008BE10F94844A40E050E069E18AE00F9454
:1048E000844A1092940B0C943C629330D9F584E086
:1048F0008093310A40E050E061E18AE00F94844AFD
:1049000080E58093940B80912F0A800F80932F0A6B
:1049100000E010E020E030E04CE553EC60E070E0B7
:1049200084EA92E40F94B9A70F94560980E697E0C1
:1049300090935B0280935A0240E050E060EA81E28B
:104940000F94844A42E050E06CE08BE10F94844A7B
:1049500040E050E069E18AE00F94844A1092940BA1
:104960000C943C62943011F00C943C628091300ABB
:10497000800F8093300A40E050E06EE28AE00F94AE
:10498000844A8FE48093940B0C943C620F945609F4
:1049900040E050E060EA81E20F94844A40E050E059
:1049A00069E18AE00F94844A80E697E090935B0285
:1049B00080935A020C943C6283E090E090935911EA
:1049C0008093581140E050E06AE08AE00F94844AF6
:1049D0000C943C62109259111092581140E050E032
:1049E0006AE08AE00F94844A0C943C6240E050E014
:1049F0006DE68AE00F94844A0C943C6240E050E0FB
:104A000068E08AE00F94844A81E48093940B41E04B
:104A100061E081E00F9464571092940B0F94A211FF
:104A20000F94EA90109158118091310A8230B1F5BB
:104A300040E050E061E18AE00F94844A80E5809391
:104A4000940B00912E0A010F00932E0A002E000CE9
:104A5000110B20E030E0A901CA01B9010F94B9A7F8
:104A60000F94560980E697E090935B0280935A0278
:104A700040E050E060EA81E20F94844A42E050E076
:104A80006CE08BE10F94844A40E050E069E18AE0F9
:104A90000F94844A1092940B0C943C628330C9F5B5
:104AA00040E050E061E18AE00F94844A80E5809321
:104AB000940B00912F0A010F00932F0A002E000C77
:104AC000110B20E030E04CE553EC60E070E088EA48
:104AD00092EC0F94B9A70F94560980E697E0909353
:104AE0005B0280935A0240E050E060EA81E20F945A
:104AF000844A42E050E06CE08BE10F94844A40E04D
:104B000050E069E18AE00F94844A1092940B0C946F
:104B10003C62843011F00C943C6240E050E061E172
:104B20008AE00F94844A80E58093940B0091300AC8
:104B3000010F0093300A002E000C110B20E030E032
:104B40004CE553EC60E070E084EA92E40F94B9A77E
:104B50000F94560980E697E090935B0280935A0287
:104B600040E050E060EA81E20F94844A42E050E085
:104B70006CE08BE10F94844A40E050E069E18AE008
:104B80000F94844A1092940B0C943C621092940BF4
:104B900080912E0A40912F0A042F081B4091300A61
:104BA000142F181B602F002E000C770B880B990B0D
:104BB0000F947EC62DEC3CEC4CEC5DEB0F9486C163
:104BC0006093C70A7093C80A8093C90A9093CA0A6F
:104BD000612F012E000C770B880B990B0F947EC66A
:104BE0002DEC3CEC4CEC5DEB0F9486C16093C30A5A
:104BF0007093C40A8093C50A9093C60A0023A1F05B
:104C000040E050E06FE18AE00F94844A07FF07C05C
:104C1000E02FFF27E1950CF4F09508E00E0F402FF0
:104C2000000F550B64E015C01123B9F040E050E0CF
:104C300060E28AE00F94844A17FF07C0212F3327D0
:104C400021950CF4309518E0120F412F110F550BE0
:104C500065E08BE10F94844A11C014E4109357115E
:104C600040E050E06BE084E10F94844A40E050E083
:104C700065E18AE00F94844A1093940B88E890E0F1
:104C80009093C20A8093C10A0F94F36D0C943C6216
:104C90004091300A80912E0A142F181BC1F040E079
:104CA00050E060E28AE00F94844A17FF07C0812F2A
:104CB000992781950CF4909518E0180F412F110F4A
:104CC000550B65E08BE10F94844A0C943C6214E42C
:104CD0001093571140E050E06BE084E10F94844A58
:104CE00040E050E065E18AE00F94844A1093940B11
:104CF0000C943C6214E41093571140E050E06BE0D8
:104D000084E10F94844A40E050E065E18AE00F942A
:104D1000844A1093940B0C943C62909157119434F4
:104D200011F00C943C621092310A877F80932D0A17
:104D30001092940B1092A6101092A5100F94F80DDB
:104D40001092AC101092AB100F943C0E1092AE105B
:104D50001092AD100F943C0E10928C0E10928F0B8F
:104D6000EFE5F9E084918F01882351F0082E000CC3
:104D7000990B0F94949F0F5F1F4FF8018491F4CF0C
:104D80001092400B80E00F94490440E050E065E051
:104D90008AE00F94844A109257110C943C624E386A
:104DA000F1E05F0710F00C943C62FA018827EE589E
:104DB000FF4F8F4F0D948BD180912202909123024F
:104DC000826090932302809322020C943C62809133
:104DD0002202909123028460909323028093220206
:104DE0000C943C62809122029091230288609093FF
:104DF0002302809322020C943C62809122029091C3
:104E00002302806190932302809322020C943C62DF
:104E100080912202909123028062909323028093DA
:104E200022020C943C620F94D33A009781F4809153
:104E30002202909123029460909323028093220295
:104E4000809196108150809396100C943C6201974B
:104E500011F00C943C6280912202909123029460A4
:104E6000909323028093220240E050E067E381E2C6
:104E70000F94844A40E050E061E08BE10F94844A53
:104E8000809196108150809396100C943C62109201
:104E90008C0E10928F0BE4E5F9E084918F0188234A
:104EA00051F0082E000C990B0F94949F0F5F1F4F29
:104EB000F8018491F4CF1092400B81E00F944904E3
:104EC00040E050E065E08AE00F94844A0C943C6234
:104ED0006EE575E089EC97E10F94B39780917219B4
:104EE000882311F40C943C626FE775E089EC97E13C
:104EF0000F94B39741E061E083E799E10F94773D28
:104F00008FEF9FEF9093611980936019412C512C82
:104F100032017301620100E010E07FE0A72E79E129
:104F2000B72E9E012F5F3F4F190188248394912C47
:104F30004091111C5091121C6091131C7091141C13
:104F400080916C1B90916D1BA0916E1BB0916F1B9B
:104F500084179507A607B70710F40C94A2631AC02C
:104F60000115110511F40C94C76380E00F947DB511
:104F70006B017C0181E00F947DB52B013C0120E0A9
:104F800030E0A901C701B6010F94F1CF181614F053
:104F90000C94EB6380E00F94F44C20E030E0A90126
:104FA000C701B6010F9478C618165CF020E030E017
:104FB000A901C301B2010F9478C6181614F00C941D
:104FC000FF6380905C0290905D02A0905E02B090C2
:104FD0005F02A5019401C701B6010F9478C6811143
:104FE00014C020E030E0A901C701B6010F94F1CF51
:104FF00018165CF420E030E0A901C301B2010F945F
:1050000078C6181614F00C94FF632091600230915A
:1050100061024091620250916302C65DDE4F2883B7
:1050200039834A835B83CA52D140C301B2010F94D2
:1050300078C681111EC020E030E0A901C301B20191
:105040000F94F1CF18165CF420E030E0A901C701FD
:10505000B6010F9478C6181614F00C94FF63A501DE
:105060009401C701B6010F9478C6882311F40C94FB
:10507000FF6320E030E0A901C701B6010F9478C6B4
:1050800020E030E040E251E418161CF0C501B40104
:1050900002C0C701B6010F9486C10F94B3CE6093CE
:1050A000080220E030E0A901C301B2010F9478C6E4
:1050B00020E030E040E251E418164CF0C65DDE4FCF
:1050C000688179818A819B81CA52D14002C0C30123
:1050D000B2010F9486C10F94B3CE6093090269EBBD
:1050E00078E089EC97E10F94B39740E050E06FE5EA
:1050F0008AE00F94844A60915C0270915D02809115
:105100005E0290915F020F94B3CEAB016DE489E033
:105110000F94844A20E030E040E251E460915C0268
:1051200070915D0280915E0290915F020F9486C142
:105130000F94B3CE0AE010E0CB01B8010F945CD11C
:10514000AC016EE489E00F94844A60916002709132
:10515000610280916202909163020F94B3CEAB0121
:105160006FE489E00F94844A20E030E040E251E4AB
:10517000609160027091610280916202909163027D
:105180000F9486C10F94B3CECB01B8010F945CD1BC
:10519000AC0160E589E00F94844A809108021AE02E
:1051A000612F0F943BD1482F880F550B61E589E0A3
:1051B0000F94844A80910802612F0F943BD1492FAC
:1051C000990F550B62E589E00F94844A809109029A
:1051D000612F0F943BD1482F880F550B63E589E071
:1051E0000F94844A80910902612F0F943BD1492F7B
:1051F000990F550B64E589E00F94844ABCC18091F6
:105200007219882311F40C943C628091C2198111A7
:105210000C943C62CDB6DEB68091E2099091E30930
:105220000F94F13CE3E7F9E1DF010D900020E9F78D
:105230008DB79EB78A1B9B0B9C012159364E0FB62A
:10524000F8943EBF0FBE2DBF0DB71EB70F5F1F4FA7
:10525000FF93EF9384EF98E09F938F931F930F93A7
:105260000F9429C6780134E0E30EF11C0F900F90E3
:105270000F900F900F900F90D7018C91882349F0D9
:10528000082E000C990B0F9409D4F70181937F012C
:10529000F3CFC8010F94BB0480EF98E00F944C0447
:1052A0000FB6F894DEBE0FBECDBE0C943C6281E01A
:1052B00080938C0E809122029091230292609093B1
:1052C0002302809322020C943C62809122029091EE
:1052D0002302916090932302809322020C943C62FB
:1052E0008091220290912302806890932302809300
:1052F00022020C943C6240E050E062E18AE00F94AC
:10530000844A0C943C6240E050E06CE18AE00F94E7
:10531000844A80E00F9449041092150C1092140CEA
:105320001092130C81E08093400B0C943C6210921D
:105330008C0E10928F0BE5EEF8E084918F0188239C
:1053400051F0082E000C990B0F94949F0F5F1F4F84
:10535000F8018491F4CF1092400B0E94B16881E073
:105360000F94490440E050E065E08AE00F94844ADD
:105370000C943C628091AB109091AC10892B29F079
:105380001092AC101092AB1008C08091660B9091F7
:10539000670B9093AC108093AB100F943C0E10925F
:1053A000150C0C943C628091AD109091AE10892B3D
:1053B00029F01092AE101092AD1008C08091630BCE
:1053C0009091640B9093AE108093AD100F943C0EAF
:1053D0001092140C0C943C628091A5109091A61030
:1053E000892B29F01092A6101092A5101CC0809154
:1053F0002B0A90912C0A6091290A70912A0A681749
:1054000079072CF4BC01990F880B990B04C0072E67
:10541000000C880B990B0F947EC60F94B3CE70933B
:10542000A6106093A5100F94F80D1092130C0C9415
:105430003C6281EE98E00F944C040C943C6240E096
:1054400050E06EE18AE00F94844A0C943C6240E0A4
:1054500050E065E08AE00F94844A10928C0E10921E
:105460008F0BE6EDF8E084918F01882351F0082E30
:10547000000C990B0F94949F0F5F1F4FF8018491BC
:10548000F4CF1092400B88E793E090934902809309
:1054900048020F94F36D0C943C6240E050E06AE1E6
:1054A0008AE00F94844A0F94E83880917219882317
:1054B00011F40C943C628091951080939610BDE697
:1054C000EB2EB0E1FB2E11E8C12E10E1D12E00E051
:1054D00010E08091951090E008171907FCF463E73D
:1054E00079E18AEE99E10F94D2505701D7018D915D
:1054F0009D917D010F94F13CF50180819181D60150
:105500008D939D936D018091C219882321F083E7CB
:1055100099E10F94DF410F5F1F4FDBCF87E090E0F1
:105520000F943E950C943C62809148029091490200
:105530008036974041F488E793E090934902809346
:1055400048020F94F36D40E050E068E08AE00F9469
:10555000844A81E48093940B80911A118823D1F0BE
:1055600040E061E081E00F9464570F94A2118091B4
:10557000940B8E3489F48FEF9FEFDC0180936B02E4
:1055800090936C02A0936D02B0936E021092E409A6
:105590000C948C6841E0E5CF81E00F9449041092AF
:1055A000940B83ED98E00F944C040F94A21180911A
:1055B000940B8E3401F340E050E06BE08AE00F94EE
:1055C000844A0C943C6240E050E064E08AE00F942E
:1055D000844A0C943C6240E050E064E28AE00F941C
:1055E000844A8091120C82608093120C89E480932B
:1055F000940B40E050E060E289E00F94844A6091AF
:10560000660B7091670B072E000C880B990B0F949B
:105610007EC640E050E00F94A0770F94F36D6BE1ED
:1056200079E086E698E10F94999F66E375E086E657
:1056300098E10F94999F60911303709114038091E6
:1056400015039091160342E050E00F9476A06AE3B0
:1056500075E086E698E10F94999F2DEB37E346E0DD
:105660005EE360910B0370910C0380910D039091A8
:105670000E030F9407CE42E050E00F9476A06EE345
:1056800075E086E698E10F94999F2DEB37E346E0AD
:105690005EE3609103037091040380910503909190
:1056A00006030F9486C142E050E00F9476A060910B
:1056B000630B7091640B072E000C880B990B0F94F1
:1056C0007EC641E050E00F94A0770F94F36D6BE13C
:1056D00079E086E698E10F94999F66E375E086E6A7
:1056E00098E10F94999F609117037091180380912E
:1056F000190390911A0342E050E00F9476A06AE3F8
:1057000075E086E698E10F94999F2DEB37E346E02C
:105710005EE360910F0370911003809111039091EB
:1057200012030F9407CE42E050E00F9476A06EE390
:1057300075E086E698E10F94999F2DEB37E346E0FC
:105740005EE36091070370910803809109039091D3
:105750000A030F9486C142E050E00F9476A01092A5
:10576000940B0E94B16840E050E06BE084E10F943C
:10577000844A40E050E065E18AE00F94844A81E089
:105780000F94490484E4809357118093940B0C94F4
:105790003C6240E050E068E28AE00F94844A0C9456
:1057A0003C6240E050E062E18AE00F94844A0C944D
:1057B0003C6210928C0E10928F0BE8ECF8E0849112
:1057C0008F01882351F0082E000C990B0F94949FA1
:1057D0000F5F1F4FF8018491F4CF1092400B0E948D
:1057E000B16840E050E065E08AE00F94844A0C9490
:1057F0003C6240E050E062E18AE00F94844A0C94FD
:105800003C6282E580931E028091120C816080933D
:10581000120C40E050E06BE581E20F94844A40E0D6
:1058200050E06CE581E20F94844A40E050E060E093
:105830008BE10F94844A40E050E06AE781E20F94E4
:10584000844A40E050E069E781E20F94844A40E0F6
:1058500050E06DE18AE00F94844A8FEF80932B0B28
:105860000C943C6240E050E06CE68AE00F94844A7D
:105870000C943C6240E050E062E18AE00F94844A7C
:1058800040E050E06BE581E20F94844A40E050E054
:105890006CE581E20F94844A40E050E060E08BE1E7
:1058A0000F94844A40E050E06AE781E20F94844A12
:1058B00040E050E069E781E20F94844A8091120C45
:1058C0008E7F8093120C0C943C6210928C0E10927E
:1058D0008F0BEDEBF8E084918F01882351F0082EB7
:1058E000000C990B0F94949F0F5F1F4FF801849148
:1058F000F4CF1092400B40E050E065E08AE00F9456
:10590000844A40E050E06BE581E20F94844A40E035
:1059100050E06CE581E20F94844A40E050E060E0A2
:105920008BE10F94844A40E050E06AE781E20F94F3
:10593000844A40E050E069E781E20F94844A809114
:10594000120C8E7F8093120C0C943C6241E050E06C
:105950006BE581E20F94844A40E050E06CE581E21F
:105960000F94844A41E050E060E08BE10F94844A58
:1059700041E050E06AE781E20F94844A41E050E060
:1059800069E781E20F94844A10922B0B0C943C62DD
:1059900040E050E06BE581E20F94844A41E050E042
:1059A0006CE581E20F94844A41E050E060E08BE1D5
:1059B0000F94844A41E050E06AE781E20F94844A00
:1059C00041E050E069E781E20F94844A81E08093EE
:1059D0002B0B0C943C6280914802909149028036D6
:1059E000974041F488E793E09093490280934802FE
:1059F0000F94F36D80912B0B8F3F11F40C943C624C
:105A00000F9474BD0C943C628091480290914902BD
:105A10008036974041F488E793E090934902809361
:105A200048020F94F36DE0912B0BEF3F11F40C94AF
:105A30003C6281E08093920BF0E0EE0FFF1FE55592
:105A4000FF4E84E091E0918380830F943C0E81E4CB
:105A50008093940B40E050E068E08AE00F94844A21
:105A600080911A11882311F040E001C041E061E00B
:105A700081E00F9464570F94A2118091940B8E349F
:105A800009F479CD80E090E0A3E4B3E48093DE10E4
:105A90009093DF10A093E010B093E1108090170B6B
:105AA0009090180BA090190BB0901A0B2091DA105F
:105AB0003091DB104091DC105091DD106091D610D8
:105AC0007091D7108091D8109091D910A9EB6A2EBF
:105AD000A0E17A2E7F926F92B2EECB2EB0E1DB2E58
