:100000000C94DF170C9410180C9410180C94101802
:100010000C9410180C9410180C9410180C941018C0
:100020000C9410180C9410180C9410180C941018B0
:100030000C9410180C9410180C9410180D94BD0604
:100040000C9410180C9410180C9410180C94101890
:100050000C9410180C9410180D94B90C0D94B34313
:100060000C9410180D94CA450D94A0450C941018CA
:100070000C9410180C9410180C9410180C94101860
:100080000D94ED710C9410180C9410180C94101819
:100090000D946A450D9440450C9410180C9410185A
:1000A0000C9410180C9410180C9410180C94101830
:1000B0000C9410180C9410180C9410180C94101820
:1000C0000C9410180C9410180C9410180D940A45E8
:1000D0000D94E0440C9410180C9410180C94101803
:1000E0000C941018285E45628B304F2EC25B6E292F
:1000F000895F842945624562455AC3296029456262
:10010000FB26F0264562703A456245627E5A945F4E
:100110003D41534169417F4117429541C45F2F41A1
:10012000F5432F5EBD3AAE3AAB41BF41D95A79296A
:10013000712760292F2EA83C472E465FDC4F3F2EAB
:10014000372E675FC45D45627D303F5F5B5A4F3D30
:100150008C291C2706274562065B9D2AD93A4562F1
:10016000145FE85E1C49823208292D4DBD37CC3A18
:1001700086324562855E3E5E4930333133310F3120
:100180008A328E333B2CDC29F529CF30F130E5263D
:100190001127456245626029C330AF2CD12C222A39
:1001A0004D3C2D3C4562C45FC45FB05D905BC45F55
:1001B000C45FEA54115DE55CB95C355C615C8D5CE3
:1001C000FA5DC56079440344EF4400475946E3456E
:1001D00045624562C25BF42C0D2DC330C25BBB5F30
:1001E00045624562055FD5410C4CF8474562502792
:1001F0002957EB41014245625B424562823B7A3BB3
:1002000045624562F13545624562456218366A3697
:100210005536C82FB22F8A3B582ED52E592F862FF0
:100220007355D92F7C484036104845624562456277
:10023000456245624562456245624562282A302A28
:10024000562A4562456226483A481C490C4C184CCF
:100250001D4D45626150C550F44F4850344E4562C3
:100260004562514E4562E1526A39683A2553504819
:100270004562B351FD5149529552AB5166484562B2
:1002800069536B54A656CE5745625C56CF46CF464F
:10029000B7566034D22BB64F3D4E6F4E414F494F4B
:1002A0006029BE4F456245624562456245624562CE
:1002B0004562A05D4562815BF15D3A3A4562456207
:1002C00045624562456245624562F2594562456252
:1002D0004562456245624562456245623A554B5505
:1002E0009754456245624562456245624562456292
:1002F00045624562456245624562456245624562C6
:1003000045624562456245624562456245624562B5
:1003100045624562456245624562456245624562A5
:100320004562456245624562456245624562456295
:10033000456245624562456245624562F140B340AF
:10034000B74379434562DE4645624562CC3A022CAA
:1003500069432F42CC3A2F426C4945424542DA2B41
:10036000225F1B5FBE57C6571C5E5C55315F385F0E
:10037000FE5EEF5E545B595B5E5B635B685B4F5B8D
:10038000BD4BDC4B4F2EEC2AE22B45621C5E5C55CC
:10039000A0296E2C45624562D25A69514562456278
:1003A0004562C65745627E5A45626D5B725BE930B5
:1003B000432C6B553830323545623D514562BE574E
:1003C00045624562775B45627C5B7030974BAA4B18
:1003D0001C5EFA5DF636D237E550FA3BD637F42A82
:1003E000A83CFE361F4F62399A38C9561B574562E2
:1003F000D93AE550C45F4562923B0A2C3151C45F43
:10040000AD028302A9027B02B702A702BF029702D4
:100410009902E102C902C702B10291028D026D0286
:100420008D02FD02C3026F028F02C102CD02DB0208
:10043000D302CF02BB027502D70287027F02E50218
:10044000CB027102E902A302F502D1027702D902BE
:100450009F02E3026902E902EB02C5028102AB02DC
:10046000F902B9029502BD02DF02F102930279029C
:10047000F7027D02ED02EF02B502DF02AF02FB02DE
:10048000A102084AD73B3BCE016E84BCBFFDC12F01
:100490003D6C74319ABD56833DDA3D00C77F11BE75
:1004A000D9E4BB4C3E916BAAAABE000000803F0578
:1004B000A84CCDB2D44EB93836A9020C50B99186A9
:1004C00088083CA6AAAA2ABE000000803F000D941E
:1004D000F9420D94287B0D94C4020D940F1C0D94C9
:1004E0008F1B0D94FD7A0D9444430D944C1C0D9478
:1004F000167B0D943D800D94790D0D9451800D94D3
:10050000047B0D94367B0D94500D0D94C1020D9417
:10051000017B0D940D430D9440BF0D94AB1C0D94C5
:10052000051E0D94D01C0D9435800D9419800D94EA
:10053000BC0D0D94BE0D0D9432BD0D9442430D942F
:10054000207B0D9492800D94087B0D941DD20D9408
:10055000A00D0D946C0D0D9405800D94430D0D941C
:100560007E800D94EB1B0D94C0420D9474800D940D
:10057000930D0D940F800D94AD1B0D9423800D945D
:10058000BA0D0D94411D0D94821C0D94327B0D9477
:10059000711B0D94C80D0D94F77A0D945F1D0D9489
:1005A000CD1B0D94127B0D94D61D0D9491430D948B
:1005B0009B1D0D941A7B0D947D1D0D94C0020D940E
:1005C0009C800D94C00D0D94247B0D94F37A0D94B2
:1005D0001B430D943B7B0D942E7B0D945B800D94FF
:1005E0006A800D942D800D94EA420D940C7B0D943D
:1005F00047800D940A800D9488800D946A1C4E41AA
:100600004E494E495459494E46CDCCCC3D0AD7238C
:100610003C17B7D13877CC2B329595E6241FB14FD4
:100620000A000020410000C84200401C4620BCBE19
:100630004CCA1B0E5AAEC59D746364696E6F7073AD
:100640007578585B003B4C415945523A2564003B54
:10065000202020757365526166742C2564004D3628
:100660003035205325640043616C63756C75733AB3
:1006700020200043616C63756C75733A2020004341
:10068000616C63756C75733A2020005375726669EE
:100690006E6720300A00417420426F74746F6D20C1
:1006A000537469636B657200253033642E253033D3
:1006B00064253033642E2530346400417420426F49
:1006C00074746F6D20537469636B657200253033E9
:1006D000642E25303364253033642E253034640095
:1006E00025730025752E25303275005231390052A0
:1006F00031362F52313700417420426F74746F6D60
:1007000020537469636B657200253033642E253085
:100710003364253033642E25303464002573005350
:10072000757266696E6720300A004732382058308B
:1007300020593000543000543100543000543000FF
:1007400053757266696E6720300A0047343300477C
:1007500034310047343000473334004734330047E6
:1007600034330047343100473430004D3834004DC5
:100770003834004D3834005A32204F666673657441
:100780003A20004F4B207365636F6E642045787488
:100790007275646572210A005A20706F73697469FA
:1007A0006F6E3A20005A20706F736974696F6E3AE9
:1007B00020004D3834005A312050726F6265206F2E
:1007C00066667365743A20004F4B206669727374D5
:1007D00020457874727564657221200A005A207071
:1007E0006F736974696F6E3A20005A20706F736975
:1007F00074696F6E3A200043616C63756C75733A6F
:1008000020200043616C63756C75733A20200043AF
:10081000616C63756C75733A20200043616C63757D
:100820006C75733A20200036302064656772656508
:1008300073200A0054300054300054300043616C7F
:100840006962726174696F6E205375636365737357
:1008500066756C0A005430004A756D70206F7665BD
:10086000722073637265773120616E6420736372E6
:10087000657732200A004A756D70206F76657220A8
:10088000736372657731200A00473334004733348D
:1008900000473334005430004733340053757266D8
:1008A000696E6720300A0053757266696E67203082
:1008B0000A0053757266696E6720300A00537572BC
:1008C00066696E6720300A0053757266696E67202C
:1008D000300A0054300053757266696E6720300A22
:1008E000004D33340053757266696E6720300A001C
:1008F0004D3234004D3233202573004D3234004DDB
:1009000032332025730077696C6C2062652064693E
:1009100073746F727465642062792025642E2531AA
:1009200064253164206D6D2E0054686520666972FF
:100930007374206C61796572207072696E7465647D
:1009400020776974682074686520257320686F7447
:10095000656E640053757266696E6720300A0053D5
:10096000757266696E6720300A0053757266696E2B
:100970006720300A002D2D3E253034782000526546
:1009800061647920746F2053746172740A00256465
:10099000206B6D2E0067636F646520666F756E64F3
:1009A0000A0020746F20537461727420446973705C
:1009B0006C61792066726F6D2052657365740054A6
:1009C0006F6F6B2000646973706C6179206F6E6C5F
:1009D000696E6521002E00312F320A0053442070C9
:1009E00072696E74696E67206279746520002053A5
:1009F000544F50205052494E54200A00473238205C
:100A00005830205930004D333500473730005245BB
:100A100053554D450A004D39393000537461727495
:100A2000696E67205A2043616C6962726174696FF4
:100A30006E2057697A6172640A000A00205A3A20CF
:100A40000020593A200020583A20004265640045B1
:100A50006E642066696C65206C6973740A00426577
:100A600067696E2066696C65206C6973740A00257D
:100A700069206D696E2C20256920736563006F6B9A
:100A8000004649524D574152455F4E414D453A4D02
:100A900061726C696E2042434E3344205369676D26
:100AA000613B204649524D574152455F564552538E
:100AB000494F4E3A30312D322E302E362D6164653D
:100AC0006E696E3B204649524D574152455F555223
:100AD0004C3A68747470733A2F2F67697468756242
:100AE0002E636F6D2F42434E33442F42434E3344A7
:100AF0005369676D612D4669726D776172653B2040
:100B000050524F544F434F4C5F56455253494F4EEE
:100B10003A312E303B204D414348494E455F5459B0
:100B200050453A42434E3344205369676D613B2040
:100B300045585452554445525F434F554E543A32EE
:100B40003B20555549443A00535441544953544964
:100B500043532052455345540A00504F534954497A
:100B60004F4E20484F4D453A2000220A00556E6BEB
:100B70006E6F776E20636F6D6D616E643A20220038
:100B800020636F6C6420657874727573696F6E2072
:100B900070726576656E7465640A006563686F3AA5
:100BA000000A00207A3A200020793A200020783A82
:100BB0002000426564004578747275646572207225
:100BC000656C6561736564206163746976653A205C
:100BD000005A205349474D4120486F6D65640A0013
:100BE0004578747275646572206163746976653ADC
:100BF00020004D3834005374617274696E67205858
:100C00002043616C6962726174696F6E2057697A02
:100C10006172640A004D3834005374617274696EF5
:100C20006720592043616C6962726174696F6E203C
:100C300057697A6172640A0042656420486561748C
:100C400065640A0020573A004578747275646572CD
:100C5000204865617465640A0020573A0020450009
:100C6000205A00205900483D5800205A3A00205987
:100C70003A0020436F756E7420583A200020453AA0
:100C800000205A3A0020593A00583A007A5F6D69BC
:100C90006E3A2000795F6D61783A2000785F6D616F
:100CA000783A2000785F6D696E3A2000486F74656D
:100CB0006E64206F6666736574733A005049442011
:100CC0004175746F74756E652066696E69736865C9
:100CD00064212050757420746865206C61737420E1
:100CE0004B702C204B6920616E64204B6420636F35
:100CF0006E7374616E74732066726F6D2061626FC3
:100D0000766520696E746F20436F6E6669677572D1
:100D10006174696F6E2E680A0050494420417574F1
:100D20006F74756E65206661696C656421207469F5
:100D30006D656F75740A0020403A006F6B20543A5D
:100D4000006F6B20423A00504944204175746F7423
:100D5000756E65206661696C6564212054656D70EF
:100D60006572617475726520746F6F206869676859
:100D70000A00204B643A2000204B693A2000204BA7
:100D8000703A200020436C617373696320504944BA
:100D9000200A002054753A2000204B753A2000208C
:100DA0006D61783A2000206D696E3A200020643A27
:100DB000200020626961733A20004E6F7420534412
:100DC000207072696E74696E670A002F00534420A8
:100DD0007072696E74696E67206279746520005064
:100DE00061757365206174200050415553450A00B8
:100DF0005344207072696E74696E672062797465FD
:100E000020002E0A0044656C6574696F6E2066616F
:100E1000696C65642C2046696C653A200046696CF3
:100E2000652064656C657465643A002E0A006F7015
:100E3000656E206661696C65642C2046696C653A54
:100E40002000473238205830205930000A0A005319
:100E500074616E6461726420446576696174696F5F
:100E60006E3A20000A004D65616E3A20000A0020AB
:100E700020207A3A20000A00793A2000783A2000AF
:100E80003F537065636966696564206E756D626560
:100E900072206F66206C65677320696E206D6F76B7
:100EA000656D656E74206E6F7420706C6175736112
:100EB000626C652E0A003F537065636966696564FC
:100EC000205920706F736974696F6E206F7574207C
:100ED0006F662072616E67652E0A003F537065630E
:100EE0006966696564205820706F736974696F6EF4
:100EF000206F7574206F662072616E67652E0A0020
:100F00003F5370656369666965642073616D706CD9
:100F1000652073697A65206E6F7420706C617573DB
:100F200061626C652E0A0046756C6C20737570707A
:100F30006F72742061743A20687474703A2F2F3382
:100F4000647072696E74626F6172642E636F6D2F6C
:100F5000666F72756D2E7068700A004D3438205AB5
:100F60002D50726F626520526570656174616269AF
:100F70006C69747920746573742E20202056657214
:100F800073696F6E20322E30300A003F56657262F0
:100F90006F7365204C6576656C206E6F7420706C85
:100FA00061757361626C652E0A002C207361766531
:100FB000645F466C61675F66616E6C617965725FE4
:100FC0006D6972726F723A20002C207361766564CD
:100FD0005F6665656472617465313A20002C207328
:100FE000617665645F6665656472617465303A2038
:100FF000002C2073617665645F66616E6C61796553
:10100000723A20002C2073617665645F74656D70A0
:101010006265643A20002C2073617665645F7465B4
:101020006D70303A20002C2073617665645F7465C2
:101030006D70313A20002C2073617665645F6669BB
:101040006C65706F736974696F6E3A20002C207341
:10105000617665645F655F706F736974696F6E3A1E
:1010600020002C2073617665645F746F6F6C5F6124
:1010700063746976653A20002C2073617665645F3D
:101080007A5F706F736974696F6E3A20002C2073F9
:10109000617665645F795F706F736974696F6E3ACA
:1010A00020002C2073617665645F785F706F7369D0
:1010B00074696F6E3A200053415645205052494E94
:1010C00054204C4F473A0A006563686F3A005072EB
:1010D000696E74207265636F766572792075700A27
:1010E000004E6F74207072696E74207265636F7643
:1010F0006572792075700A00535543434553530A6E
:101100000056616C756573206F7574206F66207270
:10111000616E67650A0056616C756573206F757442
:10112000206F662072616E67650A0056616C756596
:1011300073206F7574206F662072616E67650A0098
:1011400056616C756573206F7574206F66207261CF
:101150006E67650A00535543434553530A00566171
:101160006C756573206F7574206F662072616E6791
:10117000650A0056616C756573206F7574206F6623
:101180002072616E67650A0056616C756573206F29
:101190007574206F662072616E67650A0056616C17
:1011A000756573206F7574206F662072616E676558
:1011B0000A0020502000205A2000205920005365AA
:1011C00074204D353330205820004D6F6465203336
:1011D000203A20507369636F2020202D3E20524713
:1011E000423A20526973652646616C6C002A2A2DAA
:1011F0003E20004D6F64652032203A206379636C95
:10120000652020202D3E205247423A20362073741C
:1012100061746573002A2A2D3E20004D6F6465209D
:1012200031203A2072616E646F6D20202D3E205275
:1012300047423A202B31202B32202B332C2064754F
:1012400072696E67207072696E74696E67002A2A0F
:101250002D3E20004D6F64652030203A2064656685
:1012600061756C74202D3E205247423A203235354C
:101270002032353520323535002A2A2D3E20004CCB
:101280006564206D6F646573203A004D35333620F8
:101290004C5B6D6F64655D00486F74656E64206FB4
:1012A0006666736574733A0054696D6520696E6192
:1012B00063746976650A00507572676520646973A6
:1012C00074616E63650A004D383420582059205AE5
:1012D0002045005A204F6666736574206F6B0A00C4
:1012E0005A204F6666736574203A200A007A5F6D53
:1012F00061783A20007A5F6D696E3A20005A204F7B
:10130000666673657400504F534954494F4E2048E8
:101310004F4D453A2000436F6F6C696E6720446FF4
:10132000776E204865617465720A005072696E7448
:1013300065722068616C7465642E206B696C6C2822
:10134000292063616C6C6564210A004572726F72BA
:101350003A006C61796572206865696768743A2043
:1013600000496E7374616C6C202564202573206FB6
:101370006E2074686520257320686F74656E642E16
:101380000025752E25303275005231390052313624
:101390002F5231370050757267652046696C616D58
:1013A000656E740A0053757266696E6720310A00B3
:1013B00053757266696E6720300A00425249474889
:1013C000544E4553533A2000220A00656E717565EC
:1013D000696E67202200220A00656E717565696E6C
:1013E00067202200202F0020400020403A0070019A
:1013F0002C0190012701B0012201C0011D01F00163
:1014000018011002130130020E016002090190025E
:101410000401C002FF000003FA004003F50080034E
:10142000F000D003EB002004E6007004E100E004CB
:10143000DC004005D700C005D2004006CD00D00634
:10144000C8008007C3003008BE00F008B900C0091A
:10145000B400B00AAF00B00BAA00D00CA500000E7B
:10146000A000500F9B00C010960050129100001475
:101470008C00C0158700B0178200B0197D00D01B0A
:101480007800001E730040206E0090226900F02456
:10149000640040275F0090295A00E02B5500102E71
:1014A000500020304B0010324600E03341009035B0
:1014B0003C001037370070383200A0392D00B03AA8
:1014C0002800A03B2300603C1E00103D1900903D09
:1014D0001400103E0F00703E0A00C03E0500003FA1
:1014E0000000487973746572657369732074656D63
:1014F00070657261747572650A00546865726D6119
:101500006C2072756E617761792070726F7465639B
:1015100074696F6E206279204865617465725F49F5
:10152000443A0A004572726F723A004572726F72E5
:10153000283833293A2042656420746865726D69E1
:1015400073746F72206E6F74206465746563746564
:10155000640A004572726F72283832293A20526943
:1015600067687420746865726D6973746F72206E39
:101570006F742064657465637465640A00457272F3
:101580006F72283831293A204C656674207468657A
:10159000726D6973746F72206E6F7420206465744D
:1015A00065637465640A002053544F5020505249BB
:1015B0004E54200A004572726F72283833293A203F
:1015C00042656420746865726D6973746F72206E11
:1015D0006F742064657465637465640A00205354F5
:1015E0004F50205052494E54200A004572726F727B
:1015F000283832293A205269676874207468657205
:101600006D6973746F72206E6F74206465746563A6
:101610007465640A002053544F50205052494E5470
:10162000200A004572726F72283831293A204C65C1
:10163000667420746865726D6973746F72206E6F62
:1016400074202064657465637465640A00205354D3
:101650004F50205052494E54200A004552524F528A
:10166000283839293A20424544206973206E6F7426
:101670002068656174696E67002053544F50205094
:1016800052494E54200A004552524F5228383929A7
:101690003A20486F74656E64202564206973206E5B
:1016A0006F742068656174696E67006563686F3A7E
:1016B00000526561647920746F204C6F61642F550E
:1016C0006E6C6F6164200A0053757266696E6720E4
:1016D00030200A005430004D383420582059205A08
:1016E000204500526573656E643A20006F6B0A00F6
:1016F0004475706C69204D6F6465204F4E0A004D33
:101700006972726F72204D6F6465204F4E0A003B04
:101710002020204275696C642074696D653A20252B
:10172000642025732025642025730A003B507269CC
:101730006E742074696D653A202564202573202518
:1017400064202573202564202573003B54494D45B2
:101750003A256C64003B202020506C6173746963EF
:10176000207765696768743A2025642E25646700D0
:101770003B46696C616D656E7420757365643A20D3
:1017800025642E25646D2025642E256467003B4664
:10179000696C616D656E7420757365643A20256CA3
:1017A000642E256C646D003B4578747275646572B7
:1017B0007320757365643A205425642025642E25B2
:1017C00064205425642025642E2564003B202020BD
:1017D00065787472756465724469616D657465726B
:1017E0002C312C25642E2564003B20202065787444
:1017F00072756465724469616D657465722C2564E7
:101800002E25642C25642E2564003B20202065783D
:101810007472756465724469616D657465722C25B6
:10182000642E25640053442063617264206F6B0A48
:10183000006F70656E526F6F74206661696C6564CD
:101840000A00766F6C756D652E696E69742066612D
:10185000696C65640A00534420696E69742066618E
:10186000696C0A0043616E6E6F7420656E746572F8
:10187000207375626469723A20004D313037007A06
:1018800070726F62653A200057726974696E6720E2
:10189000746F2066696C653A20002E0A006F7065CF
:1018A0006E206661696C65642C2046696C653A201F
:1018B000002E0A006F70656E206661696C65642C8D
:1018C0002046696C653A200046696C652073656C3A
:1018D00065637465640A002053697A653A2000469E
:1018E000696C65206F70656E65643A20002E0A0091
:1018F0006F70656E206661696C65642C2046696C4A
:10190000653A20004E6F77206672657368206669BD
:101910006C653A20004E6F7720646F696E672066B1
:10192000696C653A20002220706F7300222070617C
:1019300072656E743A2200535542524F5554494EC7
:10194000452043414C4C207461726765743A220013
:10195000747279696E6720746F2063616C6C207398
:1019600075622D67636F64652066696C65732077A7
:1019700069746820746F6F206D616E79206C657674
:10198000656C732E204D4158206C6576656C20691E
:10199000733A004572726F723A00646973706C61D9
:1019A00079206F66666C696E650042434E33442051
:1019B0005369676D610A0073746172740A0065632C
:1019C000686F3A0030312D322E302E362D6164652D
:1019D0006E696E0A004D3234004D3233202573009B
:1019E0006175746F25692E67006572726F7220775A
:1019F000726974696E6720746F2066696C650A008D
:101A0000205A3A0020593A0020583A00656E647313
:101A1000746F7073206869743A20006563686F3A68
:101A200000446F6E6520736176696E672066696C2D
:101A3000652E0A006F6B0A004D3239006563686FCE
:101A40003A005341564544205052494E540A002E04
:101A50002E2E2054696D656F757421002A2A2A2064
:101A600047656E69652057726974654F626A656380
:101A700074202A2A2A202D2D2D3E002E2E2E204E77
:101A8000414B2021002A2A2A2047656E696520578C
:101A9000726974654F626A656374202A2A2A202D50
:101AA0002D2D3E002E2E2E2041434B2021002A2A90
:101AB0002A2047656E69652057726974654F626AAE
:101AC000656374202A2A2A202D2D2D3E002A2A2AD9
:101AD0002047656E69652042616420427974652003
:101AE0002A2A2A202D2D2D3E203078002056616C88
:101AF00075653A200020496E6465783A20002A2AEC
:101B00002A2047656E6965205265706F7274204F98
:101B1000626A656374202A2A2A204F626A656374A8
:101B20003A20002A2A2A2047656E696520436F6E95
:101B30006E6563746564202F2053796E6321202ABB
:101B40002A2A002056616C75653A200020496E648F
:101B500065783A20002A2A2A2047656E6965205256
:101B600065706F7274204576656E74202A2A2A206B
:101B70004F626A6563743A2000204C656E67746832
:101B80003A20002A2A2A2047656E6965205265633B
:101B90006569766564204D6167696320446F75628D
:101BA0006C65204279746573202A2A2A20496E6464
:101BB00065783A2000204C656E6774683A20002AE8
:101BC0002A2A2047656E69652052656365697665D6
:101BD00064204D61676963204279746573202A2A05
:101BE0002A20496E6465783A20002A2A2A2047650F
:101BF0006E6965204E414B205265636F7665727940
:101C000020212121202A2A2A002A2A2A2047656EFB
:101C1000696520446973636F6E6E656374656420E3
:101C200066726F6D20446F4576656E747321202A4D
:101C30002A2A002A2A2A2047656E696520546F6F78
:101C40006B20746F6F206C6F6E6720746F207265ED
:101C50002D656E74657220446F4576656E747328C9
:101C6000292C207265647563652064656C617973E5
:101C700020696E20636F64652C2073656C662D701F
:101C8000726F74656374696F6E20656E61626C65F6
:101C9000642E202A2A2A00457874727564657220A1
:101CA00072656C6561736564206163746976653A19
:101CB00020005A205349474D4120486F6D65640A02
:101CC0000045787472756465722061637469766525
:101CD0003A20000000000000809343000000000054
:101CE00000A0400000A0400000004020004D6F76A2
:101CF0006520746F3A2000CDCC9843008093430058
:101D0000005243FF01FF7C3C3E5E2B3D3F2F5B5D5D
:101D10003B2C2A225C000A0020616E7469686F7295
:101D20006172690A3A200020686F726172690A2044
:101D3000002F3800766F6C746573200020566F6C2E
:101D400074657320636172676F6C20333A200020E2
:101D5000616E7469686F726172690A3A2000206866
:101D60006F726172690A20002F3800766F6C74659B
:101D700073200020566F6C74657320636172676F07
:101D80006C20323A20000A0020647A333A20002086
:101D9000647A323A200054310054300054300054F8
:101DA00030000A0056756974656E73333A2020005E
:101DB0004170726F78333A202000566F6C746573EF
:101DC000333A2020000A0056756974656E73323A02
:101DD0002020004170726F78323A202000566F6CDC
:101DE000746573323A20200056616C6F7220645A19
:101DF000333A20200056616C6F7220645A323A20C8
:101E000020004E6577206F66667365742076657274
:101E100073696F6E3A20007A335F313A20007A326C
:101E20005F313A20005A7363726F6C6C5F313A20F5
:101E3000007A335F303A20007A325F303A20005A1D
:101E40007363726F6C6C5F303A20005A76616C7508
:101E50006520616674657220686F6D653A00486F31
:101E60006D6520582F59206265666F7265205A0A89
:101E7000004572726F722057726974652045455033
:101E8000524F4D0053657474696E67732053746FBD
:101E90007265640A00204D696E75746573203A009E
:101EA00020204C617374207072696E742074696DA7
:101EB000652D3E20486F757273203A004C61737433
:101EC000207072696E74206475726174696F6E0A35
:101ED000002C205468697264204944206E756D623C
:101EE000657220002C205365636F6E642049442086
:101EF0006E756D6265723A200020204669727374B7
:101F0000204944206E756D6265723A200055492063
:101F1000496E666F726D6174696F6E205365726988
:101F2000616C204E756D6265723A0A00206D2C203E
:101F30004531207072696E742064697374616E63D8
:101F4000653A2000206B6D2C204530207072696E40
:101F5000742064697374616E63653A2000206B6D50
:101F60002C2059207072696E742064697374616EDC
:101F700063653A2000206B6D2C2058312070726907
:101F80006E742064697374616E63653A2000204347
:101F90002C0A205830207072696E74206469737442
:101FA000616E63653A200020432C206D61782074B7
:101FB000656D7020423A200020432C206D6178200E
:101FC00074656D7020523A20002C206D6178207469
:101FD000656D70204C3A2000682C207072696E7418
:101FE000732066696E69736865643A20002C2070FE
:101FF00072696E74696E672074696D653A2000209D
:10200000207072696E74733A200053544154533AED
:102010000A0020432C20525F5052494E543A20006F
:1020200020432C20525F4245443A200020432C207C
:10203000525F52454D4F56453A20002020525F498D
:102040004E534552543A200054656D702028432960
:102050003A0A0020432C204C5F5052494E543A20FB
:102060000020432C204C5F4245443A200020432C62
:10207000204C5F52454D4F56453A200020204C5F82
:10208000494E534552543A200054656D7020284300
:10209000293A0A0020562856657273696F6E292006
:1020A0000020522842656420726967687420736357
:1020B00072657729200020204D353331204C28428D
:1020C0006564206C656674207363726577292000EF
:1020D000426564204F66667365747320286D6D29B0
:1020E0003A0A002050285A2070726F626529002039
:1020F0005A20002059200020204D35333020582010
:10210000004F66667365747320286D6D293A0A0066
:10211000204400204900202D204D333031205249E9
:1021200047485420500020440020490020204D33CF
:102130003031204C454654205000504944207365AE
:102140007474696E67733A0A00205A00205900209F
:10215000204D323036205800486F6D65206F66661E
:1021600073657420286D6D293A0A00204500205AB5
:102170000020580020420020540020204D323035ED
:10218000205300416476616E6365642076617269F4
:1021900061626C65733A20533D4D696E20666565DA
:1021A000647261746520286D6D2F73292C20543D55
:1021B0004D696E2074726176656C20666565647227
:1021C00061746520286D6D2F73292C20423D6D6947
:1021D0006E696D756D207365676D656E74207469C9
:1021E0006D6520286D73292C20583D6D6178696DCF
:1021F000756D205859206A65726B20286D6D2F739C
:10220000292C20205A3D6D6178696D756D205A200A
:102210006A65726B20286D6D2F73292C2020453D37
:102220006D6178696D756D2045206A65726B202837
:102230006D6D2F73290A0020540020204D32303458
:10224000205300416363656C65726174696F6E3A17
:1022500020533D616363656C65726174696F6E2CB8
:1022600020543D7265747261637420616363656CB0
:1022700065726174696F6E0A00204500205A002063
:10228000590020204D3230312058004D6178696D61
:10229000756D20416363656C65726174696F6E2052
:1022A000286D6D2F7332293A0A00204500205A000C
:1022B00020590020204D3230332058004D6178697C
:1022C0006D756D2066656564726174657320286D37
:1022D0006D2F73293A0A00204500205A002059002A
:1022E00020204D393220580053746570732070657A
:1022F0007220756E69743A0A0024F4D43050C38E8B
:1023000020C2A24017828B7011127A910D816CD974
:102310000AA861E108C7586607615143061E4B5D74
:1023200005C145A7041A411104093D9803713931CB
:10233000034036DB0265339102D4305402802E1DF7
:1023400002632CEE01752AC501B028A00110278177
:10235000018F2564012B244B01E0223401AC211FA5
:10236000018D200D01801FFC00841EED00971DDFF4
:1023700000B81CD200E61BC600201BBC00641AB2C9
:1023800000B219A8000A19A0006A189900D1179183
:102390000040178B00B516840031167E00B3157906
:1023A000003A157300C7146F0058146A00EE1366E4
:1023B000008813630025135E00C7125B006C125780
:1023C0000015125400C111510070114F0021114B22
:1023D00000D61049008D10470046104400021042FC
:1023E00000C00F4000800F3E00420F3C00060F3B34
:1023F00000CB0E3800930E37005C0E3500270E34EC
:1024000000F30D3200C10D3100900D3000600D2E33
:1024100000320D2D00050D2C00D90C2B00AE0C291F
:1024200000850C29005C0C2700350C27000E0C26BB
:1024300000E80B2400C40B2400A00B23007D0B2319
:10244000005A0B2100390B2100180B2000F80A1F3D
:1024500000D90A1E00BB0A1E009D0A1D00800A1D2D
:1024600000630A1C00470A1B002C0A1B00110A1AF1
:1024700000F7091A00DD091900C4091900AB091990
:1024800000920917007B091800630917004C091610
:102490000036091600200916000A091500F508156E
:1024A00000E0081400CC081400B8081400A40814B4
:1024B00000900813007D0812006B081300580812E2
:1024C00000460812003408110023081100120811F8
:1024D0000001081100F0071000E0071000D00710FD
:1024E00000C0071000B0070F00A107100091070EF1
:1024F0000083070F0074070F0065070E0057070ED3
:102500000049070E003B070D002E070E0020070DA7
:102510000013070D0006070D00F9060C00ED060D6F
:1025200000E0060C00D4060C00C8060C00BC060C2B
:1025300000B0060C00A4060B0099060C008D060BDB
:102540000082060B0077060B006C060B0061060A82
:102550000057060B004C060A0042060A0038060A1D
:10256000002E060A0024060A001A060A00100609B0
:102570000007060A00FD050900F4050900EB05093E
:1025800000E2050900D9050900D0050900C70509C1
:1025900000BE050900B5050800AD050800A5050940
:1025A000009C050800940508008C050800840508B7
:1025B000007C050800740508006C05070065050827
:1025C000005D050700560508004E05070047050792
:1025D000004005080038050700310507002A0507F7
:1025E00000230507001C050600160507000F050758
:1025F000000805060002050700FB040600F50407B5
:1026000000EE040600E8040600E2040700DB04060E
:1026100000D5040600CF040600C9040600C3040662
:1026200000BD040600B7040600B1040500AC0406B2
:1026300000A6040600A00405009B040600950405FE
:1026400000900406008A0405008504050080040645
:10265000007A04050075040500700405006B04058C
:102660000066040500610405005C040500570405CC
:1026700000520405004D040500480405004304050C
:10268000003E0404003A040500350405003004044B
:10269000002C04050027040400230405001E040484
:1026A000001A04040016040500110404000D0404BB
:1026B00000090405000404040000040400FC0304F1
:1026C00000F8030400F4030400F0030400EC030426
:1026D00000E8030400E4030400E0030400DC030456
:1026E00000D8030400D4030400D0030400CC030486
:1026F00000C8030300C503030024F404D9201BC44D
:102700000C5C0E9804C4095F0265077101F405F9B9
:1027100000FB04B30048048700C103690058035557
:102720000003034500BE023A008402310053022A2E
:10273000002902250004022000E4011C00C8011940
:1027400000AF0117009801140084011300710110FB
:10275000006101100051010E0043010D0036010B14
:10276000002B010B0020010B00150109000C0109D1
:102770000003010800FB000800F3000800EB00075D
:1027800000E4000600DE000600D8000600D20006C5
:1027900000CC000500C7000500C2000500BD000414
:1027A00000B9000400B5000400B1000400AD00044D
:1027B00000A9000400A5000300A20003009F00047C
:1027C000009B0003009800030095000200930003A3
:1027D00000900003008D0002008B000300880002BF
:1027E000008600020084000300810002007F0002D6
:1027F000007D0002007B00020079000200770001EA
:1028000000760002007400020072000100710002F4
:10281000006F0002006D0001006C0002006A000100
:102820000069000200670001006600010065000108
:10283000006400020062000100610001006000010C
:10284000005F0002005D0001005C0001005B000110
:10285000005A000100590001005800010057000112
:102860000056000100550001005400010053000013
:10287000005300010052000100510001005000010E
:10288000004F0001004E0000004E0001004D00010D
:10289000004C0001004B0000004B0001004A000109
:1028A0000049000100480000004800010047000105
:1028B0000046000000460001004500000045000100
:1028C00000440001004300000043000100420000FA
:1028D00000420001004100000041000100400001F1
:1028E000003F0000003F0001003E0000003E0001EC
:1028F000003D0000003D0001003C0000003C0000E5
:10290000003C0001003B0000003B0001003A0000D9
:10291000003A0001003900000039000100380000D1
:1029200000380000003800010037000000370001C7
:1029300000360000003600000036000100350000BF
:1029400000350000003500010034000000340000B4
:1029500000340001003300000033000000330001A8
:10296000003200000032000000320001003100009F
:102970000031000000310001003000000030000094
:1029800000300001002F0000002F0000002F000089
:10299000002F0001002E0000002E0000002E00017C
:1029A000002D0000002D0000002D0000002D000172
:1029B000002C0000002C0000002C0000002C000166
:1029C000002B0000002B0000002B0000002B00015A
:1029D000002A0000002A0000002A0000002A00014E
:1029E0000029000000290000002900000029000043
:1029F0000029000100280000002800000028000035
:102A00000028000000280001002700000027000027
:102A1000002700000027000000270001002600001A
:102A2000002600000026000000260000002600010D
:102A30000025000000250000002500000025000002
:102A400000250000002500010024000000240000F3
:102A500000240000002400000024000100230000E6
:102A600000230000002300000023000000230000DA
:102A700000230000002300010022000000220000CB
:102A800000220000002200000022000000220001BD
:102A900000210000002100000021000000210000B2
:102AA00000210000002100000021000100200000A2
:102AB0000020000000200000002000000020000096
:102AC000002000000020000000200001001F000086
:102AD000001F0000001F0000001F0000001F00007A
:102AE000001F0000001F0001001E0000001E00006B
:102AF000001E0000001E000000000021002400272E
:102B0000002A002D003000330001010000040107FD
:102B1000010A0100002200250028002B002E0031B0
:102B200000340002010000050108010B0100002033
:102B3000002300260029002C002F00320000010095
:102B40000003010601090105050505070508080838
:102B500008020202020A0A0808040404040101012E
:102B60000101010101030303030303030304070736
:102B7000070C0C0C0C0C0C0C0C02020202060606D4
:102B800006060606060B0B0B0B0B0B0B0B010210BC
:102B90002020080810204010204080020102010877
:102BA0000402010102040810204080804020100827
:102BB0000402018004020180402010080402010880
:102BC00004020101020408102040800102040810E0
:102BD00020408000000A0B02090C0D0E08070304B8
:102BE00001000000000000000000000000000000E4
:102BF00000000000000000000000000000000012C3
:102C000011100000000000000000000000000000A3
:102C1000000000000000000000504944204175748D
:102C20006F74756E652066696E6973686564210AE4
:102C300000504944204175746F74756E652066615B
:102C4000696C6564212074696D656F75740A002074
:102C5000403A006F6B20543A006F6B20423A0050AC
:102C60004944204175746F74756E65206661696CA6
:102C70006564212054656D7065726174757265209C
:102C8000746F6F20686967680A00204B643A2000FF
:102C9000204B693A2000204B703A200020436C61A1
:102CA0007373696320504944200A002054753A2008
:102CB00000204B753A2000206D61783A2000206D8D
:102CC000696E3A200020643A200020626961733AFC
:102CD00020003B20472D436F64652067656E657259
:102CE000617465642062792053696D706C696679DE
:102CF00033442852292056657273696F6E2025640B
:102D0000004E6577206C6179657220646574656337
:102D10007465640A003B206C61796572003B4C412C
:102D200059455200256920686F7572732025692006
:102D30006D696E7574657300446F6E65207072699D
:102D40006E74696E672066696C650A004D333300E6
:102D50005061757365207061726B696E670A004718
:102D60003639004E6F74205344207072696E746956
:102D70006E670A004E6F74205344207072696E743F
:102D8000696E670A005072696E7465722073746FA1
:102D9000707065642064756520746F206572726F51
:102DA00072732E2046697820746865206572726F90
:102DB0007220616E6420757365204D393939207435
:102DC0006F20726573746172742E202854656D7063
:102DD00065726174757265206973207265736574BC
:102DE0002E205365742069742061667465722072A8
:102DF000657374617274696E67290A006F6B0A00EB
:102E00004E6F204C696E65204E756D62657220773D
:102E100069746820636865636B73756D2C204C6101
:102E20007374204C696E653A20004E6F20436865CC
:102E3000636B73756D2077697468206C696E6520AB
:102E40006E756D6265722C204C617374204C696ED6
:102E5000653A2000636865636B73756D206D6973F7
:102E60006D617463682C204C617374204C696E65CD
:102E70003A20004C696E65204E756D62657220695E
:102E800073206E6F74204C617374204C696E6520E2
:102E90004E756D6265722B312C204C617374204C21
:102EA000696E653A20004D31313000CDCC98430039
:102EB0008093430000524300000000000000000027
:102EC000000000496E7374616C6C202564202573CA
:102ED000206F6E2074686520257320686F74656E9E
:102EE000642E0053746F7265642073657474696E28
:102EF0006773207265747269657665640A0048615B
:102F00007264636F6465642044656661756C7420E7
:102F100053657474696E6773204C6F616465640AED
:102F20000048617264636F6465642043616C696228
:102F300020616E64205049442044656661756C745C
:102F40002053657474696E6773204C6F61646564A7
:102F50000A002A2A2A2047656E696520446973633E
:102F60006F6E6E65637465642066726F6D20476571
:102F7000744E6578744279746521202A2A2A002AC1
:102F80002A2A2047656E696520456E61626C65205E
:102F90004174746163684576656E7448616E646CF3
:102FA000657220212121202A2A2A00473639204112
:102FB00043544956415445440A008B029B02112454
:102FC0001FBECFEFD1E2DEBFCDBF00E00CBF19E0E6
:102FD000A0E0B2E0E2E2F9EA03E00BBF02C0079032
:102FE0000D92A438B107D9F72CE1A4E8B9E001C0EB
:102FF0001D92AB3DB207E1F717E1CEEDD7E100E05E
:1030000006C021970109802FFE010F9472D1CD3D9A
:10301000D10780E00807A9F70F946CB60D9480D40F
:103020000C9400002F923F924F925F926F927F928A
:103030008F929F92AF92BF92CF92DF92EF92FF92C8
:103040000F931F93CF93DF93CDB7DEB7C353D14018
:103050000FB6F894DEBF0FBECDBF2DB73EB7CE5C26
:10306000DE4F39832883C253D14011E01093D60933
:103070008091BA0981110CC00F94DD806093B6096C
:103080007093B7098093B8099093B9091093BA095E
:103090008091AE0981110DC00F94DD806093AA0963
:1030A0007093AB098093AC099093AD0981E0809354
:1030B000AE0980916219882319F068E475E002C0B6
:1030C0006CE275E08BEB97E10F949A97809163190E
:1030D000882319F06EE275E002C060E375E08BEBC7
:1030E00097E10F949A978091C20E8F938091C10EB1
:1030F0008F9385E799E09F938F938E01065E1E4F15
:103100001F930F930F9410C6B8018BEB97E10F94A8
:103110007838909162190F900F900F900F900F9048
:103120000F9040916B0250916C0260916D02709112
:103130006E02911106C080916319882311F40C94DA
:103140004123453A51056105710509F44DC60CF05E
:10315000C3C0473551056105710509F4BAC40CF0C7
:103160005EC0413251056105710511F40C94562180
:1031700034F5413151056105710509F4FCC774F45A
:10318000413051056105710509F4E8C2403151052E
:103190006105710509F4BBC10C94456243315105C9
:1031A0006105710509F47DC40CF49BC440325105DE
:1031B0006105710511F40C9468210C944562413449
:1031C00051056105710509F4DBC4ACF445335105C3
:1031D0006105710511F40C940D224D335105610503
:1031E000710509F4F4C3413351056105710511F00E
:1031F0000C94456231C4463451056105710509F4EA
:10320000C3C4433551056105710509F4C3C2443493
:1032100051056105710509F495C70C94456247395C
:1032200051056105710511F40C94F3214CF54637F5
:1032300051056105710509F476C474F448355105EA
:103240006105710509F4E9C34A3551056105710548
:1032500009F416C60C9445624E3751056105710597
:1032600009F48DC1493851056105710509F443C25E
:103270004B3751056105710511F00C94456200C68C
:103280004C3951056105710511F40C9489219CF4A8
:103290004A3951056105710511F40C94772114F038
:1032A0000C948021483951056105710511F40C9485
:1032B000E2210C944562433A51056105710509F418
:1032C00080C50CF0B7C54D3951056105710511F484
:1032D0000C94B6210C9445624F3E51056105710571
:1032E00009F472C20CF088C0433D510561057105B7
:1032F00011F40C94FD22BCF5483A510561057105A5
:1033000009F4ABC504F5463A51056105710509F4A8
:1033100000C5473A51056105710511F00C944562ED
:103320008091D0099091D109A091D209B091D3098F
:1033300091608093D0099093D109A093D209B09362
:10334000D3090C9445624A3A51056105710509F4A7
:103350000CC50CF45CC54E3B51056105710509F4C3
:103360006EC30C944562453E51056105710509F433
:103370000FC414F5433E51056105710509F41BC4E2
:103380000CF06AC4423E51056105710511F00C94C0
:1033900045628091D0099091D109A091D209B09154
:1033A000D30982608093D0099093D109A093D20968
:1033B000B093D3090C9445624D3E510561057105EA
:1033C00009F40BC10CF0C2C14A3E510561057105FB
:1033D00011F00C94456240E050E06EE681E20F94FB
:1033E000B24A8091C10E9091C20E92609093C20E2B
:1033F0008093C10E0C9445624B3F510561057105E8
:1034000009F405C484F5473F51056105710509F4C8
:1034100036C4A4F4423F51056105710509F4BAC1EF
:10342000463F51056105710509F44EC4413F510500
:103430006105710511F00C94456290C18091D0092D
:103440009091D109A091D209B091D3092091B002F5
:103450003091B102493F51056105710509F498C4E5
:103460000CF46AC4BBC34E3631E0530761057105E5
:1034700009F4A8C0B4F5483691E059076105710513
:1034800009F4C2C74A36A1E05A076105710509F47B
:1034900099C0453651406105710511F00C944562A3
:1034A00040E050E06AE28AE00F94B24A40E050E027
:1034B00064E581E20F94B24A81E080937E0B109222
:1034C000810B64E27AE086E20F94A04C8091C10EF9
:1034D0009091C20E98609093C20E8093C10E0C948E
:1034E00045624937E1E05E076105710509F43FC6B1
:1034F0004538F1E05F076105710509F46CC1483793
:1035000051406105710511F00C9445629CC5809194
:103510002802813419F541E050E066E08BE10F9418
:10352000B24A41E050E060E181E20F94B24A41E0EA
:1035300050E062E181E20F94B24A41E050E063E181
:1035400081E20F94B24A41E050E06EE781E20F94CD
:10355000B24A84E4809328020C944562843411F0CA
:103560000C9445628091C10E9091C20E806490933C
:10357000C20E8093C10E10927E0B0C94456240E007
:1035800050E066E08BE10F94B24A40E050E060E129
:1035900081E20F94B24A40E050E062E181E20F9490
:1035A000B24A40E050E063E181E20F94B24A40E069
:1035B00050E06EE781E20F94B24A81E480932802E2
:1035C0000C9445628091C10E9091C20E92609093CE
:1035D000C20E8093C10E0C94456280912802823401
:1035E00019F583E48093280241E050E063E08BE129
:1035F0000F94B24A41E050E067E581E20F94B24A8D
:1036000041E050E066E781E20F94B24A41E050E0C9
:103610006DEE81E20F94B24A41E050E069E881E248
:103620000F94B24A0C944562833411F00C944562B5
:1036300011E01093CC0940E050E068E981E20F947A
:10364000B24A40E050E067E981E20F94B24A40E0BC
:1036500050E06CE981E20F94B24A40E050E06DE93D
:1036600081E20F94B24A41E050E06AE481E20F94B3
:10367000B24A40E050E06CE28AE00F94B24A109304
:10368000810B8FEF9FEF90933A028093390240E0D5
:1036900050E06AE981E20F94B24A40E050E06BE901
:1036A00081E20F94B24A60917A1670917B168091F4
:1036B0007C1690917D160F949ACEAB0166E289E05C
:1036C0000F94B24A60917E1670917F168091801699
:1036D000909181160F949ACEAB0167E289E00F9426
:1036E000B24A40E050E068E289E00F94B24A10929A
:1036F0007E0B0C94456280912802833411F00C9467
:10370000456282E48093280240E050E063E08BE170
:103710000F94B24A40E050E067E581E20F94B24A6C
:1037200040E050E066E781E20F94B24A40E050E0AA
:103730006DEE81E20F94B24A40E050E069E881E228
:103740000F94B24A1092810B0C94456240E050E015
:1037500064E58AE00F94B24A0C94456210927E0BA5
:1037600080E00F94224D8091C10E9091C20E826034
:103770009093C20E8093C10E81E08093850B40E050
:1037800050E068E08AE00F94B24A81E48093860BAF
:103790000C9445628091C60E882311F40C94456206
:1037A00041E050E08091C30E8A3011F440E050E0D7
:1037B00069E18BE10F94B24A40E050E062E58AE0B3
:1037C0000F94B24A0C94456289E480931E020F94D0
:1037D00039940C9445628091D11C9091D21C9093A5
:1037E0009E1080939D100F946A0E8091D31C90912F
:1037F000D41C9093A01080939F100F946A0E82E4C3
:103800008093280282E580931E0281E08093810BE1
:1038100010927E0B8091C30EE1E08A3009F4E0E063
:10382000E0931D0BF0E0EE0FFF1FE356FF4E2081EB
:1038300031813093A9092093A8098A3029F4809115
:10384000230B9091240B04C08091270B9091280B9F
:10385000918380830F946A0E81E48093860B40E00D
:1038600050E068E08AE00F94B24A40E050E064E53E
:1038700081E20F94B24A80E090E0A3E4B3E4809345
:10388000D0109093D110A093D210B093D310809009
:10389000090B90900A0BA0900B0BB0900C0B209191
:1038A000CC103091CD104091CE105091CF1060913E
:1038B000C8107091C9108091CA109091CB10EBEA9A
:1038C0006E2EE0E17E2E7F926F92F4EDCF2EF0E12E
:1038D000DF2EE12CF12C03E413E40E94F19E0F94FF
:1038E000D01180E090E0A0E2B1E48093CC109093FE
:1038F000CD10A093CE10B093CF108090050B909078
:10390000060BA090070BB090080BE090D010F09041
:10391000D1100091D2101091D3106091C810709105
:10392000C9108091CA109091CB107F926F9220E0C5
:1039300030E040E251E40E94F19E0F94D0110F90CC
:103940000F900F900F908091860B8E3411F40C9491
:10395000C42A1092860B0E94BA6840E050E060E2F0
:1039600089E00F94B24A40E050E064E28AE00F94AC
:10397000B24A00911D0B10E0F801EE0FFF1FEE0F91
:10398000FF1FE658F94E60817181828193810F9407
:103990009ACE7093CA096093C909000F111FF801EC
:1039A000E356FF4E808191810A979093C8098093D6
:1039B000C7091092C6091092C50989E48093860B45
:1039C0000E94BA6881E08093CB090C944562809193
:1039D000280240E050E0813441F469E08AE00F942D
:1039E000B24A64E27AE082E007C06AE28AE00F94B9
:1039F000B24A64E27AE086E20F94A04C8091C10E54
:103A00009091C20E98609093C20E8093C10E109256
:103A1000810B10927E0B0C94456280911E0B8111DC
:103A20000C9445628091631981110C94456240E0C9
:103A300050E069E38AE00F94B24A0C9445628091A9
:103A40001E0B81110C94456240E050E061E08AE079
:103A50000F94B24A0C94456280911E0B81110C9414
:103A6000456210912802113411F00C9445621092B5
:103A70007E0B1092621981E08093631940E050E060
:103A800068E08AE00F94B24A1093860B8091C10ED1
:103A90009091C20E94609093C20E8093C10E0C94CC
:103AA000456280912802813439F440E050E061E0C1
:103AB0008AE00F94B24AADCF843409F0AACF809146
:103AC000C10E9091C20E90619093C20E8093C10E70
:103AD000A0CF80912802823441F3833409F099CF3A
:103AE000EECF80912802992369F0813459F48091B6
:103AF000C10E9091C20E88609093C20E8093C10E49
:103B00000C944562843411F00C9445628091C10E8E
:103B10009091C20E80689093C20E8093C10E109255
:103B20007E0B0C94456280916319882311F40C94E8
:103B3000456280912802823459F48091C10E90919F
:103B4000C20E80619093C20E8093C10E0C944562A8
:103B5000833411F00C94456240E050E066E18AE065
:103B60000F94B24A41E050E064E581E20F94B24A1A
:103B700082E580931E0281E08093810B0C94456264
:103B80000F94180A0C9445620F94A2090C94456294
:103B90008091D0099091D109A091D209B091D30917
:103BA00084608093D0099093D109A093D209B093F7
:103BB000D3090C9445628091D0099091D109A091CC
:103BC000D209B091D30988608093D0099093D1092C
:103BD000A093D209B093D3090C94456223303105E8
:103BE00059F4A1608093D0099093D109A093D20990
:103BF000B093D3090C94456284608093D00990936C
:103C0000D109A093D209B093D3090C9445622091B5
:103C1000B0023091B1028091D0099091D109A09168
:103C2000D209B091D3092330310559F4A2608093B1
:103C3000D0099093D109A093D209B093D3090C94E1
:103C4000456288608093D0099093D109A093D209EE
:103C5000B093D3090C9445628091D0099091D10919
:103C6000A091D209B091D30981608093D00990933B
:103C7000D109A093D209B093D3090C944562209145
:103C8000B0023091B1028091D0099091D109A091F8
:103C9000D209B091D3092330310559F49061809352
:103CA000D0099093D109A093D209B093D3090C9471
:103CB000456281608093D0099093D109A093D20985
:103CC000B093D3090C9445622091B0023091B102B7
:103CD0008091D0099091D109A091D209B091D309D6
:103CE0002330310559F490628093D0099093D10923
:103CF000A093D209B093D3090C944562826080935B
:103D0000D0099093D109A093D209B093D3090C9410
:103D100045628091D0099091D109A091D209B091CA
:103D2000D30980628093D0099093D109A093D209DE
:103D3000B093D3090C9445622330310559F4906453
:103D40008093D0099093D109A093D209B093D3095D
:103D50000C94456280628093D0099093D109A0931E
:103D6000D209B093D3090C9445628091D009909107
:103D7000D109A091D209B091D30980618093D00973
:103D80009093D109A093D209B093D3090C944562C2
:103D90002330310559F490688093D0099093D1096C
:103DA000A093D209B093D3090C94456280618093AB
:103DB000D0099093D109A093D209B093D3090C9460
:103DC00045628091D0099091D109A091D209B0911A
:103DD000D30980648093D0099093D109A093D2092C
:103DE000B093D3090C9445628091D0099091D10988
:103DF000A091D209B091D30980688093D0099093A3
:103E0000D109A093D209B093D3090C944562809153
:103E1000D0099091D109A091D209B091D3099260B3
:103E20008093D0099093D109A093D209B093D3097C
:103E30000C9445628091D0099091D109A091D2094A
:103E4000B091D30994608093D0099093D109A09345
:103E5000D209B093D3090C9445628091D009909116
:103E6000D109A091D209B091D30998608093D0096B
:103E70009093D109A093D209B093D3090C944562D1
:103E80004A3551056105710519F410921D0B03C0E7
:103E900081E080931D0B80911D0BE82FF0E0EE0F69
:103EA000FF1FE356FF4E208131813093A9092093F3
:103EB000A809811105C08091230B9091240B04C0A7
:103EC0008091270B9091280B918380830F946A0E29
:103ED00081E48093860B40E050E068E08AE00F9434
:103EE000B24A40E050E064E581E20F94B24A80E0DB
:103EF00090E0A3E4B3E48093D0109093D110A0930A
:103F0000D210B093D3108090090B90900A0BA09020
:103F10000B0BB0900C0B2091CC103091CD10409138
:103F2000CE105091CF106091C8107091C91080913F
:103F3000CA109091CB10EBEA6E2EE0E17E2E7F92BC
:103F40006F92F4EDCF2EF0E1DF2EE12CF12C03E4A3
:103F500013E40E94F19E0F94D01180E090E0A0E263
:103F6000B1E48093CC109093CD10A093CE10B09379
:103F7000CF108090050B9090060BA090070BB0908F
:103F8000080BE090D010F090D1100091D210109159
:103F9000D3106091C8107091C9108091CA1090918F
:103FA000CB107F926F9220E030E040E251E40E941B
:103FB000F19E0F94D0110F900F900F900F90809161
:103FC000860B8E3411F40C94C42A1092860B0E9436
:103FD000BA6840E050E060E289E00F94B24A40E005
:103FE00050E064E28AE00F94B24A00911D0B10E0A9
:103FF000F801EE0FFF1FEE0FFF1FE658F94E60812C
:104000007181828193810F949ACE7093CA096093D3
:10401000C909000F111FF801E356FF4E80819181FD
:104020000A979093C8098093C7091092C609109205
:10403000C50989E48093860B0E94BA6881E0809369
:10404000CB090C94456240E050E060E289E00F94B7
:10405000B24A40E050E064E28AE00F94B24A89E458
:104060008093860B0E94BA6800911D0B01111DC040
:104070008091250B9091260B60910A1770910B1778
:10408000681779072CF4BC01990F880B990B04C0B1
:10409000072E000C880B990B0F9465C60F949ACECF
:1040A00070939E1060939D1020C08091290B909179
:1040B0002A0B6091041770910517681779072CF483
:1040C000BC01990F880B990B04C0072E000C880BBC
:1040D000990B0F9465C610E0000F111F03561F4E79
:1040E0000F949ACED8016D937C930F946A0E009131
:1040F0001D0B10E0F801EE0FFF1FEE0FFF1FE6583B
:10410000F94E60817181828193810F949ACE709370
:10411000CA096093C909000F111FF801E356FF4E49
:10412000808191810A979093C8098093C709109262
:10413000C6091092C5090E94BA6881E08093CB0934
:104140000C9445628091AF02882311F40C94CF60E7
:1041500080911D0B811102C08AE101C086E30F949A
:104160004C7F892B11F00C94CF600C9445620F9416
:10417000618F0C9445628091CE0981FF02C00C943E
:1041800045628091A10E9091A00E98130C945E62EE
:1041900040E050E06BE084E10F94B24A40E050E030
:1041A00065E18AE00F94B24A82E48093860B8093A3
:1041B0004911E0911D0B34E0E39FF0011124E65713
:1041C000FD4F60817181828193816093C8107093EB
:1041D000C9108093CA109093CB10E090D010F0904B
:1041E000D1100091D2101091D3102091CC103091A9
:1041F000CD104091CE105091CF10EDE1FBE0FF9338
:10420000EF93812C912CE8E4AE2EE3E4BE2EF4ED86
:10421000CF2EF0E1DF2E0E94F19EE090D010F090C2
:10422000D1100091D2101091D3102091CC10309168
:10423000CD104091CE105091CF10E091AB1064E0C2
:10424000E69FF0011124E657FD4F60817181828164
:1042500093810F94B74BE091AB1084E0E89FF0019D
:104260001124E657FD4F80819181A281B381809313
:10427000C8109093C910A093CA10B093CB10E091CE
:104280001D0BF0E0EE0FFF1FE356FF4E8091A809D3
:104290009091A909918380830F946A0E1092C60EA3
:1042A0000F94D0110F900F900C9445628091CE091D
:1042B00081FF02C00C9445629091A10E2091A00E46
:1042C00029130C94626280618093CE090C9445623C
:1042D0008091CE0981FF02C00C9445629091A10E9D
:1042E0002091A00E29130C9462620C946562809157
:1042F000A10E9091A00E98130C9445620C946962E3
:104300009091A10E8091A00E98130C9445620C948C
:10431000F462E0913902F0913A02EF3F9FEFF90722
:1043200011F40C944562EE0FFF1FE356FF4E80819F
:1043300091818B33A1E09A0714F00C9445620596A5
:10434000918380830F946A0E0F946A0EE091390274
:10435000F0913A02EE0FFF1FE356FF4E408151816C
:1043600068E289E00F94B24A0C944562E091390208
:10437000F0913A02EF3FBFEFFB0711F40C94456256
:10438000EE0FFF1FE356FF4E80819181181619062C
:1043900014F00C9445620597918380830F946A0E04
:1043A0000F946A0EE0913902F0913A02EE0FFF1F6E
:1043B000E356FF4E4081518168E289E00F94B24A92
:1043C0000C9445628091390290913A02019611F461
:1043D0000C9445629091A10E8091A00E98130C94BC
:1043E00062620C9482638091390290913A02019644
:1043F00011F40C9445629091A10E8091A00E981337
:104400000C9462620C9488639091A10E8091A00E2E
:1044100098130C9445620C948E63809149118234F8
:1044200011F00C9445621092860B8091C10E909110
:10443000C20E8D7F9093C20E8093C10E80911E029A
:10444000823531F489E480931E020F943994D1C0EF
:10445000893409F0CEC081E48093860B40E050E0BF
:1044600068E08AE00F94B24A40905D0A50905E0A7C
:1044700060905F0A7090600A4092CC105092CD100C
:104480006092CE107092CF1020E030E040E752E40E
:104490006091F5027091F6028091F7029091F80216
:1044A0000F94EECD4B015C01E090D010F090D11054
:1044B0000091D2101091D3106091C8107091C91062
:1044C0008091CA109091CB102BEA30E13F932F934B
:1044D000F4EDCF2EF0E1DF2EA30192010E94F19EB8
:1044E0000F94D0110F900F908091860B8E3411F4A1
:1044F0000C94C42A20E030E040E251E46091610A6B
:104500007091620A8091630A9091640A0F9400CDC1
:104510007B018C016093D0107093D1108093D210E6
:104520009093D3108091580A89838090F9029090DB
:10453000FA02A090FB02B090FC022091CC103091C6
:10454000CD104091CE105091CF106091C810709155
:10455000C9108091CA109091CB10FE013196FF9343
:10456000EF930E94F19E0F94D0110F900F908091C5
:10457000860B8E3411F40C94C42A1092860B82E4BC
:104580008093280240E050E063E08BE10F94B24A50
:1045900040E050E067E581E20F94B24A40E050E02D
:1045A00066E781E20F94B24A40E050E06DEE81E2AE
:1045B0000F94B24A40E050E069E881E20F94B24AB9
:1045C00040E050E06AE28AE00F94B24A81E08093D2
:1045D0007E0B1092810B64E27AE086E20F94A04C8D
:1045E0008091C10E9091C20E98609093C20E8093FC
:1045F000C10E109249110C9445628091080C1092E2
:10460000860B8823E9F01092080C8091C10E9091DE
:10461000C20E98609093C20E8093C10E80912802C2
:1046200040E050E0813431F469E08AE00F94B24A0E
:104630000C9445626AE28AE00F94B24A0C94456297
:1046400010927E0E1092810BEAE6F9E084918F01C0
:10465000882351F0082E000C990B0F947B9F0F5F5D
:104660001F4FF8018491F4CF1092350B81E00F9425
:10467000770440E050E065E08AE00F94B24A0C9481
:10468000456280911F0A282F287083FF91C3909163
:10469000230A923008F48CC3423B51056105710531
:1046A00009F4B9C07CF5433851056105710509F479
:1046B000A6C1A4F44E3551056105710509F4F1C296
:1046C0004F3551056105710509F41DC34533510589
:1046D0006105710511F00C94456228C3423A5105F9
:1046E0006105710509F46BC0413B51056105710518
:1046F00009F47BC0403A51056105710511F00C9435
:104700004562B3C04233F1E05F076105710509F40A
:104710005CC14CF54C3C51056105710509F48FC035
:10472000463E51056105710509F45DC1453C5105E1
:104730006105710511F00C9445620F94840941E004
:1047400050E065EC81E20F94B24A41E050E060EA4B
:1047500081E20F94B24A81E090E090935B028093F3
:104760005A020C944562463331E0530761057105E6
:1047700009F415C1ACF4433351406105710511F0E2
:104780000C9445628DEF9FEF90934B1180934A11EB
:1047900040E050E06AE08AE00F94B24A0C9445622F
:1047A0004A33A1E05A076105710509F430C14E375B
:1047B00051406105710509F4F2C10C9445620F94F2
:1047C000840941E050E062EA81E20F94B24A41E09C
:1047D00050E060EA81E20F94B24A8EEF9FEF90932F
:1047E0005B0280935A020C9445620F94840941E065
:1047F00050E061EB81E20F94B24A41E050E060EAA0
:1048000081E20F94B24A8FEF9FEF90935B02809307
:104810005A020C9445620F94840941E050E062EB27
:1048200081E20F94B24A41E050E060EA81E20F94E5
:10483000B24A10925B0210925A020C9445620F9495
:10484000840941E050E06CEC81E20F94B24A41E00F
:1048500050E060EA81E20F94B24A82E090E09093E7
:104860005B0280935A020C94456200915A021091A7
:104870005B0298012E5F3F4F2530310510F00C94FC
:1048800045629230D9F583E08093230A40E050E0FE
:1048900061E18AE00F94B24A80E58093860B8091B3
:1048A000200A800F8093200A00E010E020E030E032
:1048B0004CE553EC60E070E088EA92EC0F94A0A71E
:1048C0000F94840980E697E090935B0280935A02EC
:1048D00040E050E060EA81E20F94B24A42E050E0EA
:1048E0006CE08BE10F94B24A40E050E069E18AE06D
:1048F0000F94B24A1092860B0C9445629330D9F50E
:1049000084E08093230A40E050E061E18AE00F9464
:10491000B24A80E58093860B8091210A800F8093B4
:10492000210A00E010E020E030E04CE553EC60E0CC
:1049300070E084EA92E40F94A0A70F94840980E6C3
:1049400097E090935B0280935A0240E050E060EA67
:1049500081E20F94B24A42E050E06CE08BE10F94A8
:10496000B24A40E050E069E18AE00F94B24A109206
:10497000860B0C944562943011F00C944562809142
:10498000220A800F8093220A40E050E06EE28AE023
:104990000F94B24A8FE48093860B0C9445620F9477
:1049A000840940E050E060EA81E20F94B24A40E0BE
:1049B00050E069E18AE00F94B24A80E697E0909374
:1049C0005B0280935A020C94456283E090E09093DE
:1049D0004B1180934A1140E050E06AE08AE00F9466
:1049E000B24A0C94456210924B1110924A1140E069
:1049F00050E06AE08AE00F94B24A0C94456240E0CD
:104A000050E06DE68AE00F94B24A0C94456240E0B3
:104A100050E068E08AE00F94B24A81E48093860B0C
:104A200041E061E081E00F9499571092860B0F945A
:104A3000D0110F94D19010914A118091230A8230A5
:104A4000B1F540E050E061E18AE00F94B24A80E5C0
:104A50008093860B0091200A010F0093200A002EFC
:104A6000000C110B20E030E0A901CA01B9010F943C
:104A7000A0A70F94840980E697E090935B0280934F
:104A80005A0240E050E060EA81E20F94B24A42E00C
:104A900050E06CE08BE10F94B24A40E050E069E1F5
:104AA0008AE00F94B24A1092860B0C9445628330D0
:104AB000C9F540E050E061E18AE00F94B24A80E538
:104AC0008093860B0091210A010F0093210A002E8A
:104AD000000C110B20E030E04CE553EC60E070E09E
:104AE00088EA92EC0F94A0A70F94840980E697E0DF
:104AF00090935B0280935A0240E050E060EA81E2CA
:104B00000F94B24A42E050E06CE08BE10F94B24A5D
:104B100040E050E069E18AE00F94B24A1092860BBF
:104B20000C944562843011F00C94456240E050E0F2
:104B300061E18AE00F94B24A80E58093860B009190
:104B4000220A010F0093220A002E000C110B20E014
:104B500030E04CE553EC60E070E084EA92E40F94BE
:104B6000A0A70F94840980E697E090935B0280935E
:104B70005A0240E050E060EA81E20F94B24A42E01B
:104B800050E06CE08BE10F94B24A40E050E069E104
:104B90008AE00F94B24A1092860B0C9445621092F0
:104BA000860B8091200A4091210A042F081B409116
:104BB000220A142F181B602F002E000C770B880B75
:104BC000990B0F9465C62DEC3CEC4CEC5DEB0F940F
:104BD0006DC16093B90A7093BA0A8093BB0A90932F
:104BE000BC0A612F012E000C770B880B990B0F94D8
:104BF00065C62DEC3CEC4CEC5DEB0F946DC1609305
:104C0000B50A7093B60A8093B70A9093B80A002346
:104C1000A1F040E050E06FE18AE00F94B24A07FF54
:104C200007C0E02FFF27E1950CF4F09508E00E0F88
:104C3000402F000F550B64E015C01123B9F040E080
:104C400050E060E28AE00F94B24A17FF07C0212FBC
:104C5000332721950CF4309518E0120F412F110FD6
:104C6000550B65E08BE10F94B24A11C014E4109328
:104C7000491140E050E06BE084E10F94B24A40E01B
:104C800050E065E18AE00F94B24A1093860B88E801
:104C900090E09093B40A8093B30A0F94286E0C941A
:104CA00045624091220A8091200A142F181BC1F0FE
:104CB00040E050E060E28AE00F94B24A17FF07C07C
:104CC000812F992781950CF4909518E0180F412FAA
:104CD000110F550B65E08BE10F94B24A0C944562BD
:104CE00014E41093491140E050E06BE084E10F942C
:104CF000B24A40E050E065E18AE00F94B24A109376
:104D0000860B0C94456214E41093491140E050E086
:104D10006BE084E10F94B24A40E050E065E18AE044
:104D20000F94B24A1093860B0C94456290914911EE
:104D3000943411F00C9445621092230A877F80937B
:104D40001F0A1092860B10929810109297100F94D1
:104D5000260E10929E1010929D100F946A0E1092C3
:104D6000A01010929F100F946A0E10927E0E109257
:104D7000810BEFE5F9E084918F01882351F0082E33
:104D8000000C990B0F947B9F0F5F1F4FF8018491CC
:104D9000F4CF1092350B80E00F94770440E050E0A0
:104DA00065E08AE00F94B24A109249110C94456272
:104DB0004E38F1E05F0710F00C944562FA01882745
:104DC000EE58FF4F8F4F0D9472D180912202909137
:104DD0002302826090932302809322020C94456206
:104DE0008091220290912302846090932302809309
:104DF00022020C94456280912202909123028860E5
:104E000090932302809322020C94456280912202A7
:104E100090912302806190932302809322020C944C
:104E20004562809122029091230280629093230236
:104E3000809322020C9445620F94013B009781F409
:104E40008091220290912302946090932302809398
:104E50002202809188108150809388100C944562C2
:104E6000019711F00C9445628091220290912302E7
:104E70009460909323028093220240E050E067E325
:104E800081E20F94B24A40E050E061E08BE10F9480
:104E9000B24A809188108150809388100C944562AA
:104EA00010927E0E1092810BE4E5F9E084918F015F
:104EB000882351F0082E000C990B0F947B9F0F5FF5
:104EC0001F4FF8018491F4CF1092350B81E00F94BD
:104ED000770440E050E065E08AE00F94B24A0C9419
:104EE00045626EE575E08BEB97E10F949A978091A0
:104EF0006419882311F40C9445626FE775E08BEB1D
:104F000097E10F949A9741E061E085E699E10F946B
:104F1000A53D8FEF9FEF9093531980935219412C29
:104F2000512C32017301620100E010E071E0A72E04
:104F300079E1B72E9E012F5F3F4F1901882483949A
:104F4000912C4091031C5091041C6091051C7091A0
:104F5000061C80915E1B90915F1BA091601BB0911D
:104F6000611B84179507A607B70710F40C94AB6371
:104F70001AC00115110511F40C94D06380E00F9450
:104F800064B56B017C0181E00F9464B52B013C0199
:104F900020E030E0A901C701B6010F94D8CF181660
:104FA00014F00C94F46380E00F94224D20E030E084
:104FB000A901C701B6010F945FC618165CF020E086
:104FC00030E0A901C301B2010F945FC6181614F0B6
:104FD0000C94086480905C0290905D02A0905E0248
:104FE000B0905F02A5019401C701B6010F945FC69E
:104FF000811114C020E030E0A901C701B6010F946F
:10500000D8CF18165CF420E030E0A901C301B2014A
:105010000F945FC6181614F00C9408642091600277
:10502000309161024091620250916302C65DDE4F91
:10503000288339834A835B83CA52D140C301B201BA
:105040000F945FC681111EC020E030E0A901C301AA
:10505000B2010F94D8CF18165CF420E030E0A9011B
:10506000C701B6010F945FC6181614F00C940864BB
:10507000A5019401C701B6010F945FC6882311F4FE
:105080000C94086420E030E0A901C701B6010F9438
:105090005FC620E030E040E251E418161CF0C50184
:1050A000B40102C0C701B6010F946DC10F949ACE2E
:1050B0006093080220E030E0A901C301B2010F941F
:1050C0005FC620E030E040E251E418164CF0C65DC7
:1050D000DE4F688179818A819B81CA52D14002C0AA
:1050E000C301B2010F946DC10F949ACE609309026F
:1050F0006BEA78E08BEB97E10F949A9740E050E0F1
:105100006FE58AE00F94B24A60915C0270915D0293
:1051100080915E0290915F020F949ACEAB016DE494
:1051200089E00F94B24A20E030E040E251E460911F
:105130005C0270915D0280915E0290915F020F941B
:105140006DC10F949ACE0AE010E0CB01B8010F9424
:1051500043D1AC016EE489E00F94B24A60916002E1
:105160007091610280916202909163020F949ACED5
:10517000AB016FE489E00F94B24A20E030E040E2F6
:1051800051E460916002709161028091620290919D
:1051900063020F946DC10F949ACECB01B8010F94A6
:1051A00043D1AC0160E589E00F94B24A80910802D6
:1051B0001AE0612F0F9422D1482F880F550B61E51B
:1051C00089E00F94B24A80910802612F0F9422D196
:1051D000492F990F550B62E589E00F94B24A8091EF
:1051E0000902612F0F9422D1482F880F550B63E5D8
:1051F00089E00F94B24A80910902612F0F9422D165
:10520000492F990F550B64E589E00F94B24ABCC150
:1052100080916419882311F40C9445628091B4192B
:1052200081110C944562CDB6DEB68091D40990917F
:10523000D5090F941F3DE5E6F9E1DF010D9000204F
:10524000E9F78DB79EB78A1B9B0B9C012F59364EF1
:105250000FB6F8943EBF0FBE2DBF0DB71EB70F5F40
:105260001F4FFF93EF9384EF98E09F938F931F93CB
:105270000F930F9410C6780134E0E30EF11C0F90E9
:105280000F900F900F900F900F90D7018C91882363
:1052900049F0082E000C990B0F94F0D3F70181937D
:1052A0007F01F3CFC8010F94E90480EF98E00F94D9
:1052B0007A040FB6F894DEBE0FBECDBE0C944562E4
:1052C00081E080937E0E8091220290912302926071
:1052D00090932302809322020C94456280912202D3
:1052E00090912302916090932302809322020C9468
:1052F000456280912202909123028068909323025C
:10530000809322020C94456240E050E062E18AE022
:105310000F94B24A0C94456240E050E06CE18AE0A0
:105320000F94B24A80E00F9477041092070C109209
:10533000060C1092050C81E08093350B0C944562AD
:1053400010927E0E1092810BE5EEF8E084918F01B1
:10535000882351F0082E000C990B0F947B9F0F5F50
:105360001F4FF8018491F4CF1092350B0E94BA6858
:1053700081E00F94770440E050E065E08AE00F940C
:10538000B24A0C94456280919D1090919E10892B99
:1053900029F010929E1010929D1008C08091580B19
:1053A0009091590B90939E1080939D100F946A0ECC
:1053B0001092070C0C94456280919F109091A01060
:1053C000892B29F01092A01010929F1008C0809194
:1053D000550B9091560B9093A01080939F100F94B3
:1053E0006A0E1092060C0C94456280919710909171
:1053F0009810892B29F010929810109297101CC0C9
:1054000080911D0A90911E0A60911B0A70911C0ADE
:10541000681779072CF4BC01990F880B990B04C00D
:10542000072E000C880B990B0F9465C60F949ACE2B
:1054300070939810609397100F94260E1092050C9D
:105440000C94456281EE98E00F947A040C944562C6
:1054500040E050E06EE18AE00F94B24A0C9445625D
:1054600040E050E065E08AE00F94B24A10927E0E70
:105470001092810BE6EDF8E084918F01882351F0C2
:10548000082E000C990B0F947B9F0F5F1F4FF801A4
:105490008491F4CF1092350B88E793E09093490202
:1054A000809348020F94286E0C94456240E050E0CF
:1054B0006AE18AE00F94B24A0F9416398091641918
:1054C000882311F40C944562809187108093881092
:1054D000BFE5EB2EB0E1FB2E13E7C12E10E1D12E7C
:1054E00000E010E08091871090E008171907FCF4A5
:1054F00065E679E18CED99E10F9407515701D701E9
:105500008D919D917D010F941F3DF50180819181C9
:10551000D6018D939D936D018091B419882321F05C
:1055200085E699E10F940D420F5F1F4FDBCF87E0B7
:1055300090E00F9425950C944562809148029091DB
:1055400049028036974041F488E793E090934902FE
:10555000809348020F94286E40E050E068E08AE0B3
:105560000F94B24A81E48093860B80910C118823BA
:10557000D1F040E061E081E00F9499570F94D01191
:105580008091860B8E3489F48FEF9FEFDC0180933E
:105590006B0290936C02A0936D02B0936E02109216
:1055A000D6090C94956841E0E5CF81E00F9477042B
:1055B0001092860B83ED98E00F947A040F94D0112B
:1055C0008091860B8E3401F340E050E06BE08AE07E
:1055D0000F94B24A0C94456240E050E064E08AE0E7
:1055E0000F94B24A0C94456240E050E064E28AE0D5
:1055F0000F94B24A8091040C82608093040C89E479
:105600008093860B40E050E060E289E00F94B24A5C
:105610006091580B7091590B072E000C880B990B59
:105620000F9465C640E050E00F94E9800F94286E17
:105630006DE079E088E598E10F94809F66E375E07E
:1056400088E598E10F94809F60911703709118038B
:105650008091190390911A0342E050E00F945DA0ED
:105660006AE375E088E598E10F94809F2DEB37E3BE
:1056700046E05EE360910F03709110038091110387
:10568000909112030F94EECD42E050E00F945DA094
:105690006EE375E088E598E10F94809F2DEB37E38A
:1056A00046E05EE36091070370910803809109036F
:1056B00090910A030F946DC142E050E00F945DA0F9
:1056C0006091550B7091560B072E000C880B990BAF
:1056D0000F9465C641E050E00F94E9800F94286E66
:1056E0006DE079E088E598E10F94809F66E375E0CE
:1056F00088E598E10F94809F60911B0370911C03D3
:1057000080911D0390911E0342E050E00F945DA034
:105710006AE375E088E598E10F94809F2DEB37E30D
:1057200046E05EE3609113037091140380911503CA
:10573000909116030F94EECD42E050E00F945DA0DF
:105740006EE375E088E598E10F94809F2DEB37E3D9
:1057500046E05EE360910B0370910C0380910D03B2
:1057600090910E030F946DC142E050E00F945DA044
:105770001092860B0E94BA6840E050E06BE084E132
:105780000F94B24A40E050E065E18AE00F94B24ADB
:1057900081E00F94770484E4809349118093860B11
:1057A0000C94456240E050E068E28AE00F94B24A0F
:1057B0000C94456240E050E062E18AE00F94B24A06
:1057C0000C94456210927E0E1092810BE8ECF8E08A
:1057D00084918F01882351F0082E000C990B0F94AF
:1057E0007B9F0F5F1F4FF8018491F4CF1092350B10
:1057F0000E94BA6840E050E065E08AE00F94B24A47
:105800000C94456240E050E062E18AE00F94B24AB5
:105810000C94456282E580931E028091040C8160A5
:105820008093040C40E050E06BE581E20F94B24AB3
:1058300040E050E06CE581E20F94B24A40E050E075
:1058400060E08BE10F94B24A40E050E06AE781E209
:105850000F94B24A40E050E069E781E20F94B24A07
:1058600040E050E06DE18AE00F94B24A8FEF809300
:105870001D0B0C94456240E050E06CE68AE00F940A
:10588000B24A0C94456240E050E062E18AE00F9435
:10589000B24A40E050E06BE581E20F94B24A40E04A
:1058A00050E06CE581E20F94B24A40E050E060E0E5
:1058B0008BE10F94B24A40E050E06AE781E20F9436
:1058C000B24A40E050E069E781E20F94B24A809129
:1058D000040C8E7F8093040C0C94456210927E0E13
:1058E0001092810BEDEBF8E084918F01882351F049
:1058F000082E000C990B0F947B9F0F5F1F4FF80130
:105900008491F4CF1092350B40E050E065E08AE0DE
:105910000F94B24A40E050E06BE581E20F94B24A46
:1059200040E050E06CE581E20F94B24A40E050E084
:1059300060E08BE10F94B24A40E050E06AE781E218
:105940000F94B24A40E050E069E781E20F94B24A16
:105950008091040C8E7F8093040C0C94456241E08E
:1059600050E06BE581E20F94B24A40E050E06CE514
:1059700081E20F94B24A41E050E060E08BE10F9485
:10598000B24A41E050E06AE781E20F94B24A41E056
:1059900050E069E781E20F94B24A10921D0B0C941B
:1059A000456240E050E06BE581E20F94B24A41E08D
:1059B00050E06CE581E20F94B24A41E050E060E0D3
:1059C0008BE10F94B24A41E050E06AE781E20F9424
:1059D000B24A41E050E069E781E20F94B24A81E0C7
:1059E00080931D0B0C94456280914802909149026E
:1059F0008036974041F488E793E090934902809382
:105A000048020F94286E80911D0B8F3F11F40C9467
:105A100045620F945BBD0C94456280914802909161
:105A200049028036974041F488E793E09093490219
:105A3000809348020F94286EE0911D0BEF3F11F404
:105A40000C94456281E08093840BF0E0EE0FFF1F21
:105A5000E356FF4E84E091E0918380830F946A0EB9
:105A600081E48093860B40E050E068E08AE00F9488
:105A7000B24A80910C11882311F040E001C041E04E
:105A800061E081E00F9499570F94D0118091860BBB
:105A90008E3409F479CD80E090E0A3E4B3E4809300
:105AA000D0109093D110A093D210B093D3108090C7
:105AB000090B90900A0BA0900B0BB0900C0B20914F
:105AC000CC103091CD104091CE105091CF106091FC
:105AD000C8107091C9108091CA109091CB10ABEA98
