:100000000C94B0170C94E1170C94E1170C94E117C1
:100010000C94E1170C94E1170C94E1170C94E11780
:100020000C94E1170C94E1170C94E1170C94E11770
:100030000C94E1170C94E1170C94E1170D941A1D20
:100040000C94E1170C94E1170C94E1170C94E11750
:100050000C94E1170C94E1170D9495000D945C3FFE
:100060000C94E1170D9473410D9449410C94E117E0
:100070000C94E1170C94E1170C94E1170C94E11720
:100080000D94EC780C94E1170C94E1170C94E117A3
:100090000D9413410D94E9400C94E1170C94E11771
:1000A0000C94E1170C94E1170C94E1170C94E117F0
:1000B0000C94E1170C94E1170C94E1170C94E117E0
:1000C0000C94E1170C94E1170C94E1170D94B340D4
:1000D0000D9489400C94E1170C94E1170C94E117EE
:1000E0000C94E1178A5B235E5B301F2E2F593E294B
:1000F000EB5C5429235E235E235E93293029235E23
:10010000CB26C026235E403A235E235E235EF65C48
:100110000D41234139414F41E7416541265DFF4093
:10012000C543915B8D3A7E3A7B418F41235E4929DD
:1001300041273029FF2D783C172EA85CAC4F0F2E9D
:10014000072EC95C265B235E4D30A15C235E1F3DFC
:100150005C29EC26D626235E235E6D2AA93A235E0F
:10016000765C4A5CEC485232D828FD4C8D379C3A7C
:100170005632235EE75BA05B193003310331DF3079
:100180005A325E330B2CAC29C5299F30C130B526BD
:10019000E126235E235E302993307F2CA12CF229A7
:1001A0001D3CFD3B235EF957A558135B235E265D7E
:1001B000265D735A475A1B5AEF596B599759C359C1
:1001C0005C5B78584944D343BF44D0462946B34585
:1001D000235E235E2F59C42CDD2C93301C581D5DEB
:1001E000235E235E675CA541DC4BC847235E202766
:1001F0003156BB41D141235E2B42235E523B4A3BE9
:10020000235E235EC135235E235E235EE8353A36E6
:100210002536982F822F5A3B282EA52E292F562F70
:100220007C54A92F4C481036E047235E235E235EA2
:10023000235E235E235E235E235E235EF829002A6D
:10024000262A235E235EF6470A48EC48DC4BE84B3F
:10025000ED4C235E31509550C44F1850044E235E30
:10026000235E214E235EB1523A39383AF552204886
:10027000235E8351CD51195265527B513648235E1E
:1002800039533B54AF55D356235E65559F469F4621
:10029000C0553034A22B864F0D4E3F4E114F194F93
:1002A00030298E4F235E235E235E235E235E235E12
:1002B0000A3A235E235E2059535B235E235E235E4E
:1002C000235E235E235E235E235E9057E357235E07
:1002D000235E235E235E235E235E235E235E235E16
:1002E000235E235E235E235E235E235E235E235E06
:1002F000235E235E235E235E235E235E235E235EF6
:10030000235E235E235E235E235E235E235E235EE5
:10031000235E235E235E235E235E235E235E235ED5
:10032000235E235E235E235E235E235E235E235EC5
:10033000235E235E235E235E235E235EC1408340F3
:1003400087434943235EAE46235E235E9C3AD22B0D
:100350003943FF419C3AFF41235E15421542AA2BC7
:10036000845C7D5C935C9A5CF358F858FD580259A4
:10037000605C515C0C59115916591B590759EE58BC
:100380008D4BAC4B1F2EBC2AB22B235E7E5B675479
:1003900070293E2C235E235E71583951235E235E03
:1003A000235ECC56235E1C58235E235E235EB93049
:1003B000132C745408300235235E0D51235EC5564C
:1003C000235E235E235E235E235E4030674B7A4BC1
:1003D0007E5B5C5BC636A237B550CA3BA637C42AE3
:1003E000783CCE36EF4E32396A38D2552456235EE9
:1003F000A93AB5503C49265D623BDA2B0151265D96
:10040000A102AF028F02FB02F102D302D5026D02FC
:1004100079027102A702ED029B02DB02CD02AD025E
:10042000CD0297028B02D1028D02F702E50267022C
:100430006902EB026B029502BD029F02B7027B02CA
:10044000CB02BF02FD02B102F5028102A3026F02DC
:10045000D702C302F302FD028902EF02F902E702AA
:10046000C902BB02C7027F0293028302D902A9021A
:10047000DD02CF02E1027502B90293028502C102D8
:100480008702084AD73B3BCE016E84BCBFFDC12F1B
:100490003D6C74319ABD56833DDA3D00C77F11BE75
:1004A000D9E4BB4C3E916BAAAABE000000803F0578
:1004B000A84CCDB2D44EB93836A9020C50B99186A9
:1004C00088083CA6AAAA2ABE000000803F000D941E
:1004D00059110D94B2110D94890F0D9498010D943A
:1004E0005A6D0D949C010D943A3F0D94F8720D9441
:1004F00074CE0D949A010D94336D0D941E190D94C4
:10050000B1720D94526D0D94BB720D940C730D94D9
:1005100020730D946E6D0D945E100D94E1110D9489
:1005200048010D94C43E0D942A730D9428100D9427
:1005300046100D94EB3E0D94C70F0D94A23E0D9402
:10054000416D0D941F010D94566D0D9497BB0D9444
:10055000A4010D94CB720D941D190D94EB0F0D9405
:100560002C010D94486D0D94933E0D94ED3E0D9429
:10057000446D0D9402730D949D720D9477110D943A
:100580003D6D0D9416730D94646D0D9489B90D94A1
:10059000A7720D9498720D94376D0D9487100D9479
:1005A000DF720D946B0F0D947C010D9496010D94E8
:1005B000606D0D94C3720D94AC100D94D5720D94B2
:1005C000B63E0D94E9720D9421190D943B110D94D2
:1005D00093720D94693E0D94A90F0D944D0F0D94D7
:1005E000726D0D946F010D94686D0D944C6D0D94AA
:1005F0001D110D94766D0D9455010D947B6D4E413A
:100600004E494E495459494E46CDCCCC3D0AD7238C
:100610003C17B7D13877CC2B329595E6241FB14FD4
:100620000A000020410000C84200401C4620BCBE19
:100630004CCA1B0E5AAEC59D746364696E6F7073AD
:100640007578585B003B4C415945523A2564003B54
:10065000202020757365526166742C2564004D3628
:100660003035205325640043616C63756C75733AB3
:1006700020200043616C63756C75733A2020004341
:10068000616C63756C75733A2020005375726669EE
:100690006E6720300A00417420426F74746F6D20C1
:1006A000537469636B657200253033642E253033D3
:1006B00064253033642E2530346400417420426F49
:1006C00074746F6D20537469636B657200253033E9
:1006D000642E25303364253033642E253034640095
:1006E00025730053757266696E6720300A004732C1
:1006F00038205830205930005430005431005430E4
:100700000054300053757266696E6720300A0047E6
:100710003433004734310047343000473334004726
:100720003433004734330047343100473430004D10
:100730003834004D3834004D3834005A32204F667A
:10074000667365743A20004F4B207365636F6E6467
:10075000204578747275646572210A005A20706FA2
:10076000736974696F6E3A20005A20706F736974F0
:10077000696F6E3A20004D3834005A312050726F44
:100780006265206F66667365743A20004F4B206681
:100790006972737420457874727564657221200AD9
:1007A000005A20706F736974696F6E3A20005A2086
:1007B000706F736974696F6E3A200043616C637582
:1007C0006C75733A20200043616C63756C75733AE5
:1007D00020200043616C63756C75733A20200043E0
:1007E000616C63756C75733A202000363020646547
:1007F0006772656573200A0054300054300054302D
:100800000043616C6962726174696F6E2053756335
:100810006365737366756C0A005430004A756D70B9
:10082000206F7665722073637265773120616E6424
:1008300020736372657732200A004A756D70206FED
:1008400076657220736372657731200A004733340E
:10085000004733340047333400543000473334000A
:1008600053757266696E6720300A00537572666947
:100870006E6720300A0053757266696E6720300A11
:100880000053757266696E6720300A005375726690
:10089000696E6720300A0054300053757266696EC5
:1008A0006720300A004D33340053757266696E67F5
:1008B00020300A004D3234004D3233202573004D74
:1008C0003234004D32332025730077696C6C20621E
:1008D0006520646973746F72746564206279202581
:1008E000642E253164253164206D6D2E00546865B9
:1008F000206669727374206C617965722070726908
:100900006E74656420776974682074686520257347
:1009100020686F74656E640053757266696E672037
:10092000300A0053757266696E6720300A0053758D
:100930007266696E6720300A002D2D3E25303478AE
:100940002000526561647920746F20537461727461
:100950000A002564206B6D2E0067636F6465206656
:100960006F756E640A0020746F2053746172742076
:10097000446973706C61792066726F6D2052657383
:10098000657400546F6F6B2000646973706C6179DB
:10099000206F6E6C696E6521002E00312F320A00C7
:1009A0005344207072696E74696E67206279746551
:1009B00020002053544F50205052494E54200A00DA
:1009C000473238205830205930004D3335004737F2
:1009D0003000524553554D450A004D3939300053CA
:1009E00074617274696E67205A2043616C69627227
:1009F0006174696F6E2057697A6172640A000A0037
:100A0000205A3A200020593A200020583A2000422B
:100A1000656400456E642066696C65206C6973745A
:100A20000A00426567696E2066696C65206C6973AF
:100A3000740A002569206D696E2C20256920736574
:100A400063006F6B004649524D574152455F4E411E
:100A50004D453A4D61726C696E2042434E334420DD
:100A60005369676D61783B204649524D5741524565
:100A70005F56455253494F4E3A30322D322E302E6A
:100A8000362D6164656E696E3B204649524D574173
:100A900052455F55524C3A68747470733A2F2F6701
:100AA00069746875622E636F6D2F42434E33442F15
:100AB00042434E33445369676D61782D4669726DC8
:100AC000776172653B2050524F544F434F4C5F56F5
:100AD000455253494F4E3A312E303B204D41434809
:100AE000494E455F545950453A42434E3344205392
:100AF00069676D61783B2045585452554445525FB3
:100B0000434F554E543A323B20555549443A0053D1
:100B10005441544953544943532052455345540A70
:100B200000504F534954494F4E20484F4D453A20AD
:100B300000220A00556E6B6E6F776E20636F6D6DCD
:100B4000616E643A20220020636F6C6420657874C3
:100B5000727573696F6E2070726576656E74656408
:100B60000A006563686F3A000A00207A3A20002084
:100B7000793A200020783A20004265640045787474
:100B800072756465722072656C656173656420615D
:100B900063746976653A20005A205349474D4120D5
:100BA000486F6D65640A00457874727564657220DB
:100BB0006163746976653A20004D3834005374617E
:100BC0007274696E6720582043616C696272617447
:100BD000696F6E2057697A6172640A004D3834007B
:100BE0005374617274696E6720592043616C696245
:100BF000726174696F6E2057697A6172640A002CA1
:100C00002073617665645F466C61675F66616E6CD8
:100C1000617965725F6D6972726F723A20002C2083
:100C200073617665645F6665656472617465313AA7
:100C300020002C2073617665645F6665656472616F
:100C40007465303A20002C2073617665645F6661BC
:100C50006E6C617965723A20002C20736176656450
:100C60005F74656D706265643A20002C2073617654
:100C700065645F74656D70303A20002C2073617676
:100C800065645F74656D70313A20002C2073617665
:100C900065645F66696C65706F736974696F6E3ADD
:100CA00020002C2073617665645F655F706F7369E7
:100CB00074696F6E3A20002C2073617665645F74EE
:100CC0006F6F6C5F6163746976653A20002C2073E6
:100CD000617665645F7A5F706F736974696F6E3A8D
:100CE00020002C2073617665645F795F706F736993
:100CF00074696F6E3A20002C2073617665645F78AA
:100D00005F706F736974696F6E3A20005341564586
:100D1000205052494E54204C4F473A0A00656368B0
:100D20006F3A005072696E74207265636F766572F7
:100D3000792075700A004E6F74207072696E74208D
:100D40007265636F766572792075700A005355433A
:100D5000434553530A0056616C756573206F757473
:100D6000206F662072616E67650A0056616C75655A
:100D700073206F7574206F662072616E67650A005C
:100D800056616C756573206F7574206F6620726193
:100D90006E67650A0056616C756573206F75742007
:100DA0006F662072616E67650A0053554343455371
:100DB000530A0056616C756573206F7574206F66F9
:100DC0002072616E67650A0056616C756573206FED
:100DD0007574206F662072616E67650A0056616CDB
:100DE000756573206F7574206F662072616E67651C
:100DF0000A0056616C756573206F7574206F6620EC
:100E000072616E67650A0020502000205A20002081
:100E1000592000536574204D353330205820004D43
:100E20006F64652033203A20507369636F2020205F
:100E30002D3E205247423A20526973652646616C26
:100E40006C002A2A2D3E20004D6F64652032203A26
:100E5000206379636C652020202D3E205247423A62
:100E6000203620737461746573002A2A2D3E200099
:100E70004D6F64652031203A2072616E646F6D2081
:100E8000202D3E205247423A202B31202B32202B5E
:100E9000332C20647572696E67207072696E746994
:100EA0006E67002A2A2D3E20004D6F646520302099
:100EB0003A2064656661756C74202D3E205247426D
:100EC0003A203235352032353520323535002A2A60
:100ED0002D3E20004C6564206D6F646573203A00E0
:100EE0004D353336204C5B6D6F64655D00486F7423
:100EF000656E64206F6666736574733A0054696D3D
:100F00006520696E6163746976650A005075726761
:100F1000652064697374616E63650A004D3834201E
:100F2000582059205A2045005A204F666673657430
:100F3000206F6B0A005A204F6666736574203A2052
:100F40000A007A5F6D61783A20007A5F6D696E3AC7
:100F500020005A204F666673657400504F53495401
:100F6000494F4E20484F4D453A2000436F6F6C6902
:100F70006E6720446F776E204865617465720A0061
:100F80005072696E7465722068616C7465642E209D
:100F90006B696C6C28292063616C6C6564210A00A4
:100FA0004572726F723A006C61796572206865698A
:100FB0006768743A20002E0A0044656C6574696F96
:100FC0006E206661696C65642C2046696C653A2008
:100FD0000046696C652064656C657465643A002E32
:100FE0000A006F70656E206661696C65642C20462E
:100FF000696C653A2000473238205830205930005B
:101000000A0A005374616E646172642044657669F3
:101010006174696F6E3A20000A004D65616E3A2076
:10102000000A002020207A3A20000A00793A2000A5
:10103000783A20003F537065636966696564206E85
:10104000756D626572206F66206C65677320696ECE
:10105000206D6F76656D656E74206E6F7420706C98
:1010600061757361626C652E0A003F537065636938
:1010700066696564205920706F736974696F6E20AA
:101080006F7574206F662072616E67652E0A003F6F
:10109000537065636966696564205820706F736971
:1010A00074696F6E206F7574206F662072616E6751
:1010B000652E0A003F537065636966696564207335
:1010C000616D706C652073697A65206E6F74207035
:1010D0006C61757361626C652E0A0046756C6C20DC
:1010E000737570706F72742061743A2068747470D4
:1010F0003A2F2F33647072696E74626F6172642E5E
:10110000636F6D2F666F72756D2E7068700A004D7B
:101110003438205A2D50726F6265205265706561B7
:10112000746162696C69747920746573742E20200F
:101130002056657273696F6E20322E30300A003F80
:10114000566572626F7365204C6576656C206E6FB4
:101150007420706C61757361626C652E0A00426563
:1011600064204865617465640A0020573A00457838
:10117000747275646572204865617465640A002044
:10118000573A00204500205A00205900483D580099
:10119000205A3A0020593A0020436F756E74205847
:1011A0003A200020453A00205A3A0020593A005887
:1011B0003A007A5F6D696E3A2000795F6D61783A26
:1011C0002000785F6D61783A2000785F6D696E3A33
:1011D0002000486F74656E64206F66667365747373
:1011E0003A00504944204175746F74756E652066ED
:1011F000696E697368656421205075742074686530
:10120000206C617374204B702C204B6920616E64DC
:10121000204B6420636F6E7374616E74732066720A
:101220006F6D2061626F766520696E746F20436F09
:101230006E66696775726174696F6E2E680A005018
:101240004944204175746F74756E65206661696CE0
:101250006564212074696D656F75740A0020403AD9
:10126000006F6B20543A006F6B20423A00504944A3
:10127000204175746F74756E65206661696C656474
:10128000212054656D706572617475726520746F8C
:101290006F20686967680A00204B643A2000204B81
:1012A000693A2000204B703A200020436C61737330
:1012B000696320504944200A002054753A200020D8
:1012C0004B753A2000206D61783A2000206D696EE0
:1012D0003A200020643A200020626961733A2000BD
:1012E00070012C0190012701B0012201C0011D01F4
:1012F000F00118011002130130020E016002090111
:1013000090020401C002FF000003FA004003F50050
:101310008003F000D003EB002004E6007004E1003D
:10132000E004DC004005D700C005D2004006CD0037
:10133000D006C8008007C3003008BE00F008B9001E
:10134000C009B400B00AAF00B00BAA00D00CA500D1
:10135000000EA000500F9B00C0109600501291008C
:1013600000148C00C0158700B0178200B0197D00F2
:10137000D01B7800001E730040206E009022690090
:10138000F024640040275F0090295A00E02B5500AC
:10139000102E500020304B0010324600E033410048
:1013A00090353C001037370070383200A0392D00DE
:1013B000B03A2800A03B2300603C1E00103D1900FD
:1013C000903D1400103E0F00703E0A00C03E050024
:1013D000003F000048797374657265736973207407
:1013E000656D70657261747572650A005468657226
:1013F0006D616C2072756E617761792070726F74A7
:10140000656374696F6E20627920486561746572E6
:101410005F49443A0A004572726F723A004572722F
:101420006F72283833293A204265642074686572E7
:101430006D6973746F72206E6F7420646574656378
:101440007465640A004572726F72283832293A2036
:10145000526967687420746865726D6973746F721D
:10146000206E6F742064657465637465640A00455A
:1014700072726F72283831293A204C656674207474
:101480006865726D6973746F72206E6F742020646A
:10149000657465637465640A002053544F5020508E
:1014A00052494E54200A004572726F72283833290F
:1014B0003A2042656420746865726D6973746F7256
:1014C000206E6F742064657465637465640A00201F
:1014D00053544F50205052494E54200A00457272C6
:1014E0006F72283832293A2052696768742074680C
:1014F00065726D6973746F72206E6F7420646574A9
:1015000065637465640A002053544F50205052495B
:101510004E54200A004572726F72283831293A20E1
:101520004C65667420746865726D6973746F72209F
:101530006E6F74202064657465637465640A0020AE
:1015400053544F50205052494E54200A0045525295
:101550004F52283839293A20424544206973206E79
:101560006F742068656174696E67002053544F5032
:10157000205052494E54200A004552524F522838AA
:1015800039293A20486F74656E6420256420697398
:10159000206E6F742068656174696E6700656368AA
:1015A0006F3A00526561647920746F204C6F6164FA
:1015B0002F556E6C6F6164200A0053757266696EF8
:1015C000672030200A005430004D3834205820590C
:1015D000205A204500496E7374616C6C202564208C
:1015E0002573206F6E2074686520257320686F74E2
:1015F000656E642E0050757267652046696C616D7A
:10160000656E740A0053757266696E6720310A0050
:1016100053757266696E6720300A00425249474826
:10162000544E4553533A2000220A00656E71756589
:10163000696E67202200220A00656E717565696E09
:1016400067202200202F0020400020403A005265F1
:1016500073656E643A20006F6B0A004475706C69A4
:10166000204D6F6465204F4E0A004D6972726F7293
:10167000204D6F6465204F4E0A003B2020204275AC
:10168000696C642074696D653A2025642025732097
:1016900025642025730A003B5072696E74207469BA
:1016A0006D653A202564202573202564202573204C
:1016B0002564202573003B54494D453A256C640050
:1016C0003B202020506C61737469632077656967E3
:1016D00068743A2025642E256467003B46696C6176
:1016E0006D656E7420757365643A2025642E2564DB
:1016F0006D2025642E256467003B46696C616D652D
:101700006E7420757365643A20256C642E256C64B4
:101710006D003B45787472756465727320757365EE
:10172000643A205425642025642E256420542564C1
:101730002025642E2564003B202020657874727576
:101740006465724469616D657465722C312C256421
:101750002E2564003B2020206578747275646572C4
:101760004469616D657465722C25642E25642C2591
:10177000642E2564003B20202065787472756465B2
:10178000724469616D657465722C25642E25640050
:1017900053442063617264206F6B0A006F70656E42
:1017A000526F6F74206661696C65640A00766F6CB5
:1017B000756D652E696E6974206661696C65640A71
:1017C00000534420696E6974206661696C0A0043A5
:1017D000616E6E6F7420656E7465722073756264DD
:1017E00069723A20004D313037007A70726F62654D
:1017F0003A200057726974696E6720746F206669B9
:101800006C653A20002E0A006F70656E2066616973
:101810006C65642C2046696C653A20002E0A006FC6
:1018200070656E206661696C65642C2046696C6524
:101830003A200046696C652073656C656374656465
:101840000A002053697A653A200046696C65206F6A
:1018500070656E65643A20002E0A006F70656E2018
:101860006661696C65642C2046696C653A20004E9F
:101870006F772066726573682066696C653A200030
:101880004E6F7720646F696E672066696C653A20D9
:10189000002220706F73002220706172656E743AAE
:1018A0002200535542524F5554494E452043414C16
:1018B0004C207461726765743A2200747279696EA3
:1018C0006720746F2063616C6C207375622D676391
:1018D0006F64652066696C6573207769746820742D
:1018E0006F6F206D616E79206C6576656C732E204C
:1018F0004D4158206C6576656C2069733A004572DD
:10190000726F723A00646973706C6179206F6666F9
:101910006C696E650042434E3344205369676D61C4
:10192000780A0073746172740A006563686F3A0024
:1019300030322D322E302E362D6164656E696E0A7E
:10194000004D3234004D3233202573006175746FC1
:1019500025692E67006572726F72207772697469EB
:101960006E6720746F2066696C650A00205A3A0021
:1019700020593A0020583A00656E6473746F707392
:10198000206869743A20006563686F3A00446F6E9E
:101990006520736176696E672066696C652E0A0042
:1019A0006F6B0A004D3239006563686F3A0053412E
:1019B000564544205052494E540A002E2E2E205493
:1019C000696D656F757421002A2A2A2047656E6942
:1019D000652057726974654F626A656374202A2AAC
:1019E0002A202D2D2D3E002E2E2E204E414B202123
:1019F000002A2A2A2047656E696520577269746536
:101A00004F626A656374202A2A2A202D2D2D3E00FC
:101A10002E2E2E2041434B2021002A2A2A204765C2
:101A20006E69652057726974654F626A65637420D8
:101A30002A2A2A202D2D2D3E002A2A2A2047656E8B
:101A40006965204261642042797465202A2A2A202F
:101A50002D2D2D3E203078002056616C75653A2082
:101A60000020496E6465783A20002A2A2A204765BA
:101A70006E6965205265706F7274204F626A65638B
:101A800074202A2A2A204F626A6563743A20002A49
:101A90002A2A2047656E696520436F6E6E65637400
:101AA0006564202F2053796E6321202A2A2A002082
:101AB00056616C75653A200020496E6465783A205D
:101AC000002A2A2A2047656E6965205265706F7268
:101AD00074204576656E74202A2A2A204F626A6532
:101AE00063743A2000204C656E6774683A20002ABF
:101AF0002A2A2047656E69652052656365697665A7
:101B000064204D6167696320446F75626C65204293
:101B100079746573202A2A2A20496E6465783A20F0
:101B200000204C656E6774683A20002A2A2A2047F4
:101B3000656E6965205265636569766564204D61EF
:101B4000676963204279746573202A2A2A20496EC6
:101B50006465783A20002A2A2A2047656E69652044
:101B60004E414B205265636F7665727920212121A9
:101B7000202A2A2A002A2A2A2047656E69652044DD
:101B80006973636F6E6E65637465642066726F6DF2
:101B900020446F4576656E747321202A2A2A002A14
:101BA0002A2A2047656E696520546F6F6B20746F19
:101BB0006F206C6F6E6720746F2072652D656E7478
:101BC000657220446F4576656E747328292C2072E7
:101BD00065647563652064656C61797320696E2046
:101BE000636F64652C2073656C662D70726F74650D
:101BF0006374696F6E20656E61626C65642E202A65
:101C00002A2A0045787472756465722072656C6565
:101C100061736564206163746976653A20005A20B7
:101C20005349474D4120486F6D65640A00457874FB
:101C30007275646572206163746976653A2000008C
:101C400000000000809343000000000000A040005E
:101C500000A0400000004020004D6F766520746FAA
:101C60003A2000CDAC03440080934300005243FF70
:101C700001FF7C3C3E5E2B3D3F2F5B5D3B2C2A22CF
:101C80005C000A0020616E7469686F726172690A93
:101C90003A200020686F726172690A20002F3800B4
:101CA000766F6C746573200020566F6C74657320BA
:101CB000636172676F6C20333A200020616E746933
:101CC000686F726172690A3A200020686F726172EF
:101CD000690A20002F3800766F6C7465732000202D
:101CE000566F6C74657320636172676F6C20323A53
:101CF00020000A0020647A333A200020647A323AC5
:101D000020005431005430005430005430000A0098
:101D100056756974656E73333A2020004170726F96
:101D200078333A202000566F6C746573333A202064
:101D3000000A0056756974656E73323A20200041BE
:101D400070726F78323A202000566F6C746573326F
:101D50003A20200056616C6F7220645A333A20207A
:101D60000056616C6F7220645A323A2020004E6532
:101D700077206F66667365742076657273696F6E1F
:101D80003A20007A335F313A20007A325F313A20CC
:101D9000005A7363726F6C6C5F313A20007A335F64
:101DA000303A20007A325F303A20005A7363726F03
:101DB0006C6C5F303A20005A76616C756520616604
:101DC00074657220686F6D653A00486F6D652058C4
:101DD0002F59206265666F7265205A0A004572723B
:101DE0006F7220577269746520454550524F4D00FF
:101DF00053657474696E67732053746F7265640AF7
:101E000000204D696E75746573203A0020204C6186
:101E10007374207072696E742074696D652D3E2034
:101E2000486F757273203A004C6173742070726948
:101E30006E74206475726174696F6E0A002C205490
:101E400068697264204944206E756D626572200075
:101E50002C205365636F6E64204944206E756D625B
:101E600065723A200020204669727374204944202C
:101E70006E756D6265723A2000554920496E666F35
:101E8000726D6174696F6E2053657269616C204E6A
:101E9000756D6265723A0A00206D2C204531207004
:101EA00072696E742064697374616E63653A2000B0
:101EB000206B6D2C204530207072696E742064692F
:101EC0007374616E63653A2000206B6D2C2059207D
:101ED0007072696E742064697374616E63653A2010
:101EE00000206B6D2C205831207072696E74206454
:101EF000697374616E63653A200020432C0A205890
:101F000030207072696E742064697374616E6365E9
:101F10003A200020432C206D61782074656D70207C
:101F2000423A200020432C206D61782074656D704A
:101F300020523A20002C206D61782074656D70204D
:101F40004C3A2000682C207072696E7473206669A8
:101F50006E69736865643A20002C207072696E7433
:101F6000696E672074696D653A200020207072697F
:101F70006E74733A200053544154533A0A0020437C
:101F80002C20525F5052494E543A200020432C20BE
:101F9000525F4245443A200020432C20525F524574
:101FA0004D4F56453A20002020525F494E5345522E
:101FB000543A200054656D70202843293A0A0020C5
:101FC000432C204C5F5052494E543A200020432C61
:101FD000204C5F4245443A200020432C204C5F5265
:101FE000454D4F56453A200020204C5F494E534501
:101FF00052543A200054656D70202843293A0A0053
:1020000020562856657273696F6E29200020522869
:10201000426564207269676874207363726577290A
:10202000200020204D353331204C28426564206C3F
:1020300065667420736372657729200042656420A9
:102040004F66667365747320286D6D293A0A002007
:1020500050285A2070726F62652900205A20002093
:1020600059200020204D353330205820004F66661F
:102070007365747320286D6D293A0A00204400208E
:102080004900202D204D33303120524947485420FB
:10209000500020440020490020204D333031204C96
:1020A0004546542050005049442073657474696E4D
:1020B00067733A0A00205A0020590020204D323020
:1020C00036205800486F6D65206F66667365742012
:1020D000286D6D293A0A00204500205A002058003A
:1020E00020420020540020204D3230352053004142
:1020F0006476616E636564207661726961626C65A5
:10210000733A20533D4D696E206665656472617453
:102110006520286D6D2F73292C20543D4D696E204C
:1021200074726176656C20666565647261746520A1
:10213000286D6D2F73292C20423D6D696E696D7578
:102140006D207365676D656E742074696D652028F8
:102150006D73292C20583D6D6178696D756D20581F
:1021600059206A65726B20286D6D2F73292C2020F1
:102170005A3D6D6178696D756D205A206A65726B84
:1021800020286D6D2F73292C2020453D6D617869C5
:102190006D756D2045206A65726B20286D6D2F73FB
:1021A000290A0020540020204D32303420530041B1
:1021B0006363656C65726174696F6E3A20533D614B
:1021C0006363656C65726174696F6E2C20543D7237
:1021D00065747261637420616363656C65726174B8
:1021E000696F6E0A00204500205A00205900202007
:1021F0004D3230312058004D6178696D756D204148
:102200006363656C65726174696F6E20286D6D2FF4
:102210007332293A0A00204500205A002059002034
:10222000204D3230332058004D6178696D756D2036
:1022300066656564726174657320286D6D2F7329FE
:102240003A0A00204500205A0020590020204D392C
:102250003220580053746570732070657220756E5B
:1022600069743A0A0000002100240027002A002D8A
:10227000003000330001010000040107010A0100E1
:10228000002200250028002B002E0031003400021F
:10229000010000050108010B0100002000230026B9
:1022A0000029002C002F003200000100000301066D
:1022B00001090105050505070508080808020202CD
:1022C000020A0A08080404040401010101010101D1
:1022D000010303030303030303040707070C0C0CA8
:1022E0000C0C0C0C0C020202020606060606060680
:1022F000060B0B0B0B0B0B0B0B010210202008081D
:102300001020401020408002010201080402010157
:102310000204081020408080402010080402018040
:102320000402018040201008040201080402010197
:1023300002040810204080010204081020408000A0
:10234000000A0B02090C0D0E08070304010000002F
:10235000000000000000000000000000000000007D
:10236000000000000000000000000012111000003A
:10237000000000000000000000000000000000005D
:102380000000000000504944204175746F74756E60
:10239000652066696E6973686564210A0050494466
:1023A000204175746F74756E65206661696C656433
:1023B000212074696D656F75740A0020403A006FC2
:1023C0006B20543A006F6B20423A00504944204140
:1023D00075746F74756E65206661696C6564212023
:1023E00054656D706572617475726520746F6F20CD
:1023F000686967680A00204B643A2000204B693AFC
:102400002000204B703A200020436C617373696395
:1024100020504944200A002054753A2000204B7572
:102420003A2000206D61783A2000206D696E3A20D4
:102430000020643A200020626961733A20003B204A
:10244000472D436F64652067656E657261746564CE
:102450002062792053696D706C6966793344285223
:10246000292056657273696F6E2025640024F4D4A8
:102470003050C38E20C2A24017828B7011127A9105
:102480000D816CD90AA861E108C7586607615143FC
:10249000061E4B5D05C145A7041A411104093D986C
:1024A00003713931034036DB0265339102D4305475
:1024B00002802E1D02632CEE01752AC501B028A0F2
:1024C00001102781018F2564012B244B01E0223468
:1024D00001AC211F018D200D01801FFC00841EED29
:1024E00000971DDF00B81CD200E61BC600201BBCF5
:1024F00000641AB200B219A8000A19A0006A18995B
:1025000000D117910040178B00B516840031167E5C
:1025100000B31579003A157300C7146F0058146A98
:1025200000EE1366008813630025135E00C7125B7C
:10253000006C12570015125400C111510070114F58
:102540000021114B00D61049008D10470046104461
:102550000002104200C00F4000800F3E00420F3CBE
:1025600000060F3B00CB0E3800930E37005C0E3593
:1025700000270E3400F30D3200C10D3100900D30F4
:1025800000600D2E00320D2D00050D2C00D90C2BF6
:1025900000AE0C2900850C29005C0C2700350C27A7
:1025A000000E0C2600E80B2400C40B2400A00B2313
:1025B000007D0B23005A0B2100390B2100180B2042
:1025C00000F80A1F00D90A1E00BB0A1E009D0A1D42
:1025D00000800A1D00630A1C00470A1B002C0A1B0E
:1025E00000110A1A00F7091A00DD091900C40919B7
:1025F00000AB091900920917007B0918006309173D
:10260000004C09160036091600200916000A0915A3
:1026100000F5081500E0081400CC081400B80814F0
:1026200000A4081400900813007D0812006B081322
:10263000005808120046081200340811002308113F
:10264000001208110001081100F0071000E0071047
:1026500000D0071000C0071000B0070F00A107103E
:102660000091070E0083070F0074070F0065070E27
:102670000057070E0049070E003B070D002E070EFE
:102680000020070D0013070D0006070D00F9060CCA
:1026900000ED060D00E0060C00D4060C00C8060C88
:1026A00000BC060C00B0060C00A4060B0099060C3A
:1026B000008D060B0082060B0077060B006C060BE4
:1026C0000061060A0057060B004C060A0042060A83
:1026D0000038060A002E060A0024060A001A060A16
:1026E000001006090007060A00FD050900F40509A7
:1026F00000EB050900E2050900D9050900D005092C
:1027000000C7050900BE050900B5050800AD0508AC
:1027100000A50509009C050800940508008C050823
:1027200000840508007C050800740508006C050796
:1027300000650508005D050700560508004E050701
:102740000047050700400508003805070031050768
:10275000002A050700230507001C050600160507CB
:10276000000F0507000805060002050700FB040628
:1027700000F5040700EE040600E8040600E2040782
:1027800000DB040600D5040600CF040600C90406D9
:1027900000C3040600BD040600B7040600B104052A
:1027A00000AC040600A6040600A00405009B040675
:1027B0000095040500900406008A040500850405C0
:1027C00000800406007A0405007504050070040505
:1027D000006B04050066040500610405005C040547
:1027E0000057040500520405004D04050048040587
:1027F00000430405003E0404003A040500350405C6
:1028000000300404002C0405002704040023040500
:10281000001E0404001A0404001604050011040438
:10282000000D04040009040500040404000004046D
:1028300000FC030400F8030400F4030400F00304A4
:1028400000EC030400E8030400E4030400E00304D4
:1028500000DC030400D8030400D4030400D0030404
:1028600000CC030400C8030300C503030024F404E0
:10287000D9201BC40C5C0E9804C4095F0265077163
:1028800001F405F900FB04B30048048700C10369A3
:10289000005803550003034500BE023A008402318C
:1028A0000053022A002902250004022000E4011C32
:1028B00000C8011900AF011700980114008401132A
:1028C00000710110006101100051010E0043010D63
:1028D0000036010B002B010B0020010B0015010934
:1028E000000C01090003010800FB000800F30008C8
:1028F00000EB000700E4000600DE000600D800063A
:1029000000D2000600CC000500C7000500C200058B
:1029100000BD000400B9000400B5000400B10004CB
:1029200000AD000400A9000400A5000300A20003FC
:10293000009F0004009B0003009800030095000224
:102940000093000300900003008D0002008B000341
:10295000008800020086000200840003008100025B
:10296000007F0002007D0002007B0002007900026F
:10297000007700010076000200740002007200017E
:1029800000710002006F0002006D0001006C000287
:10299000006A000100690002006700010066000192
:1029A0000065000100640002006200010061000196
:1029B00000600001005F0002005D0001005C00019A
:1029C000005B0001005A000100590001005800019D
:1029D000005700010056000100550001005400019D
:1029E000005300000053000100520001005100019B
:1029F00000500001004F0001004E0000004E000199
:102A0000004D0001004C0001004B0000004B000194
:102A1000004A000100490001004800000048000190
:102A2000004700010046000000460001004500008C
:102A30000045000100440001004300000043000184
:102A4000004200000042000100410000004100017E
:102A500000400001003F0000003F0001003E000078
:102A6000003E0001003D0000003D0001003C000070
:102A7000003C0000003C0001003B0000003B000166
:102A8000003A0000003A000100390000003900015E
:102A90000038000000380000003800010037000056
:102AA000003700010036000000360000003600014B
:102AB0000035000000350000003500010034000042
:102AC0000034000000340001003300000033000037
:102AD000003300010032000000320000003200012B
:102AE0000031000000310000003100010030000022
:102AF0000030000000300001002F0000002F000017
:102B0000002F0000002F0001002E0000002E00000A
:102B1000002E0001002D0000002D0000002D0000FF
:102B2000002D0001002C0000002C0000002C0000F3
:102B3000002C0001002B0000002B0000002B0000E7
:102B4000002B0001002A0000002A0000002A0000DB
:102B5000002A0001002900000029000000290000CF
:102B600000290000002900010028000000280000C2
:102B700000280000002800000028000100270000B5
:102B800000270000002700000027000000270001A8
:102B9000002600000026000000260000002600009D
:102BA000002600010025000000250000002500008F
:102BB0000025000000250000002500010024000081
:102BC0000024000000240000002400000024000174
:102BD0000023000000230000002300000023000069
:102BE0000023000000230000002300010022000059
:102BF000002200000022000000220000002200004D
:102C0000002200010021000000210000002100003E
:102C1000002100000021000000210000002100012F
:102C20000020000000200000002000000020000024
:102C30000020000000200000002000000020000113
:102C4000001F0000001F0000001F0000001F000008
:102C5000001F0000001F0000001F0001001E0000F8
:102C6000001E0000001E0000001E0000004E6577E0
:102C7000206C617965722064657465637465640AAB
:102C8000003B206C61796572003B4C415945520014
:102C9000256920686F757273202569206D696E75CE
:102CA00074657300446F6E65207072696E74696E2E
:102CB000672066696C650A004D3333005061757397
:102CC00065207061726B696E670A00473639004E85
:102CD0006F74205344207072696E74696E670A00C5
:102CE0004E6F74205344207072696E74696E670A67
:102CF000005072696E7465722073746F70706564D1
:102D00002064756520746F206572726F72732E2057
:102D100046697820746865206572726F7220616EF2
:102D20006420757365204D39393920746F207265C0
:102D300073746172742E202854656D7065726174AD
:102D40007572652069732072657365742E205365F2
:102D50007420697420616674657220726573746191
:102D60007274696E67290A006F6B0A004E6F204CFF
:102D7000696E65204E756D62657220776974682092
:102D8000636865636B73756D2C204C617374204CA4
:102D9000696E653A20004E6F20436865636B7375FA
:102DA0006D2077697468206C696E65206E756D6240
:102DB00065722C204C617374204C696E653A20005A
:102DC000636865636B73756D206D69736D617463A2
:102DD000682C204C617374204C696E653A20004C5D
:102DE000696E65204E756D626572206973206E6F25
:102DF00074204C617374204C696E65204E756D6251
:102E000065722B312C204C617374204C696E653ACD
:102E100020004D31313000CDAC034400809343009D
:102E200000524300000000000000000000000049C4
:102E30006E7374616C6C202564202573206F6E2086
:102E400074686520257320686F74656E642E005366
:102E5000746F7265642073657474696E6773207231
:102E600065747269657665640A0048617264636FAF
:102E70006465642044656661756C74205365747480
:102E8000696E6773204C6F616465640A0048617203
:102E900064636F6465642043616C696220616E6481
:102EA000205049442044656661756C7420536574F4
:102EB00074696E6773204C6F616465640A002A2A26
:102EC0002A2047656E696520446973636F6E6E657D
:102ED000637465642066726F6D204765744E657813
:102EE000744279746521202A2A2A002A2A2A204736
:102EF000656E696520456E61626C65204174746120
:102F000063684576656E7448616E646C65722021F5
:102F10002121202A2A2A0047363920414354495684
:102F2000415445440A004E6F742053442070726926
:102F30006E74696E670A002F0050617573652061B9
:102F400074200050415553450A0053442070726963
:102F50006E74696E6720627974652000A502C502EF
:102F600011241FBECFEFD1E2DEBFCDBF00E00CBF0A
:102F700019E0A0E0B2E0E0EDF1EA03E00BBF02C02F
:102F800007900D92A239B107D9F72CE1A2E9B9E077
:102F900001C01D92AA3EB207E1F717E1CFEAD7E1DF
:102FA00000E006C021970109802FFE010F94C9CDD2
:102FB000CE3AD10780E00807A9F70F94C3B20D9469
:102FC000D7D00C9400002F923F924F925F926F9255
:102FD0007F928F929F92AF92BF92CF92DF92EF92A9
:102FE000FF920F931F93CF93DF93CDB7DEB7C353F9
:102FF000D1400FB6F894DEBF0FBECDBF2DB73EB7A0
:10300000CE5CDE4F39832883C253D14011E0109348
:10301000E5098091C80981110CC00F946B7360930E
:10302000C4097093C5098093C6099093C70910938A
:10303000C8098091BC0981110DC00F946B73609316
:10304000B8097093B9098093BA099093BB0981E0DC
:103050008093BC0980916F19882319F067E475E0AB
:1030600002C06BE275E088EC97E10F943F94809189
:103070007019882319F06DE275E002C06FE275E007
:1030800088EC97E10F943F948091CF0E8F938091BD
:10309000CE0E8F9389E399E09F938F938E01065E06
:1030A0001E4F1F930F930F9467C2B80188EC97E1EE
:1030B0000F94213490916F190F900F900F900F90F3
:1030C0000F900F90409175025091760260917702B7
:1030D00070917802911106C080917019882311F4C3
:1030E0000C941223453A51056105710509F44DC64A
:1030F0000CF0C3C0473551056105710509F4BAC428
:103100000CF05EC0413251056105710511F40C945B
:10311000272134F5413151056105710509F4FCC7DA
:1031200074F4413051056105710509F4E8C240317C
:1031300051056105710509F4BBC10C94235E43314F
:1031400051056105710509F47DC40CF49BC440323E
:1031500051056105710511F40C9439210C94235E1D
:10316000413451056105710509F4DBC4ACF4453304
:1031700051056105710511F40C94DE214D335105A3
:103180006105710509F4F4C3413351056105710509
:1031900011F00C94235E31C446345105610571056C
:1031A00009F4C3C4433551056105710509F4C3C26F
:1031B000443451056105710509F495C70C94235EEB
:1031C000473951056105710511F40C94C4214CF582
:1031D000463751056105710509F476C474F4483524
:1031E00051056105710509F4E9C34A3551056105C9
:1031F000710509F416C60C94235E4E37510561051E
:10320000710509F48DC1493851056105710509F44D
:1032100043C24B3751056105710511F00C94235ED3
:1032200000C64C3951056105710511F40C945A2101
:103230009CF44A3951056105710511F40C9448213B
:1032400014F00C945121483951056105710511F4B0
:103250000C94B3210C94235E433A5105610571052A
:1032600009F480C50CF0B7C54D39510561057105EC
:1032700011F40C9487210C94235E4F3E5105610597
:10328000710509F472C20CF088C0433D5105610517
:10329000710511F40C94CE22BCF5483A5105610534
:1032A000710509F4ABC504F5463A51056105710590
:1032B00009F400C5473A51056105710511F00C94F8
:1032C000235E8091DF099091E009A091E109B0911E
:1032D000E20991608093DF099093E009A093E109EE
:1032E000B093E2090C94235E4A3A510561057105D9
:1032F00009F40CC50CF45CC54E3B51056105710524
:1033000009F46EC30C94235E453E510561057105B9
:1033100009F40FC414F5433E51056105710509F424
:103320001BC40CF06AC4423E51056105710511F0E1
:103330000C94235E8091DF099091E009A091E1094E
:10334000B091E20982608093DF099093E009A09335
:10335000E109B093E2090C94235E4D3E51056105ED
:10336000710509F40BC10CF0C2C14A3E510561055B
:10337000710511F00C94235E40E050E06EE681E2AE
:103380000F945B468091CE0E9091CF0E92609093F9
:10339000CF0E8093CE0E0C94235E4B3F51056105FA
:1033A000710509F405C484F5473F510561057105B0
:1033B00009F436C4A4F4423F51056105710509F4CE
:1033C000BAC1463F51056105710509F44EC4413F3C
:1033D00051056105710511F00C94235E90C1809137
:1033E000DF099091E009A091E109B091E2092091F3
:1033F000AF023091B002493F51056105710509F4F2
:1034000098C40CF46AC4BBC34E3631E0530761055F
:10341000710509F4A8C0B4F5483691E05907610573
:10342000710509F4C2C74A36A1E05A076105710562
:1034300009F499C0453651406105710511F00C94AD
:10344000235E40E050E06AE28AE00F945B4640E091
:1034500050E064E581E20F945B4681E080936E0B5F
:103460001092710B63E37AE086E20F9449488091F1
:10347000CE0E9091CF0E98609093CF0E8093CE0E8B
:103480000C94235E4937E1E05E076105710509F49C
:103490003FC64538F1E05F076105710509F46CC16D
:1034A000483751406105710511F00C94235E9CC5AD
:1034B00080912702813419F541E050E066E08BE10C
:1034C0000F945B4641E050E060E181E20F945B467F
:1034D00041E050E062E181E20F945B4641E050E060
:1034E00063E181E20F945B4641E050E06EE781E2E8
:1034F0000F945B4684E4809327020C94235E84340B
:1035000011F00C94235E8091CE0E9091CF0E8064CA
:103510009093CF0E8093CE0E10926E0B0C94235E80
:1035200040E050E066E08BE10F945B4640E050E005
:1035300060E181E20F945B4640E050E062E181E2AD
:103540000F945B4640E050E063E181E20F945B46FC
:1035500040E050E06EE781E20F945B4681E48093A7
:1035600027020C94235E8091CE0E9091CF0E926034
:103570009093CF0E8093CE0E0C94235E8091270201
:10358000823419F583E48093270241E050E063E040
:103590008BE10F945B4641E050E067E581E20F94D8
:1035A0005B4641E050E066E781E20F945B4641E014
:1035B00050E06DEE81E20F945B4641E050E069E837
:1035C00081E20F945B460C94235E833411F00C94DB
:1035D000235E11E01093DB0940E050E068E981E2EE
:1035E0000F945B4640E050E067E981E20F945B4650
:1035F00040E050E06CE981E20F945B4640E050E02F
:103600006DE981E20F945B4641E050E06AE481E2BB
:103610000F945B4640E050E06CE28AE00F945B461A
:103620001093710B8FEF9FEF9093390280933802C4
:1036300040E050E06AE981E20F945B4640E050E0F0
:103640006BE981E20F945B4660916F11709170118C
:1036500080917111909172110F94F1CAAB0166E2E1
:1036600089E00F945B4660917311709174118091A1
:103670007511909176110F94F1CAAB0167E289E060
:103680000F945B4640E050E068E289E00F945B46AF
:1036900010926E0B0C94235E80912702833411F0FC
:1036A0000C94235E82E48093270240E050E063E0C4
:1036B0008BE10F945B4640E050E067E581E20F94B8
:1036C0005B4640E050E066E781E20F945B4640E0F5
:1036D00050E06DEE81E20F945B4640E050E069E817
:1036E00081E20F945B461092710B0C94235E40E0D4
:1036F00050E064E58AE00F945B460C94235E1092E0
:103700006E0B80E00F94CB488091CE0E9091CF0E3F
:1037100082609093CF0E8093CE0E81E08093750BE4
:1037200040E050E068E08AE00F945B4681E48093DB
:10373000760B0C94235E8091D30E882311F40C94A5
:10374000235E41E050E08091D00E8A3011F440E0D9
:1037500050E066E18BE10F945B4640E050E062E5AB
:103760008AE00F945B460C94235E89E480931D02EB
:103770000F94DE900C94235E8091DE1C9091DF1CF0
:103780009093AB108093AA100F9446028091E01C96
:103790009091E11C9093AD108093AC100F94460271
:1037A00082E48093270282E580931D0281E080936A
:1037B000710B10926E0B8091D00EE1E08A3009F40B
:1037C000E0E0E0932C0BF0E0EE0FFF1FE655FF4E1C
:1037D000208131813093B7092093B6098A3029F4CA
:1037E00080912D0B90912E0B04C08091310B909104
:1037F000320B918380830F94460281E48093760B91
:1038000040E050E068E08AE00F945B4640E050E022
:1038100064E581E20F945B4680E090E0A3E4B3E4CA
:103820008093DD109093DE10A093DF10B093E01032
:103830008090180B9090190BA0901A0BB0901B0B56
:103840002091D9103091DA104091DB105091DC10AA
:103850006091D5107091D6108091D7109091D810AA
:10386000E8EB6E2EE0E17E2E7F926F92F1EECF2E8E
:10387000F0E1DF2EE12CF12C03E413E40E94059C1F
:103880000F94AC0580E090E0A0E2B1E48093D91001
:103890009093DA10A093DB10B093DC108090140B9F
:1038A0009090150BA090160BB090170BE090DD10C8
:1038B000F090DE100091DF101091E0106091D510B3
:1038C0007091D6108091D7109091D8107F926F92FE
:1038D00020E030E040E251E40E94059C0F94AC05EA
:1038E0000F900F900F900F908091760B8E3411F403
:1038F0000C94942A1092760B0E940E6640E050E0E1
:1039000060E289E00F945B4640E050E064E28AE0C8
:103910000F945B4600912C0B10E0F801EE0FFF1F97
:10392000EE0FFF1FE159FE4E60817181828193810C
:103930000F94F1CA7093D9096093D809000F111F31
:10394000F801E655FF4E808191810A979093D7093F
:103950008093D6091092D5091092D40989E48093F6
:10396000760B0E940E6681E08093DA090C94235E48
:103970008091270240E050E0813441F469E08AE020
:103980000F945B4663E37AE082E007C06AE28AE074
:103990000F945B4663E37AE086E20F944948809196
:1039A000CE0E9091CF0E98609093CF0E8093CE0E56
:1039B0001092710B10926E0B0C94235E80916A0B27
:1039C00081110C94235E8091701981110C94235EF7
:1039D00040E050E069E38AE00F945B460C94235E7C
:1039E00080916A0B81110C94235E40E050E061E00D
:1039F0008AE00F945B460C94235E80916A0B8111E0
:103A00000C94235E10912702113411F00C94235E64
:103A100010926E0B10926F1981E08093701940E044
:103A200050E068E08AE00F945B461093760B80913B
:103A3000CE0E9091CF0E94609093CF0E8093CE0EC9
:103A40000C94235E80912702813439F440E050E0E9
:103A500061E08AE00F945B46ADCF843409F0AACFD1
:103A60008091CE0E9091CF0E90619093CF0E809367
:103A7000CE0EA0CF80912702823441F3833409F027
:103A800099CFEECF80912702992369F0813459F4C0
:103A90008091CE0E9091CF0E88609093CF0E809340
:103AA000CE0E0C94235E843411F00C94235E80912E
:103AB000CE0E9091CF0E80689093CF0E8093CE0E55
:103AC00010926E0B0C94235E80917019882311F470
:103AD0000C94235E80912702823459F48091CE0E9B
:103AE0009091CF0E80619093CF0E8093CE0E0C9468
:103AF000235E833411F00C94235E40E050E066E1D5
:103B00008AE00F945B4641E050E064E581E20F9467
:103B10005B4682E580931D0281E08093710B0C94DB
:103B2000235E0F9475200C94235E0F94FF1F0C945A
:103B3000235E8091DF099091E009A091E109B091A5
:103B4000E20984608093DF099093E009A093E10982
:103B5000B093E2090C94235E8091DF099091E00913
:103B6000A091E109B091E20988608093DF09909308
:103B7000E009A093E109B093E2090C94235E23309D
:103B8000310559F4A1608093DF099093E009A09377
:103B9000E109B093E2090C94235E84608093DF090D
:103BA0009093E009A093E109B093E2090C94235E9D
:103BB0002091AF023091B0028091DF099091E0092D
:103BC000A091E109B091E2092330310559F4A260D6
:103BD0008093DF099093E009A093E109B093E20993
:103BE0000C94235E88608093DF099093E009A09392
:103BF000E109B093E2090C94235E8091DF09909172
:103C0000E009A091E109B091E20981608093DF09A8
:103C10009093E009A093E109B093E2090C94235E2C
:103C20002091AF023091B0028091DF099091E009BC
:103C3000A091E109B091E2092330310559F4906176
:103C40008093DF099093E009A093E109B093E20922
:103C50000C94235E81608093DF099093E009A09328
:103C6000E109B093E2090C94235E2091AF023091F8
:103C7000B0028091DF099091E009A091E109B09133
:103C8000E2092330310559F490628093DF09909363
:103C9000E009A093E109B093E2090C94235E8260ED
:103CA0008093DF099093E009A093E109B093E209C2
:103CB0000C94235E8091DF099091E009A091E109C5
:103CC000B091E20980628093DF099093E009A093AC
:103CD000E109B093E2090C94235E2330310559F4D5
:103CE00090648093DF099093E009A093E109B09379
:103CF000E2090C94235E80628093DF099093E009CF
:103D0000A093E109B093E2090C94235E8091DF094E
:103D10009091E009A091E109B091E209806180935E
:103D2000DF099093E009A093E109B093E2090C94B4
:103D3000235E2330310559F490688093DF09909316
:103D4000E009A093E109B093E2090C94235E80613D
:103D50008093DF099093E009A093E109B093E20911
:103D60000C94235E8091DF099091E009A091E10914
:103D7000B091E20980648093DF099093E009A093F9
:103D8000E109B093E2090C94235E8091DF099091E0
:103D9000E009A091E109B091E20980688093DF0910
:103DA0009093E009A093E109B093E2090C94235E9B
:103DB0008091DF099091E009A091E109B091E209B9
:103DC00092608093DF099093E009A093E109B0939A
:103DD000E2090C94235E8091DF099091E009A091A3
:103DE000E109B091E20994608093DF099093E009C2
:103DF000A093E109B093E2090C94235E8091DF095E
:103E00009091E009A091E109B091E2099860809356
:103E1000DF099093E009A093E109B093E2090C94C3
:103E2000235E4A3551056105710519F410922C0B7A
:103E300003C081E080932C0B80912C0BE82FF0E0E5
:103E4000EE0FFF1FE655FF4E208131813093B709F9
:103E50002093B609811105C080912D0B90912E0BF6
:103E600004C08091310B9091320B918380830F9429
:103E7000460281E48093760B40E050E068E08AE0FF
:103E80000F945B4640E050E064E581E20F945B46AE
:103E900080E090E0A3E4B3E48093DD109093DE1023
:103EA000A093DF10B093E0108090180B9090190B46
:103EB000A0901A0BB0901B0B2091D9103091DA1002
:103EC0004091DB105091DC106091D5107091D610AC
:103ED0008091D7109091D810E8EB6E2EE0E17E2E05
:103EE0007F926F92F1EECF2EF0E1DF2EE12CF12CDC
:103EF00003E413E40E94059C0F94AC0580E090E07D
:103F0000A0E2B1E48093D9109093DA10A093DB1073
:103F1000B093DC108090140B9090150BA090160BB2
:103F2000B090170BE090DD10F090DE100091DF10E4
:103F30001091E0106091D5107091D6108091D7103B
:103F40009091D8107F926F9220E030E040E251E4EF
:103F50000E94059C0F94AC050F900F900F900F904E
:103F60008091760B8E3411F40C94942A1092760B77
:103F70000E940E6640E050E060E289E00F945B46EC
:103F800040E050E064E28AE00F945B4600912C0B25
:103F900010E0F801EE0FFF1FEE0FFF1FE159FE4E7C
:103FA00060817181828193810F94F1CA7093D909E4
:103FB0006093D809000F111FF801E655FF4E80816C
:103FC00091810A979093D7098093D6091092D509C9
:103FD0001092D40989E48093760B0E940E6681E0EA
:103FE0008093DA090C94235E40E050E060E289E0BF
:103FF0000F945B4640E050E064E28AE00F945B4639
:1040000089E48093760B0E940E6600912C0B0111BF
:104010001DC080912F0B9091300B609117177091FC
:104020001817681779072CF4BC01990F880B990BA6
:1040300004C0072E000C880B990B0F94BCC20F9480
:10404000F1CA7093AB106093AA1020C08091330B1B
:104050009091340B609111177091121768177907BE
:104060002CF4BC01990F880B990B04C0072E000C8F
:10407000880B990B0F94BCC210E0000F111F06555E
:104080001F4E0F94F1CAD8016D937C930F94460292
:1040900000912C0B10E0F801EE0FFF1FEE0FFF1F39
:1040A000E159FE4E60817181828193810F94F1CA42
:1040B0007093D9096093D809000F111FF801E655D4
:1040C000FF4E808191810A979093D7098093D609FA
:1040D0001092D5091092D4090E940E6681E0809357
:1040E000DA090C94235E8091AE02882311F40C94BB
:1040F000315E80912C0B811102C08AE101C086E300
:104100000F94DA71892B11F00C94315E0C94235EBC
:104110000F94068C0C94235E8091DD0981FF02C010
:104120000C94235E8091AE0E9091AD0E98130C947A
:10413000B25F40E050E06BE084E10F945B4640E00A
:1041400050E065E18AE00F945B4682E48093760B51
:1041500080935611E0912C0B34E0E39FF001112481
:10416000E757FD4F60817181828193816093D51003
:104170007093D6108093D7109093D810E090DD10F4
:10418000F090DE100091DF101091E0102091D91016
:104190003091DA104091DB105091DC10ECE2FBE042
:1041A000FF93EF93812C912CE8E4AE2EE3E4BE2E36
:1041B000F1EECF2EF0E1DF2E0E94059CE090DD10A5
:1041C000F090DE100091DF101091E0102091D910D6
:1041D0003091DA104091DB105091DC10E091B81072
:1041E00064E0E69FF0011124E757FD4F6081718183
:1041F000828193810F946047E091B81084E0E89F3A
:10420000F0011124E757FD4F80819181A281B38194
:104210008093D5109093D610A093D710B093D81058
:10422000E0912C0BF0E0EE0FFF1FE655FF4E809162
:10423000B6099091B709918380830F94460210923A
:10424000D30E0F94AC050F900F900C94235E8091C9
:10425000DD0981FF02C00C94235E9091AE0E209187
:10426000AD0E29130C94B65F80618093DD090C9428
:10427000235E8091DD0981FF02C00C94235E909142
:10428000AE0E2091AD0E29130C94B65F0C94B95F5D
:104290008091AE0E9091AD0E98130C94235E0C9409
:1042A000BD5F9091AE0E8091AD0E98130C94235E7D
:1042B0000C944860E0913802F0913902EF3F9FEF93
:1042C000F90711F40C94235EEE0FFF1FE655FF4E25
:1042D000808191818B33A1E09A0714F00C94235EC6
:1042E0000596918380830F9446020F944602E091D5
:1042F0003802F0913902EE0FFF1FE655FF4E408164
:10430000518168E289E00F945B460C94235EE09152
:104310003802F0913902EF3FBFEFFB0711F40C9424
:10432000235EEE0FFF1FE655FF4E80819181181628
:10433000190614F00C94235E0597918380830F94E3
:1043400046020F944602E0913802F0913902EE0FD6
:10435000FF1FE655FF4E4081518168E289E00F94CE
:104360005B460C94235E809138029091390201964D
:1043700011F40C94235E9091AE0E8091AD0E9813C3
:104380000C94B65F0C94D6608091380290913902FB
:10439000019611F40C94235E9091AE0E8091AD0EB7
:1043A00098130C94B65F0C94DC609091AE0E8091E3
:1043B000AD0E98130C94235E0C94E260809156111C
:1043C000823411F00C94235E1092760B8091CE0E05
:1043D0009091CF0E8D7F9093CF0E8093CE0E8091D3
:1043E0001D02823531F489E480931D020F94DE9022
:1043F000D1C0893409F0CEC081E48093760B40E0CF
:1044000050E068E08AE00F945B4640906C0A509060
:104410006D0A60906E0A70906F0A4092D9105092A7
:10442000DA106092DB107092DC1020E030E040E7A0
:1044300052E46091F4027091F5028091F60290913D
:10444000F7020F9445CA4B015C01E090DD10F0903B
:10445000DE100091DF101091E0106091D510709186
:10446000D6108091D7109091D81028EB30E13F936F
:104470002F93F1EECF2EF0E1DF2EA30192010E94E7
:10448000059C0F94AC050F900F908091760B8E34A5
:1044900011F40C94942A20E030E040E251E4609161
:1044A000700A7091710A8091720A9091730A0F9448
:1044B00057C97B018C016093DD107093DE108093EF
:1044C000DF109093E0108091670A89838090F80252
:1044D0009090F902A090FA02B090FB022091D910BE
:1044E0003091DA104091DB105091DC106091D510C2
:1044F0007091D6108091D7109091D810FE0131960E
:10450000FF93EF930E94059C0F94AC050F900F90C2
:104510008091760B8E3411F40C94942A1092760BC1
:1045200082E48093270240E050E063E08BE10F9447
:104530005B4640E050E067E581E20F945B4640E077
:1045400050E066E781E20F945B4640E050E06DEE9C
:1045500081E20F945B4640E050E069E881E20F940D
:104560005B4640E050E06AE28AE00F945B4681E0FF
:1045700080936E0B1092710B63E37AE086E20F94E6
:1045800049488091CE0E9091CF0E98609093CF0EB7
:104590008093CE0E109256110C94235E8091F80BEE
:1045A0001092760B8823E9F01092F80B8091CE0ED2
:1045B0009091CF0E98609093CF0E8093CE0E809105
:1045C000270240E050E0813431F469E08AE00F9442
:1045D0005B460C94235E6AE28AE00F945B460C947F
:1045E000235E10928B0E1092710BEEE2F9E0849133
:1045F0008F01882351F0082E000C990B0F94289CF2
:104600000F5F1F4FF8018491F4CF10923F0B81E0B0
:104610000F94D41A40E050E065E08AE00F945B46C6
:104620000C94235E80912E0A282F287083FF90C35C
:104630009091320A923008F48BC3413B51056105D9
:10464000710509F4A8C0B4F544365105610571053A
:1046500009F4A1C1A4F44E3551056105710509F4B1
:10466000F0C24F3551056105710509F41CC345338E
:1046700051056105710511F00C94235E27C3403A82
:1046800051056105710509F4C8C0423A510561053B
:10469000710509F46AC0433851056105710511F0CF
:1046A0000C94235E40E050E06DE68AE00F945B4698
:1046B0000C94235E4233F1E05F076105710509F454
:1046C0005CC13CF5453C51056105710509F479C0B3
:1046D0004C3C51056105710509F489C0423B510507
:1046E0006105710511F00C94235E0F94E11F41E008
:1046F00050E062EB81E20F945B4641E050E060EAFB
:1047000081E20F945B4610925102109250020C9479
:10471000235E463331E053076105710509F417C183
:10472000ACF4433351406105710511F00C94235EE4
:104730008DEF9FEF909358118093571140E050E018
:104740006AE08AE00F945B460C94235E4E37A1E04A
:104750005A076105710509F4F2C1483851406105F5
:10476000710509F424C10C94235E0F94E11F41E00C
:1047700050E062EA81E20F945B4641E050E060EA7B
:1047800081E20F945B468EEF9FEF909351028093EE
:1047900050020C94235E0F94E11F41E050E061EB66
:1047A00081E20F945B4641E050E060EA81E20F94C1
:1047B0005B468FEF9FEF90935102809350020C94D1
:1047C000235E0F94E11F41E050E065EC81E20F941D
:1047D0005B4641E050E060EA81E20F945B4681E095
:1047E00090E090935102809350020C94235E0F94BA
:1047F000E11F41E050E06CEC81E20F945B4641E048
:1048000050E060EA81E20F945B4682E090E0909392
:104810005102809350020C94235E0091500210913B
:10482000510298012E5F3F4F2530310510F00C9456
:10483000235E9230D9F583E08093320A40E050E065
:1048400061E18AE00F945B4680E58093760B80916E
:104850002F0A800F80932F0A00E010E020E030E064
:104860004CE553EC60E070E088E393EC0F94DBA43C
:104870000F94E11F80E697E09093510280935002DD
:1048800040E050E060EA81E20F945B4642E050E095
:104890006CE08BE10F945B4640E050E069E18AE018
:1048A0000F945B461092760B0C94235E9330D9F5EF
:1048B00084E08093320A40E050E061E18AE00F94A6
:1048C0005B4680E58093760B8091300A800F809361
:1048D000300A00E010E020E030E04CE553EC60E00E
:1048E00070E080E493E40F94DBA40F94E11F80E672
:1048F00097E0909351028093500240E050E060EACC
:1049000081E20F945B4642E050E06CE08BE10F9453
:104910005B4640E050E069E18AE00F945B4610920C
:10492000760B0C94235E943011F00C94235E8091EE
:10493000310A800F8093310A40E050E06EE28AE055
:104940000F945B468FE48093760B0C94235E0F9458
:10495000E11F40E050E060EA81E20F945B4640E0F6
:1049600050E069E18AE00F945B4680E697E090931F
:104970005102809350020C94235E83E090E0909368
:1049800058118093571140E050E06AE08AE00F949C
:104990005B460C94235E109258111092571140E020
:1049A00050E06AE08AE00F945B460C94235E40E09E
:1049B00050E068E08AE00F945B4681E48093760BD8
:1049C00041E061E081E00F943B531092760B0F942D
:1049D000AC050F94768D109157118091320A823078
:1049E000B1F540E050E061E18AE00F945B4680E57C
:1049F0008093760B00912F0A010F00932F0A002E4F
:104A0000000C110B20E030E0A901CA01B9010F949C
:104A1000DBA40F94E11F80E697E09093510280930E
:104A2000500240E050E060EA81E20F945B4642E0D1
:104A300050E06CE08BE10F945B4640E050E069E1B0
:104A40008AE00F945B461092760B0C94235E8330C1
:104A5000C9F540E050E061E18AE00F945B4680E5F3
:104A60008093760B0091300A010F0093300A002EDC
:104A7000000C110B20E030E04CE553EC60E070E0FE
:104A800088E393EC0F94DBA40F94E11F80E697E09A
:104A9000909351028093500240E050E060EA81E23E
:104AA0000F945B4642E050E06CE08BE10F945B4674
:104AB00040E050E069E18AE00F945B461092760B8B
:104AC0000C94235E843011F00C94235E40E050E09F
:104AD00061E18AE00F945B4680E58093760B00915C
:104AE000310A010F0093310A002E000C110B20E057
:104AF00030E04CE553EC60E070E080E493E40F9428
:104B0000DBA40F94E11F80E697E09093510280931D
:104B1000500240E050E060EA81E20F945B4642E0E0
:104B200050E06CE08BE10F945B4640E050E069E1BF
:104B30008AE00F945B461092760B0C94235E1092E1
:104B4000760B80912F0A4091300A042F081B409168
:104B5000310A142F181B602F002E000C770B880BC6
:104B6000990B0F94BCC22DEC3CEC4CEC5DEB0F941C
:104B7000C4BD6093C80A7093C90A8093CA0A90930F
:104B8000CB0A612F012E000C770B880B990B0F9429
:104B9000BCC22DEC3CEC4CEC5DEB0F94C4BD6093BF
:104BA000C40A7093C50A8093C60A9093C70A00236B
:104BB000A1F040E050E06FE18AE00F945B4607FF10
:104BC00007C0E02FFF27E1950CF4F09508E00E0FE9
:104BD000402F000F550B64E015C01123B9F040E0E1
:104BE00050E060E28AE00F945B4617FF07C0212F78
:104BF000332721950CF4309518E0120F412F110F37
:104C0000550B65E08BE10F945B4611C014E41093E3
:104C1000561140E050E06BE084E10F945B4640E0C9
:104C200050E065E18AE00F945B461093760B8CEEC2
:104C300090E09093C30A8093C20A0F94CA690C94BF
:104C4000235E4091310A80912F0A142F181BC1F066
:104C500040E050E060E28AE00F945B4617FF07C037
:104C6000812F992781950CF4909518E0180F412F0A
:104C7000110F550B65E08BE10F945B460C94235E9E
:104C800014E41093561140E050E06BE084E10F947F
:104C90005B4640E050E065E18AE00F945B4610938C
:104CA000760B0C94235E14E41093561140E050E010
:104CB0006BE084E10F945B4640E050E065E18AE000
:104CC0000F945B461093760B0C94235E90915611D3
:104CD000943411F00C94235E1092320A877F8093F3
:104CE0002E0A1092760B1092A5101092A4100F9419
:104CF00002021092AB101092AA100F94460210926A
:104D0000AD101092AC100F94460210928B0E1092C0
:104D1000710BE3E2F9E084918F01882351F0082EB2
:104D2000000C990B0F94289C0F5F1F4FF801849182
:104D3000F4CF10923F0B80E00F94D41A40E050E083
:104D400065E08AE00F945B46109256110C94235E46
:104D50004E38F1E05F0710F00C94235EFA018827CB
:104D6000EE58FF4F8F4F0D94C9CD80912102909145
:104D70002202826090932202809321020C94235E8F
:104D8000809121029091220284609093220280936C
:104D900021020C94235E809121029091220288606E
:104DA00090932202809321020C94235E8091210231
:104DB00090912202806190932202809321020C94B0
:104DC000235E8091210290912202806290932202C0
:104DD000809321020C94235E0F94AA36009781F4ED
:104DE00080912102909122029460909322028093FC
:104DF0002102809195108150809395100C94235E30
:104E0000019711F00C94235E80912102909122026F
:104E10009460909322028093210240E050E067E387
:104E200081E20F945B4640E050E061E08BE10F943B
:104E30005B46809195108150809395100C94235E71
:104E400010928B0E1092710BE8E1F9E084918F01C2
:104E5000882351F0082E000C990B0F94289C0F5FAB
:104E60001F4FF8018491F4CF10923F0B81E00F9413
:104E7000D41A40E050E065E08AE00F945B460C9461
:104E8000235E6DE575E088EC97E10F943F94809187
:104E90007119882311F40C94235E6EE775E088EC99
:104EA00097E10F943F9441E061E082E799E10F942C
:104EB0004E398FEF9FEF9093601980935F19412CCB
:104EC000512C32017301620100E010E07EE0A72E58
:104ED00079E1B72E9E012F5F3F4F190188248394FB
:104EE000912C4091101C5091111C6091121C7091DA
:104EF000131C80916B1B90916C1BA0916D1BB0914A
:104F00006E1B84179507A607B70710F40C94FF6073
:104F10001AC00115110511F40C94246180E00F945E
:104F2000BBB16B017C0181E00F94BBB12B013C0153
:104F300020E030E0A901C701B6010F942FCC18166C
:104F400014F00C94486180E00F94CB4820E030E0EE
:104F5000A901C701B6010F94B6C218165CF020E093
:104F600030E0A901C301B2010F94B6C2181614F0C3
:104F70000C945C618090520290905302A090540275
:104F8000B0905502A5019401C701B6010F94B6C2B5
:104F9000811114C020E030E0A901C701B6010F94CF
:104FA0002FCC18165CF420E030E0A901C301B20157
:104FB0000F94B6C2181614F00C945C61209156023E
:104FC000309157024091580250915902C65DDE4F10
:104FD000288339834A835B83CA52D140C301B2011B
:104FE0000F94B6C281111EC020E030E0A901C301B8
:104FF000B2010F942FCC18165CF420E030E0A90128
:10500000C701B6010F94B6C2181614F00C945C6177
:10501000A5019401C701B6010F94B6C2882311F40B
:105020000C945C6120E030E0A901C701B6010F9447
:10503000B6C220E030E040E251E418161CF0C50191
:10504000B40102C0C701B6010F94C4BD0F94F1CAE8
:105050006093080220E030E0A901C301B2010F947F
:10506000B6C220E030E040E251E418164CF0C65DD4
:10507000DE4F688179818A819B81CA52D14002C00A
:10508000C301B2010F94C4BD0F94F1CA6093090229
:1050900068EB78E088EC97E10F943F9440E050E0B3
:1050A0006FE58AE00F945B46609152027091530263
:1050B00080915402909155020F94F1CAAB016DE4B6
:1050C00089E00F945B4620E030E040E251E46091DB
:1050D00052027091530280915402909155020F94A4
:1050E000C4BD0F94F1CA0AE010E0CB01B8010F94DF
:1050F0009ACDAC016EE489E00F945B466091560254
:105100007091570280915802909159020F94F1CA00
:10511000AB016FE489E00F945B4620E030E040E2B1
:1051200051E460915602709157028091580290911B
:1051300059020F94C4BD0F94F1CACB01B8010F946A
:105140009ACDAC0160E589E00F945B46809108023E
:105150001AE0612F0F9479CD482F880F550B61E528
:1051600089E00F945B4680910802612F0F9479CDFE
:10517000492F990F550B62E589E00F945B468091AA
:105180000902612F0F9479CD482F880F550B63E5E5
:1051900089E00F945B4680910902612F0F9479CDCD
:1051A000492F990F550B64E589E00F945B46BCC10C
:1051B00080917119882311F40C94235E8091C11998
:1051C00081110C94235ECDB6DEB68091E3099091F7
:1051D000E4090F94C838E2E7F9E1DF010D900020FF
:1051E000E9F78DB79EB78A1B9B0B9C012259364E5F
:1051F0000FB6F8943EBF0FBE2DBF0DB71EB70F5FA1
:105200001F4FFF93EF9388EB98E09F938F931F932B
:105210000F930F9467C2780134E0E30EF11C0F90F6
:105220000F900F900F900F900F90D7018C918823C3
:1052300049F0082E000C990B0F9447D0F701819389
:105240007F01F3CFC8010F94461B84EB98E00F94C5
:10525000D71A0FB6F894DEBE0FBECDBE0C94235EF7
:1052600081E080938B0E80912102909122029260C6
:1052700090932202809321020C94235E809121025C
:1052800090912202916090932202809321020C94CB
:10529000235E8091210290912202806890932202E5
:1052A000809321020C94235E40E050E062E18AE0AA
:1052B0000F945B460C94235E40E050E06CE18AE082
:1052C0000F945B4680E00F94D41A1092F70B109263
:1052D000F60B1092F50B81E080933F0B0C94235E4C
:1052E00010928B0E1092710BE9EAF8E084918F0115
:1052F000882351F0082E000C990B0F94289C0F5F07
:105300001F4FF8018491F4CF10923F0B0E940E665C
:1053100081E00F94D41A40E050E065E08AE00F94F9
:105320005B460C94235E8091AA109091AB10892B60
:1053300029F01092AB101092AA1008C08091620B55
:105340009091630B9093AB108093AA100F94460238
:105350001092F70B0C94235E8091AC109091AD10DD
:10536000892B29F01092AD101092AC1008C08091DA
:105370005F0B9091600B9093AD108093AC100F94E5
:1053800046021092F60B0C94235E8091A41090912B
:10539000A510892B29F01092A5101092A4101CC002
:1053A00080912C0A90912D0A60912A0A70912B0A03
:1053B000681779072CF4BC01990F880B990B04C06E
:1053C000072E000C880B990B0F94BCC20F94F1CAE6
:1053D0007093A5106093A4100F9402021092F50B25
:1053E0000C94235E85EA98E00F94D71A0C94235E00
:1053F00040E050E06EE18AE00F945B460C94235E3F
:1054000040E050E065E08AE00F945B4610928B0E1E
:105410001092710BEAE9F8E084918F01882351F032
:10542000082E000C990B0F94289C0F5F1F4FF8015A
:105430008491F4CF10923F0B88E793E090933F0262
:1054400080933E020F94CA690C94235E40E050E0C2
:105450006AE18AE00F945B460F94BF348091711922
:10546000882311F40C94235E8091941080939510FE
:10547000BCE6EB2EB0E1FB2E10E8C12E10E1D12EE0
:1054800000E010E08091941090E008171907FCF4F8
:1054900062E779E189EE99E10F94A94C5701D701B0
:1054A0008D919D917D010F94C838F5018081918186
:1054B000D6018D939D936D018091C119882321F0B0
:1054C00082E799E10F94B63D0F5F1F4FDBCF87E076
:1054D00090E00F94CA910C94235E80913E029091CB
:1054E0003F028036974041F488E793E090933F0273
:1054F00080933E020F94CA6940E050E068E08AE081
:105500000F945B4681E48093760B80911911882378
:10551000D1F040E061E081E00F943B530F94AC0583
:105520008091760B8E3489F48FEF9FEFDC018093AE
:10553000750290937602A0937702B093780210924E
:10554000E5090C94E96541E0E5CF81E00F94D41AB8
:105550001092760B87E998E00F94D71A0F94AC0558
:105560008091760B8E3401F340E050E06BE08AE0EE
:105570000F945B460C94235E40E050E064E08AE0C8
:105580000F945B460C94235E40E050E064E28AE0B6
:105590000F945B468091F40B82608093F40B89E456
:1055A0008093760B40E050E060E289E00F945B4628
:1055B0006091620B7091630B072E000C880B990BA6
:1055C0000F94BCC240E050E00F9477730F94CA6907
:1055D0006AE179E085E698E10F942D9C65E375E03A
:1055E00085E698E10F942D9C60911203709113034E
:1055F000809114039091150342E050E00F940A9DAE
:1056000069E375E085E698E10F942D9C2DEB37E377
:1056100046E05EE360910A0370910B0380910C03F6
:1056200090910D030F9445CA42E050E00F940A9DFB
:105630006DE375E085E698E10F942D9C2DEB37E343
:1056400046E05EE3609102037091030380910403DE
:10565000909105030F94C4BD42E050E00F940A9D61
:1056600060915F0B7091600B072E000C880B990BFB
:105670000F94BCC241E050E00F9477730F94CA6955
:105680006AE179E085E698E10F942D9C65E375E089
:1056900085E698E10F942D9C609116037091170395
:1056A000809118039091190342E050E00F940A9DF5
:1056B00069E375E085E698E10F942D9C2DEB37E3C7
:1056C00046E05EE360910E0370910F03809110033A
:1056D000909111030F9445CA42E050E00F940A9D47
:1056E0006DE375E085E698E10F942D9C2DEB37E393
:1056F00046E05EE360910603709107038091080322
:10570000909109030F94C4BD42E050E00F940A9DAC
:105710001092760B0E940E6640E050E06BE084E150
:105720000F945B4640E050E065E18AE00F945B46F1
:1057300081E00F94D41A84E4809356118093760B01
:105740000C94235E40E050E068E28AE00F945B46F0
:105750000C94235E40E050E062E18AE00F945B46E7
:105760000C94235E10928B0E1092710BECE8F8E013
:1057700084918F01882351F0082E000C990B0F940F
:10578000289C0F5F1F4FF8018491F4CF10923F0BBC
:105790000E940E6640E050E065E08AE00F945B46B0
:1057A0000C94235E40E050E062E18AE00F945B4697
:1057B0000C94235E82E580931D028091F40B81603E
:1057C0008093F40B40E050E06BE581E20F945B4680
:1057D00040E050E06CE581E20F945B4640E050E031
:1057E00060E08BE10F945B4640E050E06AE781E2C5
:1057F0000F945B4640E050E069E781E20F945B461E
:1058000040E050E06DE18AE00F945B468FEF8093BB
:105810002C0B0C94235E40E050E06CE68AE00F9481
:105820005B460C94235E40E050E062E18AE00F9416
:105830005B4640E050E06BE581E20F945B4640E060
:1058400050E06CE581E20F945B4640E050E060E0A0
:105850008BE10F945B4640E050E06AE781E20F94F1
:105860005B4640E050E069E781E20F945B4680913F
:10587000F40B8E7F8093F40B0C94235E10928B0EAE
:105880001092710BE1E8F8E084918F01882351F0C8
:10589000082E000C990B0F94289C0F5F1F4FF801E6
:1058A0008491F4CF10923F0B40E050E065E08AE035
:1058B0000F945B4640E050E06BE581E20F945B465D
:1058C00040E050E06CE581E20F945B4640E050E040
:1058D00060E08BE10F945B4640E050E06AE781E2D4
:1058E0000F945B4640E050E069E781E20F945B462D
:1058F0008091F40B8E7F8093F40B0C94235E41E037
:1059000050E06BE581E20F945B4640E050E06CE5CF
:1059100081E20F945B4641E050E060E08BE10F9440
:105920005B4641E050E06AE781E20F945B4641E06C
:1059300050E069E781E20F945B4610922C0B0C94C7
:10594000235E40E050E06BE581E20F945B4641E06E
:1059500050E06CE581E20F945B4641E050E060E08E
:105960008BE10F945B4641E050E06AE781E20F94DF
:105970005B4641E050E069E781E20F945B4681E0DD
:1059800080932C0B0C94235E80913E0290913F02F9
:105990008036974041F488E793E090933F028093EC
:1059A0003E020F94CA6980912C0B8F3F11F40C9426
:1059B000235E0F94B2B90C94235E80913E029091C5
:1059C0003F028036974041F488E793E090933F028E
:1059D00080933E020F94CA69E0912C0BEF3F11F4C3
:1059E0000C94235E81E08093740BF0E0EE0FFF1FB8
:1059F000E655FF4E84E091E0918380830F94460248
:105A000081E48093760B40E050E068E08AE00F94F8
:105A10005B4680911911882311F040E001C041E0FC
:105A200061E081E00F943B530F94AC058091760BBD
:105A30008E3409F479CD80E090E0A3E4B3E4809360
:105A4000DD109093DE10A093DF10B093E0108090F3
:105A5000180B9090190BA0901A0BB0901B0B209173
:105A6000D9103091DA104091DB105091DC10609128
:105A7000D5107091D6108091D7109091D810A8EBC6
:105A80006A2EA0E17A2E7F926F92B1EECB2EB0E11A
:105A9000DB2EE12CF12C03E413E40E94059C0F940F
:105AA000AC050F900F908091760B8E3409F43CCDAD
:105AB00080E090E0A0E2B1E48093D9109093DA10F6
:105AC000A093DB10B093DC108090140B9090150B1A
:105AD000A090160BB090170BE090DD10F090DE1048
