:100000000C94B9170C94EA170C94EA170C94EA179D
:100010000C94EA170C94EA170C94EA170C94EA175C
:100020000C94EA170C94EA170C94EA170C94EA174C
:100030000C94EA170C94EA170C94EA170D942A1DF5
:100040000C94EA170C94EA170C94EA170C94EA172C
:100050000C94EA170C94EA170D94A5000D946C3FCC
:100060000C94EA170D9483410D9459410C94EA17AE
:100070000C94EA170C94EA170C94EA170C94EA17FC
:100080000D94A66D0C94EA170C94EA170C94EA17D9
:100090000D9423410D94F9400C94EA170C94EA173F
:1000A0000C94EA170C94EA170C94EA170C94EA17CC
:1000B0000C94EA170C94EA170C94EA170C94EA17BC
:1000C0000C94EA170C94EA170C94EA170D94C340A9
:1000D0000D9499400C94EA170C94EA170C94EA17C3
:1000E0000C94EA17935B2C5E6430282E385947290C
:1000F000F45C5D292C5E2C5E2C5E9C2939292C5EDB
:10010000D426C9262C5E493A2C5E2C5E2C5EFF5C00
:1001100016412C4142415841F0416E412F5D08414A
:10012000CE439A5B963A873A844198412C5E522995
:100130004A273929082E813C202EB15CB54F182E54
:10014000102ED25C2F5B2C5E5630AA5C2C5E283DB4
:100150006529F526DF262C5E2C5E762AB23A2C5EC7
:100160007F5C535CF5485B32E128064D9637A53A33
:100170005F322C5EF05BA95B22300C310C31E83031
:1001800063326733142CB529CE29A830CA30BE2675
:10019000EA262C5E2C5E39299C30882CAA2CFB295F
:1001A000263C063C2C5E0258AE581C5B2C5E2F5D34
:1001B0002F5D7C5A505A245AF8597459A059CC5979
:1001C000655B81585244DC43C844D9463246BC453D
:1001D0002C5E2C5E3859CD2CE62C9C302558265DA3
:1001E0002C5E2C5E705CAE41E54BD1472C5E29271E
:1001F0003A56C441DA412C5E34422C5E5B3B533BA1
:100200002C5E2C5ECA352C5E2C5E2C5EF13543369E
:100210002E36A12F8B2F633B312EAE2E322F5F2F28
:100220008554B22F55481936E9472C5E2C5E2C5E5A
:100230002C5E2C5E2C5E2C5E2C5E2C5E012A092A24
:100240002F2A2C5E2C5EFF471348F548E54BF14BF7
:10025000F64C2C5E3A509E50CD4F21500D4E2C5EE8
:100260002C5E2A4E2C5EBA524339413AFE5229483E
:100270002C5E8C51D65122526E5284513F482C5ED6
:1002800042534454B855DC562C5E6E55A846A846D9
:10029000C9553934AB2B8F4F164E484E1A4F224F4B
:1002A0003929974F2C5E2C5E2C5E2C5E2C5E2C5ECA
:1002B000133A2C5E2C5E29595C5B2C5E2C5E2C5E06
:1002C0002C5E2C5E2C5E2C5E2C5E9957EC572C5EBF
:1002D0002C5E2C5E2C5E2C5E2C5E2C5E2C5E2C5ECE
:1002E0002C5E2C5E2C5E2C5E2C5E2C5E2C5E2C5EBE
:1002F0002C5E2C5E2C5E2C5E2C5E2C5E2C5E2C5EAE
:100300002C5E2C5E2C5E2C5E2C5E2C5E2C5E2C5E9D
:100310002C5E2C5E2C5E2C5E2C5E2C5E2C5E2C5E8D
:100320002C5E2C5E2C5E2C5E2C5E2C5E2C5E2C5E7D
:100330002C5E2C5E2C5E2C5E2C5E2C5ECA408C40AB
:10034000904352432C5EB7462C5E2C5EA53ADB2BC5
:1003500042430842A53A08422C5E1E421E42B32B7D
:100360008D5C865C9C5CA35CFC58015906590B595A
:10037000695C5A5C15591A591F5924591059F75874
:10038000964BB54B282EC52ABB2B2C5E875B705431
:100390007929472C2C5E2C5E7A5842512C5E2C5EBB
:1003A0002C5ED5562C5E25582C5E2C5E2C5EC23001
:1003B0001C2C7D5411300B352C5E16512C5ECE5604
:1003C0002C5E2C5E2C5E2C5E2C5E4930704B834B79
:1003D000875B655BCF36AB37BE50D33BAF37CD2A9B
:1003E000813CD736F84E3B397338DB552D562C5EA1
:1003F000B23ABE5045492F5D6B3BE32B0A512F5D4E
:10040000C102E702B702FD02E1028502AD027B02F2
:100410006D02DB027D02B9027F028D028702F902C2
:1004200087029D029B026702B502D702D302E30254
:100430008302CB02CD02C702F70271027902D90210
:10044000BD028F02AF02F30269026F02A1028B02AA
:10045000AB02B3027502AF02F502FB02C902DF0272
:10046000EF02C302CF029102A7026B02ED02BF02AC
:10047000F102E502A302EB028902A70277029F02C2
:100480009702084AD73B3BCE016E84BCBFFDC12F0B
:100490003D6C74319ABD56833DDA3D00C77F11BE75
:1004A000D9E4BB4C3E916BAAAABE000000803F0578
:1004B000A84CCDB2D44EB93836A9020C50B99186A9
:1004C00088083CA6AAAA2ABE000000803F000D941E
:1004D0007B0F0D94E6800D9407860D94AA010D9470
:1004E000EC800D94DB800D94B23E0D9402810D944E
:1004F00058860D94DE800D94A8010D94B4010D94DE
:10050000D70F0D94FD3E0D94C2110D948C010D94E6
:1005100097100D944E860D94F4800D94BC100D949C
:10052000D7800D94FD850D94C63E0D947CBB0D9433
:100530006C860D9431190D946E100D9456100D9417
:1005400062860D94F0800D9435860D946EB90D94ED
:1005500076860D94FB3E0D94FA800D94A6010D94C1
:1005600015810D9459CE0D94FE800D94F1110D94CA
:1005700058010D945D0F0D94793E0D94D1800D942A
:1005800017860D942F010D94E9850D942E190D9465
:1005900038100D9410810D94B90F0D94990F0D948E
:1005A000F3850D944A3F0D944B110D942D190D9424
:1005B0002D110D94CD800D94AC010D94D43E0D946D
:1005C000DF850D947F010D9469110D942B860D9498
:1005D0003C010D94A33E0D9444860D940F860D941A
:1005E000E4850D9421860D94E2800D9408810D948C
:1005F00087110D94FB0F0D940C810D9465014E41F4
:100600004E494E495459494E46CDCCCC3D0AD7238C
:100610003C17B7D13877CC2B329595E6241FB14FD4
:100620000A000020410000C84200401C4620BCBE19
:100630004CCA1B0E5AAEC59D746364696E6F7073AD
:100640007578585B003B4C415945523A2564003B54
:10065000202020757365526166742C2564004D3628
:100660003035205325640043616C63756C75733AB3
:1006700020200043616C63756C75733A2020004341
:10068000616C63756C75733A2020005375726669EE
:100690006E6720300A00417420426F74746F6D20C1
:1006A000537469636B657200253033642E253033D3
:1006B00064253033642E2530346400417420426F49
:1006C00074746F6D20537469636B657200253033E9
:1006D000642E25303364253033642E253034640095
:1006E00025730053757266696E6720300A004732C1
:1006F00038205830205930005430005431005430E4
:100700000054300053757266696E6720300A0047E6
:100710003433004734310047343000473334004726
:100720003433004734330047343100473430004D10
:100730003834004D3834004D3834005A32204F667A
:10074000667365743A20004F4B207365636F6E6467
:10075000204578747275646572210A005A20706FA2
:10076000736974696F6E3A20005A20706F736974F0
:10077000696F6E3A20004D3834005A312050726F44
:100780006265206F66667365743A20004F4B206681
:100790006972737420457874727564657221200AD9
:1007A000005A20706F736974696F6E3A20005A2086
:1007B000706F736974696F6E3A200043616C637582
:1007C0006C75733A20200043616C63756C75733AE5
:1007D00020200043616C63756C75733A20200043E0
:1007E000616C63756C75733A202000363020646547
:1007F0006772656573200A0054300054300054302D
:100800000043616C6962726174696F6E2053756335
:100810006365737366756C0A005430004A756D70B9
:10082000206F7665722073637265773120616E6424
:1008300020736372657732200A004A756D70206FED
:1008400076657220736372657731200A004733340E
:10085000004733340047333400543000473334000A
:1008600053757266696E6720300A00537572666947
:100870006E6720300A0053757266696E6720300A11
:100880000053757266696E6720300A005375726690
:10089000696E6720300A0054300053757266696EC5
:1008A0006720300A004D33340053757266696E67F5
:1008B00020300A004D3234004D3233202573004D74
:1008C0003234004D32332025730077696C6C20621E
:1008D0006520646973746F72746564206279202581
:1008E000642E253164253164206D6D2E00546865B9
:1008F000206669727374206C617965722070726908
:100900006E74656420776974682074686520257347
:1009100020686F74656E640053757266696E672037
:10092000300A0053757266696E6720300A0053758D
:100930007266696E6720300A002D2D3E25303478AE
:100940002000526561647920746F20537461727461
:100950000A002564206B6D2E0067636F6465206656
:100960006F756E640A0020746F2053746172742076
:10097000446973706C61792066726F6D2052657383
:10098000657400546F6F6B2000646973706C6179DB
:10099000206F6E6C696E6521002E00312F320A00C7
:1009A0005344207072696E74696E67206279746551
:1009B00020002053544F50205052494E54200A00DA
:1009C000473238205830205930004D3335004737F2
:1009D0003000524553554D450A004D3939300053CA
:1009E00074617274696E67205A2043616C69627227
:1009F0006174696F6E2057697A6172640A000A0037
:100A0000205A3A200020593A200020583A2000422B
:100A1000656400456E642066696C65206C6973745A
:100A20000A00426567696E2066696C65206C6973AF
:100A3000740A002569206D696E2C20256920736574
:100A400063006F6B004649524D574152455F4E411E
:100A50004D453A4D61726C696E2042434E334420DD
:100A60005369676D61783B204649524D5741524565
:100A70005F56455253494F4E3A30322D322E302E6A
:100A8000362D6164656E696E3B204649524D574173
:100A900052455F55524C3A68747470733A2F2F6701
:100AA00069746875622E636F6D2F42434E33442F15
:100AB00042434E33445369676D61782D4669726DC8
:100AC000776172653B2050524F544F434F4C5F56F5
:100AD000455253494F4E3A312E303B204D41434809
:100AE000494E455F545950453A42434E3344205392
:100AF00069676D61783B2045585452554445525FB3
:100B0000434F554E543A323B20555549443A0053D1
:100B10005441544953544943532052455345540A70
:100B200000504F534954494F4E20484F4D453A20AD
:100B300000220A00556E6B6E6F776E20636F6D6DCD
:100B4000616E643A20220020636F6C6420657874C3
:100B5000727573696F6E2070726576656E74656408
:100B60000A006563686F3A000A00207A3A20002084
:100B7000793A200020783A20004265640045787474
:100B800072756465722072656C656173656420615D
:100B900063746976653A20005A205349474D4120D5
:100BA000486F6D65640A00457874727564657220DB
:100BB0006163746976653A20004D3834005374617E
:100BC0007274696E6720582043616C696272617447
:100BD000696F6E2057697A6172640A004D3834007B
:100BE0005374617274696E6720592043616C696245
:100BF000726174696F6E2057697A6172640A002CA1
:100C00002073617665645F466C61675F66616E6CD8
:100C1000617965725F6D6972726F723A20002C2083
:100C200073617665645F6665656472617465313AA7
:100C300020002C2073617665645F6665656472616F
:100C40007465303A20002C2073617665645F6661BC
:100C50006E6C617965723A20002C20736176656450
:100C60005F74656D706265643A20002C2073617654
:100C700065645F74656D70303A20002C2073617676
:100C800065645F74656D70313A20002C2073617665
:100C900065645F66696C65706F736974696F6E3ADD
:100CA00020002C2073617665645F655F706F7369E7
:100CB00074696F6E3A20002C2073617665645F74EE
:100CC0006F6F6C5F6163746976653A20002C2073E6
:100CD000617665645F7A5F706F736974696F6E3A8D
:100CE00020002C2073617665645F795F706F736993
:100CF00074696F6E3A20002C2073617665645F78AA
:100D00005F706F736974696F6E3A20005341564586
:100D1000205052494E54204C4F473A0A00656368B0
:100D20006F3A005072696E74207265636F766572F7
:100D3000792075700A004E6F74207072696E74208D
:100D40007265636F766572792075700A005355433A
:100D5000434553530A0056616C756573206F757473
:100D6000206F662072616E67650A0056616C75655A
:100D700073206F7574206F662072616E67650A005C
:100D800056616C756573206F7574206F6620726193
:100D90006E67650A0056616C756573206F75742007
:100DA0006F662072616E67650A0053554343455371
:100DB000530A0056616C756573206F7574206F66F9
:100DC0002072616E67650A0056616C756573206FED
:100DD0007574206F662072616E67650A0056616CDB
:100DE000756573206F7574206F662072616E67651C
:100DF0000A0056616C756573206F7574206F6620EC
:100E000072616E67650A0020502000205A20002081
:100E1000592000536574204D353330205820004D43
:100E20006F64652033203A20507369636F2020205F
:100E30002D3E205247423A20526973652646616C26
:100E40006C002A2A2D3E20004D6F64652032203A26
:100E5000206379636C652020202D3E205247423A62
:100E6000203620737461746573002A2A2D3E200099
:100E70004D6F64652031203A2072616E646F6D2081
:100E8000202D3E205247423A202B31202B32202B5E
:100E9000332C20647572696E67207072696E746994
:100EA0006E67002A2A2D3E20004D6F646520302099
:100EB0003A2064656661756C74202D3E205247426D
:100EC0003A203235352032353520323535002A2A60
:100ED0002D3E20004C6564206D6F646573203A00E0
:100EE0004D353336204C5B6D6F64655D00486F7423
:100EF000656E64206F6666736574733A0054696D3D
:100F00006520696E6163746976650A005075726761
:100F1000652064697374616E63650A004D3834201E
:100F2000582059205A2045005A204F666673657430
:100F3000206F6B0A005A204F6666736574203A2052
:100F40000A007A5F6D61783A20007A5F6D696E3AC7
:100F500020005A204F666673657400504F53495401
:100F6000494F4E20484F4D453A2000436F6F6C6902
:100F70006E6720446F776E204865617465720A0061
:100F80005072696E7465722068616C7465642E209D
:100F90006B696C6C28292063616C6C6564210A00A4
:100FA0004572726F723A006C61796572206865698A
:100FB0006768743A20002E0A0044656C6574696F96
:100FC0006E206661696C65642C2046696C653A2008
:100FD0000046696C652064656C657465643A002E32
:100FE0000A006F70656E206661696C65642C20462E
:100FF000696C653A2000473238205830205930005B
:101000000A0A005374616E646172642044657669F3
:101010006174696F6E3A20000A004D65616E3A2076
:10102000000A002020207A3A20000A00793A2000A5
:10103000783A20003F537065636966696564206E85
:10104000756D626572206F66206C65677320696ECE
:10105000206D6F76656D656E74206E6F7420706C98
:1010600061757361626C652E0A003F537065636938
:1010700066696564205920706F736974696F6E20AA
:101080006F7574206F662072616E67652E0A003F6F
:10109000537065636966696564205820706F736971
:1010A00074696F6E206F7574206F662072616E6751
:1010B000652E0A003F537065636966696564207335
:1010C000616D706C652073697A65206E6F74207035
:1010D0006C61757361626C652E0A0046756C6C20DC
:1010E000737570706F72742061743A2068747470D4
:1010F0003A2F2F33647072696E74626F6172642E5E
:10110000636F6D2F666F72756D2E7068700A004D7B
:101110003438205A2D50726F6265205265706561B7
:10112000746162696C69747920746573742E20200F
:101130002056657273696F6E20322E30300A003F80
:10114000566572626F7365204C6576656C206E6FB4
:101150007420706C61757361626C652E0A00426563
:1011600064204865617465640A0020573A00457838
:10117000747275646572204865617465640A002044
:10118000573A00204500205A00205900483D580099
:10119000205A3A0020593A0020436F756E74205847
:1011A0003A200020453A00205A3A0020593A005887
:1011B0003A007A5F6D696E3A2000795F6D61783A26
:1011C0002000785F6D61783A2000785F6D696E3A33
:1011D0002000486F74656E64206F66667365747373
:1011E0003A00504944204175746F74756E652066ED
:1011F000696E697368656421205075742074686530
:10120000206C617374204B702C204B6920616E64DC
:10121000204B6420636F6E7374616E74732066720A
:101220006F6D2061626F766520696E746F20436F09
:101230006E66696775726174696F6E2E680A005018
:101240004944204175746F74756E65206661696CE0
:101250006564212074696D656F75740A0020403AD9
:10126000006F6B20543A006F6B20423A00504944A3
:10127000204175746F74756E65206661696C656474
:10128000212054656D706572617475726520746F8C
:101290006F20686967680A00204B643A2000204B81
:1012A000693A2000204B703A200020436C61737330
:1012B000696320504944200A002054753A200020D8
:1012C0004B753A2000206D61783A2000206D696EE0
:1012D0003A200020643A200020626961733A2000BD
:1012E00070012C0190012701B0012201C0011D01F4
:1012F000F00118011002130130020E016002090111
:1013000090020401C002FF000003FA004003F50050
:101310008003F000D003EB002004E6007004E1003D
:10132000E004DC004005D700C005D2004006CD0037
:10133000D006C8008007C3003008BE00F008B9001E
:10134000C009B400B00AAF00B00BAA00D00CA500D1
:10135000000EA000500F9B00C0109600501291008C
:1013600000148C00C0158700B0178200B0197D00F2
:10137000D01B7800001E730040206E009022690090
:10138000F024640040275F0090295A00E02B5500AC
:10139000102E500020304B0010324600E033410048
:1013A00090353C001037370070383200A0392D00DE
:1013B000B03A2800A03B2300603C1E00103D1900FD
:1013C000903D1400103E0F00703E0A00C03E050024
:1013D000003F000048797374657265736973207407
:1013E000656D70657261747572650A005468657226
:1013F0006D616C2072756E617761792070726F74A7
:10140000656374696F6E20627920486561746572E6
:101410005F49443A0A004572726F723A004572722F
:101420006F72283833293A204265642074686572E7
:101430006D6973746F72206E6F7420646574656378
:101440007465640A004572726F72283832293A2036
:10145000526967687420746865726D6973746F721D
:10146000206E6F742064657465637465640A00455A
:1014700072726F72283831293A204C656674207474
:101480006865726D6973746F72206E6F742020646A
:10149000657465637465640A002053544F5020508E
:1014A00052494E54200A004572726F72283833290F
:1014B0003A2042656420746865726D6973746F7256
:1014C000206E6F742064657465637465640A00201F
:1014D00053544F50205052494E54200A00457272C6
:1014E0006F72283832293A2052696768742074680C
:1014F00065726D6973746F72206E6F7420646574A9
:1015000065637465640A002053544F50205052495B
:101510004E54200A004572726F72283831293A20E1
:101520004C65667420746865726D6973746F72209F
:101530006E6F74202064657465637465640A0020AE
:1015400053544F50205052494E54200A0045525295
:101550004F52283839293A20424544206973206E79
:101560006F742068656174696E67002053544F5032
:10157000205052494E54200A004552524F522838AA
:1015800039293A20486F74656E6420256420697398
:10159000206E6F742068656174696E6700656368AA
:1015A0006F3A00526561647920746F204C6F6164FA
:1015B0002F556E6C6F6164200A0053757266696EF8
:1015C000672030200A005430004D3834205820590C
:1015D000205A204500496E7374616C6C202564208C
:1015E0002573206F6E2074686520257320686F74E2
:1015F000656E642E0050757267652046696C616D7A
:10160000656E740A0053757266696E6720310A0050
:1016100053757266696E6720300A00425249474826
:10162000544E4553533A2000220A00656E71756589
:10163000696E67202200220A00656E717565696E09
:1016400067202200202F0020400020403A005265F1
:1016500073656E643A20006F6B0A004475706C69A4
:10166000204D6F6465204F4E0A004D6972726F7293
:10167000204D6F6465204F4E0A003B2020204275AC
:10168000696C642074696D653A2025642025732097
:1016900025642025730A003B5072696E74207469BA
:1016A0006D653A202564202573202564202573204C
:1016B0002564202573003B54494D453A256C640050
:1016C0003B202020506C61737469632077656967E3
:1016D00068743A2025642E256467003B46696C6176
:1016E0006D656E7420757365643A2025642E2564DB
:1016F0006D2025642E256467003B46696C616D652D
:101700006E7420757365643A20256C642E256C64B4
:101710006D003B45787472756465727320757365EE
:10172000643A205425642025642E256420542564C1
:101730002025642E2564003B202020657874727576
:101740006465724469616D657465722C312C256421
:101750002E2564003B2020206578747275646572C4
:101760004469616D657465722C25642E25642C2591
:10177000642E2564003B20202065787472756465B2
:10178000724469616D657465722C25642E25640050
:1017900053442063617264206F6B0A006F70656E42
:1017A000526F6F74206661696C65640A00766F6CB5
:1017B000756D652E696E6974206661696C65640A71
:1017C00000534420696E6974206661696C0A0043A5
:1017D000616E6E6F7420656E7465722073756264DD
:1017E00069723A20004D313037007A70726F62654D
:1017F0003A200057726974696E6720746F206669B9
:101800006C653A20002E0A006F70656E2066616973
:101810006C65642C2046696C653A20002E0A006FC6
:1018200070656E206661696C65642C2046696C6524
:101830003A200046696C652073656C656374656465
:101840000A002053697A653A200046696C65206F6A
:1018500070656E65643A20002E0A006F70656E2018
:101860006661696C65642C2046696C653A20004E9F
:101870006F772066726573682066696C653A200030
:101880004E6F7720646F696E672066696C653A20D9
:10189000002220706F73002220706172656E743AAE
:1018A0002200535542524F5554494E452043414C16
:1018B0004C207461726765743A2200747279696EA3
:1018C0006720746F2063616C6C207375622D676391
:1018D0006F64652066696C6573207769746820742D
:1018E0006F6F206D616E79206C6576656C732E204C
:1018F0004D4158206C6576656C2069733A004572DD
:10190000726F723A00646973706C6179206F6666F9
:101910006C696E650042434E3344205369676D61C4
:10192000780A0073746172740A006563686F3A0024
:1019300030322D322E302E362D6164656E696E0A7E
:10194000004D3234004D3233202573006175746FC1
:1019500025692E67006572726F72207772697469EB
:101960006E6720746F2066696C650A00205A3A0021
:1019700020593A0020583A00656E6473746F707392
:10198000206869743A20006563686F3A00446F6E9E
:101990006520736176696E672066696C652E0A0042
:1019A0006F6B0A004D3239006563686F3A0053412E
:1019B000564544205052494E540A002E2E2E205493
:1019C000696D656F757421002A2A2A2047656E6942
:1019D000652057726974654F626A656374202A2AAC
:1019E0002A202D2D2D3E002E2E2E204E414B202123
:1019F000002A2A2A2047656E696520577269746536
:101A00004F626A656374202A2A2A202D2D2D3E00FC
:101A10002E2E2E2041434B2021002A2A2A204765C2
:101A20006E69652057726974654F626A65637420D8
:101A30002A2A2A202D2D2D3E002A2A2A2047656E8B
:101A40006965204261642042797465202A2A2A202F
:101A50002D2D2D3E203078002056616C75653A2082
:101A60000020496E6465783A20002A2A2A204765BA
:101A70006E6965205265706F7274204F626A65638B
:101A800074202A2A2A204F626A6563743A20002A49
:101A90002A2A2047656E696520436F6E6E65637400
:101AA0006564202F2053796E6321202A2A2A002082
:101AB00056616C75653A200020496E6465783A205D
:101AC000002A2A2A2047656E6965205265706F7268
:101AD00074204576656E74202A2A2A204F626A6532
:101AE00063743A2000204C656E6774683A20002ABF
:101AF0002A2A2047656E69652052656365697665A7
:101B000064204D6167696320446F75626C65204293
:101B100079746573202A2A2A20496E6465783A20F0
:101B200000204C656E6774683A20002A2A2A2047F4
:101B3000656E6965205265636569766564204D61EF
:101B4000676963204279746573202A2A2A20496EC6
:101B50006465783A20002A2A2A2047656E69652044
:101B60004E414B205265636F7665727920212121A9
:101B7000202A2A2A002A2A2A2047656E69652044DD
:101B80006973636F6E6E65637465642066726F6DF2
:101B900020446F4576656E747321202A2A2A002A14
:101BA0002A2A2047656E696520546F6F6B20746F19
:101BB0006F206C6F6E6720746F2072652D656E7478
:101BC000657220446F4576656E747328292C2072E7
:101BD00065647563652064656C61797320696E2046
:101BE000636F64652C2073656C662D70726F74650D
:101BF0006374696F6E20656E61626C65642E202A65
:101C00002A2A0045787472756465722072656C6565
:101C100061736564206163746976653A20005A20B7
:101C20005349474D4120486F6D65640A00457874FB
:101C30007275646572206163746976653A2000008C
:101C400000000000809343000000000000A040005E
:101C500000A0400000004020004D6F766520746FAA
:101C60003A2000CDAC03440080934300005243FF70
:101C700001FF7C3C3E5E2B3D3F2F5B5D3B2C2A22CF
:101C80005C000A0020616E7469686F726172690A93
:101C90003A200020686F726172690A20002F3800B4
:101CA000766F6C746573200020566F6C74657320BA
:101CB000636172676F6C20333A200020616E746933
:101CC000686F726172690A3A200020686F726172EF
:101CD000690A20002F3800766F6C7465732000202D
:101CE000566F6C74657320636172676F6C20323A53
:101CF00020000A0020647A333A200020647A323AC5
:101D000020005431005430005430005430000A0098
:101D100056756974656E73333A2020004170726F96
:101D200078333A202000566F6C746573333A202064
:101D3000000A0056756974656E73323A20200041BE
:101D400070726F78323A202000566F6C746573326F
:101D50003A20200056616C6F7220645A333A20207A
:101D60000056616C6F7220645A323A2020004E6532
:101D700077206F66667365742076657273696F6E1F
:101D80003A20007A335F313A20007A325F313A20CC
:101D9000005A7363726F6C6C5F313A20007A335F64
:101DA000303A20007A325F303A20005A7363726F03
:101DB0006C6C5F303A20005A76616C756520616604
:101DC00074657220686F6D653A00486F6D652058C4
:101DD0002F59206265666F7265205A0A004572723B
:101DE0006F7220577269746520454550524F4D00FF
:101DF00053657474696E67732053746F7265640AF7
:101E000000204D696E75746573203A0020204C6186
:101E10007374207072696E742074696D652D3E2034
:101E2000486F757273203A004C6173742070726948
:101E30006E74206475726174696F6E0A002C205490
:101E400068697264204944206E756D626572200075
:101E50002C205365636F6E64204944206E756D625B
:101E600065723A200020204669727374204944202C
:101E70006E756D6265723A2000554920496E666F35
:101E8000726D6174696F6E2053657269616C204E6A
:101E9000756D6265723A0A00206D2C204531207004
:101EA00072696E742064697374616E63653A2000B0
:101EB000206B6D2C204530207072696E742064692F
:101EC0007374616E63653A2000206B6D2C2059207D
:101ED0007072696E742064697374616E63653A2010
:101EE00000206B6D2C205831207072696E74206454
:101EF000697374616E63653A200020432C0A205890
:101F000030207072696E742064697374616E6365E9
:101F10003A200020432C206D61782074656D70207C
:101F2000423A200020432C206D61782074656D704A
:101F300020523A20002C206D61782074656D70204D
:101F40004C3A2000682C207072696E7473206669A8
:101F50006E69736865643A20002C207072696E7433
:101F6000696E672074696D653A200020207072697F
:101F70006E74733A200053544154533A0A0020437C
:101F80002C20525F5052494E543A200020432C20BE
:101F9000525F4245443A200020432C20525F524574
:101FA0004D4F56453A20002020525F494E5345522E
:101FB000543A200054656D70202843293A0A0020C5
:101FC000432C204C5F5052494E543A200020432C61
:101FD000204C5F4245443A200020432C204C5F5265
:101FE000454D4F56453A200020204C5F494E534501
:101FF00052543A200054656D70202843293A0A0053
:1020000020562856657273696F6E29200020522869
:10201000426564207269676874207363726577290A
:10202000200020204D353331204C28426564206C3F
:1020300065667420736372657729200042656420A9
:102040004F66667365747320286D6D293A0A002007
:1020500050285A2070726F62652900205A20002093
:1020600059200020204D353330205820004F66661F
:102070007365747320286D6D293A0A00204400208E
:102080004900202D204D33303120524947485420FB
:10209000500020440020490020204D333031204C96
:1020A0004546542050005049442073657474696E4D
:1020B00067733A0A00205A0020590020204D323020
:1020C00036205800486F6D65206F66667365742012
:1020D000286D6D293A0A00204500205A002058003A
:1020E00020420020540020204D3230352053004142
:1020F0006476616E636564207661726961626C65A5
:10210000733A20533D4D696E206665656472617453
:102110006520286D6D2F73292C20543D4D696E204C
:1021200074726176656C20666565647261746520A1
:10213000286D6D2F73292C20423D6D696E696D7578
:102140006D207365676D656E742074696D652028F8
:102150006D73292C20583D6D6178696D756D20581F
:1021600059206A65726B20286D6D2F73292C2020F1
:102170005A3D6D6178696D756D205A206A65726B84
:1021800020286D6D2F73292C2020453D6D617869C5
:102190006D756D2045206A65726B20286D6D2F73FB
:1021A000290A0020540020204D32303420530041B1
:1021B0006363656C65726174696F6E3A20533D614B
:1021C0006363656C65726174696F6E2C20543D7237
:1021D00065747261637420616363656C65726174B8
:1021E000696F6E0A00204500205A00205900202007
:1021F0004D3230312058004D6178696D756D204148
:102200006363656C65726174696F6E20286D6D2FF4
:102210007332293A0A00204500205A002059002034
:10222000204D3230332058004D6178696D756D2036
:1022300066656564726174657320286D6D2F7329FE
:102240003A0A00204500205A0020590020204D392C
:102250003220580053746570732070657220756E5B
:1022600069743A0A0024F4D43050C38E20C2A240CC
:1022700017828B7011127A910D816CD90AA861E1D5
:1022800008C7586607615143061E4B5D05C145A747
:10229000041A411104093D9803713931034036DBBA
:1022A0000265339102D4305402802E1D02632CEE5D
:1022B00001752AC501B028A001102781018F25646E
:1022C000012B244B01E0223401AC211F018D200D94
:1022D00001801FFC00841EED00971DDF00B81CD29A
:1022E00000E61BC600201BBC00641AB200B219A88D
:1022F000000A19A0006A189900D117910040178BA5
:1023000000B516840031167E00B31579003A1573B6
:1023100000C7146F0058146A00EE13660088136338
:102320000025135E00C7125B006C12570015125493
:1023300000C111510070114F0021114B00D61049FE
:10234000008D1047004610440002104200C00F40AC
:1023500000800F3E00420F3C00060F3B00CB0E38C2
:1023600000930E37005C0E3500270E3400F30D325B
:1023700000C10D3100900D3000600D2E00320D2D8A
:1023800000050D2C00D90C2B00AE0C2900850C2962
:10239000005C0C2700350C27000E0C2600E80B24EF
:1023A00000C40B2400A00B23007D0B23005A0B213B
:1023B00000390B2100180B2000F80A1F00D90A1E53
:1023C00000BB0A1E009D0A1D00800A1D00630A1C36
:1023D00000470A1B002C0A1B00110A1A00F7091AF1
:1023E00000DD091900C4091900AB09190092091789
:1023F000007B091800630917004C091600360916FE
:1024000000200916000A091500F5081500E0081457
:1024100000CC081400B8081400A408140090081395
:10242000007D0812006B08130058081200460812BD
:1024300000340811002308110012081100010811CE
:1024400000F0071000E0071000D0071000C00710D0
:1024500000B0070F00A107100091070E0083070FBF
:102460000074070F0065070E0057070E0049070E9E
:10247000003B070D002E070E0020070D0013070D6F
:102480000006070D00F9060C00ED060D00E0060C35
:1024900000D4060C00C8060C00BC060C00B0060CEC
:1024A00000A4060B0099060C008D060B0082060B9B
:1024B0000077060B006C060B0061060A0057060B3E
:1024C000004C060A0042060A0038060A002E060AD8
:1024D0000024060A001A060A001006090007060A68
:1024E00000FD050900F4050900EB050900E20509F6
:1024F00000D9050900D0050900C7050900BE050976
:1025000000B5050800AD050800A50509009C0508F3
:1025100000940508008C050800840508007C050867
:1025200000740508006C050700650508005D0507D7
:1025300000560508004E050700470507004005083E
:102540000038050700310507002A050700230507A5
:10255000001C050600160507000F05070008050604
:102560000002050700FB040600F5040700EE040660
:1025700000E8040600E2040700DB040600D50406B8
:1025800000CF040600C9040600C3040600BD04060B
:1025900000B7040600B1040500AC040600A604065A
:1025A00000A00405009B04060095040500900406A5
:1025B000008A04050085040500800406007A0405ED
:1025C0000075040500700405006B04050066040531
:1025D00000610405005C0405005704050052040571
:1025E000004D04050048040500430405003E0404B2
:1025F000003A04050035040500300404002C0405ED
:102600000027040400230405001E0404001A040427
:102610000016040500110404000D0404000904055B
:10262000000404040000040400FC030400F8030494
:1026300000F4030400F0030400EC030400E80304C6
:1026400000E4030400E0030400DC030400D80304F6
:1026500000D4030400D0030400CC030400C8030327
:1026600000C503030024F404D9201BC40C5C0E989D
:1026700004C4095F0265077101F405F900FB04B3A6
:102680000048048700C1036900580355000303454F
:1026900000BE023A008402310053022A00290225BA
:1026A0000004022000E4011C00C8011900AF01175A
:1026B00000980114008401130071011000610110E1
:1026C0000051010E0043010D0036010B002B010BE0
:1026D0000020010B00150109000C0109000301088D
:1026E00000FB000800F3000800EB000700E4000610
:1026F00000DE000600D8000600D2000600CC00056F
:1027000000C7000500C2000500BD000400B90004B8
:1027100000B5000400B1000400AD000400A90004ED
:1027200000A5000300A20003009F0004009B00031B
:10273000009800030095000200930003009000033E
:10274000008D0002008B000300880002008600025A
:102750000084000300810002007F0002007D00026F
:10276000007B000200790002007700010076000281
:10277000007400020072000100710002006F00028C
:10278000006D0001006C0002006A00010069000297
:10279000006700010066000100650001006400029E
:1027A000006200010061000100600001005F0002A2
:1027B000005D0001005C0001005B0001005A0001A7
:1027C00000590001005800010057000100560001A7
:1027D00000550001005400010053000000530001A7
:1027E000005200010051000100500001004F0001A3
:1027F000004E0000004E0001004D0001004C0001A1
:10280000004B0000004B0001004A0001004900019C
:102810000048000000480001004700010046000099
:102820000046000100450000004500010044000191
:10283000004300000043000100420000004200018C
:10284000004100000041000100400001003F000085
:10285000003F0001003E0000003E0001003D00007E
:10286000003D0001003C0000003C0000003C000175
:10287000003B0000003B0001003A0000003A00016C
:102880000039000000390001003800000038000065
:10289000003800010037000000370001003600005A
:1028A0000036000000360001003500000035000051
:1028B0000035000100340000003400000034000145
:1028C000003300000033000000330001003200003C
:1028D0000032000000320001003100000031000031
:1028E0000031000100300000003000000030000125
:1028F000002F0000002F0000002F0000002F00011B
:10290000002E0000002E0000002E0001002D00000F
:10291000002D0000002D0000002D0001002C000003
:10292000002C0000002C0000002C0001002B0000F7
:10293000002B0000002B0000002B0001002A0000EB
:10294000002A0000002A0000002A000100290000DF
:1029500000290000002900000029000000290001D2
:1029600000280000002800000028000000280000C7
:1029700000280001002700000027000000270000B9
:1029800000270000002700010026000000260000AC
:10299000002600000026000000260001002500009F
:1029A0000025000000250000002500000025000093
:1029B0000025000100240000002400000024000085
:1029C0000024000000240001002300000023000078
:1029D000002300000023000000230000002300006B
:1029E000002300010022000000220000002200005D
:1029F000002200000022000000220001002100004F
:102A00000021000000210000002100000021000042
:102A10000021000000210001002000000020000033
:102A20000020000000200000002000000020000026
:102A30000020000000200001001F0000001F000017
:102A4000001F0000001F0000001F0000001F00000A
:102A5000001F0001001E0000001E0000001E0000FC
:102A6000001E0000004E6577206C6179657220645D
:102A7000657465637465640A003B206C61796572F6
:102A8000003B4C4159455200256920686F757273AF
:102A9000202569206D696E7574657300446F6E65DD
:102AA000207072696E74696E672066696C650A00D1
:102AB0004D3333005061757365207061726B696EC0
:102AC000670A00473639004E6F74205344207072F5
:102AD000696E74696E670A004E6F742053442070EB
:102AE00072696E74696E670A005072696E746572FD
:102AF0002073746F707065642064756520746F2036
:102B00006572726F72732E20466978207468652032
:102B10006572726F7220616E6420757365204D3925
:102B2000393920746F20726573746172742E202895
:102B300054656D7065726174757265206973207279
:102B4000657365742E205365742069742061667402
:102B500065722072657374617274696E67290A0008
:102B60006F6B0A004E6F204C696E65204E756D626A
:102B70006572207769746820636865636B73756D2F
:102B80002C204C617374204C696E653A20004E6FA6
:102B900020436865636B73756D2077697468206C7A
:102BA000696E65206E756D6265722C204C61737460
:102BB000204C696E653A2000636865636B73756DC0
:102BC000206D69736D617463682C204C617374208F
:102BD0004C696E653A20004C696E65204E756D62D9
:102BE0006572206973206E6F74204C617374204C81
:102BF000696E65204E756D6265722B312C204C61BB
:102C00007374204C696E653A20004D31313000CD2F
:102C1000AC034400809343000052430000000000D6
:102C20000000000000000000002100240027002A0E
:102C3000002D003000330001010000040107010AEB
:102C40000100002200250028002B002E0031003456
:102C50000002010000050108010B01000020002313
:102C600000260029002C002F003200000100000384
:102C70000106010901050505050705080808080200
:102C80000202020A0A080804040404010101010105
:102C90000101010303030303030303040707070CF4
:102CA0000C0C0C0C0C0C0C020202020606060606AA
:102CB0000606060B0B0B0B0B0B0B0B010210202057
:102CC0000808102040102040800201020108040280
:102CD00001010204081020408080402010080402F6
:102CE000018004020180402010080402010804024F
:102CF0000101020408102040800102040810204055
:102D00008000000A0B02090C0D0E080703040100E5
:102D100000000000000000000000000000000000B3
:102D20000000000000000000000000000012111070
:102D30000000000000000000000000000000000093
:102D400000000000000000504944204175746F7479
:102D5000756E652066696E6973686564210A005046
:102D60004944204175746F74756E65206661696CA5
:102D70006564212074696D656F75740A0020403A9E
:102D8000006F6B20543A006F6B20423A0050494468
:102D9000204175746F74756E65206661696C656439
:102DA000212054656D706572617475726520746F51
:102DB0006F20686967680A00204B643A2000204B46
:102DC000693A2000204B703A200020436C617373F5
:102DD000696320504944200A002054753A2000209D
:102DE0004B753A2000206D61783A2000206D696EA5
:102DF0003A200020643A200020626961733A200082
:102E00003B20472D436F64652067656E6572617472
:102E100065642062792053696D706C69667933440A
:102E20002852292056657273696F6E202564004907
:102E30006E7374616C6C202564202573206F6E2086
:102E400074686520257320686F74656E642E005366
:102E5000746F7265642073657474696E6773207231
:102E600065747269657665640A0048617264636FAF
:102E70006465642044656661756C74205365747480
:102E8000696E6773204C6F616465640A0048617203
:102E900064636F6465642043616C696220616E6481
:102EA000205049442044656661756C7420536574F4
:102EB00074696E6773204C6F616465640A002A2A26
:102EC0002A2047656E696520446973636F6E6E657D
:102ED000637465642066726F6D204765744E657813
:102EE000744279746521202A2A2A002A2A2A204736
:102EF000656E696520456E61626C65204174746120
:102F000063684576656E7448616E646C65722021F5
:102F10002121202A2A2A0047363920414354495684
:102F2000415445440A004E6F742053442070726926
:102F30006E74696E670A002F005344207072696EC8
:102F400074696E67206279746520005061757365DD
:102F5000206174200050415553450A0053442070AD
:102F600072696E74696E67206279746520009502DB
:102F7000A50211241FBECFEFD1E2DEBFCDBF00E01E
:102F80000CBF19E0A0E0B2E0EAE9F1EA03E00BBF10
:102F900002C007900D92A438B107D9F72CE1A4E83C
:102FA000B9E001C01D92AC3DB207E1F717E1C8EBF3
:102FB000D7E100E006C021970109802FFE010F94A0
:102FC000AECDC73BD10780E00807A9F70F94A8B2A0
:102FD0000D94BCD00C9400002F923F924F925F92C0
:102FE0006F927F928F929F92AF92BF92CF92DF9219
:102FF000EF92FF920F931F93CF93DF93CDB7DEB77E
:10300000C353D1400FB6F894DEBF0FBECDBF2DB76E
:103010003EB7CE5CDE4F39832883C253D14011E0E6
:103020001093D7098091BA0981110CC00F94B7860B
:103030006093B6097093B7098093B8099093B90962
:103040001093BA098091AE0981110DC00F94B78613
:103050006093AA097093AB098093AC099093AD0972
:1030600081E08093AE0980916119882319F067E4AB
:1030700075E002C06BE275E08AEB97E10F9407946C
:1030800080916219882319F06DE275E002C06FE249
:1030900075E08AEB97E10F9407948091C10E8F93AE
:1030A0008091C00E8F9389E399E09F938F938E0157
:1030B000065E1E4F1F930F930F944CC2B8018AEB0C
:1030C00097E10F943134909161190F900F900F9008
:1030D0000F900F900F904091750250917602609181
:1030E000770270917802911106C08091621988234D
:1030F00011F40C941B23453A51056105710509F43F
:103100004DC60CF0C3C0473551056105710509F482
:10311000BAC40CF05EC0413251056105710511F46D
:103120000C94302134F5413151056105710509F4E4
:10313000FCC774F4413051056105710509F4E8C21A
:10314000403151056105710509F4BBC10C942C5E39
:10315000433151056105710509F47DC40CF49BC42C
:10316000403251056105710511F40C9442210C9413
:103170002C5E413451056105710509F4DBC4ACF4E2
:10318000453351056105710511F40C94E7214D3368
:1031900051056105710509F4F4C341335105610519
:1031A000710511F00C942C5E31C446345105610553
:1031B000710509F4C3C4433551056105710509F46E
:1031C000C3C2443451056105710509F495C70C94D7
:1031D0002C5E473951056105710511F40C94CD2120
:1031E0004CF5463751056105710509F476C474F450
:1031F000483551056105710509F4E9C34A355105A2
:103200006105710509F416C60C942C5E4E37510504
:103210006105710509F48DC14938510561057105D4
:1032200009F443C24B3751056105710511F00C9447
:103230002C5E00C64C3951056105710511F40C94E2
:1032400063219CF44A3951056105710511F40C9410
:10325000512114F00C945A2148395105610571052A
:1032600011F40C94BC210C942C5E433A5105610579
:10327000710509F480C50CF0B7C54D3951056105DC
:10328000710511F40C9490210C942C5E4F3E510565
:103290006105710509F472C20CF088C0433D510507
:1032A0006105710511F40C94D722BCF5483A51051B
:1032B0006105710509F4ABC504F5463A5105610590
:1032C000710509F400C5473A51056105710511F012
:1032D0000C942C5E8091D1099091D209A091D309D0
:1032E000B091D40991608093D1099093D209A093B1
:1032F000D309B093D4090C942C5E4A3A5105610568
:10330000710509F40CC50CF45CC54E3B5105610513
:10331000710509F46EC30C942C5E453E51056105A0
:10332000710509F40FC414F5433E5105610571059B
:1033300009F41BC40CF06AC4423E510561057105D5
:1033400011F00C942C5E8091D1099091D209A0913A
:10335000D309B091D40982608093D1099093D209A6
:10336000A093D309B093D4090C942C5E4D3E510523
:103370006105710509F40BC10CF0C2C14A3E51054B
:103380006105710511F00C942C5E40E050E06EE692
:1033900081E20F946B468091C00E9091C10E9260B5
:1033A0009093C10E8093C00E0C942C5E4B3F510540
:1033B0006105710509F405C484F5473F51056105B0
:1033C000710509F436C4A4F4423F51056105710545
:1033D00009F4BAC1463F51056105710509F44EC4AF
:1033E000413F51056105710511F00C942C5E90C1AF
:1033F0008091D1099091D209A091D309B091D409BB
:103400002091AF023091B002493F5105610571052D
:1034100009F498C40CF46AC4BBC34E3631E05307B8
:103420006105710509F4A8C0B4F5483691E0590763
:103430006105710509F4C2C74A36A1E05A07610562
:10344000710509F499C0453651406105710511F0C7
:103450000C942C5E40E050E06AE28AE00F946B46E8
:1034600040E050E064E581E20F946B4681E0809398
:10347000600B1092630B65E27AE086E20F94594884
:103480008091C00E9091C10E98609093C10E809370
:10349000C00E0C942C5E4937E1E05E0761057105B2
:1034A00009F43FC64538F1E05F076105710509F48D
:1034B0006CC1483751406105710511F00C942C5EC8
:1034C0009CC580912702813419F541E050E066E007
:1034D0008BE10F946B4641E050E060E181E20F9494
:1034E0006B4641E050E062E181E20F946B4641E0BF
:1034F00050E063E181E20F946B4641E050E06EE7FB
:1035000081E20F946B4684E4809327020C942C5E36
:10351000843411F00C942C5E8091C00E9091C10EF9
:1035200080649093C10E8093C00E1092600B0C9437
:103530002C5E40E050E066E08BE10F946B4640E08B
:1035400050E060E181E20F946B4640E050E062E1C0
:1035500081E20F946B4640E050E063E181E20F941A
:103560006B4640E050E06EE781E20F946B4681E4E9
:10357000809327020C942C5E8091C00E9091C10E16
:1035800092609093C10E8093C00E0C942C5E80913B
:103590002702823419F583E48093270241E050E04A
:1035A00063E08BE10F946B4641E050E067E581E218
:1035B0000F946B4641E050E066E781E20F946B4662
:1035C00041E050E06DEE81E20F946B4641E050E047
:1035D00069E881E20F946B460C942C5E833411F001
:1035E0000C942C5E11E01093CD0940E050E068E9A6
:1035F00081E20F946B4640E050E067E981E20F946E
:103600006B4640E050E06CE981E20F946B4640E08D
:1036100050E06DE981E20F946B4641E050E06AE4CE
:1036200081E20F946B4640E050E06CE28AE00F9438
:103630006B461093630B8FEF9FEF9093390280934B
:10364000380240E050E06AE981E20F946B4640E0C6
:1036500050E06BE981E20F946B466091F316709134
:10366000F4168091F5169091F6160F94D6CAAB0118
:1036700066E289E00F946B466091F7167091F81638
:103680008091F9169091FA160F94D6CAAB0167E2B1
:1036900089E00F946B4640E050E068E289E00F94C7
:1036A0006B461092600B0C942C5E80912702833441
:1036B00011F00C942C5E82E48093270240E050E0ED
:1036C00063E08BE10F946B4640E050E067E581E2F8
:1036D0000F946B4640E050E066E781E20F946B4642
:1036E00040E050E06DEE81E20F946B4640E050E028
:1036F00069E881E20F946B461092630B0C942C5E88
:1037000040E050E064E58AE00F946B460C942C5E38
:103710001092600B80E00F94DB488091C00E909176
:10372000C10E82609093C10E8093C00E81E08093A1
:10373000670B40E050E068E08AE00F946B4681E45C
:103740008093680B0C942C5E8091C50E882311F435
:103750000C942C5E41E050E08091C20E8A3011F44E
:1037600040E050E066E18BE10F946B4640E050E0B2
:1037700062E58AE00F946B460C942C5E89E480939A
:103780001D020F94A6900C942C5E8091D01C9091F9
:10379000D11C90939D1080939C100F9456028091A1
:1037A000D21C9091D31C90939F1080939E100F94E5
:1037B000560282E48093270282E580931D0281E015
:1037C0008093630B1092600B8091C20EE1E08A300F
:1037D00009F4E0E0E0931E0BF0E0EE0FFF1FE4566B
:1037E000FF4E208131813093A9092093A8098A30A6
:1037F00029F480911F0B9091200B04C08091230B22
:103800009091240B918380830F94560281E48093DE
:10381000680B40E050E068E08AE00F946B4640E0BF
:1038200050E064E581E20F946B4680E090E0A3E411
:10383000B3E48093CF109093D010A093D110B093A5
:10384000D21080900A0B90900B0BA0900C0BB090B4
:103850000D0B2091CB103091CC104091CD10509198
:10386000CE106091C7107091C8108091C9109091CE
:10387000CA10EAEA6E2EE0E17E2E7F926F92F3ED9F
:10388000CF2EF0E1DF2EE12CF12C03E413E40E94B3
:10389000159C0F94BC0580E090E0A0E2B1E4809319
:1038A000CB109093CC10A093CD10B093CE108090FD
:1038B000060B9090070BA090080BB090090BE090BE
:1038C000CF10F090D0100091D1101091D2106091D3
:1038D000C7107091C8108091C9109091CA107F9242
:1038E0006F9220E030E040E251E40E94159C0F947A
:1038F000BC050F900F900F900F908091680B8E3445
:1039000011F40C949D2A1092680B0E94176640E0F7
:1039100050E060E289E00F946B4640E050E064E2E2
:103920008AE00F946B4600911E0B10E0F801EE0F39
:10393000FF1FEE0FFF1FED50F94E608171818281F4
:1039400093810F94D6CA7093CB096093CA09000F74
:10395000111FF801E456FF4E808191810A979093E0
:10396000C9098093C8091092C7091092C60989E451
:103970008093680B0E94176681E08093CC090C94B9
:103980002C5E8091270240E050E0813441F469E0F0
:103990008AE00F946B4665E27AE082E007C06AE253
:1039A0008AE00F946B4665E27AE086E20F9459480C
:1039B0008091C00E9091C10E98609093C10E80933B
:1039C000C00E1092630B1092600B0C942C5E8091D1
:1039D0005C0B81110C942C5E8091621981110C9406
:1039E0002C5E40E050E069E38AE00F946B460C9453
:1039F0002C5E80915C0B81110C942C5E40E050E0B9
:103A000061E08AE00F946B460C942C5E80915C0B15
:103A100081110C942C5E10912702113411F00C943A
:103A20002C5E1092600B1092611981E080936219F4
:103A300040E050E068E08AE00F946B461093680B1A
:103A40008091C00E9091C10E94609093C10E8093AE
:103A5000C00E0C942C5E80912702813439F440E032
:103A600050E061E08AE00F946B46ADCF843409F0FA
:103A7000AACF8091C00E9091C10E90619093C10E1B
:103A80008093C00EA0CF80912702823441F383340B
:103A900009F099CFEECF80912702992369F0813404
:103AA00059F48091C00E9091C10E88609093C10E20
:103AB0008093C00E0C942C5E843411F00C942C5E18
:103AC0008091C00E9091C10E80689093C10E80933A
:103AD000C00E1092600B0C942C5E809162198823AA
:103AE00011F40C942C5E80912702823459F4809159
:103AF000C00E9091C10E80619093C10E8093C00E54
:103B00000C942C5E833411F00C942C5E40E050E059
:103B100066E18AE00F946B4641E050E064E581E2A3
:103B20000F946B4682E580931D0281E08093630BC6
:103B30000C942C5E0F9485200C942C5E0F940F2017
:103B40000C942C5E8091D1099091D209A091D30957
:103B5000B091D40984608093D1099093D209A09345
:103B6000D309B093D4090C942C5E8091D109909123
:103B7000D209A091D309B091D40988608093D1096A
:103B80009093D209A093D309B093D4090C942C5EDE
:103B90002330310559F4A1608093D1099093D20963
:103BA000A093D309B093D4090C942C5E84608093C5
:103BB000D1099093D209A093D309B093D4090C945E
:103BC0002C5E2091AF023091B0028091D10990918A
:103BD000D209A091D309B091D4092330310559F409
:103BE000A2608093D1099093D209A093D309B09396
:103BF000D4090C942C5E88608093D1099093D209EB
:103C0000A093D309B093D4090C942C5E8091D10970
:103C10009091D209A091D309B091D4098160809389
:103C2000D1099093D209A093D309B093D4090C94ED
:103C30002C5E2091AF023091B0028091D109909119
:103C4000D209A091D309B091D4092330310559F498
:103C500090618093D1099093D209A093D309B09336
:103C6000D4090C942C5E81608093D1099093D20981
:103C7000A093D309B093D4090C942C5E2091AF0289
:103C80003091B0028091D1099091D209A091D309CD
:103C9000B091D4092330310559F490628093D10951
:103CA0009093D209A093D309B093D4090C942C5EBD
:103CB00082608093D1099093D209A093D309B093E5
:103CC000D4090C942C5E8091D1099091D209A091D5
:103CD000D309B091D40980628093D1099093D2091D
:103CE000A093D309B093D4090C942C5E23303105F2
:103CF00059F490648093D1099093D209A093D30989
:103D0000B093D4090C942C5E80628093D109909377
:103D1000D209A093D309B093D4090C942C5E80915E
:103D2000D1099091D209A091D309B091D4098061B1
:103D30008093D1099093D209A093D309B093D40969
:103D40000C942C5E2330310559F490688093D1098E
:103D50009093D209A093D309B093D4090C942C5E0C
:103D600080618093D1099093D209A093D309B09335
:103D7000D4090C942C5E8091D1099091D209A09124
:103D8000D309B091D40980648093D1099093D2096A
:103D9000A093D309B093D4090C942C5E8091D109DF
:103DA0009091D209A091D309B091D40980688093F1
:103DB000D1099093D209A093D309B093D4090C945C
:103DC0002C5E8091D1099091D209A091D309B09134
:103DD000D40992608093D1099093D209A093D3091A
:103DE000B093D4090C942C5E8091D1099091D209A2
:103DF000A091D309B091D40994608093D109909394
:103E0000D209A093D309B093D4090C942C5E80916D
:103E1000D1099091D209A091D309B091D4099860A9
:103E20008093D1099093D209A093D309B093D40978
:103E30000C942C5E4A3551056105710519F41092F8
:103E40001E0B03C081E080931E0B80911E0BE82F98
:103E5000F0E0EE0FFF1FE456FF4E208131813093DA
:103E6000A9092093A809811105C080911F0B909189
:103E7000200B04C08091230B9091240B91838083AD
:103E80000F94560281E48093680B40E050E068E0B4
:103E90008AE00F946B4640E050E064E581E20F94C5
:103EA0006B4680E090E0A3E4B3E48093CF1090935E
:103EB000D010A093D110B093D21080900A0B9090A4
:103EC0000B0BA0900C0BB0900D0B2091CB103091F0
:103ED000CC104091CD105091CE106091C7107091D0
:103EE000C8108091C9109091CA10EAEA6E2EE0E1E4
:103EF0007E2E7F926F92F3EDCF2EF0E1DF2EE12C3C
:103F0000F12C03E413E40E94159C0F94BC0580E09F
:103F100090E0A0E2B1E48093CB109093CC10A093FA
:103F2000CD10B093CE108090060B9090070BA09010
:103F3000080BB090090BE090CF10F090D0100091DA
:103F4000D1101091D2106091C7107091C81080915B
:103F5000C9109091CA107F926F9220E030E040E249
:103F600051E40E94159C0F94BC050F900F900F9088
:103F70000F908091680B8E3411F40C949D2A10924E
:103F8000680B0E94176640E050E060E289E00F9401
:103F90006B4640E050E064E28AE00F946B4600918B
:103FA0001E0B10E0F801EE0FFF1FEE0FFF1FED508C
:103FB000F94E60817181828193810F94D6CA70938A
:103FC000CB096093CA09000F111FF801E456FF4E98
:103FD000808191810A979093C9098093C8091092B2
:103FE000C7091092C60989E48093680B0E9417667E
:103FF00081E08093CC090C942C5E40E050E060E2BC
:1040000089E00F946B4640E050E064E28AE00F9450
:104010006B4689E48093680B0E94176600911E0B23
:1040200001111DC08091210B9091220B6091091705
:1040300070910A17681779072CF4BC01990F880B47
:10404000990B04C0072E000C880B990B0F94A1C28A
:104050000F94D6CA70939D1060939C1020C08091DD
:10406000250B9091260B6091031770910417681728
:1040700079072CF4BC01990F880B990B04C0072E0B
:10408000000C880B990B0F94A1C210E0000F111FB8
:1040900004561F4E0F94D6CAD8016D937C930F948B
:1040A000560200911E0B10E0F801EE0FFF1FEE0FFD
:1040B000FF1FED50F94E60817181828193810F94D1
:1040C000D6CA7093CB096093CA09000F111FF8017B
:1040D000E456FF4E808191810A979093C90980939D
:1040E000C8091092C7091092C6090E94176681E09C
:1040F0008093CC090C942C5E8091AE02882311F43D
:104100000C943A5E80911E0B811102C08AE101C0BD
:1041100086E30F942685892B11F00C943A5E0C945B
:104120002C5E0F94CF8B0C942C5E8091CF0981FF75
:1041300002C00C942C5E8091A00E90919F0E98135B
:104140000C94BB5F40E050E06BE084E10F946B4661
:1041500040E050E065E18AE00F946B4682E4809392
:10416000680B80934811E0911E0B34E0E39FF0014F
:104170001124E757FD4F60817181828193816093A3
:10418000C7107093C8108093C9109093CA10E09024
:10419000CF10F090D0100091D1101091D21020913A
:1041A000CB103091CC104091CD105091CE10EEE15B
:1041B000FBE0FF93EF93812C912CE8E4AE2EE3E437
:1041C000BE2EF3EDCF2EF0E1DF2E0E94159CE09085
:1041D000CF10F090D0100091D1101091D2102091FA
:1041E000CB103091CC104091CD105091CE10E09179
:1041F000AA1064E0E69FF0011124E757FD4F6081AB
:104200007181828193810F947047E091AA1084E0BC
:10421000E89FF0011124E757FD4F80819181A28131
:10422000B3818093C7109093C810A093C910B09326
:10423000CA10E0911E0BF0E0EE0FFF1FE456FF4E98
:104240008091A8099091A909918380830F945602C7
:104250001092C50E0F94BC050F900F900C942C5E1D
:104260008091CF0981FF02C00C942C5E9091A00E2A
:1042700020919F0E29130C94BF5F80618093CF091A
:104280000C942C5E8091CF0981FF02C00C942C5EAF
:104290009091A00E20919F0E29130C94BF5F0C9457
:1042A000C25F8091A00E90919F0E98130C942C5E8B
:1042B0000C94C65F9091A00E80919F0E98130C9461
:1042C0002C5E0C945160E0913802F0913902EF3F7E
:1042D0009FEFF90711F40C942C5EEE0FFF1FE456CC
:1042E000FF4E808191818B33A1E09A0714F00C94EA
:1042F0002C5E0596918380830F9456020F9456028C
:10430000E0913802F0913902EE0FFF1FE456FF4EA4
:104310004081518168E289E00F946B460C942C5ED9
:10432000E0913802F0913902EF3FBFEFFB0711F443
:104330000C942C5EEE0FFF1FE456FF4E808191819E
:104340001816190614F00C942C5E0597918380833F
:104350000F9456020F945602E0913802F091390200
:10436000EE0FFF1FE456FF4E4081518168E289E065
:104370000F946B460C942C5E809138029091390218
:10438000019611F40C942C5E9091A00E80919F0EDA
:1043900098130C94BF5F0C94DF6080913802909169
:1043A0003902019611F40C942C5E9091A00E80912C
:1043B0009F0E98130C94BF5F0C94E5609091A00E33
:1043C00080919F0E98130C942C5E0C94EB6080915E
:1043D0004811823411F00C942C5E1092680B80917D
:1043E000C00E9091C10E8D7F9093C10E8093C00E30
:1043F00080911D02823531F489E480931D020F946F
:10440000A690D1C0893409F0CEC081E48093680BB6
:1044100040E050E068E08AE00F946B4640905E0A0E
:1044200050905F0A6090600A7090610A4092CB10D1
:104430005092CC106092CD107092CE1020E030E0FF
:1044400040E752E46091F4027091F5028091F60227
:104450009091F7020F942ACA4B015C01E090CF10B3
:10446000F090D0100091D1101091D2106091C7102F
:104470007091C8108091C9109091CA102AEA30E159
:104480003F932F93F3EDCF2EF0E1DF2EA3019201A6
:104490000E94159C0F94BC050F900F908091680BA3
:1044A0008E3411F40C949D2A20E030E040E251E477
:1044B0006091620A7091630A8091640A9091650A22
:1044C0000F943CC97B018C016093CF107093D01086
:1044D0008093D1109093D2108091590A8983809053
:1044E000F8029090F902A090FA02B090FB0220919D
:1044F000CB103091CC104091CD105091CE106091E6
:10450000C7107091C8108091C9109091CA10FE0117
:104510003196FF93EF930E94159C0F94BC050F906A
:104520000F908091680B8E3411F40C949D2A109298
:10453000680B82E48093270240E050E063E08BE167
:104540000F946B4640E050E067E581E20F946B46C4
:1045500040E050E066E781E20F946B4640E050E0B7
:104560006DEE81E20F946B4640E050E069E881E235
:104570000F946B4640E050E06AE28AE00F946B468D
:1045800081E08093600B1092630B65E27AE086E233
:104590000F9459488091C00E9091C10E98609093ED
:1045A000C10E8093C00E109248110C942C5E809125
:1045B000EA0B1092680B8823E9F01092EA0B8091C5
:1045C000C00E9091C10E98609093C10E8093C00E62
:1045D0008091270240E050E0813431F469E08AE0C4
:1045E0000F946B460C942C5E6AE28AE00F946B4643
:1045F0000C942C5E10927D0E1092630BEEE2F9E0AB
:1046000084918F01882351F0082E000C990B0F9490
:10461000F09B0F5F1F4FF8018491F4CF1092310B84
:1046200081E00F94E41A40E050E065E08AE00F94E6
:104630006B460C942C5E8091200A282F287083FFF3
:1046400090C39091240A923008F48BC3413B5105EA
:104650006105710509F4A8C0B4F54436510561053A
:10466000710509F4A1C1A4F44E3551056105710528
:1046700009F4F0C24F3551056105710509F41CC3F9
:10468000453351056105710511F00C942C5E27C36B
:10469000403A51056105710509F4C8C0423A510517
:1046A0006105710509F46AC043385105610571055A
:1046B00011F00C942C5E40E050E06DE68AE00F941F
:1046C0006B460C942C5E4233F1E05F076105710587
:1046D00009F45CC13CF5453C51056105710509F4DF
:1046E00079C04C3C51056105710509F489C0423B14
:1046F00051056105710511F00C942C5E0F94F11FAA
:1047000041E050E062EB81E20F946B4641E050E003
:1047100060EA81E20F946B461092510210925002AF
:104720000C942C5E463331E053076105710509F4A2
:1047300017C1ACF4433351406105710511F00C947D
:104740002C5E8DEF9FEF90934A118093491140E0CA
:1047500050E06AE08AE00F946B460C942C5E4E3772
:10476000A1E05A076105710509F4F2C148385140CA
:104770006105710509F424C10C942C5E0F94F11F9E
:1047800041E050E062EA81E20F946B4641E050E084
:1047900060EA81E20F946B468EEF9FEF9093510297
:1047A000809350020C942C5E0F94F11F41E050E076
:1047B00061EB81E20F946B4641E050E060EA81E2F8
:1047C0000F946B468FEF9FEF9093510280935002AE
:1047D0000C942C5E0F94F11F41E050E065EC81E2F7
:1047E0000F946B4641E050E060EA81E20F946B4623
:1047F00081E090E090935102809350020C942C5EE3
:104800000F94F11F41E050E06CEC81E20F946B4695
:1048100041E050E060EA81E20F946B4682E090E074
:1048200090935102809350020C942C5E00915002A0
:104830001091510298012E5F3F4F2530310510F045
:104840000C942C5E9230D9F583E08093240A40E0EA
:1048500050E061E18AE00F946B4680E58093680B3D
:104860008091210A800F8093210A00E010E020E06F
:1048700030E04CE553EC60E070E088E393EC0F949B
:10488000C0A40F94F11F80E697E0909351028093AB
:10489000500240E050E060EA81E20F946B4642E053
:1048A00050E06CE08BE10F946B4640E050E069E132
:1048B0008AE00F946B461092680B0C942C5E933038
:1048C000D9F584E08093240A40E050E061E18AE079
:1048D0000F946B4680E58093680B8091220A800FCD
:1048E0008093220A00E010E020E030E04CE553EC39
:1048F00060E070E080E493E40F94C0A40F94F11F93
:1049000080E697E0909351028093500240E050E09F
:1049100060EA81E20F946B4642E050E06CE08BE18C
:104920000F946B4640E050E069E18AE00F946B46DB
:104930001092680B0C942C5E943011F00C942C5E49
:104940008091230A800F8093230A40E050E06EE2BA
:104950008AE00F946B468FE48093680B0C942C5E76
:104960000F94F11F40E050E060EA81E20F946B4643
:1049700040E050E069E18AE00F946B4680E697E002
:1049800090935102809350020C942C5E83E090E04F
:1049900090934A118093491140E050E06AE08AE028
:1049A0000F946B460C942C5E10924A111092491190
:1049B00040E050E06AE08AE00F946B460C942C5E75
:1049C00040E050E068E08AE00F946B4681E4809319
:1049D000680B41E061E081E00F9452531092680B44
:1049E0000F94BC050F943F8D109149118091240ABA
:1049F0008230B1F540E050E061E18AE00F946B460F
:104A000080E58093680B0091210A010F0093210A31
:104A1000002E000C110B20E030E0A901CA01B90101
:104A20000F94C0A40F94F11F80E697E09093510279
:104A30008093500240E050E060EA81E20F946B46C0
:104A400042E050E06CE08BE10F946B4640E050E0B8
:104A500069E18AE00F946B461092680B0C942C5E0F
:104A60008330C9F540E050E061E18AE00F946B4685
:104A700080E58093680B0091220A010F0093220ABF
:104A8000002E000C110B20E030E04CE553EC60E010
:104A900070E088E393EC0F94C0A40F94F11F80E6BC
:104AA00097E0909351028093500240E050E060EA1A
:104AB00081E20F946B4642E050E06CE08BE10F9492
:104AC0006B4640E050E069E18AE00F946B4610923B
:104AD000680B0C942C5E843011F00C942C5E40E03A
:104AE00050E061E18AE00F946B4680E58093680BAB
:104AF0000091230A010F0093230A002E000C110BD2
:104B000020E030E04CE553EC60E070E080E493E4BA
:104B10000F94C0A40F94F11F80E697E09093510288
:104B20008093500240E050E060EA81E20F946B46CF
:104B300042E050E06CE08BE10F946B4640E050E0C7
:104B400069E18AE00F946B461092680B0C942C5E1E
:104B50001092680B8091210A4091220A042F081BB1
:104B60004091230A142F181B602F002E000C770B86
:104B7000880B990B0F94A1C22DEC3CEC4CEC5DEB37
:104B80000F94A9BD6093BA0A7093BB0A8093BC0AC4
:104B90009093BD0A612F012E000C770B880B990BA7
:104BA0000F94A1C22DEC3CEC4CEC5DEB0F94A9BD35
:104BB0006093B60A7093B70A8093B80A9093B90AC3
:104BC0000023A1F040E050E06FE18AE00F946B46D3
:104BD00007FF07C0E02FFF27E1950CF4F09508E0F0
:104BE0000E0F402F000F550B64E015C01123B9F0D4
:104BF00040E050E060E28AE00F946B4617FF07C088
:104C0000212F332721950CF4309518E0120F412FF6
:104C1000110F550B65E08BE10F946B4611C014E446
:104C20001093481140E050E06BE084E10F946B4634
:104C300040E050E065E18AE00F946B461093680B0A
:104C40008CEE90E09093B50A8093B40A0F94E169DA
:104C50000C942C5E4091230A8091210A142F181B7A
:104C6000C1F040E050E060E28AE00F946B4617FF2D
:104C700007C0812F992781950CF4909518E0180FA3
:104C8000412F110F550B65E08BE10F946B460C948F
:104C90002C5E14E41093481140E050E06BE084E196
:104CA0000F946B4640E050E065E18AE00F946B465C
:104CB0001093680B0C942C5E14E41093481140E0A0
:104CC00050E06BE084E10F946B4640E050E065E11A
:104CD0008AE00F946B461093680B0C942C5E9091B5
:104CE0004811943411F00C942C5E1092240A877FA2
:104CF0008093200A1092680B1092971010929610D1
:104D00000F94120210929D1010929C100F94560254
:104D100010929F1010929E100F94560210927D0ECA
:104D20001092630BE3E2F9E084918F01882351F044
:104D3000082E000C990B0F94F09B0F5F1F4FF8018A
:104D40008491F4CF1092310B80E00F94E41A40E08C
:104D500050E065E08AE00F946B46109248110C9485
:104D60002C5E4E38F1E05F0710F00C942C5EFA01D7
:104D70008827EE58FF4F8F4F0D94AECD80912102C2
:104D800090912202826090932202809321020C94DF
:104D90002C5E8091210290912202846090932202E5
:104DA000809321020C942C5E80912102909122022A
:104DB000886090932202809321020C942C5E809153
:104DC000210290912202806190932202809321021D
:104DD0000C942C5E8091210290912202806290932B
:104DE0002202809321020C942C5E0F94BA36009715
:104DF00081F480912102909122029460909322028A
:104E000080932102809187108150809387100C94A9
:104E10002C5E019711F00C942C5E809121029091F0
:104E200022029460909322028093210240E050E09D
:104E300067E381E20F946B4640E050E061E08BE174
:104E40000F946B46809187108150809387100C944B
:104E50002C5E10927D0E1092630BE8E1F9E08491D4
:104E60008F01882351F0082E000C990B0F94F09BB2
:104E70000F5F1F4FF8018491F4CF1092310B81E046
:104E80000F94E41A40E050E065E08AE00F946B462E
:104E90000C942C5E6DE575E08AEB97E10F94079416
:104EA00080916319882311F40C942C5E6EE775E0F1
:104EB0008AEB97E10F94079441E061E084E699E181
:104EC0000F945E398FEF9FEF909352198093511991
:104ED000412C512C32017301620100E010E070E0BE
:104EE000A72E79E1B72E9E012F5F3F4F190188242D
:104EF0008394912C4091021C5091031C6091041CDE
:104F00007091051C80915D1B90915E1BA0915F1BB1
:104F1000B091601B84179507A607B70710F40C948F
:104F200008611AC00115110511F40C942D6180E07F
:104F30000F94A0B16B017C0181E00F94A0B12B0113
:104F40003C0120E030E0A901C701B6010F9414CC68
:104F5000181614F00C94516180E00F94DB4820E0A7
:104F600030E0A901C701B6010F949BC218165CF08E
:104F700020E030E0A901C301B2010F949BC21816D2
:104F800014F00C9465618090520290905302A090AE
:104F90005402B0905502A5019401C701B6010F94C7
:104FA0009BC2811114C020E030E0A901C701B60105
:104FB0000F9414CC18165CF420E030E0A901C30172
:104FC000B2010F949BC2181614F00C9465612091E5
:104FD0005602309157024091580250915902C65DD5
:104FE000DE4F288339834A835B83CA52D140C30191
:104FF000B2010F949BC281111EC020E030E0A901D4
:10500000C301B2010F9414CC18165CF420E030E018
:10501000A901C701B6010F949BC2181614F00C9495
:105020006561A5019401C701B6010F949BC2882355
:1050300011F40C94656120E030E0A901C701B601CC
:105040000F949BC220E030E040E251E418161CF0BF
:10505000C501B40102C0C701B6010F94A9BD0F94E8
:10506000D6CA6093080220E030E0A901C301B20172
:105070000F949BC220E030E040E251E418164CF05F
:10508000C65DDE4F688179818A819B81CA52D14099
:1050900002C0C301B2010F94A9BD0F94D6CA609398
:1050A00009026AEA78E08AEB97E10F94079440E0FE
:1050B00050E06FE58AE00F946B4660915202709168
:1050C000530280915402909155020F94D6CAAB01BD
:1050D0006DE489E00F946B4620E030E040E251E45B
:1050E0006091520270915302809154029091550246
:1050F0000F94A9BD0F94D6CA0AE010E0CB01B80105
:105100000F947FCDAC016EE489E00F946B46609103
:1051100056027091570280915802909159020F9453
:10512000D6CAAB016FE489E00F946B4620E030E013
:1051300040E251E46091560270915702809158020A
:10514000909159020F94A9BD0F94D6CACB01B80112
:105150000F947FCDAC0160E589E00F946B468091A0
:1051600008021AE0612F0F945ECD482F880F550B6F
:1051700061E589E00F946B4680910802612F0F94DE
:105180005ECD492F990F550B62E589E00F946B4670
:1051900080910902612F0F945ECD482F880F550B27
:1051A00063E589E00F946B4680910902612F0F94AB
:1051B0005ECD492F990F550B64E589E00F946B463E
:1051C000BCC180916319882311F40C942C5E8091EA
:1051D000B31981110C942C5ECDB6DEB68091D50941
:1051E0009091D6090F94D838E4E6F9E1DF010D90EB
:1051F0000020E9F78DB79EB78A1B9B0B9C01205AB4
:10520000364E0FB6F8943EBF0FBE2DBF0DB71EB77A
:105210000F5F1F4FFF93EF9388EB98E09F938F935F
:105220001F930F930F944CC2780134E0E30EF11CEE
:105230000F900F900F900F900F900F90D7018C91BF
:10524000882349F0082E000C990B0F942CD0F701FD
:1052500081937F01F3CFC8010F94561B84EB98E034
:105260000F94E71A0FB6F894DEBE0FBECDBE0C94B5
:105270002C5E81E080937D0E80912102909122022C
:10528000926090932202809321020C942C5E809174
:105290002102909122029160909322028093210238
:1052A0000C942C5E80912102909122028068909350
:1052B0002202809321020C942C5E40E050E062E1D7
:1052C0008AE00F946B460C942C5E40E050E06CE159
:1052D0008AE00F946B4680E00F94E41A1092E90B79
:1052E0001092E80B1092E70B81E08093310B0C9445
:1052F0002C5E10927D0E1092630BE9EAF8E0849127
:105300008F01882351F0082E000C990B0F94F09B0D
:105310000F5F1F4FF8018491F4CF1092310B0E9460
:10532000176681E00F94E41A40E050E065E08AE0FF
:105330000F946B460C942C5E80919C1090919D1064
:10534000892B29F010929D1010929C1008C080911A
:10535000540B9091550B90939D1080939C100F943B
:1053600056021092E90B0C942C5E80919E10909145
:105370009F10892B29F010929F1010929E1008C048
:105380008091510B9091520B90939F1080939E109F
:105390000F9456021092E80B0C942C5E809196109C
:1053A00090919710892B29F01092971010929610D7
:1053B0001CC080911E0A90911F0A60911C0A709176
:1053C0001D0A681779072CF4BC01990F880B990BFB
:1053D00004C0072E000C880B990B0F94A1C20F94E8
:1053E000D6CA70939710609396100F941202109281
:1053F000E70B0C942C5E85EA98E00F94E71A0C9466
:105400002C5E40E050E06EE18AE00F946B460C9415
:105410002C5E40E050E065E08AE00F946B4610920D
:105420007D0E1092630BEAE9F8E084918F018823E6
:1054300051F0082E000C990B0F94F09B0F5F1F4F3B
:10544000F8018491F4CF1092310B88E793E09093A8
:105450003F0280933E020F94E1690C942C5E40E081
:1054600050E06AE18AE00F946B460F94CF3480914C
:105470006319882311F40C942C5E8091861080931C
:105480008710BEE5EB2EB0E1FB2E12E7C12E10E136
:10549000D12E00E010E08091861090E008171907E7
:1054A000FCF464E679E18BED99E10F94C04C57016F
:1054B000D7018D919D917D010F94D838F5018081A0
:1054C0009181D6018D939D936D018091B3198823AD
:1054D00021F084E699E10F94C63D0F5F1F4FDBCFAB
:1054E00087E090E00F9492910C942C5E80913E02A4
:1054F00090913F028036974041F488E793E0909383
:105500003F0280933E020F94E16940E050E068E082
:105510008AE00F946B4681E48093680B80910B11B5
:105520008823D1F040E061E081E00F9452530F9462
:10553000BC058091680B8E3489F48FEF9FEFDC01FE
:105540008093750290937602A0937702B0937802CD
:105550001092D7090C94F26541E0E5CF81E00F94F9
:10556000E41A1092680B87E998E00F94E71A0F94F9
:10557000BC058091680B8E3401F340E050E06BE095
:105580008AE00F946B460C942C5E40E050E064E09F
:105590008AE00F946B460C942C5E40E050E064E28D
:1055A0008AE00F946B468091E60B82608093E60B55
:1055B00089E48093680B40E050E060E289E00F945A
:1055C0006B466091540B7091550B072E000C880BA5
:1055D000990B0F94A1C240E050E00F94C3860F9442
:1055E000E1696CE079E087E598E10F94F59B65E36C
:1055F00075E087E598E10F94F59B60911603709133
:105600001703809118039091190342E050E00F9422
:10561000D29C69E375E087E598E10F94F59B2DEB4B
:1056200037E346E05EE360910E0370910F038091D3
:105630001003909111030F942ACA42E050E00F9496
:10564000D29C6DE375E087E598E10F94F59B2DEB17
:1056500037E346E05EE360910603709107038091B3
:105660000803909109030F94A9BD42E050E00F9404
:10567000D29C6091510B7091520B072E000C880B3D
:10568000990B0F94A1C241E050E00F94C3860F9490
:10569000E1696CE079E087E598E10F94F59B65E3BB
:1056A00075E087E598E10F94F59B60911A0370917E
:1056B0001B0380911C0390911D0342E050E00F9466
:1056C000D29C69E375E087E598E10F94F59B2DEB9B
:1056D00037E346E05EE3609112037091130380911B
:1056E0001403909115030F942ACA42E050E00F94DE
:1056F000D29C6DE375E087E598E10F94F59B2DEB67
:1057000037E346E05EE360910A0370910B038091FA
:105710000C0390910D030F94A9BD42E050E00F944B
:10572000D29C1092680B0E94176640E050E06BE03C
:1057300084E10F946B4640E050E065E18AE00F940D
:105740006B4681E00F94E41A84E4809348118093BF
:10575000680B0C942C5E40E050E068E28AE00F9405
:105760006B460C942C5E40E050E062E18AE00F94BE
:105770006B460C942C5E10927D0E1092630BECE83D
:10578000F8E084918F01882351F0082E000C990BCA
:105790000F94F09B0F5F1F4FF8018491F4CF10928C
:1057A000310B0E94176640E050E065E08AE00F94FC
:1057B0006B460C942C5E40E050E062E18AE00F946E
:1057C0006B460C942C5E82E580931D028091E60B63
:1057D00081608093E60B40E050E06BE581E20F943E
:1057E0006B4640E050E06CE581E20F946B4640E090
:1057F00050E060E08BE10F946B4640E050E06AE7D8
:1058000081E20F946B4640E050E069E781E20F943B
:105810006B4640E050E06DE18AE00F946B468FEFFD
:1058200080931E0B0C942C5E40E050E06CE68AE006
:105830000F946B460C942C5E40E050E062E18AE0ED
:105840000F946B4640E050E06BE581E20F946B46AD
:1058500040E050E06CE581E20F946B4640E050E0A0
:1058600060E08BE10F946B4640E050E06AE781E234
:105870000F946B4640E050E069E781E20F946B467D
:105880008091E60B8E7F8093E60B0C942C5E109239
:105890007D0E1092630BE1E8F8E084918F0188237C
:1058A00051F0082E000C990B0F94F09B0F5F1F4FC7
:1058B000F8018491F4CF1092310B40E050E065E0A4
:1058C0008AE00F946B4640E050E06BE581E20F9474
:1058D0006B4640E050E06CE581E20F946B4640E09F
:1058E00050E060E08BE10F946B4640E050E06AE7E7
:1058F00081E20F946B4640E050E069E781E20F944B
:105900006B468091E60B8E7F8093E60B0C942C5EA9
:1059100041E050E06BE581E20F946B4640E050E0DF
:105920006CE581E20F946B4641E050E060E08BE172
:105930000F946B4641E050E06AE781E20F946B46BA
:1059400041E050E069E781E20F946B4610921E0B34
:105950000C942C5E40E050E06BE581E20F946B46C6
:1059600041E050E06CE581E20F946B4641E050E08D
:1059700060E08BE10F946B4641E050E06AE781E222
:105980000F946B4641E050E069E781E20F946B466B
:1059900081E080931E0B0C942C5E80913E029091CE
:1059A0003F028036974041F488E793E090933F02AE
:1059B00080933E020F94E16980911E0B8F3F11F49A
:1059C0000C942C5E0F9497B90C942C5E80913E023F
:1059D00090913F028036974041F488E793E090939E
:1059E0003F0280933E020F94E169E0911E0BEF3F6E
:1059F00011F40C942C5E81E08093660BF0E0EE0FC6
:105A0000FF1FE456FF4E84E091E0918380830F9462
:105A1000560281E48093680B40E050E068E08AE041
:105A20000F946B4680910B11882311F040E001C068
:105A300041E061E081E00F9452530F94BC058091E6
:105A4000680B8E3409F479CD80E090E0A3E4B3E4F0
:105A50008093CF109093D010A093D110B093D21018
:105A600080900A0B90900B0BA0900C0BB0900D0B3C
:105A70002091CB103091CC104091CD105091CE1090
:105A80006091C7107091C8108091C9109091CA1090
:105A9000AAEA6A2EA0E17A2E7F926F92B3EDCB2E06
:105AA000B0E1DB2EE12CF12C03E413E40E94159C01
:105AB0000F94BC050F900F908091680B8E3409F401
:105AC0003CCD80E090E0A0E2B1E48093CB109093D5
:105AD000CC10A093CD10B093CE108090060B909078
