:100000000C9483170C94B4170C94B4170C94B41775
:100010000C94B4170C94B4170C94B4170C94B41734
:100020000C94B4170C94B4170C94B4170C94B41724
:100030000C94B4170C94B4170C94B4170C9410953A
:100040000C94B4170C94B4170C94B4170C94B41704
:100050000C94B4170C94B4170D9491730C9463C062
:100060000C94B4170D94311E0D94071E0C94B41704
:100070000C94B4170C94B4170C94B4170C94B417D4
:100080000C943BB00C94B4170C94B4170C94B417A4
:100090000C94B4170C94B4170C94B4170C94B417B4
:1000A0000C94B4170C94B4170C94B4170C94B417A4
:1000B0000C94B4170C94B4170C94B4170C94B41794
:1000C0000C94B4170C94B4170C94B4170D94D21D5F
:1000D0000D94A81D0C94B4170C94B4170C94B41779
:1000E0000C94B4179A343759B2346F313759AF2B57
:1000F0003759B92B37593759D13FF82B3759375919
:100100000328FE273759DE40375937593759A0465B
:10011000A846224C2A4C2D4F3759EF462D476B47A6
:100120004448C847274119416F3106483759B42B15
:100130005B28962B4331034364310B4CD152593128
:100140004E31134C1B4C3759A434B0466C3DAA4376
:10015000C12B122808283759793BE92C164F3759FB
:100160001E4F322E324C77373E2B5E50393CB853FF
:10017000DC37824CB846354F382D3E363E36F035AA
:100180004138AA38522E112C2A2CD52B812EF92732
:100190000D28375937593759E434E72E092F572C92
:1001A000A5428242C046C846CF46D746DF46E7460C
:1001B00079478147894791479947A147A847B04761
:1001C000B847C047C84852483E49114B9B4A254A48
:1001D0003759264FA92E2C2F4230E434FD350536F1
:1001E0002336034C954EBB4E0A4FFB4B1C3E3A2820
:1001F000F058733437593759215737594C423541E4
:100200008739E1393A3A1239B4390D3A673AED3A59
:10021000C13AAB339733E44178313F320D33523337
:100220002857BC336234953A3759375937593759BB
:100230003759375937593759375903435D2C652C8E
:100240008B2C7B58B758A84EDA4E324C0A4F3D4F94
:10025000425037593D53A053D45227536451C5538C
:1002600037597D51F73E6F55D93FB340B255375995
:10027000375945548E54D95424553E54D253FD53C6
:10028000F555F6565A58375937591158375937597D
:100290006A583759402DC1526B51865150525752AE
:1002A000962BC852DF80BD8185826082E1816082A9
:1002B0003B82048129814E8106832B835083758381
:1002C000988173811682E1BDE4BDD3BDD7BDDDBD8C
:1002D0001BBEE8BDECBDF2BDF6BDFABD00BE04BE5E
:1002E00008BE1BBE0EBE12BE16BE7FBF84BF89BF36
:1002F00093BF9DBF16C0A7BFAFBFB7BFC1BFCBBF26
:10030000D5BFE4BFEEBF16C0F8BF02C00CC0CC0121
:10031000C601BA01D001D401C201CA01B801C401A9
:10032000BE01BC01084AD73B3BCE016E84BCBFFD79
:10033000C12F3D6C74319ABD56833DDA3D00C77FB5
:1003400011BED9E4BB4C3E916BAAAABE000000804E
:100350003F05A84CCDB2D44EB93836A9020C50B9DD
:10036000918688083CA6AAAA2ABE000000803F0009
:100370000D9494740D9444740D94A0740D94987419
:100380000D94029A0D9478740D9496740D942874BB
:100390000D94171D0D9492740D941B740D946A2086
:1003A0000D9451740D949BA20D946B744E414E4963
:1003B0004E495459494E46CDCCCC3D0AD7233C1723
:1003C000B7D13877CC2B329595E6241FB14F0A0070
:1003D0000020410000C84200401C4620BCBE4CCA60
:1003E0001B0E5AAEC59D746364696E6F7073757829
:1003F000585B003B202020757365526166742C2584
:1004000064004D36303520532564004733340049AD
:100410004E464F3A204245442043414C4942202D0C
:10042000200053757266696E6720300A00473238C3
:1004300020583020593000543000543100543000DE
:1004400054300053757266696E6720300A00473475
:1004500033004734330047343100473430004733EA
:1004600034004734330047343300473431004734D5
:1004700030004D3834004D3834004D3834005A3295
:10048000204F66667365743A20004F4B2073656396
:100490006F6E64204578747275646572210A005A23
:1004A00020706F736974696F6E3A20005A20706F04
:1004B000736974696F6E3A20004D3834005A3120E8
:1004C00050726F6265206F66667365743A20004FE4
:1004D0004B20666972737420457874727564657216
:1004E00021200A005A20706F736974696F6E3A2078
:1004F000005A20706F736974696F6E3A200043610F
:100500006C63756C75733A20200043616C63756C85
:1005100075733A20200043616C63756C75733A20E3
:10052000200043616C63756C75733A20200036308F
:100530002064656772656573200A0054300054308A
:100540000054300043616C6962726174696F6E209F
:100550005375636365737366756C0A005430004AA3
:10056000756D70206F7665722073637265773120C8
:10057000616E6420736372657732200A004A756D7C
:1005800070206F76657220736372657731200A0080
:100590004733340047333400473334005430004786
:1005A000333400494E464F3A204245442043414CA3
:1005B0004942202D20004C6F6164696E670A005328
:1005C000757266696E6720300A0053757266696ECF
:1005D0006720300A0053757266696E6720300A0022
:1005E00025336420256343002533642025634300BD
:1005F0002533642025634300507572676520466982
:100600006C616D656E740A002533642025634300B8
:10061000253364202563430025336420256343008C
:10062000253364202563430025336420256343007C
:10063000253364202563430025336420256343006C
:10064000253364202563430053757266696E672005
:10065000300A0053757266696E6720300A005430A4
:1006600000466F756E640A0053757266696E672086
:10067000300A004D33340053757266696E6720305E
:100680000A004D3234004D3233202573004D323490
:10069000004D3233202573005468652066697273FB
:1006A00074206C61796572207072696E7465642063
:1006B000776974682074686520257320486F7465B5
:1006C0006E640A77696C6C20626520646973746F6C
:1006D000727465642062792025642E253164253189
:1006E00064206D6D0053757266696E6720300A0074
:1006F00053757266696E6720300A005375726669B9
:100700006E6720300A00535543434553530A002572
:10071000336420256343002533642025634300258B
:10072000336420256343002533642025634300257B
:10073000336420256343002533642025634300256B
:10074000336420256343002533642025634300255B
:10075000336420256343004C6F6164696E673A0A15
:10076000002533642025634300253364202563433B
:100770000025336420256343005075726765204669
:10078000696C616D656E74200A00537461727469DE
:100790006E67205A2043616C6962726174696F6E82
:1007A0002057697A6172640A004736392041435400
:1007B0004956415445440A002E0A0044656C65744C
:1007C000696F6E206661696C65642C2046696C6592
:1007D0003A200046696C652064656C657465643A0E
:1007E000002E0A006F70656E206661696C65642C6E
:1007F0002046696C653A200047323820583020592D
:1008000030007A5F6D696E3A2000795F6D61783AE9
:100810002000785F6D61783A2000785F6D696E3AEC
:100820002000486F74656E64206F6666736574732C
:100830003A00504944204175746F74756E652066A6
:10084000696E6973686564212050757420746865E9
:10085000206C617374204B702C204B6920616E6496
:10086000204B6420636F6E7374616E7473206672C4
:100870006F6D2061626F766520696E746F20436FC3
:100880006E66696775726174696F6E2E680A0050D2
:100890004944204175746F74756E65206661696C9A
:1008A0006564212074696D656F75740A0020403A93
:1008B000006F6B20543A006F6B20423A005049445D
:1008C000204175746F74756E65206661696C65642E
:1008D000212054656D706572617475726520746F46
:1008E0006F20686967680A00204B643A2000204B3B
:1008F000693A2000204B703A200020436C617373EA
:10090000696320504944200A002054753A20002091
:100910004B753A2000206D61783A2000206D696E99
:100920003A200020643A200020626961733A200076
:10093000535543434553530A0056616C7565732004
:100940006F7574206F662072616E67650A0056616C
:100950006C756573206F7574206F662072616E67A9
:10096000650A0056616C756573206F7574206F663B
:100970002072616E67650A0056616C756573206F41
:100980007574206F662072616E67650A00504F5360
:100990004954494F4E20484F4D453A2000220A0005
:1009A000556E6B6E6F776E20636F6D6D616E643A1E
:1009B000202200526561647920746F205374617243
:1009C000740A0067636F646520666F756E640A0061
:1009D00020746F20537461727420446973706C6169
:1009E000792066726F6D20526573657400546F6F65
:1009F0006B2000646973706C6179206F6E6C696E36
:100A00006521002E00466F726D2032210A0052656A
:100A100061647920746F204C6F61642F556E6C6F28
:100A20006164200A002564252500253364202563A0
:100A30004300253364202563430025336425634345
:100A4000202F202533642563430025336425634329
:100A5000202F202533642563430025336425634319
:100A6000202F20253364256343005072696E742063
:100A70004A6F622046696E6973686564004D383458
:100A800020582059205A2045004D3130370054302D
:100A90000053757266696E672030200A0043616CEE
:100AA0006962726174696F6E2053756363657373F5
:100AB00066756C0A005430004D3834205820592097
:100AC0005A204500496E7374616C6C2025642025A2
:100AD00073206F6E2074686520257320686F7465BD
:100AE0006E640043616C63756C75733A202000433B
:100AF000616C63756C75733A20200043616C63759B
:100B00006C75733A2020002533642025634300254B
:100B10003364202563430050757267652046696C15
:100B2000616D656E740A0053757266696E67203177
:100B30000A0053757266696E6720300A00220A0047
:100B4000656E717565696E67202200220A00656E08
:100B5000717565696E67202200202F0020400020FB
:100B6000403A002569206D696E2C20256920736547
:100B700063000A0A005374616E6461726420446504
:100B800076696174696F6E3A20000A004D65616E86
:100B90003A20000A002020207A3A20000A00793A00
:100BA0002000783A20003F53706563696669656488
:100BB000206E756D626572206F66206C65677320AC
:100BC000696E206D6F76656D656E74206E6F742032
:100BD000706C61757361626C652E0A003F537065BD
:100BE000636966696564205920706F736974696F01
:100BF0006E206F7574206F662072616E67652E0AB5
:100C0000003F537065636966696564205820706FA2
:100C1000736974696F6E206F7574206F66207261DE
:100C20006E67652E0A003F53706563696669656487
:100C30002073616D706C652073697A65206E6F74C6
:100C400020706C61757361626C652E0A0046756C6C
:100C50006C20737570706F72742061743A206874C0
:100C600074703A2F2F33647072696E74626F6172A0
:100C7000642E636F6D2F666F72756D2E7068700ACB
:100C8000004D3438205A2D50726F626520526570C5
:100C90006561746162696C69747920746573742E1E
:100CA00020202056657273696F6E20322E30300A14
:100CB000003F566572626F7365204C6576656C20E7
:100CC0006E6F7420706C61757361626C652E0A00C2
:100CD0006F6B00426564204865617465640A00209A
:100CE000573A00457874727564657220486561747E
:100CF00065640A0020573A0024F4D43050C38E2093
:100D0000C2A24017828B7011127A910D816CD90AA0
:100D1000A861E108C7586607615143061E4B5D058F
:100D2000C145A7041A411104093D980371393103E3
:100D30004036DB0265339102D4305402802E1D020E
:100D4000632CEE01752AC501B028A001102781018E
:100D50008F2564012B244B01E0223401AC211F01BB
:100D60008D200D01801FFC00841EED00971DDF000B
:100D7000B81CD200E61BC600201BBC00641AB200DF
:100D8000B219A8000A19A0006A189900D117910099
:100D900040178B00B516840031167E00B31579001C
:100DA0003A157300C7146F0058146A00EE136600FA
:100DB0008813630025135E00C7125B006C12570096
:100DC00015125400C111510070114F0021114B0038
:100DD000D61049008D104700461044000210420012
:100DE000C00F4000800F3E00420F3C00060F3B004A
:100DF000CB0E3800930E37005C0E3500270E340002
:100E0000F30D3200C10D3100900D3000600D2E0049
:100E1000320D2D00050D2C00D90C2B00AE0C290035
:100E2000850C29005C0C2700350C27000E0C2600D1
:100E3000E80B2400C40B2400A00B23007D0B23002F
:100E40005A0B2100390B2100180B2000F80A1F0053
:100E5000D90A1E00BB0A1E009D0A1D00800A1D0043
:100E6000630A1C00470A1B002C0A1B00110A1A0007
:100E7000F7091A00DD091900C4091900AB091900A6
:100E8000920917007B091800630917004C09160026
:100E900036091600200916000A091500F508150084
:100EA000E0081400CC081400B8081400A4081400CA
:100EB000900813007D0812006B08130058081200F8
:100EC000460812003408110023081100120811000E
:100ED00001081100F0071000E0071000D007100013
:100EE000C0071000B0070F00A107100091070E0007
:100EF00083070F0074070F0065070E0057070E00E9
:100F000049070E003B070D002E070E0020070D00BD
:100F100013070D0006070D00F9060C00ED060D0085
:100F2000E0060C00D4060C00C8060C00BC060C0041
:100F3000B0060C00A4060B0099060C008D060B00F1
:100F400082060B0077060B006C060B0061060A0098
:100F500057060B004C060A0042060A0038060A0033
:100F60002E060A0024060A001A060A0010060900C6
:100F700007060A00FD050900F4050900EB05090054
:100F8000E2050900D9050900D0050900C7050900D7
:100F9000BE050900B5050800AD050800A505090056
:100FA0009C050800940508008C05080084050800CD
:100FB0007C050800740508006C050700650508003D
:100FC0005D050700560508004E05070047050700A8
:100FD0004005080038050700310507002A0507000D
:100FE000230507001C050600160507000F0507006E
:100FF0000805060002050700FB040600F5040700CB
:10100000EE040600E8040600E2040700DB04060024
:10101000D5040600CF040600C9040600C304060078
:10102000BD040600B7040600B1040500AC040600C8
:10103000A6040600A00405009B0406009504050014
:10104000900406008A04050085040500800406005B
:101050007A04050075040500700405006B040500A2
:1010600066040500610405005C04050057040500E2
:10107000520405004D040500480405004304050022
:101080003E0404003A040500350405003004040061
:101090002C04050027040400230405001E0404009A
:1010A0001A04040016040500110404000D040400D1
:1010B000090405000404040000040400FC03040007
:1010C000F8030400F4030400F0030400EC0304003C
:1010D000E8030400E4030400E0030400DC0304006C
:1010E000D8030400D4030400D0030400CC0304009C
:1010F000C8030300C503030024F404D9201BC40C57
:101100005C0E9804C4095F0265077101F405F900DB
:10111000FB04B30048048700C1036900580355006D
:1011200003034500BE023A008402310053022A0044
:101130002902250004022000E4011C00C801190056
:10114000AF01170098011400840113007101100011
:101150006101100051010E0043010D0036010B002A
:101160002B010B0020010B00150109000C010900E7
:1011700003010800FB000800F3000800EB00070073
:10118000E4000600DE000600D8000600D2000600DB
:10119000CC000500C7000500C2000500BD0004002A
:1011A000B9000400B5000400B1000400AD00040063
:1011B000A9000400A5000300A20003009F00040092
:1011C0009B000300980003009500020093000300B9
:1011D000900003008D0002008B00030088000200D5
:1011E0008600020084000300810002007F000200EC
:1011F0007D0002007B000200790002007700010000
:10120000760002007400020072000100710002000A
:101210006F0002006D0001006C0002006A00010016
:10122000690002006700010066000100650001001E
:101230006400020062000100610001006000010022
:101240005F0002005D0001005C0001005B00010026
:101250005A00010059000100580001005700010028
:101260005600010055000100540001005300000029
:101270005300010052000100510001005000010024
:101280004F0001004E0000004E0001004D00010023
:101290004C0001004B0000004B0001004A0001001F
:1012A000490001004800000048000100470001001B
:1012B0004600000046000100450000004500010016
:1012C0004400010043000000430001004200000010
:1012D0004200010041000000410001004000010007
:1012E0003F0000003F0001003E0000003E00010002
:1012F0003D0000003D0001003C0000003C000000FB
:101300003C0001003B0000003B0001003A000000EF
:101310003A000100390000003900010038000000E7
:1013200038000000380001003700000037000100DD
:1013300036000000360000003600010035000000D5
:1013400035000000350001003400000034000000CA
:1013500034000100330000003300000033000100BE
:1013600032000000320000003200010031000000B5
:1013700031000000310001003000000030000000AA
:10138000300001002F0000002F0000002F0000009F
:101390002F0001002E0000002E0000002E00010092
:1013A0002D0000002D0000002D0000002D00010088
:1013B0002C0000002C0000002C0000002C0001007C
:1013C0002B0000002B0000002B0000002B00010070
:1013D0002A0000002A0000002A0000002A00010064
:1013E0002900000029000000290000002900000059
:1013F000290001002800000028000000280000004B
:10140000280000002800010027000000270000003D
:101410002700000027000000270001002600000030
:101420002600000026000000260000002600010023
:101430002500000025000000250000002500000018
:101440002500000025000100240000002400000009
:1014500024000000240000002400010023000000FC
:1014600023000000230000002300000023000000F0
:1014700023000000230001002200000022000000E1
:1014800022000000220000002200000022000100D3
:1014900021000000210000002100000021000000C8
:1014A00021000000210000002100010020000000B8
:1014B00020000000200000002000000020000000AC
:1014C0002000000020000000200001001F0000009C
:1014D0001F0000001F0000001F0000001F00000090
:1014E0001F0000001F0001001E0000001E00000081
:1014F0001E0000001E0000004572726F7228383313
:10150000293A2042656420746865726D6973746F4E
:1015100072206E6F742064657465637465640A007C
:101520004572726F72283832293A2052696768749E
:1015300020746865726D6973746F72206E6F7420A9
:1015400064657465637465640A004572726F72281D
:101550003831293A204C65667420746865726D696B
:1015600073746F72206E6F74202064657465637489
:1015700065640A002053544F50205052494E542065
:101580000A004572726F72283833293A2042656426
:1015900020746865726D6973746F72206E6F742049
:1015A00064657465637465640A002053544F502069
:1015B0005052494E54200A004572726F72283832D8
:1015C000293A20526967687420746865726D69737E
:1015D000746F72206E6F74206465746563746564E3
:1015E0000A002053544F50205052494E54200A00B4
:1015F0004572726F72283831293A204C6566742022
:10160000746865726D6973746F72206E6F742020D8
:1016100064657465637465640A002053544F5020F8
:101620005052494E54200A004552524F52283839E0
:10163000293A20424544206973206E6F7420686502
:101640006174696E67002053544F50205052494EC8
:1016500054200A004552524F52283839293A20481E
:101660006F74656E64202564206973206E6F74202A
:1016700068656174696E67006563686F3A000000B1
:101680002100240027002A002D0030003300010132
:101690000000040107010A010000220025002800C3
:1016A0002B002E003100340002010000050108016A
:1016B0000B01000020002300260029002C002F0031
:1016C00032000001000003010601090105050505BE
:1016D000070508080808020202020A0A08080404AA
:1016E00004040101010101010101030303030303D8
:1016F0000303040707070C0C0C0C0C0C0C0C020267
:10170000020206060606060606060B0B0B0B0B0B63
:101710000B0B0102102020080810204010204080F0
:1017200002010201080402010102040810204080A5
:101730008040201008040201800402018040201033
:10174000080402010804020101020408102040807C
:10175000010204081020408000000A0B02090C0D51
:101760000E08070304010000000000000000000054
:101770000000000000000000000000000000000069
:101780000000000012111000000000000000000026
:101790000000000000000000000000000000436F97
:1017A0006F6C696E6720446F776E20486561746561
:1017B000720A005072696E7465722068616C74659B
:1017C000642E206B696C6C28292063616C6C6564E5
:1017D000210A004572726F723A004578747275641E
:1017E00065722072656C65617365642061637469FC
:1017F00076653A20005A205349474D4120486F6D85
:1018000065640A004578747275646572206163745A
:101810006976653A20000A0020616E7469686F720B
:101820006172690A3A200020686F726172690A2049
:10183000002F3800766F6C746573200020566F6C33
:1018400074657320636172676F6C20333A200020E7
:10185000616E7469686F726172690A3A200020686B
:101860006F726172690A20002F3800766F6C7465A0
:1018700073200020566F6C74657320636172676F0C
:101880006C20323A20000A0020647A333A2000208B
:10189000647A323A200054310054300054300054FD
:1018A00030000A0056756974656E73333A20200063
:1018B0004170726F78333A202000566F6C746573F4
:1018C000333A2020000A0056756974656E73323A07
:1018D0002020004170726F78323A202000566F6CE1
:1018E000746573323A20200056616C6F7220645A1E
:1018F000333A20200056616C6F7220645A323A20CD
:1019000020004E6577206F66667365742076657279
:1019100073696F6E3A20007A335F313A20007A3271
:101920005F313A20005A7363726F6C6C5F313A20FA
:10193000007A335F303A20007A325F303A20005A22
:101940007363726F6C6C5F303A2000706C616E650F
:101950004E6F726D616C5F312E7A3A2000706C614F
:101960006E654E6F726D616C5F312E793A2000703A
:101970006C616E654E6F726D616C5F312E783A20CE
:1019800000706C616E654E6F726D616C5F302E7AA7
:101990003A2000706C616E654E6F726D616C5F30E5
:1019A0002E793A2000706C616E654E6F726D616CBD
:1019B0005F302E783A20005A76616C75652061663A
:1019C00074657220686F6D653A00486F6D652058C8
:1019D0002F59206265666F7265205A0A00CDAC03EC
:1019E00044008093430000524300000000000000C8
:1019F00000000000000A00207A3A200020793A20F6
:101A00000020783A2000426564004578747275645D
:101A100065722072656C65617365642061637469C9
:101A200076653A20005A205349474D4120486F6D52
:101A300065640A0045787472756465722061637428
:101A40006976653A20004D383400537461727469C8
:101A50006E6720582043616C6962726174696F6EB1
:101A60002057697A6172640A0053415645442050F8
:101A700052494E540A007A70726F62653A200053E0
:101A8000442063617264206F6B0A006F70656E5250
:101A90006F6F74206661696C65640A00766F6C759F
:101AA0006D652E696E6974206661696C65640A00F3
:101AB0004572726F723A00534420696E69742066F1
:101AC00061696C0A006563686F3A004D3234004DFD
:101AD0003233202573006175746F25692E670045C8
:101AE00072726F7220577269746520454550524F6B
:101AF0004D0053657474696E67732053746F72651B
:101B0000640A00204D696E75746573203A002020C8
:101B10004C617374207072696E742074696D652DE8
:101B20003E20486F757273203A004C6173742070C8
:101B300072696E74206475726174696F6E0A002C2C
:101B4000205468697264204944206E756D62657224
:101B500020002C205365636F6E64204944206E750D
:101B60006D6265723A2000202046697273742049C4
:101B700044206E756D6265723A2000554920496EA9
:101B8000666F726D6174696F6E2053657269616C06
:101B9000204E756D6265723A0A00206D2C20453129
:101BA000207072696E742064697374616E63653A43
:101BB0002000206B6D2C204530207072696E7420DF
:101BC00064697374616E63653A2000206B6D2C202C
:101BD00059207072696E742064697374616E6365F4
:101BE0003A2000206B6D2C205831207072696E7481
:101BF0002064697374616E63653A200020432C0A87
:101C0000205830207072696E742064697374616E3C
:101C100063653A200020432C206D61782074656D47
:101C20007020423A200020432C206D61782074659A
:101C30006D7020523A20002C206D61782074656D03
:101C400070204C3A2000682C207072696E747320EA
:101C500066696E69736865643A20002C2070726949
:101C60006E74696E672074696D653A20002020707B
:101C700072696E74733A200053544154533A0A0007
:101C800020432C20525F5052494E543A20002043AA
:101C90002C20525F4245443A200020432C20525FC2
:101CA00052454D4F56453A20002020525F494E5331
:101CB0004552543A200054656D70202843293A0A51
:101CC0000020432C204C5F5052494E543A200020B3
:101CD000432C204C5F4245443A200020432C204CAA
:101CE0005F52454D4F56453A200020204C5F494EEB
:101CF000534552543A200054656D70202843293AC8
:101D00000A0020562856657273696F6E29200020DC
:101D10005228426564207269676874207363726533
:101D20007729200020204D353331204C284265642E
:101D3000206C6566742073637265772920004265A4
:101D400064204F66667365747320286D6D293A0AA6
:101D5000002050285A2070726F62652900205A2096
:101D6000002059200020204D353330205820004FCE
:101D700066667365747320286D6D293A0A002044E5
:101D800000204900202D204D333031205249474852
:101D90005420500020440020490020204D33303191
:101DA000204C4546542050005049442073657474BB
:101DB000696E67733A0A00205A0020590020204DAE
:101DC000323036205800486F6D65206F6666736547
:101DD0007420286D6D293A0A00204500205A002001
:101DE000580020420020540020204D32303520532E
:101DF00000416476616E6365642076617269616238
:101E00006C65733A20533D4D696E2066656564725A
:101E100061746520286D6D2F73292C20543D4D6908
:101E20006E2074726176656C20666565647261749B
:101E30006520286D6D2F73292C20423D6D696E69D8
:101E40006D756D207365676D656E742074696D6561
:101E500020286D73292C20583D6D6178696D756D52
:101E6000205859206A65726B20286D6D2F73292CBC
:101E700020205A3D6D6178696D756D205A206A6524
:101E8000726B20286D6D2F73292C2020453D6D61CC
:101E900078696D756D2045206A65726B20286D6DBF
:101EA0002F73290A0020540020204D323034205353
:101EB00000416363656C65726174696F6E3A2053AB
:101EC0003D616363656C65726174696F6E2C20544B
:101ED0003D7265747261637420616363656C6572E1
:101EE0006174696F6E0A00204500205A0020590075
:101EF00020204D3230312058004D6178696D756D6C
:101F000020416363656C65726174696F6E20286D32
:101F10006D2F7332293A0A00204500205A002059BB
:101F20000020204D3230332058004D6178696D75A6
:101F30006D2066656564726174657320286D6D2F10
:101F400073293A0A00204500205A00205900202019
:101F50004D393220580053746570732070657220BB
:101F6000756E69743A0A002C2073617665645F4669
:101F70006C61675F66616E6C617965725F6D6972D5
:101F8000726F723A20002C2073617665645F66651B
:101F90006564726174653A20002C20736176656413
:101FA0005F66616E6C617965723A20002C20736106
:101FB0007665645F74656D706265643A20002C20FC
:101FC00073617665645F74656D70303A20002C2013
:101FD00073617665645F74656D70313A20002C2002
:101FE00073617665645F66696C65706F7369746947
:101FF0006F6E3A20002C2073617665645F655F70B8
:102000006F736974696F6E3A20002C207361766576
:10201000645F746F6F6C5F6163746976653A20000A
:102020002C2073617665645F7A5F706F7369746981
:102030006F6E3A20002C2073617665645F795F7063
:102040006F736974696F6E3A20002C207361766536
:10205000645F785F706F736974696F6E3A200053C4
:10206000415645205052494E54204C4F473A0A00A1
:102070006563686F3A005072696E74207265636FB1
:10208000766572792075700A004E6F7420707269DF
:102090006E74207265636F766572792075700A00C0
:1020A000535543434553530A0056616C756573207D
:1020B0006F7574206F662072616E67650A005661E5
:1020C0006C756573206F7574206F662072616E6722
:1020D000650A0056616C756573206F7574206F66B4
:1020E0002072616E67650A0056616C756573206FBA
:1020F0007574206F662072616E67650A002050203B
:1021000000205A200020592000536574204D35339B
:1021100030205820004D6F64652032203A206379CA
:10212000636C652020202D3E205247423A20362005
:10213000737461746573002A2A2D3E20004D6F640C
:10214000652031203A2072616E646F6D20202D3E33
:10215000205247423A202B31202B32202B332C2087
:10216000647572696E67207072696E74696E67005B
:102170002A2A2D3E20004D6F64652030203A2064CD
:10218000656661756C74202D3E205247423A2032BC
:1021900035352032353520323535002A2A2D3E207E
:1021A000004C6564206D6F646573203A004D3533D3
:1021B00036204C5B6D6F64655D00486F74656E64BE
:1021C000206F6666736574733A0054696D652069A3
:1021D0006E6163746976650A005075726765206484
:1021E000697374616E63650A005A204F6666736591
:1021F00074206F6B0A005A204F6666736574203A2C
:10220000200A007A5F6D61783A20007A5F6D696E0E
:102210003A20005A204F666673657400504F534948
:1022200054494F4E20484F4D453A20002E2E2E2027
:1022300054696D656F757421002A2A2A2047656EDE
:1022400069652057726974654F626A656374202AF4
:102250002A2A202D2D2D3E002E2E2E204E414B20A1
:1022600021002A2A2A2047656E6965205772697401
:10227000654F626A656374202A2A2A202D2D2D3E1F
:10228000002E2E2E2041434B2021002A2A2A2047AF
:10229000656E69652057726974654F626A6563741B
:1022A000202A2A2A202D2D2D3E002A2A2A20476561
:1022B0006E6965204261642042797465202A2A2A69
:1022C000202D2D2D3E203078002056616C75653A0A
:1022D000200020496E6465783A20002A2A2A204787
:1022E000656E6965205265706F7274204F626A6511
:1022F0006374202A2A2A204F626A6563743A200098
:102300002A2A2A2047656E696520436F6E6E6563D1
:10231000746564202F2053796E6321202A2A2A00B5
:102320002056616C75653A200020496E6465783AE4
:1023300020002A2A2A2047656E6965205265706F41
:102340007274204576656E74202A2A2A204F626AAC
:102350006563743A2000204C656E6774683A20000B
:102360002A2A2A2047656E69652052656365697669
:102370006564204D6167696320446F75626C6520F8
:102380004279746573202A2A2A20496E6465783A56
:102390002000204C656E6774683A20002A2A2A20A3
:1023A00047656E6965205265636569766564204D91
:1023B00061676963204279746573202A2A2A20495B
:1023C0006E6465783A20002A2A2A2047656E69657E
:1023D000204E414B205265636F7665727920212132
:1023E00021202A2A2A002A2A2A2047656E69652088
:1023F000446973636F6E6E65637465642066726FA3
:102400006D20446F4576656E747321202A2A2A0058
:102410002A2A2A2047656E696520546F6F6B2074E5
:102420006F6F206C6F6E6720746F2072652D656E04
:1024300074657220446F4576656E747328292C206C
:102440007265647563652064656C61797320696E7B
:1024500020636F64652C2073656C662D70726F74D9
:10246000656374696F6E20656E61626C65642E20B1
:102470002A2A2A00202D20496E76616C6964206525
:1024800078747275646572206E756D626572202154
:102490000A004572726F723A00646973706C6179F8
:1024A000206F66666C696E650042434E334420536C
:1024B00069676D61780A0073746172740A006563FC
:1024C000686F3A0030322D312E322E313052430AAD
:1024D000006572726F722077726974696E6720741A
:1024E0006F2066696C650A00205A3A0020593A004C
:1024F00020583A00656E6473746F70732068697455
:102500003A20006563686F3A00446F6E652073611E
:1025100076696E672066696C652E0A006F6B0A002B
:102520004D323900504944204175746F74756E65A1
:102530002066696E6973686564210A005049442009
:102540004175746F74756E65206661696C65642190
:102550002074696D656F75740A0020403A006F6BD6
:1025600020543A006F6B20423A0050494420417594
:10257000746F74756E65206661696C6564212054A2
:10258000656D706572617475726520746F6F206817
:102590006967680A00204B643A2000204B693A20A2
:1025A00000204B703A200020436C617373696320F4
:1025B000504944200A002054753A2000204B753AB7
:1025C0002000206D61783A2000206D696E3A20006D
:1025D00020643A200020626961733A20003B204762
:1025E0002D436F64652067656E6572617465642054
:1025F00062792053696D706C696679334428522979
:102600002056657273696F6E202564003B507269B5
:102610006E742074696D653A202564202573202529
:1026200064202573202564202573003B54494D45C3
:102630003A256C64003B2020204275696C6420744C
:10264000696D653A20256420257320256420257353
:10265000003B202020506C617374696320776569AA
:102660006768743A2025642E256467003B46696CD0
:10267000616D656E7420757365643A2025642E253E
:10268000646D2025642E256467003B46696C616D8E
:10269000656E7420757365643A20256C642E256C14
:1026A000646D0025203364202525002564206820E2
:1026B0002564206D00252033642025250025326403
:1026C00020256343002533642025634300253364BC
:1026D0002025634300526561647920746F204C6F3C
:1026E00061642F556E6C6F6164200A002564252596
:1026F000002533642025634300253364202563438C
:10270000002053544F50205052494E54200A004745
:102710003238205830205930004D3335005265731F
:10272000756D65206465746563746564200A00478F
:10273000373000A1524553554D4521200A00A15084
:102740004155534521200A00253364202563430069
:10275000253364202563430025336420256343002B
:10276000253364202563430025336420256343001B
:10277000253364202563430025336420256343000B
:1027800025336420256343002533642025634300FB
:102790005052494E542053455454494E4753200AF1
:1027A000000000000000809343000000000000A033
:1027B000400000A0400000004020004D6F766520E2
:1027C000746F3A2000CDAC03440080934300005264
:1027D00043FF01FF20636F6C64206578747275732A
:1027E000696F6E2070726576656E7465640A006547
:1027F00063686F3A00526573656E643A20006F6BD0
:102800000A004475616C204D6F6465204F4E0A00CC
:102810004475616C204D6972726F72204D6F6465F2
:10282000204F4E0A004475616C204D6F6465204F47
:1028300046460A007C3C3E5E2B3D3F2F5B5D3B2CB9
:102840002A225C002A2A2A2047656E69652044698D
:1028500073636F6E6E65637465642066726F6D205E
:102860004765744E6578744279746521202A2A2A56
:10287000002A2A2A2047656E696520456E61626CD0
:1028800065204174746163684576656E7448616E55
:10289000646C657220212121202A2A2A0043616E5E
:1028A0006E6F7420656E74657220737562646972F0
:1028B0003A200057726974696E6720746F206669E8
:1028C0006C653A20002E0A006F70656E20666169A3
:1028D0006C65642C2046696C653A20002E0A006FF6
:1028E00070656E206661696C65642C2046696C6554
:1028F0003A200046696C652073656C656374656495
:102900000A002053697A653A200046696C65206F99
:1029100070656E65643A20002E0A006F70656E2047
:102920006661696C65642C2046696C653A20004ECE
:102930006F772066726573682066696C653A20005F
:102940004E6F7720646F696E672066696C653A2008
:10295000002220706F73002220706172656E743ADD
:102960002200535542524F5554494E452043414C45
:102970004C207461726765743A2200747279696ED2
:102980006720746F2063616C6C207375622D6763C0
:102990006F64652066696C6573207769746820745C
:1029A0006F6F206D616E79206C6576656C732E207B
:1029B0004D4158206C6576656C2069733A004D3145
:1029C000303700473932204530205A3020522564B4
:1029D000004E6577206C617965722064657465636B
:1029E0007465640A003B206C61796572003B4C4160
:1029F00059455200256920686F757273202569203A
:102A00006D696E7574657300446F6E6520707269D0
:102A10006E74696E672066696C650A004D33330019
:102A20007061757365206465746563746564200AFC
:102A300000473639005072696E7465722073746F86
:102A4000707065642064756520746F206572726FA4
:102A500072732E2046697820746865206572726FE3
:102A60007220616E6420757365204D393939207488
:102A70006F20726573746172742E202854656D70B6
:102A8000657261747572652069732072657365740F
:102A90002E205365742069742061667465722072FB
:102AA000657374617274696E67290A006F6B0A003E
:102AB0004E6F204C696E65204E756D626572207791
:102AC00069746820636865636B73756D2C204C6155
:102AD0007374204C696E653A20004E6F2043686520
:102AE000636B73756D2077697468206C696E6520FF
:102AF0006E756D6265722C204C617374204C696E2A
:102B0000653A2000636865636B73756D206D69734A
:102B10006D617463682C204C617374204C696E6520
:102B20003A20004C696E65204E756D6265722069B1
:102B300073206E6F74204C617374204C696E652035
:102B40004E756D6265722B312C204C617374204C74
:102B5000696E653A20004D31313000204500205A21
:102B600000205900483D58004649524D57415245B2
:102B70005F4E414D453A4D61726C696E2042434E45
:102B80003344205369676D61783B204649524D5765
:102B90004152455F56455253494F4E3A30322D31DE
:102BA0002E322E313052433B204649524D5741522E
:102BB000455F55524C3A68747470733A2F2F6769A9
:102BC000746875622E636F6D2F42434E33442F42FB
:102BD000434E33445369676D61782D4669726D7752
:102BE0006172653B2050524F544F434F4C5F5645E6
:102BF0005253494F4E3A312E303B204D41434849C4
:102C00004E455F545950453A42434E334420536930
:102C1000676D61783B2045585452554445525F4397
:102C20004F554E543A323B20555549443A00205AAC
:102C30003A0020593A0020436F756E7420583A20AC
:102C40000020453A00205A3A0020593A00583A00EC
:102C500053544154495354494353205245534554C6
:102C60000A0070012C0190012701B0012201C0016E
:102C70001D01F00118011002130130020E01600263
:102C8000090190020401C002FF000003FA004003A2
:102C9000F5008003F000D003EB002004E600700490
:102CA000E100E004DC004005D700C005D20040068A
:102CB000CD00D006C8008007C3003008BE00F00871
:102CC000B900C009B400B00AAF00B00BAA00D00C24
:102CD000A500000EA000500F9B00C01096005012DF
:102CE000910000148C00C0158700B0178200B01945
:102CF0007D00D01B7800001E730040206E009022E3
:102D00006900F024640040275F0090295A00E02BFE
:102D10005500102E500020304B0010324600E0339A
:102D2000410090353C001037370070383200A03930
:102D30002D00B03A2800A03B2300603C1E00103D4F
:102D40001900903D1400103E0F00703E0A00C03E76
:102D50000500003F00004552524F52283838293AAA
:102D60002054656D7065726174757265206E6F7444
:102D700020726561636865642062792048656174CA
:102D800065725F49443A202564004552524F5228EB
:102D90003838293A2054656D7065726174757265B2
:102DA000206E6F74207265616368656420627920AB
:102DB0004865617465725F49443A2025640048792A
:102DC00073746572657369732074656D7065726183
:102DD000747572650A00546865726D616C20727555
:102DE0006E617761792070726F74656374696F6E5C
:102DF000206279204865617465725F49443A0A002F
:102E000053746F7265642073657474696E677320A0
:102E10007265747269657665640A004861726463FC
:102E20006F6465642044656661756C7420536574D5
:102E300074696E6773204C6F616465640A00486151
:102E40007264636F6465642043616C696220616EC3
:102E500064205049442044656661756C7420536554
:102E60007474696E6773204C6F616465640A000A4C
:102E700000205A3A200020593A200020583A2000D9
:102E800042656400456E642066696C65206C6973F8
:102E9000740A00426567696E2066696C65206C691A
:102EA00073740A0043617264204E616D653A2000BC
:102EB0002F005344207072696E74696E67206279C6
:102EC000746520004E6F74205344207072696E74D4
:102ED000696E670A004D3834005374617274696E0C
:102EE0006720592043616C6962726174696F6E205A
:102EF00057697A6172640A002564206974656D738C
:102F00000000C001D20111241FBECFEFD1E2DEBF0D
:102F1000CDBF00E00CBF17E0A0E0B2E0EAEDFAE6BA
:102F200003E00BBF02C007900D92AC3EB107D9F78A
:102F30002DE1ACEEB7E001C01D92A23CB207E1F773
:102F400017E1C2E8D7E100E006C021970109802F10
:102F5000FE010F94D0B2C138D10780E00807A9F76D
:102F60000F94B19C0D945CB50C9400002F923F928D
:102F70004F925F926F927F928F929F92AF92BF9289
:102F8000CF92DF92EF92FF920F931F93CF93DF9335
:102F9000CDB7DEB7C353D1400FB6F894DEBF0FBE36
:102FA000CDBF2DB73EB7CE5CDE4F39832883C253E9
:102FB000D14011E0109396088091220881110CC035
:102FC0000E9457C060931E0870931F0880932008CA
:102FD00090932108109322088091160881110DC04A
:102FE0000E9457C0609312087093130880931408CE
:102FF0009093150881E08093160880913B164091CC
:103000002702509128026091290270912A028111B1
:1030100006C090913C16992311F40C94BA254E38B1
:1030200051056105710509F46EC60CF0D6C04D332B
:1030300051056105710509F4D3C10CF05BC0403244
:1030400051056105710511F40C94972334F5403155
:1030500051056105710509F474C174F441305105DD
:103060006105710509F4A7C142305105610571057B
:1030700009F430C30C94375942315105610571058B
:1030800009F443C214F40C94F42243315105610550
:10309000710509F40CC20C9437594233510561058E
:1030A000710509F417C37CF44132510561057105BE
:1030B00011F40C948623413351056105710509F41F
:1030C000D8C10C943759453351056105710511F488
:1030D0000C946B244A3351056105710511F40C946D
:1030E0007C20443351056105710511F00C9437596A
:1030F0000C944422483551056105710509F49AC1C3
:1031000054F5463451056105710509F48EC47CF40B
:10311000413451056105710509F410C44434510569
:103120006105710511F40C94F5200C9437594F3456
:1031300051056105710509F46AC5473551056105F9
:10314000710509F4C4C14E3451056105710511F0D2
:103150000C943759E1C44B3751056105710509F4E9
:10316000DFC274F44A3551056105710509F4D8C20E
:10317000463751056105710509F4D6C10C943759DC
:10318000483851056105710509F4E5C04938510514
:103190006105710509F4EAC04C37510561057105F7
:1031A00011F00C94375940E050E06AE28AE00F9445
:1031B000251A40E050E06DE781E20F94251A11E0F6
:1031C0001093921D1092951D6AE378E086E20F94A9
:1031D000271B109339080C9437594D395105610557
:1031E000710511F40C94FC230CF04FC045395105C6
:1031F0006105710509F4EEC6F4F441395105610524
:10320000710509F478C574F44F38510561057105ED
:1032100009F4D2C5403951056105710509F427C685
:103220000C943759433951056105710509F4F1C50D
:103230000CF495C548C6483951056105710511F46E
:103240000C9440247CF4463951056105710509F45C
:1032500094C6473951056105710511F40C94512448
:103260000C9437594B3951056105710511F40C94D3
:10327000AE2314F00C94B7234A395105610571054A
:1032800011F40C94A5230C943759463A5105610565
:10329000710509F406C21CF5423A51056105710534
:1032A00009F454C07CF4403A51056105710511F4EC
:1032B0000C946224413A51056105710509F430C648
:1032C0000C943759443A51056105710509F4FDC163
:1032D0000CF0F1C181E08093041C0C943759493AF9
:1032E00051056105710509F4EBC194F4473A5105A4
:1032F0006105710509F4DAC1483A510561057105A6
:1033000011F00C94375981E08093FE1B0C943759CF
:103310004E3B51056105710509F49EC0433D5105C1
:103320006105710511F40C947C254A3A510561053B
:10333000710511F00C94375981E08093FD1B0C94BA
:10334000375981E08093061C0C94375981E08093B3
:10335000051C0C94375981E08093061C41E050E035
:1033600069E881E20F94251A0C94375980910E0276
:10337000833411F00C94375982E480930E0240E0BC
:1033800050E067E581E20F94251A40E050E066E7DF
:1033900081E20F94251A40E050E068E881E20F9442
:1033A000251A40E050E069E881E20F94251A109256
:1033B000951D0C9437591092921D80E00E9473FA6B
:1033C00081E08093911D8093440E40E050E068E0DE
:1033D0008AE00F94251A81E48093450E0C943759A6
:1033E00080910E0240E050E0813491F469E08AE07F
:1033F0000F94251A11E01093921D6AE378E082E0A1
:103400000F94271B109339081092951D0C9437596F
:103410006AE28AE00F94251A11E01093921D6AE384
:1034200078E086E20F94271B109339081092951DBF
:103430000C94375980913E0981110C943759809131
:103440003C1681110C94375940E050E069E38AE062
:103450000F94251A0C94375980913E0981110C94D0
:10346000375940E050E061E08AE00F94251A0C944F
:10347000375980913E0981110C94375900910E0201
:10348000013411F00C9437591092921D10923B1692
:1034900011E010933C1640E050E068E08AE00F94A1
:1034A000251A0093450E1093EC1C0C94375980910B
:1034B0000E02813411F00C94375940E050E061E085
:1034C0008AE00F94251A1092921D0C94375980911E
:1034D0000E02823491F3833411F00C94375940E09A
:1034E00050E066E18AE00F94251A41E050E06DE774
:1034F00081E20F94251A82E580931F0281E0809378
:10350000951D1092921D0C943759882311F40C9438
:10351000375980910E02813411F00C94375981E0B3
:103520008093FC1B0C94375980913C16882311F42E
:103530000C94375980910E02823429F481E08093F3
:10354000FB1B0C943759833411F00C94375911E05C
:1035500010938B0840E050E068E981E20F94251A4F
:1035600040E050E067E981E20F94251A40E050E026
:103570006CE981E20F94251A40E050E06DE981E2A8
:103580000F94251A41E050E067E881E20F94251A74
:1035900040E050E06CE28AE00F94251A1093951DEC
:1035A0008FEF9FEF9093D1028093D002E9E7F7E08D
:1035B00084918F01882351F0082E000C990B0E94F2
:1035C000EEF70F5F1F4FF8018491F4CF40E050E019
:1035D0006AE981E20F94251A40E050E06BE981E24C
:1035E0000F94251A1F9210EBF12EFF926091EB1BA6
:1035F0007091EC1B8091ED1B9091EE1B0F9405B028
:103600007F936F9381E797E09F938F938E010F5F76
:103610001F4F1F930F930F948FA7B8018AE00F9449
:10362000271BC8010F941A2A1F92FF926091EF1B6B
:103630007091F01B8091F11B9091F21B0F9405B0DB
:103640007F936F9389E697E09F938F931F930F93D8
:103650000F948FA7B80181E10F94271BC8010F9425
:103660001A2A1F92FF921F921F9281E697E09F9362
:103670008F931F930F930F948FA7B80185E00F943A
:10368000271BC8010F941A2A1092921D2DB73EB71E
:10369000285E3F4F0FB6F8943EBF0FBE2DBF0C946F
:1036A000375981E08093011C0C94375981E0809355
:1036B000001C0C94375981E08093031C0C943759FB
:1036C00081E08093FF1B0C94375981E08093021CAA
:1036D0000C943759423051056105710511F489E4A4
:1036E00006C0423351056105710519F482E58093E6
:1036F0001F0240E050E06CE481E20F94251A40E0A4
:1037000050E06BE481E20F94251A40E050E064E160
:103710008AE00F94251A8FEF8093981C0C943759E8
:103720004A3551056105710519F41092981C03C0C2
:1037300081E08093981C8091981C082F10E0000F66
:10374000111FF801E65AF04F2081318130931108A2
:103750002093100881111EC08091B2199091B31965
:103760006091F6077091F707681779072CF4BC0190
:10377000990F880B990B04C0072E000C880B990B2E
:103780000F94E5A7065A104F0F9405B0D8016D931A
:103790007C931DC080916508909166086091F40744
:1037A0007091F507681779072CF4BC01990F880B05
:1037B000990B04C0072E000C880B990B0F94E5A7FA
:1037C000065A104F0F9405B0F801718360830F946F
:1037D0004A7581E48093450E40E050E068E08AE05D
:1037E0000F94251A40E050E06DE781E20F94251A0E
:1037F00080E090E0A3E4B3E480937D0F90937E0F8C
:10380000A0937F0FB093800F8090841C9090851CB4
:10381000A090861CB090871C2091790F30917A0F70
:1038200040917B0F50917C0F6091750F7091760FD6
:103830008091770F9091780FE8E66E2EEFE07E2E64
:103840007F926F92F1E8CF2EFFE0DF2EE12CF12C7A
:1038500003E413E40F945B370F94E27880E090E088
:10386000A0E2B1E48093790F90937A0FA0937B0F3D
:10387000B0937C0F8090801C9090811CA090821C43
:10388000B090831CE0907D0FF0907E0F00917F0F31
:103890001091800F6091750F7091760F8091770F66
:1038A0009091780F7F926F9220E030E040E251E4F7
:1038B0000F945B370F94E2780F900F900F900F905A
:1038C0008091450E8E3411F40C94102D1092450EFB
:1038D0000E94677B63E374E08DE20F94271B40E056
:1038E00050E068E28AE00F94251A0091981C10E0DD
:1038F000F801EE0FFF1FEE0FFF1FE551F44E608140
:103900007181828193810F9405B0709389086093CF
:103910008808000F111FF801E65AF04F808191814D
:10392000909387088093860888E48093450E0E94D0
:10393000677B81E080938A080C9437598091981CAA
:103940008130C1F540E050E068E08AE00F94251A2C
:1039500087ED90E090932F1A80932E1A9093680829
:10396000809367088AEA90E09093660880936508E0
:1039700081E490E090932B1A80932A1A0F945705B4
:10398000809167089091680890935D0F80935C0F19
:103990000F944A750E94329A40E050E06EE781E24F
:1039A0000F94251A40E050E06DE481E20F94251A4F
:1039B0000C94375981110C94375940E050E068E07D
:1039C0008AE00F94251A87ED90E09093311A809346
:1039D000301A9093B5198093B4198AEA90E09093C5
:1039E000B3198093B21981E490E090932D1A8093DB
:1039F0002C1A0F9457058091B4199091B519909392
:103A00005B0F80935A0F0F944A750E94329A40E0E0
:103A100050E06EE781E20F94251A40E050E06DE43B
:103A200081E20F94251A0C9437598091981C8130AB
:103A3000C1F540E050E068E08AE00F94251A84E088
:103A400091E090932F1A80932E1A90936808809398
:103A5000670886EE90E090936608809365088AE593
:103A600090E090932B1A80932A1A0F945705809117
:103A700067089091680890935D0F80935C0F0F9496
:103A80004A750E94329A40E050E06EE781E20F945E
:103A9000251A40E050E06DE481E20F94251A0C9461
:103AA000375981110C94375940E050E068E08AE0C2
:103AB0000F94251A84E091E09093311A8093301A84
:103AC0009093B5198093B41986EE90E09093B31952
:103AD0008093B2198AE590E090932D1A80932C1A66
:103AE0000F9457058091B4199091B51990935B0F7D
:103AF00080935A0F0F944A750E94329A40E050E02A
:103B00006EE781E20F94251A40E050E06DE481E217
:103B10000F94251A0C9437598091981C8130D1F557
:103B200040E050E068E08AE00F94251A8CED90E0C8
:103B300090932F1A80932E1A86EE90E09093680847
:103B40008093670880EA90E0909366088093650808
:103B50008CE390E090932B1A80932A1A0F945705C8
:103B6000809167089091680890935D0F80935C0F37
:103B70000F944A750E94329A40E050E06EE781E26D
:103B80000F94251A40E050E06DE481E20F94251A6D
:103B90000C94375981110C94375940E050E068E09B
:103BA0008AE00F94251A8CED90E09093311A80935F
:103BB000301A86EE90E09093B5198093B41980EA9C
:103BC00090E09093B3198093B2198CE390E09093B6
:103BD0002D1A80932C1A0F9457058091B419909147
:103BE000B51990935B0F80935A0F0F944A750E94FA
:103BF000329A40E050E06EE781E20F94251A40E0EF
:103C000050E06DE481E20F94251A0C9437598091AD
:103C1000981C823010F00C94375940E050E064E377
:103C20008AE00F94251A1F9230EBF32EFF928091B9
:103C30000D028F9380910C028F9306E314E01F9383
:103C40000F936E01FCEDCF1AFEEFDF0ADF92CF92E9
:103C50000F942CB5B6018DE00F94271B1F92FF9295
:103C600080910B028F9380910A028F931F930F9381
:103C70006E0126EEC21A2EEFD20ADF92CF920F9477
:103C80002CB5B6018EE00F94271B1F92FF928091F6
:103C900009028F93809108028F931F930F936E01F7
:103CA00031E0C30ED31EDF92CF920F942CB5B60134
:103CB0008FE00F94271B1F92FF92809107028F9332
:103CC000809106028F931F930F938E010F5F1F4FFA
:103CD0001F930F930F942CB54DB75EB7405E5F4FA7
:103CE0000FB6F8945EBF0FBE4DBFB80182E10F94CE
:103CF000271B0C94375940E050E064E18AE00F94B0
:103D0000251A0C94375980910C0290910D021816C7
:103D1000190614F00C9437590A9790930D0280936A
:103D20000C021F9220EB2F939F938F938DE394E0CF
:103D30009F938F938E010F5F1F4F1F930F930F94CD
:103D40002CB5B8018DE00F94271B8DB79EB7089650
:103D50000FB6F8949EBF0FBE8DBF0C94375980915B
:103D60000C0290910D028633A1E09A0714F00C9496
:103D700037590A9690930D0280930C021F9220EB04
:103D80002F939F938F938DE394E09F938F938E0156
:103D90000F5F1F4F1F930F930F942CB5B8018DE049
:103DA0000F94271BEDB7FEB738960FB6F894FEBFF9
:103DB0000FBEEDBF0C94375980910A0290910B020F
:103DC0001816190614F00C9437590A9790930B02A1
:103DD00080930A021F9220EB2F939F938F938DE382
:103DE00094E09F938F938E010F5F1F4F1F930F934C
:103DF0000F942CB5B8018EE00F94271B2DB73EB75A
:103E0000285F3F4F0FB6F8943EBF0FBE2DBF0C94F6
:103E1000375980910A0290910B02863331E0930763
:103E200014F00C9437590A9690930B0280930A026F
:103E30001F9220EB2F939F938F938DE394E09F939A
:103E40008F938E010F5F1F4F1F930F930F942CB50D
:103E5000B8018EE00F94271B4DB75EB7485F5F4FE8
:103E60000FB6F8945EBF0FBE4DBF0C9437598091CA
:103E70000802909109021816190614F00C9437598B
:103E80000A9790930902809308021F9220EB2F93C8
:103E90009F938F938DE394E09F938F938E010F5F99
:103EA0001F4F1F930F930F942CB5B8018FE00F9401
:103EB000271B8DB79EB708960FB6F8949EBF0FBE0E
:103EC0008DBF0C9437598091080290910902863376
:103ED000A1E09A0714F00C9437590A9690930902BE
:103EE000809308021F9220EB2F939F938F938DE373
:103EF00094E09F938F938E010F5F1F4F1F930F933B
:103F00000F942CB5B8018FE00F94271BEDB7FEB7C7
:103F100038960FB6F894FEBF0FBEEDBF0C9437591C
:103F200080910602909107021816190614F00C945D
:103F300037590A9790930702809306021F9220EB4D
:103F40002F939F938F938DE394E09F938F938E0194
:103F50000F5F1F4F1F930F930F942CB5B80182E191
:103F60000F94271B2DB73EB7285F3F4F0FB6F8942D
:103F70003EBF0FBE2DBF0C94375980910602909121
:103F800007028936910514F00C9437590A969093DC
:103F90000702809306021F9220EB2F939F938F932B
:103FA0008DE394E09F938F938E010F5F1F4F1F93BC
:103FB0000F930F942CB5B80182E10F94271B4DB7D6
:103FC0005EB7485F5F4F0FB6F8945EBF0FBE4DBF40
:103FD0000C94375940E050E068E08AE00F94251ACD
:103FE000E091981C40910C0250910D0220910A0220
:103FF00030910B02609108027091090280910602D3
:1040000090910702E11130C06C33A1E07A0714F0FF
:104010006BE371E07093311A6093301A4C33B1E066
:104020005B0714F04BE351E05093B5194093B4197A
:104030002C33E1E03E0714F02BE331E03093B31969
:104040002093B2198F36910514F08EE690E090938C
:104050002D1A80932C1A8091B4199091B5199093D0
:104060005B0F80935A0F34C06C33F1E07F0714F07C
:104070006BE371E070932F1A60932E1A4C3361E05A
:1040800056072CF4509368084093670806C04BE32A
:1040900051E050932F1A40932E1A2C33A1E03A0787
:1040A00014F02BE331E030936608209365088F36D7
:1040B000910514F08EE690E090932B1A80932A1AC3
:1040C000809167089091680890935D0F80935C0FD2
:1040D0000F944A750F9457050E94329A40E050E0C1
:1040E0006EE781E20F94251A40E050E06DE481E232
:1040F0000F94251A0C94375963E374E08DE20F9402
:10410000271B40E050E068E28AE00F94251A88E41B
:104110008093450E0E94677B0091981C01111DC081
:104120008091B4199091B5196091F2077091F307DD
:10413000681779072CF4BC01990F880B990B04C000
:10414000072E000C880B990B0F94E5A70F9405B070
:1041500070935B0F60935A0F20C080916708909115
:1041600068086091F0077091F107681779072CF4DF
:10417000BC01990F880B990B04C0072E000C880B0B
:10418000990B0F94E5A710E0000F111F065A104F6E
:104190000F9405B0F801718360830F944A75009104
:1041A000981C10E0F801EE0FFF1FEE0FFF1FE55106
:1041B000F44E60817181828193810F9405B0709378
:1041C000890860938808000F111FF801E65AF04F24
:1041D0008081918190938708809386080E94677BF5
:1041E00081E080938A080C94375980911F028934AA
:1041F00011F00C94375940E050E068E08AE00F94E9
:10420000251A81E48093450EE091981C24E0E29FFA
:10421000F0011124EA51FD4F608171818281938107
:104220006093750F7093760F8093770F9093780F4C
:10423000E0907D0FF0907E0F00917F0F1091800F26
:104240002091790F30917A0F40917B0F50917C0F24
:104250000F94D91BE0907D0FF0907E0F00917F0F9F
:104260001091800F2091790F30917A0F40917B0F40
:1042700050917C0F6091750F7091760F8091770F40
:104280009091780FE8E9FCE1FF93EF93812CA0E88F
:104290009A2EABE3AA2EA6E4BA2EB1E8CB2EBFE04D
:1042A000DB2E0F945B370F94E278E7E5F7E084911B
:1042B0000F900F908F01882351F0082E000C990B5E
:1042C0000E94EEF70F5F1F4FF8018491F4CF20E0BA
:1042D00030E040EF51E46091810F7091820F809146
:1042E000830F9091840F0F946BAE6093810F709346
:1042F000820F8093830F9093840FE0907D0FF09056
:104300007E0F00917F0F1091800F2091790F3091D7
:104310007A0F40917B0F50917C0F6091750F7091D7
:10432000760F8091770F9091780FB8E96B2EBCE1F2
:104330007B2E7F926F92812C912CE0E3AE2EE1E4F4
:10434000BE2EF1E8CF2EFFE0DF2E0F945B370F94E7
:10435000E2780F900F908091450E8E3411F40C94FA
:10436000102D20E030E641E854E46091810F709117
:10437000820F8091830F9091840F0F946BAEAB01ED
:10438000BC014093810F5093820F6093830F709311
:10439000840F81EB93E10E9439FAE0907D0FF09059
:1043A0007E0F00917F0F1091800F2091790F309137
:1043B0007A0F40917B0F50917C0F6091750F709137
:1043C000760F8091770F9091780F7F926F92812C6A
:1043D000912CA0E7AA2EA2E4BA2E0F945B370F947B
:1043E000E2780F900F908091450E8E3411F40C946A
:1043F000102D20E030E048E452E46091810F70918C
:10440000820F8091830F9091840F0F946BAE609315
:10441000810F7093820F8093830F9093840FE090AD
:104420007D0FF0907E0F00917F0F1091800F2091F3
:10443000790F30917A0F40917B0F50917C0F6091F2
:10444000750F7091760F8091770F9091780F7F9212
:104450006F92812C912CA12CF0E4BF2E0F945B372E
:104460000F94E2780F900F908091450E8E3411F4E6
:104470000C94102D1092450E40E050E06EE08AE062
:104480000F94251A0C94375980911F02823511F030
:104490000C94375940E050E068E08AE00F94251A08
:1044A00081E48093450E66E272E080E090E00E9435
:1044B0001FC020E030E44CE954E46091810F70911A
:1044C000820F8091830F9091840F0F946AAE609356
:1044D000810F7093820F8093830F9093840FE090ED
:1044E0007D0FF0907E0F00917F0F1091800F209133
:1044F000790F30917A0F40917B0F50917C0F609132
:10450000750F7091760F8091770F9091780FE8E991
:10451000FCE1FF93EF93812C912CB0E7AB2EB2E43A
:10452000BB2EE1E8CE2EEFE0DE2E0F945B370F942A
:10453000E2780F900F908091450E8E3411F40C9418
:10454000102D86E090E09093050280930402109273
:10455000450E12E410930F0F0E94677B40E050E07D
:1045600065E18AE00F94251A40E050E06BE084E1B9
:104570000F94251A1093450E8091981C81111AC032
:104580008091B4199091B5199093F3078093F20735
:104590008091B2199091B3199093F7078093F60721
:1045A0008091301A9091311A9093EF078093EE0723
:1045B0000C94375980916708909168089093F1079F
:1045C0008093F00780916508909166089093F507B5
:1045D0008093F40780912E1A90912F1A9093ED07F3
:1045E0008093EC070C9437598091810881110C94C9
:1045F000375940E050E065E18AE00F94251A40E029
:1046000050E06BE084E10F94251A82E48093450E1C
:1046100080930F0FE091981C24E0E29FF001112499
:10462000EA51FD4F60817181828193816093750FA2
:104630007093760F8093770F9093780FE0907D0FB3
:10464000F0907E0F00917F0F1091800F2091790FD5
:1046500030917A0F40917B0F50917C0FE8E9FCE19B
:10466000FF93EF93812CE0E89E2EEBE3AE2EE6E481
:10467000BE2EF1E8CF2EFFE0DF2E0F945B37E090E7
:104680007D0FF0907E0F00917F0F1091800F209191
:10469000790F30917A0F40917B0F50917C0FE09110
:1046A000680F64E0E69FF0011124EA51FD4F60813C
:1046B0007181828193810F94D91BE091680F84E00E
:1046C000E89FF0011124EA51FD4F80819181A28180
:1046D000B3818093750F9093760FA093770FB0936B
:1046E000780FE091981CF0E0EE0FFF1FE65AF04FB4
:1046F0008091100890911108918380830F944A75DE
:104700000F94E2780F900F900C94375980918108A4
:1047100081110C9437599091291A8091281A981375
:104720000C94555981E080938D080C9437598091F1
:10473000810881110C9437599091291A8091281A77
:1047400098130C9455590C9458599091291A8091AA
:10475000281A98130C9437590C945C599091291A83
:104760008091281A98130C9437590C94305AE09180
:10477000D002F091D102EF3F5FEFF50711F40C94F6
:104780003759EE0FFF1FE65AF04F808191818B332E
:1047900061E0960714F00C94375905969183808355
:1047A0000F944A750F944A751F9280EB8F93E09196
:1047B000D002F091D102EE0FFF1FE65AF04F818137
:1047C0008F9380818F9387E197E09F938F938E01E2
:1047D0000F5F1F4F1F930F930F948FA7B80185E0B2
:1047E0000F94271B8DB79EB708960FB6F8949EBFFF
:1047F0000FBE8DBF0C943759E091D002F091D102D9
:10480000EF3F9FEFF90711F40C943759EE0FFF1F9C
:10481000E65AF04F808191811816190614F00C9415
:1048200037590597918380830F944A750F944A7581
:104830001F9280EB8F93E091D002F091D102EE0FA6
:10484000FF1FE65AF04F81818F9380818F938FE015
:1048500097E09F938F938E010F5F1F4F1F930F93CE
:104860000F948FA7B80185E00F94271BADB7BEB793
:1048700018960FB6F894BEBF0FBEADBF0C94375953
:104880008091D0029091D102019611F40C94375985
:104890009091291A8091281A98130C9455590C94C8
:1048A000095B8091D0029091D102019611F40C9491
:1048B00037599091291A8091281A98130C945559B8
:1048C0000C940D5B9091291A8091281A98130C94DE
:1048D00037590C94115B80910F0F823411F00C94B6
:1048E0003759E6E0F7E084918F01882351F0082ED4
:1048F000000C990B0E94EEF70F5F1F4FF801849197
:10490000F4CF1092450E1092810880911F028235DB
:1049100009F047C089E480931F028091981C813080
:1049200049F441E050E06CE481E20F94251A40E044
:1049300050E008C040E050E06CE481E20F94251A9A
:1049400041E050E06BE481E20F94251A41E050E031
:104950006EE781E20F94251A41E050E06DE481E2B8
:104960000F94251A41E050E061E481E20F94251A8A
:1049700041E050E066E481E20F94251A41E050E006
:104980006EE481E20F94251A41E050E06FE481E289
:104990000F94251A40E050E064E18AE00F94251A54
:1049A000A7C0893409F0A4C081E48093450E40E09B
:1049B00050E068E08AE00F94251A40905708509024
:1049C00058086090590870905A084092790F509298
:1049D0007A0F60927B0F70927C0F20E030E040E70E
:1049E00052E46091BA027091BB028091BC02909136
:1049F000BD020F9459AF4B015C01E0907D0FF09028
:104A00007E0F00917F0F1091800F6091750F709154
:104A1000760F8091770F9091780F28E63FE03F93D3
:104A20002F93E1E8CE2EEFE0DE2EA30192010F944A
:104A30005B370F94E2780F900F908091450E8E3483
:104A400009F4EEC720E030E040E251E460915B08F9
:104A500070915C0880915D0890915E080F946BAE38
:104A60007B018C0160937D0F70937E0F80937F0F8D
:104A70009093800F8091520889838090BE0290901D
:104A8000BF02A090C002B090C1022091790F309176
:104A90007A0F40917B0F50917C0F6091750F709150
:104AA000760F8091770F9091780FFE013196FF93EA
:104AB000EF930F945B370F94E2780F900F908091F3
:104AC000450E8E3409F4ACC71092450E40E050E01C
:104AD0006AE28AE00F94251A11E01093921D109259
:104AE000951D6AE378E086E20F94271B109339083E
:104AF00010920F0F0C943759809194081092450E24
:104B00008823B9F01092940881E08093051C80916D
:104B10000E0240E050E0813431F469E08AE00F9405
:104B2000251A0C9437596AE28AE00F94251A0C94DE
:104B300037591092EA1C1092951DEBEFF6E0849124
:104B40008F01882351F0082E000C990B0E94EEF77C
:104B50000F5F1F4FF8018491F4CF1092930881E00A
:104B60000E948D9240E050E065E08AE00F94251AA3
:104B70000C94375990912A08992309F42EC28091F8
:104B80002E08823008F429C24734510561057105A9
:104B900009F4A3C09CF54B3251056105710509F478
:104BA00062C09CF4473151056105710509F467C085
:104BB000483151056105710511F00C94375982E0B7
:104BC00090E00E94D2990C94375940335105610509
:104BD000710509F44EC0453351056105710509F4AD
:104BE000BCC14F3251056105710511F00C94375964
:104BF0008FEF9FEF0E94D2990C943759403851059E
:104C00006105710509F441C004F54E355105610592
:104C1000710509F470C14F3551056105710511F039
:104C20000C94375914E410930F0F40E050E06BE000
:104C300084E10F94251A40E050E065E18AE00F948A
:104C4000251A1093450E0C943759423851056105C9
:104C50007105B9F144F14B3A51056105710509F44B
:104C6000C8C00C9437598EEF9FEF0E94D2990C94D4
:104C7000375980E090E00E94D2990C94375981E036
:104C800090E00E94D2990C9437598DEF9FEF90934A
:104C9000110F8093100F40E050E06AE08AE00F941B
:104CA000251A0C94375983E090E09093110F80936C
:104CB000100F40E050E06AE08AE00F94251A0C944F
:104CC00037591092110F1092100F40E050E06AE037
:104CD0008AE00F94251A0C94375940E050E068E0C0
:104CE0008AE00F94251A81E48093450E41E061E04B
:104CF00081E00E949DC91092450E0F94E2780E94B7
:104D00005F961091100F80912E08823011F540E0CF
:104D100050E061E18AE00F94251A80E58093450E0A
:104D200000912B08010F00932B08002E000C110B93
:104D300020E030E0A901CA01B9010E942CCD40E079
:104D400050E069E18AE00F94251A1092450E0C9408
:104D50003759833029F540E050E061E18AE00F9453
:104D6000251A80E58093450E00912C08010F0093D1
:104D70002C08002E000C110B20E030E04CE553EC29
:104D800060E070E088E393EC0E942CCD40E050E0BE
:104D900069E18AE00F94251A1092450E0C94375958
:104DA000843011F00C94375940E050E061E18AE022
:104DB0000F94251A80E58093450E00912D08010F70
:104DC00000932D08002E000C110B20E030E04CE584
:104DD00053EC60E070E080E493E40E942CCD40E06E
:104DE00050E069E18AE00F94251A1092450E0C9468
:104DF00037591092450E80912B0840912C08042FB2
:104E0000081B40912D08142F181B602F002E000C3A
:104E1000770B880B990B0F94E5A72DEC3CEC4CEC31
:104E20005DEB0F94C7A260933308709334088093AE
:104E3000350890933608612F012E000C770B880BF4
:104E4000990B0F94E5A72DEC3CEC4CEC5DEB0F942B
:104E5000C7A260932F087093300880933108909315
:104E600032080023A1F040E050E06FE18AE00F94A7
:104E7000251A07FF07C0202F332721950CF4309502
:104E800008E0020F402F000F550B64E015C01123FE
:104E9000B9F040E050E060E28AE00F94251A17FF75
:104EA00007C0812F992781950CF4909518E0180F71
:104EB000412F110F550B65E08BE10F94251A11C09E
:104EC00014E410930F0F40E050E06BE084E10F9486
:104ED000251A40E050E065E18AE00F94251A10930E
:104EE000450E82E890E09093B7198093B6190F941D
:104EF00057050C94375940912D0880912B08142F99
:104F0000181BC1F040E050E060E28AE00F94251ADF
:104F100017FF07C0A12FBB27A1950CF4B09518E08F
:104F20001A0F412F110F550B65E08BE10F94251AD5
:104F30000C94375914E410930F0F40E050E06BE0ED
:104F400084E10F94251A40E050E065E18AE00F9477
:104F5000251A1093450E0C94375980910F0F843405
:104F600011F00C94375910922E0810922A081092C2
:104F7000450E1092550F1092540F0F940675109213
:104F80005B0F10925A0F0F944A7510925D0F10929A
:104F90005C0F0F944A751092EA1C1092951DE0EF79
:104FA000F6E084918F01882351F0082E000C990BB4
:104FB0000E94EEF70F5F1F4FF8018491F4CF10921B
:104FC00093080E948D9240E050E065E08AE00F94E3
:104FD000251A10920F0F0C943759403E510510F0CE
:104FE0000C943759FA018827EE58FF4F8F4F0D94D4
:104FF000D0B281E080937C080C94375981E0809393
:105000007B080C94375981E080937A080C943759C7
:1050100081E0809379080C94375981E08093780877
:105020000C9437590E94A9FD009751F481E08093B8
:105030007D088091470F81508093470F0C9437591A
:10504000019711F00C94375981E080937D0840E07E
:1050500050E067E381E20F94251A40E050E061E000
:105060008BE10F94251A8091470F81508093470F51
:105070000C9437591092EA1C1092951DE5EEF6E05B
:1050800084918F01882351F0082E000C990B0E9407
:10509000EEF70F5F1F4FF8018491F4CF1092930841
:1050A00081E00E948D9240E050E065E08AE00F943C
:1050B000251A0C94375980913D16882311F40C94CD
:1050C000375941E061E08EE396E10F94A85F8FEFDE
:1050D0009FEF90932C1680932B16E12CF12C0AED68
:1050E00015E19E012F5F3F4F590188248A94982C27
:1050F00022242394312C52E0C52E54E0D52E409129
:10510000DC185091DD186091DE187091DF188091E5
:10511000371890913818A0913918B0913A1884171F
:105120009507A607B70708F00EC1D801E2E31D9264
:10513000EA95E9F72DE2422E552453948091DA1531
:105140008D3409F4A5C04091DC185091DD186091B0
:10515000DE187091DF188091371890913818A0915F
:105160003918B0913A1884179507A607B70708F0C1
:105170008FC09AED692E95E1792E80913718909124
:105180003818A0913918B0913A184091DC18509114
:10519000DD186091DE187091DF1884179507A60757
:1051A000B70788F48093E4189093E518A093E61865
:1051B000B093E7188FE298E10E9443BDD3018D932D
:1051C0003D018A3029F4B1E04B1A510829F45CC042
:1051D000AB50B641C1F3D1CF4091DC185091DD18EE
:1051E0006091DE187091DF1880913718909138180F
:1051F000A0913918B0913A1884179507A607B707F8
:1052000008F49CCF41C05A824982DF92CF92F3EFDB
:105210006F2EF3E07F2EBF92AF92FF92EF920F942A
:10522000BEA789819A810F900F900F900F900F90D9
:105230000F90019609F0B9C00150110909F4CCC0D2
:105240004091DC185091DD186091DE187091DF18E4
:105250008091371890913818A0913918B0913A1868
:1052600084179507A607B70708F0B6C0AAED8A2EDF
:10527000A5E19A2ED701E32D1D92EA95E9F70F9447
:105280006C20019609F0BFCF80E00E9473FAA4C1A0
:10529000E114F104F9F49A828982BF92AF92ADEDE4
:1052A000B5E2BF93AF931F930F930F94BEA789816D
:1052B0009A810F900F900F900F900F900F90019682
:1052C00029F030922C1620922B1604C010922C1626
:1052D00010922B169A828982BF92AF92DF92CF9260
:1052E0001F930F930F94BEA789819A810F900F90FF
:1052F0000F900F900F900F90059711F40C94285B6E
:105300009A828982BF92AF92DF92CF921F930F93BE
:105310000F94BEA789819A810F900F900F900F90E4
:105320000F900F90069711F40C94285B2EE0E21674
:10533000F10409F451C13FEFE31AF30A4FE0E41618
:10534000F1040CF4DCCE1092E4181092E5181092DF
:10535000E6181092E71840E050E0BA018FE298E1B9
:105360000E941DBB80912B1690912C16892B49F41D
:105370000CE310E0BAEDEB2EB5E1FB2E82E3D82E64
:1053800056C00AEF10E05AEDE52E55E1F52E62E326
:10539000362E44244A94542CAE014F5F5F4F6A016D
:1053A000E3EFAE2EE3E0BE2E4BCF8FEF9FEF9A835D
:1053B0008983DF92CF927F926F929F928F920F9408
:1053C000BEA789819A810F900F900F900F900F9038
:1053D0000F90892B09F058CF80E00E9473FAC0909B
:1053E000FA02D090FB02E090FC02F090FD0220E077
:1053F00030E0A901C701B6010F9443B118166CF152
:1054000037C0D701ED2D1D92EA95E9F70F946C2076
:10541000019609F439CF6AED75E185E494E00F94C3
:105420003FA7892B09F430CF01501109A9F240910F
:10543000DC185091DD186091DE187091DF188091B2
:10544000371890913818A0913918B0913A188417EC
:105450009507A607B707A8F2BFCF2DEC3CEC4CE4AC
:105460005DE3C701B6010F9443B118165CF0B4C0F8
:105470002DEC3CEC4CE45DEBC701B6010F94DFA7CB
:1054800087FFAAC040E050E067E18AE00F94251A48
:105490008090FA029090FB02A090FC02B090FD0276
:1054A00020E030E0A901C501B4010F9443B1181602
:1054B0002CF520E030E048EC52E4C501B4010F9433
:1054C000C7A20F9405B00AE010E0CB01B8010F9419
:1054D000A1B2F82EE92E20E030E040E251E4C5010F
:1054E000B4010F94C7A20F9405B0CB01B8010F947B
:1054F000A1B2082FD92EC501B4012AC0240135015B
:1055000077FA709477F8709420E030E048EC52E439
:10551000C301B2010F94C7A20F9405B00AE010E0D6
:10552000CB01B8010F94A1B2F82EE92E20E030E0B3
:1055300040E251E4C301B2010F94C7A20F9405B039
:10554000CB01B8010F94A1B2082FD92EC301B2012B
:105550000F9405B0162FC72E20E030E0A901C50139
:10556000B4010F94DFA787FD03C08DE294E002C071
:1055700088E294E0EF92FF92DF920F93CF921F9315
:105580009F938F9388E996E09F938F938E010F5F8F
:105590001F4F1F930F930F948FA7C8010F941A2AC0
:1055A000B80180E30F94271B8FEF9FEFDC018093FE
:1055B000270290932802A0932902B0932A02109206
:1055C00096082DB73EB7245F3F4F0FB6F8943EBF05
:1055D0000FBE2DBF0C944C5B80918D1681110C94E5
:1055E0003759CDB6DEB680917608909177080E9443
:1055F000EDFDEEE3F6E1DF010D900020E9F78DB758
:105600009EB78A1B9B0BAC01465C594E0FB6F894B3
:105610005EBF0FBE4DBF0DB71EB70F5F1F4FFF938D
:10562000EF9381E996E09F938F931F930F930F94CD
:105630008FA7780154E0E50EF11C0F900F900F90AA
:105640000F900F900F90F7018081882349F0082E6A
:10565000000C990B0F94CBB4D7018D937D01F3CF40
:10566000C8010E94FF928DE896E00E9490920FB6CA
:10567000F894DEBE0FBECDBE0C94375980913D1616
:10568000882311F40C94375980918D1681110C9454
:105690003759CDB6DEB680917608909177080E9492
:1056A000EDFDEEE3F6E1DF010D900020E9F78DB7A7
:1056B0009EB78A1B9B0B9C01265C394E0FB6F89453
:1056C0003EBF0FBE2DBF0DB71EB70F5F1F4FFF931D
:1056D000EF9386E896E09F938F931F930F930F9419
:1056E0008FA7780134E0E30EF11C0F900F900F901C
:1056F0000F900F900F90F7018081882349F0082EBA
:10570000000C990B0F94CBB4D7018D937D01F3CF8F
:10571000C8010E94FF9282E896E00E9490920FB624
:10572000F894DEBE0FBECDBE0C94375940E050E079
:1057300067E381E20F94251A40E050E061E08BE1DD
:105740000F94251A40E050E062E08AE00F94251A99
:1057500081E08093EA1C80937E080C94375981E0A5
:10576000809380080C94375981E080937F080C94D3
:10577000375940E050E062E18AE00F94251A0C941A
:10578000375940E050E06CE18AE00F94251A80E040
:105790000E948D9210929208109291081092900897
:1057A00081E0809393080C9437591092EA1C109270
:1057B000951DE7E7F6E084918F01882351F0082ECC
:1057C000000C990B0E94EEF70F5F1F4FF8018491B8
:1057D000F4CF109293080E94677B81E00E948D9223
:1057E00040E050E065E08AE00F94251A0C943759A8
:1057F00080915A0F90915B0F892B29F010925B0FCB
:1058000010925A0F08C08091301A9091311A9093DB
:105810005B0F80935A0F0F944A75109292080C9464
:10582000375980915C0F90915D0F892B29F0109270
:105830005D0F10925C0F08C080912E1A90912F1A64
:1058400090935D0F80935C0F0F944A7510929108AE
:105850000C9437598091540F9091550F892B29F052
:105860001092550F1092540F1CC080912C1A9091D9
:105870002D1A60912A1A70912B1A681779072CF447
:10588000BC01990F880B990B04C0072E000C880BE4
:10589000990B0F94E5A70F9405B07093550F609383
:1058A000540F0F940675109290080C94375983E7A3
:1058B00096E00E9490920C94375940E050E06EE1DF
:1058C0008AE00F94251A0C94375940E050E065E0C7
:1058D0008AE00F94251A1092EA1C1092951DE8E6B2
:1058E000F6E084918F01882351F0082E000C990B6B
:1058F0000E94EEF70F5F1F4FF8018491F4CF1092D2
:10590000930888E793E090935C0280935B020F9486
:1059100057050C94375940E050E06AE18AE00F9453
:10592000251A0E94CAF880913D16882311F40C9420
:1059300037598091460F8093470F2EE1E22E2FE0DA
:10594000F22E32E3C32E3FE0D32E00E010E041E61A
:10595000842E46E0942E8091460F90E00817190798
:1059600094F56EE376E185EB96E10F94BC58570110
:10597000D7018D919D917D010E94EDFDF501808102
:105980009181D6018D939D936D0180918D1681112A
:1059900013C0F401849191E6A92E96E0B92E8823D4
:1059A00079F0082E000C990B0E94EEF7FFEFAF1A6A
:1059B000BF0AF5018491F3CF8EE396E10F94B663AD
:1059C0000F5F1F4FC8CF87E090E00E94C49A0C94ED
:1059D000375980915B0290915C028036974041F488
:1059E00088E793E090935C0280935B020F945705E5
:1059F00040E050E068E08AE00F94251A81E480934B
:105A0000450E8091E80E8823D1F040E061E081E00E
:105A10000E949DC90F94E2788091450E8E3489F4DE
:105A20008FEF9FEFDC018093270290932802A093D1
:105A30002902B0932A02109296080C944C5B41E024
:105A4000E5CF81E00E948D921092450E8EE596E0A2
:105A50000E9490920F94E2788091450E8E3401F36B
:105A600040E050E06BE08AE00F94251A0C9437591F
:105A700040E050E064E08AE00F94251A0C94375916
:105A800040E050E064E28AE00F94251A81E08093C0
:105A90000F0889E48093450E1F921F928BE494E0D7
:105AA0009F938F938E010F5F1F4F1F930F930F9440
:105AB0002CB5B8018EE20F94271B6091301A7091BB
:105AC000311A072E000C880B990B0F94E5A700E004
:105AD00010E028EC31E440E050E00F94AA230F944A
